:020000040000fa
:080000000002040000000000f2
:020000040000fa
:04000800e20300000f
:020000040000fa
:04000c000c030000e1
:020000040000fa
:040010004e0300009b
:020000040000fa
:040014002c030000b9
:020000040000fa
:040018006e03000073
:020000040000fa
:04001c00e2030000fb
:020000040000fa
:04002000e2030000f7
:020000040000fa
:04002400e2030000f3
:020000040000fa
:04002800e2030000ef
:020000040000fa
:04002c00e2030000eb
:020000040000fa
:04003000e2030000e7
:020000040000fa
:04003400e2030000e3
:020000040000fa
:04003800e2030000df
:020000040000fa
:04003c00e2030000db
:020000040000fa
:04004000e2030000d7
:020000040000fa
:04004400e2030000d3
:020000040000fa
:04004800ac03000005
:020000040000fa
:04004c00e2030000cb
:020000040000fa
:04005000e2030000c7
:020000040000fa
:04005400e2030000c3
:020000040000fa
:04005800e2030000bf
:020000040000fa
:04005c00e2030000bb
:020000040000fa
:04006000e2030000b7
:020000040000fa
:04006400e2030000b3
:020000040000fa
:04006800e2030000af
:020000040000fa
:04006c00e2030000ab
:020000040000fa
:04007000e2030000a7
:020000040000fa
:04007400e2030000a3
:020000040000fa
:040078008e030000f3
:020000040000fa
:04007c00e20300009b
:020000040000fa
:04008000e203000097
:020000040000fa
:04008400e203000093
:020000040000fa
:04008800e20300008f
:020000040000fa
:04008c00e20300008b
:020000040000fa
:04009000e203000087
:020000040000fa
:04009400e203000083
:020000040000fa
:04009800e20300007f
:020000040000fa
:04009c00e20300007b
:020000040000fa
:0400a000e203000077
:020000040000fa
:0400a400e203000073
:020000040000fa
:0400a800e20300006f
:020000040000fa
:0400ac00e20300006b
:020000040000fa
:0400b000e203000067
:020000040000fa
:0400b400e203000063
:020000040000fa
:0400b800e20300005f
:020000040000fa
:0400bc00e20300005b
:020000040000fa
:0400c000e203000057
:020000040000fa
:0400c400e203000053
:020000040000fa
:0400c800e20300004f
:020000040000fa
:0400cc00e20300004b
:020000040000fa
:0400d000e203000047
:020000040000fa
:0400d400e203000043
:020000040000fa
:0400d800e20300003f
:020000040000fa
:0400dc00e20300003b
:020000040000fa
:0400e000e203000037
:020000040000fa
:0400e400e203000033
:020000040000fa
:0400e800e20300002f
:020000040000fa
:0400ec00e20300002b
:020000040000fa
:0400f000e203000027
:020000040000fa
:0400f400e203000023
:020000040000fa
:0400f800e20300001f
:020000040000fa
:0400fc00e20300001b
:020000040000fa
:04010000e203000016
:020000040000fa
:04010400e203000012
:020000040000fa
:04010800e20300000e
:020000040000fa
:04010c00e20300000a
:020000040000fa
:04011000e203000006
:020000040000fa
:04011400e203000002
:020000040000fa
:04011800e2030000fe
:020000040000fa
:04011c00e2030000fa
:020000040000fa
:04012000e2030000f6
:020000040000fa
:04012400e2030000f2
:020000040000fa
:04012800e2030000ee
:020000040000fa
:04012c00e2030000ea
:020000040000fa
:04013000e2030000e6
:020000040000fa
:04013400e2030000e2
:020000040000fa
:04013800e2030000de
:020000040000fa
:04013c00e2030000da
:020000040000fa
:04014000e2030000d6
:020000040000fa
:04014400e2030000d2
:020000040000fa
:04014800e2030000ce
:020000040000fa
:04014c00e2030000ca
:020000040000fa
:04015000e2030000c6
:020000040000fa
:04015400e2030000c2
:020000040000fa
:04015800e2030000be
:020000040000fa
:04015c00e2030000ba
:020000040000fa
:04016000e2030000b6
:020000040000fa
:04016400e2030000b2
:020000040000fa
:04016800e2030000ae
:020000040000fa
:04016c00e2030000aa
:020000040000fa
:04017000e2030000a6
:020000040000fa
:04017400e2030000a2
:020000040000fa
:04017800e20300009e
:020000040000fa
:04017c00e20300009a
:020000040000fa
:04018000e203000096
:020000040000fa
:04018400e203000092
:020000040000fa
:04018800e20300008e
:020000040000fa
:04018c00e20300008a
:020000040000fa
:04019000e203000086
:020000040000fa
:04019400e203000082
:020000040000fa
:04019800e20300007e
:020000040000fa
:04019c00e20300007a
:020000040000fa
:0401a000e203000076
:020000040000fa
:0401a400e203000072
:020000040000fa
:0401a800e20300006e
:020000040000fa
:0401ac00e20300006a
:020000040000fa
:0401b000e203000066
:020000040000fa
:0401b400e203000062
:020000040000fa
:0401b800e20300005e
:020000040000fa
:04020800e20300000d
:020000040000fa
:04020c000c030000df
:020000040000fa
:040210004e03000099
:020000040000fa
:040214002c030000b7
:020000040000fa
:040218006e03000071
:020000040000fa
:04021c00e2030000f9
:020000040000fa
:04022000e2030000f5
:020000040000fa
:04022400e2030000f1
:020000040000fa
:04022800e2030000ed
:020000040000fa
:04022c00e2030000e9
:020000040000fa
:04023000e2030000e5
:020000040000fa
:04023400e2030000e1
:020000040000fa
:04023800e2030000dd
:020000040000fa
:04023c00e2030000d9
:020000040000fa
:04024000e2030000d5
:020000040000fa
:04024400e2030000d1
:020000040000fa
:04024800ac03000003
:020000040000fa
:04024c00e2030000c9
:020000040000fa
:04025000e2030000c5
:020000040000fa
:04025400e2030000c1
:020000040000fa
:04025800e2030000bd
:020000040000fa
:04025c00e2030000b9
:020000040000fa
:04026000e2030000b5
:020000040000fa
:04026400e2030000b1
:020000040000fa
:04026800e2030000ad
:020000040000fa
:04026c00e2030000a9
:020000040000fa
:04027000e2030000a5
:020000040000fa
:04027400e2030000a1
:020000040000fa
:040278008e030000f1
:020000040000fa
:04027c00e203000099
:020000040000fa
:04028000e203000095
:020000040000fa
:04028400e203000091
:020000040000fa
:04028800e20300008d
:020000040000fa
:04028c00e203000089
:020000040000fa
:04029000e203000085
:020000040000fa
:04029400e203000081
:020000040000fa
:04029800e20300007d
:020000040000fa
:04029c00e203000079
:020000040000fa
:0402a000e203000075
:020000040000fa
:0402a400e203000071
:020000040000fa
:0402a800e20300006d
:020000040000fa
:0402ac00e203000069
:020000040000fa
:0402b000e203000065
:020000040000fa
:0402b400e203000061
:020000040000fa
:0402b800e20300005d
:020000040000fa
:0402bc00e203000059
:020000040000fa
:0402c000e203000055
:020000040000fa
:0402c400e203000051
:020000040000fa
:0402c800e20300004d
:020000040000fa
:0402cc00e203000049
:020000040000fa
:0402d000e203000045
:020000040000fa
:0402d400e203000041
:020000040000fa
:0402d800e20300003d
:020000040000fa
:0402dc00e203000039
:020000040000fa
:0402e000e203000035
:020000040000fa
:0402e400e203000031
:020000040000fa
:0402e800e20300002d
:020000040000fa
:0402ec00e203000029
:020000040000fa
:0402f000e203000025
:020000040000fa
:0402f400e203000021
:020000040000fa
:0402f800e20300001d
:020000040000fa
:0402fc00e203000019
:020000040000fa
:04030000e203000014
:020000040000fa
:04030400e203000010
:020000040000fa
:04030800e20300000c
:020000040000fa
:04030c00e203000008
:020000040000fa
:04031000e203000004
:020000040000fa
:04031400e203000000
:020000040000fa
:04031800e2030000fc
:020000040000fa
:04031c00e2030000f8
:020000040000fa
:04032000e2030000f4
:020000040000fa
:04032400e2030000f0
:020000040000fa
:04032800e2030000ec
:020000040000fa
:04032c00e2030000e8
:020000040000fa
:04033000e2030000e4
:020000040000fa
:04033400e2030000e0
:020000040000fa
:04033800e2030000dc
:020000040000fa
:04033c00e2030000d8
:020000040000fa
:04034000e2030000d4
:020000040000fa
:04034400e2030000d0
:020000040000fa
:04034800e2030000cc
:020000040000fa
:04034c00e2030000c8
:020000040000fa
:04035000e2030000c4
:020000040000fa
:04035400e2030000c0
:020000040000fa
:04035800e2030000bc
:020000040000fa
:04035c00e2030000b8
:020000040000fa
:04036000e2030000b4
:020000040000fa
:04036400e2030000b0
:020000040000fa
:04036800e2030000ac
:020000040000fa
:04036c00e2030000a8
:020000040000fa
:04037000e2030000a4
:020000040000fa
:04037400e2030000a0
:020000040000fa
:04037800e20300009c
:020000040000fa
:04037c00e203000098
:020000040000fa
:04038000e203000094
:020000040000fa
:04038400e203000090
:020000040000fa
:04038800e20300008c
:020000040000fa
:04038c00e203000088
:020000040000fa
:04039000e203000084
:020000040000fa
:04039400e203000080
:020000040000fa
:04039800e20300007c
:020000040000fa
:04039c00e203000078
:020000040000fa
:0403a000e203000074
:020000040000fa
:0403a400e203000070
:020000040000fa
:0403a800e20300006c
:020000040000fa
:0403ac00e203000068
:020000040000fa
:0403b000e203000064
:020000040000fa
:0403b400e203000060
:020000040000fa
:0403b800e20300005c
:020000040000fa
:100400000fb220000eff27000e0188000000000040
:10041000000020000000e000020032000001200087
:100420002002880014000700e80007000000e00038
:1004300003003a00408a2200010020000200370039
:100440000000200001002000810f70000100320038
:1004500014000700000020000000e000020032004d
:100460000000020000000000562902000000000009
:100470000040da000000fe004440a90020002000f7
:100480000000e0000300320010002000900188000e
:100490004440a800000006008a1f78008b1f7800e7
:1004a00000000600a1028800800478000000eb0034
:1004b0001f003700e284440054a0b4009905ba003c
:1004c000e284440054a0b4009906ba00e2844400d7
:1004d00054a0b4000006eb00476fde00fd07b20039
:1004e000ae018800636ce10003003a00eaff0700f8
:1004f0000000eb000e003700606ce10008003a00dd
:10050000004deb000a05e800020039003420ec0041
:100510000af0a0008b05e900f9ff3e000400370057
:100520006168e100010032000086eb000b0007006b
:1005300019c7ba001905ba000e04e00003003a001a
:100540000a00e000dbff3a0000000600fe07b200f0
:10055000ae0288008a047800f5ff37000cd0a300b3
:10056000e20f4d001c00390089027800354dba00b9
:100570000a05e800020039003420ec000af0a0006f
:100580008b05e9000f003200254dba000a05e8008e
:10059000020039003420ec000af0a0008b05e900cd
:1005a000080032000c00e0000600320015cdba0051
:1005b0000a05e800020039003420ec000af0a0002f
:1005c0008b05e9008984e80054a0b4000b00e0002a
:1005d000e2ff3a00000006009902ba00055d7800cb
:1005e0008b05e900f7ff3200c82ade00055d7800c0
:1005f0008b05e900f3ff32000c00e000f1ff320050
:1006000019ddba00eeff37004428040000000000a6
:1006100028240400000000003600f800809fbe007f
:10062000829fbe00849fbe00869fbe000000fa002d
:100630008020a9000000eb005a1307000080fa0098
:100640004f03be004f02be004f01be004f00be0070
:100650003600f900004006003600f800809fbe001a
:10066000829fbe00849fbe00869fbe000000fa00ed
:10067000511307008040a900100020004913070013
:100680000080fa004f03be004f02be004f01be00c3
:100690004f00be003600f900004006003600f800aa
:1006a000809fbe00829fbe00849fbe00869fbe00ca
:1006b0000000fa008060a900200020003913070024
:1006c0000080fa004f03be004f02be004f01be0083
:1006d0004f00be003600f900004006003600f8006a
:1006e000809fbe00829fbe00849fbe00869fbe008a
:1006f0000000fa008080a9003000200029130700c4
:100700000080fa004f03be004f02be004f01be0042
:100710004f00be003600f900004006003600f80029
:10072000809fbe00829fbe00849fbe00869fbe0049
:100730000000fa00100907008680a9000080fa0076
:100740004f03be004f02be004f01be004f00be006f
:100750003600f900004006003600f800809fbe0019
:10076000829fbe00849fbe00869fbe000000fa00ec
:10077000c04080000000e00002003200c040800065
:1007800000000100f0b12000104078008040e80037
:10079000f0b1200001487800e0b1200011c0b300a2
:1007a000014878008500a9000080fa004f03be00d0
:1007b0004f02be004f01be004f00be003600f900e0
:1007c000004006000040da000000fe0000000500c6
:1007d0006022b800060220000000d0008180d20014
:1007e0000482d2008582d2000000a00002025200e2
:1007f00083825a00030031000202420083824a00d1
:100800000000a1000603e900f3ff3a000000060023
:100810008001780002003700b15978000201e90038
:100820000200e000fcff3a000000060080017800b2
:1008300002003700815978000201e9000200e0005f
:08084000fcff3a000000060075
:020000040000fa
:100848000e00fa00300798004107980052079800f8
:10085800434f980065004700800178000e0178003a
:100868003e009000ce0090008a0707005e4090008e
:10087800ce499000004178008e0078005e0090001c
:10088800870f07005e4090000080fa000000060015
:100898000600fa0010079800210798000e0178005a
:1008a80021c0b300a0c2b300f30807009e4078003f
:1008b8001e009000014878009e4090002e00900095
:1008c800014878000080fa00000006000e00fa00d7
:1008d800600798006e009000006890000080fb00a0
:1008e8002007980010002000400798006e00900034
:1008f800630f40000e28ef00820120008000eb000b
:1009080040ad2000c7ff07006e009000104078003f
:100918000080fb000000400000407800ee406000ce
:1009280000cab30080c070006e00900010409000b4
:100938000080fb004200de0000407800614060005b
:1009480000c070008040780040ad20000148780069
:100958006e009000104090000080fb004600dd0013
:10096800804078006e009000204090000080fb00de
:100978004400dd00004078000043b20000c0700071
:100988008040780050ad2000014878006e0090004b
:10099800b01090002010900043c0b30052ad20006a
:1009a800a7ff0700604798006e4090000080fb009a
:1009b8000000e800ee009000816890008180fb0054
:1009c800c408de000141780041ad20008270780043
:1009d8006e4090000080fb000080e800ee00900070
:1009e800816890008180fb00c408dd000141780027
:1009f80041ad2000827078006e40900000c0e80091
:100a0800304798002e009000204798001e003700bd
:100a18003e4090000080fb00be4090008180fb00bb
:100a280042ad200062c178009e00780091407800b5
:100a38008180fb00c408de0081407800014171001c
:100a480041ad2000827078003e4090000040e800f0
:100a5800304798003e4090000080fb009e007800e0
:100a6800914078008180fb00c408dd0001417800d6
:100a780041ad2000827078002e4090006840500000
:100a8800204798001e0fe8002e409000e74f5000c6
:100a9800dfff3e003e4090000080fb00be4090001b
:100aa8008180fb0042ad2000e2c07800014178005f
:100ab800ee009000916890008180fb00c308dd0083
:100ac80081407800e8c060008140710001417800f1
:100ad80041ad2000827078006e4090000080fb00dd
:100ae8004300dd00800078002e0090000080400068
:100af8007500400020079800e80047006a0047009a
:100b080017c0b3000043eb0015c0b3000102780022
:100b1800800178002e01900041ad200000c9b3008b
:100b2800870d07000080fa00000006000400fa00a4
:100b3800000f78002147980030af2000104078005f
:100b48000080fb004500dd000040780002c2b300d1
:100b580082406000e0ae2000104078000080fb007a
:100b68004300dd00004078007840600080c07000dd
:100b7800f0ae2000104078000080fb004200dd004d
:100b8800004078006440600080c0700000af200022
:100b9800104078006340600000c07000804078001a
:100ba8001e007800014878009e00e80010af200081
:100bb800104078000080fb004600dd00004178000e
:100bc80020af2000104078000080fb004500dd00c9
:100bd800004078000042b200004171002e409000b1
:100be8000080fb0000004000004078007e4060006c
:100bf80000407100804878000080fa00000006007c
:100c08001000fa0040079800510798006207980002
:100c1800730798000040eb001047980040c6b300e7
:100c2800004f780000c1b30035080700204798003e
:100c38008040eb0040ad2000bcff07000001200011
:100c48002007980040af20009040780064004700db
:100c580017c0b3000043eb0081427800000278001f
:100c68008001eb000201200041ad200080c9b300e3
:100c7800330d0700104798001e4090000004e00064
:100c8800080032001e4090003800370090c3b300bf
:100c98001b0807000044b2000004e0000a003a0004
:100ca80001003700000000001e80fb000000ea0081
:100cb8004f00de00004078001e4fe9000004e0000d
:100cc800f2ff3a000100370000000000de0090004b
:100cd8004e009000eefe0700ae40900000cfb3003b
:100ce80000c06000b040b3008040780000c1b3008d
:100cf8002b0807008a0c0700ee0090008048780057
:100d0800ae40900000cfb30000c06000c040b30008
:100d18008040780000c1b30021080700800c07005c
:100d2800fe0090008048780000012000200798000d
:100d380040af200010417800e400470066004700fb
:100d48008043eb000043eb00824278000102780008
:100d5800800178000001eb008000eb000040eb0010
:100d6800f70c0700104798001e4090000080fa001a
:100d7800000006000a00fa00200798006147980062
:100d880072479800034f9800144f98000040eb00fa
:100d9800004f780000012000100798006e40900076
:100da8000080fb000000e0001500320081092000ef
:100db800810f500021003a00fe40900040ad200015
:100dc8005aff070040af2000104178002e00900025
:100dd8008e80e80017c0b300d6c9b30082427800fd
:100de80001027800800178000201200041ad200056
:100df80080c9b300d20c0700004f78001d003700ef
:100e080040af2000104178002e0090008e80e8004e
:100e180017c0b300d6c9b300824278000102780037
:100e2800800178000001eb008000eb000040eb003f
:100e3800c30c0700004f78000e00370040af2000b9
:100e4800104178002e0090008e80e80017c0b30093
:100e5800d6c9b30082427800010278008001780088
:100e68000001eb008000eb006e409000b40c07001e
:100e7800004f7800f0cdb3009e40780080cf50003e
:100e880002003a000040eb007f0037001e40780067
:100e98000004e00002003d0000c0eb007a003700cb
:100ea800000c2000100798000e4890000004e00095
:100eb800020032001e48900001003700f0c9b3005c
:100ec80041af2000114178008e80e8008043eb009c
:100ed80000437800824278000102780043ad200088
:100ee8000001eb0041ad20000040eb00940c07002e
:100ef800004f780040ad2000904078002e00900010
:100f08002140980050ad2000904078002e009000bd
:100f1800314098001e4078000004e00003003500ce
:100f28001e009000ef0f500002003e0000c0eb00d2
:100f3800550037001e009000670040004300de00a7
:100f48000040780080c0e9002e0090000150980011
:100f58002e00900000509000ec4f50000300360027
:100f68002e009000c1c0b300015098002e009000e0
:100f7800005090000081fb0061ad20002e00900021
:100f88006400400020fe07000e4890000004e000c6
:100f9800140032002e009000f30040002e00900054
:100fa800740040003afe07002e0090002040900098
:100fb8008080fb00800f200000806000c280de007f
:100fc8002e009000005090000080fb00808f5000a1
:100fd8000200320000c0eb002b00370010c0b30045
:100fe80029003700000220001007980040af2000b9
:100ff800104178002e009000710040008e80e800bb
:101008008043eb001e4b900082427800010278007a
:10101800800178000001eb008000eb000040eb004d
:10102800470c0700004f78002e009000f3004000a6
:101038002e0090007400400015fe07001e40780046
:101048000004e00002003d0000c0eb000e00370085
:101058002e009000204090008080fb00800f200030
:1010680000806000c280de002e00900000509000da
:101078000080fb00808f50000200320000c0eb00af
:101088000100370010c0b3000080fa00000006001d
:101098000a00fa00200798006147980072479800f4
:1010a800034f9800144f98000040eb00004f780061
:1010b800000c2000100798006e4090000080fb0094
:1010c8000000e0001a00320081092000810f500062
:1010d8002b003a00fe40900040ad200093fe070030
:1010e8000e4890000004e000020032001e48900004
:1010f800010037000040eb0041af200011417800ab
:101108008e80e8008043eb0000437800824278003c
:101118000102780043ad20000201200041ad20000b
:1011280080c9b300060c0700004f7800270037007d
:101138000e4890000004e000020032001e489000b3
:10114800010037000040eb0041af2000114178005a
:101158008e80e8008043eb000043780082427800ec
:101168000102780043ad20000001eb008000eb0095
:101178000040eb00f20b0700004f78001300370027
:101188000e4890000004e000020032001e48900063
:10119800010037000040eb0041af2000114178000a
:1011a8008e80e8008043eb0000437800824278009c
:1011b8000102780043ad20000001eb008000eb0045
:1011c8006e409000de0b0700004f7800f0cdb300b2
:1011d8009e40780080cf500002003a000040eb00ab
:1011e8006500370040ad2000904078002e00900048
:1011f8002140980050ad2000904078002e009000cb
:10120800314098001e4078000004e00003003500db
:101218001e009000ef0f500002003e0000c0eb00df
:10122800550037001e009000670040004300de00b4
:101238000040780080c0e9002e009000015098001e
:101248002e00900000509000ec4f50000300360034
:101258002e009000c1c0b300015098002e009000ed
:10126800005090000081fb0061ad20002e0090002e
:101278006400400064fd07000e4890000004e00090
:10128800140032002e009000f30040002e00900061
:10129800740040007efd07002e0090002040900062
:1012a8008080fb00800f200000806000c280de008c
:1012b8002e009000005090000080fb00808f5000ae
:1012c8000200320000c0eb002b00370010c0b30052
:1012d80029003700000220001007980040af2000c6
:1012e800104178002e009000710040008e80e800c8
:1012f8008043eb001e4b9000824278000102780088
:10130800800178000001eb008000eb000040eb005a
:101318008b0b0700004f78002e009000f300400070
:101328002e0090007400400059fd07001e40780010
:101338000004e00002003d0000c0eb000e00370092
:101348002e009000204090008080fb00800f20003d
:1013580000806000c280de002e00900000509000e7
:101368000080fb00808f50000200320000c0eb00bc
:101378000100370010c0b3000080fa00000006002a
:101388000800fa00200798003107980000022000a2
:101398001007980040ad200011ccb3000148780038
:1013a8002e0090009040780050ad20000148780051
:1013b8002e0090000000e8009040780060ad20000a
:1013c8000148780040af2000904078000e80e80087
:1013d80017c0b3000043eb00814278000002780098
:1013e800be0190008201200041ad200000c9b30079
:1013f800530b0700004f78001e4078000004e000ff
:1014080002003d00d0cbb300010037000040eb00e4
:101418000080fa00000006001200fa007007980029
:10142800010f98000040eb00104798004900370072
:101438007e00900071004000eb004700d0ff0700dd
:10144800204798002e4090000004e000020032007f
:101458002e4090004300370040ad200061ccb3001f
:10146800014878000e089000904078003e489000af
:1014780080c0680050ad2000014878000e08900038
:101488000000e800904078004e48900080c0680056
:1014980060ad2000014878007e00900090509000d8
:1014a80070ad2000014878007e009000a0509000a8
:1014b80080ad200001487800000220002007980035
:1014c80040af200010417800e40047006600470064
:1014d80017c0b3000043eb00824278000102780095
:1014e800800178008202200041ad200000c9b300cd
:1014f800130b0700004f78001e4078000004e0003e
:1015080002003d00e0cbb300160037000e08900043
:101518000080e800000f9800fe4090007e009000d8
:101528002050900080cf500005003a00ee40900017
:101538007e0090001050900080cf500002003200d2
:10154800e0cbb300070037001e4090000040e800e1
:10155800104798001e409000e14f5000b4ff36003d
:101568001e4078000080fa00000006000a00fa0019
:1015780020079800310798004207980010022000c1
:10158800100798004e00900051cab3000148780037
:1015980040ad200051ccb300014878003e009000d7
:1015a8009040780050ad2000014878003e0090003f
:1015b8000000e8009040780060ad20000148780005
:1015c8003e0090000080e8009040780000cfb30013
:1015d80080c0600070ad2000014878002e009000a7
:1015e8007100400043c0b30022c0b30080007800ff
:1015f80070ad20002a0c07000e80e80017c0b30069
:101608000043eb0080c2eb000002780043ad2000ed
:10161800c202200041ad200010c9b300c80a07006b
:10162800004f7800e0cdb3009e40780080cf500096
:1016380007003a001e0090000000e000040032009d
:1016480040ad2000904078004e009000014878009e
:101658001e4078000080fa00000006001000fa0022
:101668004007980051079800424f9800534f980040
:1016780074079800000220003007980000c9b300e2
:101688002047980040af20009040780031479800ec
:101698007e00900051cab300014878000040eb007a
:1016a80010479800440037004e0090007100400039
:1016b800e400470032ff0700004f78001e40780022
:1016c8000004e00040003a001e409000e14f500046
:1016d80008003a0010c9b300204798001002200003
:1016e80030079800de489000414f980000c0eb009a
:1016f8003047980040ad200041ccb3000148780045
:101708005e009000904078004e40900080c06800d5
:1017180050ad2000014878005e0090000000e8000d
:10172800904078005e40900080c0680060ad200066
:10173800014878004e4890000080fb004500dd001d
:101748008040780070ad2000014878004e0090007d
:101758007100400053c0b30022c0b300800078007d
:1017680070ad2000ce0b07006600470017c0b3001d
:101778000043eb00be4290000002780043ad200019
:10178800b202200041ad20002e4090006c0a0700f4
:10179800004f78001e4078000004e0000c003a007a
:1017a8005e0090000080e800500798001e409000fe
:1017b8000040e800104798001e409000e14f50009c
:1017c800b9ff3600030037000000000001003700b1
:1017d80000000000e0cdb3009e40780080cf5000ac
:1017e80007003a003e0090000000e00004003200cc
:1017f80040ad2000904078007e00900001487800bd
:101808001e4078000080fa00000006001400fa006c
:1018180040079800214f98006207980073079800c6
:10182800040f9800150f9800100220003007980048
:101838001e08900051cab300014878004e0090007d
:1018480071004000e4004700cdfe0700004f78001b
:101858001e4078000004e000020032001e407800bc
:101868007400370040ad200031ccb3000148780047
:101878002e4890000080fb004600dd008040780084
:1018880050ad20000148780063c0b30052ad20007d
:101898006e009000fe009000e9fb070010479800da
:1018a8000e089000904078004e40900000c06800fc
:1018b800204798001e4090000080fb000000e800d0
:1018c8009e4090008180fb008100e80042ad20002e
:1018d800e2c0780001417800ae4090008180fb00b2
:1018e800c208de0081407800814071000141780023
:1018f80041ad2000827078001e4090000080fb00ff
:101908000080e800ae4090008180fb00c608dd0042
:101918000141780041ad2000827078000e089000e7
:101928000000e800904078005e40900000c0680029
:10193800204798001e4090000080fb000080e800cf
:101948009e4090008180fb008180e80042ad20002d
:10195800e2c0780001417800ae4090008180fb0031
:10196800c208de00814078008140710001417800a2
:1019780041ad2000827078001e4090000080fb007e
:1019880063004000ae4090008180fb00c608dd0087
:101998000141780041ad2000827078004e0090002f
:1019a800f10040001e4090000080fb0063004000f2
:1019b8000001780040ad20000000410063c0b30082
:1019c80022c0b300360b07001e4090000080fb00c9
:1019d8004300dd00a002b000e600470017c0b300d6
:1019e8000043eb0080c2eb000102780043ad200009
:1019f8000001780041ad200010c9b300d0090700ec
:101a080030479800be409000e0cdb30080cf500032
:101a180007003a003e0090000000e0000400320099
:101a280040ad2000904078001e08900001487800e2
:101a38003e4090000080fa00000006001000fa0006
:101a480020079800614798004207980053079800bc
:101a5800444f9800750798004e4890000080fb009e
:101a68000080e8004400dd000000e800100798004e
:101a780040ad200021ccb300014878006e409000b2
:101a88000080fb004600dd008040780050ad20005b
:101a98000148780063c0b30052ad20004e009000aa
:101aa800de00900066fb0700004f78001e80fb00f8
:101ab8000000e8009e80fb008100e80042ad2000a5
:101ac800e2c0780001417800ce4890008180fb0098
:101ad800c208de0081407800814071000141780031
:101ae80041ad2000827078001e80fb000080e80075
:101af800ce4890008180fb00c608dd0001417800d7
:101b080041ad2000827078002e009000f100400066
:101b18001e80fb000080e8000001780040ad200036
:101b28000000410063c0b30022c0b300dc0a070014
:101b380040af2000104178001e80fb004300dd000c
:101b48002002b0008e80e80017c0b3000043eb000d
:101b58008242780001027800fe01900000017800be
:101b680041ad200010c9b30075090700104798005f
:101b78001e4090000080fa00000006000a00fa00eb
:101b88000e01780091c0b30010c0b3003a040700fa
:101b98000080fa00000006001400fa0060079800b0
:101ba800614f9800724f9800030f980024579800cf
:101bb800355798000000eb00000f78000000eb009c
:101bc800100798000040eb006047980010c0b30071
:101bd8007047980080c9b300004f98000040eb00a0
:101be800104f980010c0b300ef06070042ad200068
:101bf80021c0b30070c3b3001f0407000e28ef0014
:101c08000040eb00604798001b0037006e409000d2
:101c18000080fb007500b90000007800ee0090001d
:101c2800008040008040eb00014878006e40900042
:101c38000080fb007500b90000007800ee009000fd
:101c4800008040008040eb00114098006e409000fa
:101c58000080fb007500b90000007800ee009000dd
:101c6800008040008040eb00015098006e409000da
:101c78000040e80060479800ee4090006e489000f1
:101c880080cf5000e1ff39000000eb0010079800fa
:101c98007e4890000081fb00100020000100200019
:101ca800820178008301e90003003300000040004e
:101cb80081804800fbff3700200798006e4890009d
:101cc8000080fb009e0f5000370036002e00900069
:101cd8000000e900200798002e5090000080fb00cb
:101ce8000000e9004f00de00004178001e00780087
:101cf8007500b90000007800ee00900000804000f8
:101d08001e4a9000824178007e4990008e489000db
:101d180018fc07000000fb000000e000140032007f
:101d2800e10f500008003200e10f400013003a00b4
:101d38001e0090000000e8001007980090c9b3004a
:101d4800004f98000e0037001e0fe8001e48900054
:101d58000004e000030032000040eb00004f980050
:101d68000700370090c9b300004f980004003700ff
:101d780090c9b300004f9800010037000000000030
:101d88000e08900000000100204f98002e009000df
:101d98000000e000050032002e4890000004e0003a
:101da800c6ff3a0001003700000000007e409000a6
:101db8000040e900704798001e0090000000e00015
:101dc800350032001e0090006101b8007e48900086
:101dd8000082fb001000200001002000840278002f
:101de8008502e900030033000000400081804800bc
:101df800fbff37004e0add004200de0000007200e3
:101e0800c208de00800f5100818f5900060039009a
:101e18007e4890000040e800704f9800a0c9b300c9
:101e2800004f98001e0037001e0090006101b800a6
:101e38007e4890000082fb00100020000100200076
:101e4800840278008502e9000300330000004000a6
:101e580081804800fbff37004d0add004300de00ab
:101e680000007200c308de00800f5100818f590006
:101e7800060031007e4890000040e900704f98004d
:101e8800c0c9b300004f980005003700b0c9b300bf
:101e9800004f9800020037000040eb0070479800a0
:101ea8006e4890000080fb009e0f5000070036002f
:101eb8007e4090000004e000040032000e0890000c
:101ec800000001000004e0006fff3a001e007800e7
:101ed8000000e0000c003a00f04080000000e9003b
:101ee800f0408800f04080000000e00008003a0060
:101ef8000040eb002c060700ba050700a0002000f0
:101f0800f040880002003700a0002000f040880060
:101f18001e0078000080fa00000006001400fa0095
:101f280060079800614f9800724f9800030f98005f
:101f380024579800355798000000eb00000f7800f0
:101f48000000eb00100798000040eb006047980085
:101f580080c9b300704798000040eb00104f98000c
:101f680010c0b300204f980010c0b3000e06070041
:101f780042ad200021c0b30070c3b3003e03070088
:101f88000e28ef0010c0b3005d030700004f980053
:101f98008e489000f0ccb30000c06000004f98005d
:101fa8002e5090000004e000040032000e4890001b
:101fb8000054a000004f9800030037000e4890001e
:101fc8000044a000004f98008e48900010c0b30055
:101fd800730307000040eb00604798001b003700c0
:101fe8006e4090000080fb007500b900000078008a
:101ff800ee009000008040008040eb00014878002f
:102008006e4090000080fb007500b9000000780069
:10201800ee009000008040008040eb0011409800e6
:102028006e4090000080fb007500b9000000780049
:10203800ee009000008040008040eb0001509800c6
:102048006e4090000040e80060479800ee40900025
:102058006e48900080cf5000e1ff39007e48900024
:102068000081fb00100020000100200082017800a0
:102078008301e9000300330000004000818048002c
:10208800fbff3700200798006e4890000080fb0097
:102098009e0f5000370036002e0090000000e90027
:1020a800200798002e5090000080fb000000e900f7
:1020b8004f00de00004178001e0078007500b9006e
:1020c80000007800ee009000008040001e4a90005a
:1020d800824178007e499000fe409000ecfb0700aa
:1020e8000000fb000000e00014003200e10f500087
:1020f80008003200e10f400013003a001e00900073
:102108000000e8001007980090c9b30070479800d5
:102118000e0037001e0fe8001e4890000004e00083
:10212800030032000040eb007047980007003700ba
:1021380090c9b300704798000400370090c9b300f5
:102148007047980001003700000000000e0890005a
:1021580000000100204f98002e0090000000e000d1
:10216800050032002e4890000004e000c6ff3a0047
:10217800010037000000000010c0b300e0020700b3
:10218800004f98008e489000f0ccb30000c060006b
:10219800004f98008e48900010c0b300000307005d
:1021a8001e0078000000e00009003a00f0408000be
:1021b8000000e900f0408800f04080000000e000e6
:1021c80005003a00a0002000f04088000200370017
:1021d800a0002000f04088001e0078000080fa006f
:1021e800000006000c00fa00500798005e009000fe
:1021f800d0409000014f780030af200011c0b300ec
:10220800014878005e009000c1ae20000600090079
:10221800b05878007000b1001e407800e34f5000bd
:10222800020036000040eb00004f7800e0ae2000ce
:10223800104078000004e00004003200e0ae200006
:1022480010407800e14f500003003a00f0ae200043
:1022580011c0b300014878005e0090001040900063
:102268000080fb00e80f50006e003200e80f5000bd
:1022780005003c000000e000b2003200e60f50000c
:102288008c003200f8003700ec0f50001d003200bf
:10229800ef0f500003003200e90f50003d003200fc
:1022a800f100370000c2b3001047980000cfb30018
:1022b8002047980010c0b30030479800d0c4b3003e
:1022c8004047980030c0b3005047980020c0b30082
:1022d8006047980010c0b30070479800e0ae200037
:1022e80010407800e14f50000300360040c0b300b2
:1022f800004f9800a700370070c0b300004f980047
:10230800a400370000c2b3001047980000ccb30007
:1023180020479800c0ae2000104078000004e0007c
:1023280008003a0030af20008040eb0001487800f8
:102338000040eb0030479800a0cfb300404798001a
:102348000400370020c0b30030479800b0c9b3007c
:102358004047980040c0b3005047980030c0b300d1
:102368006047980020c0b30070479800e0ae200096
:1023780010407800e14f50000300360040c2b3001f
:10238800004f98008300370070c2b300004f9800d8
:102398008000370000c2b3001047980000c9b3009e
:1023a80020479800c0ae2000104078000004e000ec
:1023b80008003a0030af20008040eb000148780068
:1023c80010c0b3003047980090c3b300404798004e
:1023d8000400370030c0b3003047980010c4b30081
:1023e8004047980050c0b3005047980050c0b30011
:1023f8006047980040c0b30070479800e0ae2000e6
:1024080010407800e14f50000300360040c3b3008d
:10241800004f98005f00370070c3b300004f98006a
:102428005c00370000c2b3001047980000c8b30032
:1024380020479800c0ae2000104078000004e0005b
:1024480008003a0030af20008040eb0001487800d7
:1024580010c0b3003047980070c7b30040479800d9
:102468000400370030c0b3003047980080ceb30076
:102478004047980060c0b3005047980050c0b30070
:102488006047980050c0b30070479800e0ae200045
:1024980010407800e14f50000300360040c3b300fd
:1024a800004f98003b00370070c3b300004f9800fe
:1024b8003800370000c2b3001047980000c6b300c8
:1024c80020479800c0ae200010407800e14f50002f
:1024d80008003a0030af20008040eb000148780047
:1024e80010c0b3003047980040cfb3004047980071
:1024f8000400370050c0b3003047980050c3b30001
:102508004047980080c0b3005047980050c0b300bf
:102518006047980080c0b30070479800e0ae200084
:10252800104078000004e00003003200f0c3b3005c
:10253800004f980017003700f0cbb300004f980009
:102548001400370000c3b300104798000040eb00a8
:102558002047980070c0b3003047980000cdb30002
:102568004047980000c2b30050479800c0c0b3006d
:102578006047980040c2b3007047980000c0eb0065
:10258800004f980030af20008040eb0001487800f1
:10259800000000009e409000c0ae2000104078006f
:1025a80000c07000104798002e40900080407800ce
:1025b80000cfb30080c06000e0ae2000104078007b
:1025c80080c07000f0ae2000104078000080fb0052
:1025d8004300dd000040780000c0700020479800ec
:1025e800ee40900040af2000014878000e00e8005f
:1025f80082c0b3008000780020c0b300d10107007a
:10260800c0c3b300be010700104798001e409000e9
:1026180080407800c0cfb30080c0600010af2000b9
:102628001040780000c07000104798001e409000cd
:1026380080407800c0c3b300d901070010c0b300c0
:10264800af010700104798009e40900080cfb3006c
:1026580000c06000104798001e409000804078003d
:1026680010c0b300ce0107000080fa000000060089
:102678000200fa00000f78001e007800d9fe07005b
:102688000080fa00000006000000fa000080fa004e
:10269800000006001200fa00500798006107980031
:1026a80072079800030f9800640f47000e08900007
:1026b8008040eb00014878001e0078008040eb0065
:1026c800014878001e0078001040780080407800ab
:1026d8005e009000004078000074a10000c0700007
:1026e800804078001e007800014878005e00900065
:1026f800ee0090004909dd004700de00000071008f
:10270800c708de0050079800610798001e0fe80010
:102718000e089000104078008040e8000e089000f5
:10272800014878001e00780001c8b300014878000d
:102738005e009000ee009000e00f5000e08f58001f
:10274800e0ff3a000000eb00100798000a0037008d
:102758001e0fe9001e009000fe009000008040005f
:102768009e00780091407800014878001e00900093
:102778000000e800100798000e089000104078004c
:102788008080fb001e009000808f5000f0ff3c000e
:102798000080fa00000006000a00fa00000f780026
:1027a80021479800220798006347980074479800cb
:1027b800054f98000e4890000004e0000100320028
:1027c800ed02a9002e4090000080fb000001eb0004
:1027d800800078001e0078007e0907006e40900097
:1027e8000004e000060032006e4090000080fb000c
:1027f8002e019000800078000000eb0075090700aa
:102808007e4090000004e00001003200ed02a800c4
:102818000080fa00000006000800fa00000f7800a7
:10282800214798002207980063479800ed02a90005
:102838002e4090000080fb000001eb008000780033
:102848001e007800630907006e4090000080fb00be
:102858002e019000800078000000eb005d09070061
:10286800ed02a8000080fa00000006000800fa0047
:1028780020079800310798006203070050c5b3008d
:10288800004f7800a0cab3001047980000c0eb00c2
:10289800204798000040eb003047980042c0b30042
:1028a8008e00780030c1b3002601070042002000e6
:1028b800310320000e007800daf707000e017800d7
:1028c80041c0b30030c1b300eb0007009e40780060
:1028d80050c5b30080cf50000a003a009e409000d7
:1028e800a0cab30080cf500006003a002e409000e6
:1028f800e14f400003003a003e4090000004e00031
:102908000200320010002000970037003d03070046
:102918000e01780041c0b30030c1b300d6000700f3
:102928009e40780050c5b30080cf50000a003200a6
:102938009e409000a0cab30080cf5000060032002d
:102948002e409000e14f4000030032003e409000ce
:102958000004e00002003a00200020008200370056
:1029680000e8230001002000710a070001c2b3003b
:1029780050c3b3000a01070031c0b300d0c3b3008d
:102988000701070000c9b3009e00070042c0b3005a
:102998008e007800f0c3b300ea00070042c0b3001d
:1029a8008e007800f0c3b300e600070042c0b30011
:1029b8008e007800f0c3b300e200070042c0b30005
:1029c8008e007800f0c3b300de00070042c0b300f9
:1029d8008e007800f0c3b300da00070042c0b300ed
:1029e8008e007800f0c3b300d60007000002200074
:1029f800350107007140800000022000008060005f
:102a08000000e00002003a003000200056003700c5
:102a18000e28ef00fb02070040c8b300790007004a
:102a280021c0b3000040eb00dd0007008040eb0050
:102a380010c0b300da00070001c3b30020c0b30020
:102a4800d700070011c4b30070c1b300d400070059
:102a580001cab30080c1b300d100070061c7b30049
:102a680090c1b300ce0007008040eb0000c1b30066
:102a7800cb00070001c8b300d0c0b300c8000700ee
:102a8800f1c3b300b0c0b300c500070021c2b30052
:102a9800c0c0b300c200070000c2b300004f7800f6
:102aa800d0cdb300104798000040eb0020479800b5
:102ab80032c0b3008e00780030c1b300a100070017
:102ac80051c3b30020c1b300b50007008040eb003c
:102ad800e0c0b300b200070080c0eb0050c3b300f1
:102ae800af00070071c0b30060c3b300ac000700bb
:102af80001c1b300a0c3b300a90007002e019000d4
:102b0800be01900070c1b3005c01070090cab30019
:102b1800d803070000202e0041002000040a070007
:102b2800a0c2b30076000700004f78001e4078006e
:102b38000080fb00630060000000e00002003a0033
:102b480040002000080037001e4078000080fb008d
:102b5800620060000000e00002003a00500020001f
:102b6800010037000000eb000080fa0000000600ba
:102b78000200fa0012c8bf000004e000030032009f
:102b8800001e200001002000e909070023c0b3004f
:102b98000e01780011c0b300408120001eff07001d
:102ba8001e4078008080fb001e4090000080fb00e3
:102bb8004800dd000100700080007800704080004f
:102bc80001007000704088008680a9000080fa002b
:102bd800000006000200fa0030c3b30048000700f6
:102be800004f780000c6b3009e40780080cf5000a8
:102bf800010036001268ef001e4078000080fa00dd
:102c0800000006000200fa00004f78009680a90034
:102c180015c0b30014c0b3008041eb000001eb0005
:102c280011c0b3000e007800dbfe07009680a800f4
:102c38000080fa00000006000400fa00204798000f
:102c480031479800ae409000014f7800be40900098
:102c58001147980015c0b3000042eb008041eb001b
:102c68000001eb0021c0b3000e007800cafe070087
:102c78000080fa00000006000400fa00004f780007
:102c880011479800120798009680a9001e40780006
:102c98000064a000004f78001e40900015c0b300eb
:102ca80024c0b300804178001e01900011c0b30019
:102cb8000e007800b8fe07009680a8000080fa0091
:102cc800000006000400fa00004f78001107980081
:102cd8009680a9001e40780015c0b30024c0b30038
:102ce800804178001e01900011c0b300308120009f
:102cf800a9fe07009680a8000080fa0000000600e0
:102d08000400fa00204798009680a9002e40900001
:102d18000064a000204798000e80e80015c0b300aa
:102d280014c0b30013c0b3000e01780011c0b30083
:102d380099fe07009680a8001e4078000080fa00df
:102d4800000006000600fa00004f780011079800fe
:102d5800424798009680a90015c0b3000042eb00d6
:102d68008041eb000001eb0011c0b3000e007800b9
:102d780089fe07004e4090008042eb0024c0b3005b
:102d88008041eb000001eb00804078001e009000bd
:102d980081fe07009680a8000080fa000000060067
:102da8000400fa002047980031479800ae40900090
:102db800014f7800be409000114798009680a90006
:102dc80015c0b30014c0b3008041eb000001eb0054
:102dd80021c0b3000e0078006ffe07009680a8009f
:102de8000080fa00000006000800fa00000f7800d2
:102df80021479800324798002307980064479800b5
:102e08009680a90015c0b3000042eb008041eb009a
:102e18000001eb00ae4090001e0078005efe070047
:102e2800630047008042eb000042eb008041eb006a
:102e38000001eb0011c0b30057fe07008042eb0011
:102e480024c0b3008041eb000001eb00ee4090008d
:102e58002e00900050fe07009680a8000080fa001f
:102e6800000006000400fa00000f7800110798001f
:102e78000600370000e82300010020002c090700a5
:102e88001e0090000000e9001007980070408000c4
:102e98001e0060000000e00003003a001e009000e1
:102ea8000000e000f3ff3a001e0090000000e00080
:102eb80003003a00cb010700100020007040880092
:102ec8000080fa00000006000400fa0010079800cd
:102ed8000000eb00000f7800040037001e0fe80028
:102ee8000032200001002000110907007140800015
:102ef8001e009000008060000000e00004003a001e
:102f0800703e20009e007800808f5000f3ff36004e
:102f1800703e20009e007800808f5000030036002d
:102f2800b001070010002000704088000080fa00ff
:102f3800000006000400fa002047980030c0b300e3
:102f48006fff0700004f78009e4078006fcf600049
:102f58002e4090000080fb004400dd008040780097
:102f68001e40780000c07000004f78009e40780036
:102f780030c0b3008aff07000080fa000000060096
:102f88000600fa0090c2b3005dff070020479800d2
:102f9800ae409000f0ccb30000c06000204798001d
:102fa8002e4090000044a00020479800ae409000ba
:102fb80090c2b3007aff070010c1b30050ff0700aa
:102fc800204798002e4090000074a00020479800e9
:102fd800ae40900010c1b30071ff070000e8230065
:102fe80001002000d2080700c0c2b30044ff070058
:102ff80067406000304798002e4090000074a100a0
:1030080020479800ae40900010c1b30064ff07004d
:103018003e409000e14f5000030036003e409000d3
:10302800e54f5000130036000000eb00000f780059
:103038001e0fe80040cab300f2fe07000010270088
:1030480021002000ba080700a0c2b3002cff070027
:10305800404798004e4090000080fb0062006000ee
:103068000000e00003003a001e007800e20f500064
:10307800efff36000080fa00000006001c00fa008e
:1030880060579800420f9800530f98000000eb001b
:10309800000f78000040eb0019ff0700004f980070
:1030a8000e4890000004a100804078000040eb002a
:1030b8003bff07006e509000f74f500028003a0081
:1030c800720047000001780031c0b30070c1b3003e
:1030d800e9fe07002e5090008080fb0000072000ca
:1030e8000080600001052000810f500011003200af
:1030f80001052000810f500004003c00010420005d
:10310800810f50000800320013003700010620002c
:10311800810f50000a00320001072000810f500083
:103128000a0032000c003700d0072000000f78009a
:103138000b00370040062000000f78000800370019
:1031480020032000000f78000500370090012000c0
:10315800000f7800020037000000eb00000f780035
:103168001e0078008000eb000001be004e089000b1
:10317800de08900094f50700500798006107980052
:103188005e009000ee0090004a09dd004600de0077
:1031980000007100c608de0080007800f0ff230000
:1031a80000806000100798001e009000c600dd0037
:1031b8001e00900000804000300798003e009000fc
:1031c8006101b8005e009000ee009000800f510091
:1031d800818f5900060031003e0090001004b000b5
:1031e800300798001e0090000000e80010079800c3
:1031f8005e009000be0090000080500030079800ec
:103208009e00900021079800be0090000002200058
:10321800808f5000060036001e0090000000e90074
:10322800100798003e0090001002b1003007980087
:103238003e009000ff0f5000060036002e00900060
:103248000000e900200798003e0090000002b1004d
:10325800300798003e009000ff0f5000eaff3e0044
:103268003e009000f00f5000060036003e0090002f
:103278000002b100300798002e0090000000e9001d
:10328800200798009e0090003e00900000805000ab
:1032980070079800ae0090003e009000008040004b
:1032a800000f98006e509000f74f50001d003a0034
:1032b8002e5090008040780000cfb30080c060009e
:1032c8000e0890004600de00004078006f40600065
:1032d80000c07000205798000e08900080407800c9
:1032e800200020000008dd00804078007e0090006b
:1032f8004800de00004078006340600000c07000b5
:10330800305798007e0090000040780040579800a1
:103318007200470032c0b3008000780070c1b3006b
:1033280088fe070016ff07008e4890000040eb005b
:103338009bfe07000080fa00000006000400fa0067
:10334800881f780060168000640060000000e000bc
:103358004d0032009680a9008680a9000040eb004d
:1033680067fe070001ab20008048780000ab200012
:1033780090407800c0cfb30000c060008040780063
:103388000040eb0086fe070010c0b300004f780035
:10339800090037001e407800ef4f5000050032004a
:1033a8001e84fb001e40780055fe070001ab20007c
:1033b80080707c001e4fe8001e407800fc4f5000d3
:1033c800f4ff360020c2b3004dfe0700d1ac200048
:1033d8008048780090c2b30049fe0700e1ac2000a5
:1033e8008048780050c3b30045fe0700f1ac2000c8
:1033f8008048780060c3b30041fe070001ad20009b
:1034080080487800c0c3b3003dfe070011ad20001e
:1034180080487800a0c3b30039fe070021ad200022
:1034280080487800401f20001007980003003700ec
:1034380000e8230001002000bd0707001e009000df
:1034480000f0a7000000ea000000ea004f00de00dc
:10345800004078009e0090008100e9001107980064
:103468000004e00006003200a0c2b30024fe0700fa
:103478000080fb00640060000000e000ecff3a0000
:10348800cc42a90001003700000000004f0478007a
:103498000080fa00000006000400fa0060168000b0
:1034a800640060000000e0004b003a00cc42a80035
:1034b800000a2000010020009d0707009500070072
:1034c80000ab200090407800c0cfb30000c060007f
:1034d800804078000040eb0031fe070010c0b300c8
:1034e800004f78000a0037001e407800ef4f500068
:1034f800060032001e80fb0001ab2000614078000e
:10350800804078001e40780025fe07001e4fe80026
:103518001e407800fc4f5000f3ff3600d0ac20006e
:10352800104078008040780020c2b3001cfe0700dd
:10353800e0ac2000104078008040780090c2b300d2
:1035480017fe0700f0ac200010407800804078009b
:1035580050c3b30012fe070000ad200010407800f1
:103568008040780060c3b3000dfe070010ad200056
:103578001040780080407800c0c3b30008fe070000
:1035880020ad20009040780000cfb30000c060005c
:1035980080407800a0c3b30001fe0700002c210082
:1035a800010020006207070075fe070000ab20003d
:1035b80010407800804078000040eb00f8fd0700dc
:1035c800a0c2b300cefd0700104798008680a9006e
:1035d8009680a80001003700000000000080fa0073
:1035e800000006000000fa0054ff070000e823006e
:1035f800010020004e070700a7ff07000080fa001f
:10360800000006000000fa00cc42a90000e82300f0
:103618000100200046070700cc42a800000a20004d
:1036280001002000420707003a0007000080fa0066
:10363800000006000200fa0097ff07000040eb00b8
:10364800affd0700004f78001e74a1009e4078006f
:103658000040eb00d2fd07000040eb0052000700dd
:103668000080fa00000006000000fa000080fa005e
:10367800000006000200fa0087ff07000040eb0088
:103688009ffd0700004f78001e74a1009e4078003f
:103698000040eb00c2fd070010c0b3004200070065
:1036a8000080fa00000006000000fa000080fa001e
:1036b800000006000200fa0077ff07000040eb0058
:1036c800390007000040eb008dfd0700004f78002f
:1036d8001e74a0009e4078000040eb00b0fd07007b
:1036e8000080fa00000006000200fa006aff0700e6
:1036f8000040eb0082fd0700004f78001e74a10017
:103708009e4078000040eb00a5fd07000080fa000d
:10371800000006000600fa000000eb00000f780029
:103728002cfd07000046b20020479800a0c2b30055
:1037380073fd0700304798001e0fe800ae40900068
:1037480000c6b30080cf500005003a003e4090000c
:103758000080fb00610060000000e00004003a0007
:10376800a00f20009e007800808f5000ecff3600ec
:1037780000f4210001002000ed0607006400470066
:103788000001780021c0b30070c3b3003afd070000
:103798000e28ef0000d0270001002000e4060700f3
:1037a8000080fa00000006000600fa004047980072
:1037b8000040eb0052fd0700204798004e40900063
:1037c8000004e0000f0032002e4090000080fb0053
:1037d80063006000e30f5000320032002e4090007a
:1037e8003040b30020479800002c21000100200041
:1037f800cf060700ae4090000040eb0068fd0700d0
:10380800210037002e4090000080fb00630060001c
:10381800e30f500025003a00ae409000c0cfb3003f
:1038280000c0600020479800ae4090000040eb00c8
:103838005bfd0700401f2000000f780003003700e1
:103848000064200001002000b90607001e0078006f
:1038580000f0a7000000ea000000ea004f00de00c8
:10386800004078001e0fe9000004e0000600320066
:10387800a0c2b30022fd07000080fb0064006000c6
:103888000000e000eeff3a004e4090000004e00027
:10389800070032000070270011002000a40607006e
:1038a800030037000000000001003700000000009e
:1038b8000080fa00000006000200fa0060c9b300a8
:1038c800d0fc070070c9b300cefc070000f421004b
:1038d8000100200096060700b0c2b30008fd0700eb
:1038e800004f780060c9b300c6fc07001e4078008e
:1038f8000080fa00000006000000fa00a0c0b30033
:10390800fffc070010e8b7000080fa00000006007e
:103918000000fa0010c8bf0080407800a0c0b300c3
:103928001ffd07000080fa00000006000400fa00ee
:103938000040eb00004f7800d0c0b300f0fc070057
:1039480010479800a0c0b300edfc0700204798007e
:103958001e4090000080fb00640060000000e00052
:10396800160032009e40780090cab30000c04000a4
:10397800004f78002e4090000080fb00630060003c
:10398800e30f500004003a001e40780066405000e3
:10399800004f78001e0037002e4090000080fb008a
:1039a800630060000000e00019003a001e40780043
:1039b80066404000004f7800150037009e407800b0
:1039c80090cab30000c04000004f78002e4090001d
:1039d8000080fb0061006000004078000004e00007
:1039e800030032001e40780068404000004f780015
:1039f8002e4090000080fb00620060000000e000a4
:103a0800030032001e4078006a405000004f7800e2
:103a18002e4090000080fb004600de000040780049
:103a28006300b90000007800304798002e409000ed
:103a38008080fb0000022000008060000000e000a1
:103a4800050032009e4078003e40900000c05000c3
:103a5800004f7800040037009e4078003e409000f8
:103a680000c04000004f78001e4078000080fa0037
:103a7800000006000600fa0040479800a0c0b30006
:103a88009ffc0700004f7800d0c0b3009cfc0700e3
:103a9800204798009e4078007ccf60002e40900020
:103aa8000080fb00640060000000e00015003200a8
:103ab8004e4090007045b000404798004e4090003e
:103ac800e54f5000040034004e409000664050001e
:103ad800404798001c0037004e409000e54f4000da
:103ae80006003d004e409000664040004047980068
:103af8009e40780063cf7000130037001e04a000ba
:103b0800110037004e4090007045b00040479800c3
:103b18004e409000e74f5000040034004e409000a3
:103b280068405000404798001e04a0004e40900096
:103b3800e94f400004003d004e4090006a404000bc
:103b4800404798001e14a0004e4090000004e0007a
:103b5800170034001e54a1004e4090000001fb00e5
:103b6800605525000090b9004f91de00028050009a
:103b780000407800104798001e409000e34f500026
:103b88000200360030c0b300104798009e409000f5
:103b9800d00f20000088b90000007800804078002d
:103ba8004e40900000c04000404798001500370084
:103bb8001e54a0004e4090000000fb00620110005f
:103bc800605525000090b9004f91de00028050003a
:103bd800104798001e409000e34f50000200360046
:103be80030c0b300104798001e4090006300b90031
:103bf80000007800804078004e40900000c04000ef
:103c0800404798001e4090000080fb004600dd0001
:103c1800804078001e40780000c07000004f780097
:103c28009e407800a0c0b3005dfc07004e409000a5
:103c38000080fa00000006001000fa005007980003
:103c480061079800720798005e0090000000d1009c
:103c5800000f78001e0078000000e00002003a0023
:103c680010002000000f78000040eb0024fc070043
:103c78003047980021c0b3000040eb0048fc070023
:103c880090c2b3001efc070040479800ce40900049
:103c980000cfb30000c0600040479800ce409000bd
:103ca80090c2b3003efc070090c0b30014fc0700ac
:103cb8005047980080c0eb0090c0b30038fc070064
:103cc8003e4090000080fb00620060000000e000c1
:103cd80003003a0000102700210020009405070087
:103ce8000040eb002047980015003700f2fe07005f
:103cf800604798006e409000ef4060006e40900072
:103d08000080fb004400de000040780000c0400056
:103d1800704798007e4090008080fb002e40900005
:103d28000000fb00808f500005003400fe4090002a
:103d3800214798006e009000ee40900001487800fe
:103d48001e00780000f0a7000000ea000000ea006a
:103d58004f00de00004078001e0fe9000004e0007c
:103d6800e2ff3a002e4090000004e00007003a000d
:103d78007e00900001c8b300014878006e009000f2
:103d88008040eb0001487800540037002e40900036
:103d98000000fb004380de0000407800804078008f
:103da8002e40900000c0400020479800d0c0b300cb
:103db800d3fb070064406000004f9800a0c0b30028
:103dc800cffb0700104f98000e4890000004e00059
:103dd8000e003200ae40900050cbb30000c040004f
:103de800204798001e4890000080fb00610060009a
:103df800004078000004e000190032002e409000d6
:103e0800654040002047980015003700ae409000fc
:103e180090cbb30000c04000204798001e48900097
:103e28000080fb00620060000000e0000300320038
:103e38002e4090006a405000204798001e4890008d
:103e48000080fb0061006000004078000004e00092
:103e5800030032002e409000684040002047980040
:103e68001e4890008080fb00000220000080600057
:103e78000000e0000c0032001e4890000080fb00ab
:103e88004600de0080407800d00f20000088b9008e
:103e980000007800804078002e40900000c040006c
:103ea800204798000a0037001e4890000080fb0059
:103eb8004600de00004078006300b900000078008a
:103ec800804078002e40900000c0400020479800b5
:103ed8007e009000ae40900001487800de409000df
:103ee80090c0b300aefb0700be4090000040eb005e
:103ef800abfb07003e4090000080fb0061006000c3
:103f0800004078000004e0000300320000d02700e1
:103f180001002000060507000080fa0000000600e6
:103f28000200fa0070c8b30036fb07000014200036
:103f380001002000fe040700d0c2b30070fb070098
:103f4800004f78001e4078000004e00003003d00a8
:103f58001e4078000074a100030037001e4078005e
:103f68000074a1000040ea00004f78001e4078006d
:103f78000080fa00000006000600fa000040eb008e
:103f88005ffb0700004f780000c1b3005cfb07002f
:103f9800104798001e409000f043b200804078001f
:103fa80000c1b3007efb07009e40780063c070002c
:103fb800804078000040eb0079fb070060c9b3003f
:103fc80010fb070070c9b3000efb070011c0b30057
:103fd80000c1b30072fb0700002c21000100200083
:103fe800d3040700ceff07000000fb00100798006d
:103ff80021c0b30000c1b30069fb0700002c2100f9
:1040080001002000ca040700c5ff070040479800c8
:1040180060c9b300fbfa07009e009000f00f200073
:10402800808060004e4090000000fb004800dd00ea
:1040380001007000100798009e40900000c1b30076
:1040480057fb07009e4078000040eb0054fb070038
:104058001e0090000080fa00000006000600fa002a
:104068000040eb0026fb0700004f780000c1b300ba
:1040780023fb0700104798001e409000f043b20051
:104088008040780000c1b30045fb07009e407800df
:10409800c0cfb30000c060000014a00080407800ca
:1040a8000040eb003efb070060c9b300d5fa0700eb
:1040b80070c9b300d3fa070011c0b30000c1b30040
:1040c80037fb0700002c210001002000980407009e
:1040d80093ff07002047980021c0b30000c1b30038
:1040e8002ffb0700002c210001002000900407008e
:1040f8008bff0700304798002e4090008000fb009f
:10410800f00f2000808060003e4090000000fb001f
:104118004800dd0001007000200798009e409000d4
:1041280000c1b3001efb07009e4078000040eb0072
:104138001bfb07002e0090000080fa00000006001c
:104148001a00fa00404f980071079800020f980073
:10415800130f9800240f9800655798007657980019
:10416800075f98002e089000100078006700400054
:104178004300de00004f78000040eb001047980035
:104188000000eb00100798000040eb004047980043
:104198002e0890000000e000080032002e08900071
:1041a80090007800110798002e0890008000eb001e
:1041b8000108780010c0b300104798001e0890004e
:1041c8000000e00003003a001e0090000000e0003c
:1041d80003003200ee50900070c0b300f0fa070000
:1041e8001e0090000000e0000e0032001e0090004b
:1041f80000407800304f98001e0090004800de0014
:10420800004078006f4060000044a000204f9800f4
:104218006a00470022c0b30080007800a0c3b30042
:10422800c8fa07000e0890000000e00051003200b4
:104238000e089000670040004300de0050479800d9
:104248005e419000624798006e409000f84f500021
:104258000200360080c1b300604798000e08900045
:10426800004078006740600000404000304f9800f0
:10427800be4890000e0890004300de000041780020
:10428800400020000010dd0000c07000304f980092
:104298000e0890004700de0000407800204f98008c
:1042a8006a00470022c0b30080007800d0c3b30082
:1042b800a4fa07006c0047006e429000fe019000cf
:1042c800f2c3b30011c0b300c7fa0700de40900084
:1042d8006e40900000c05000504798006e4090001b
:1042e8000080fb00fe0090000080400070079800ee
:1042f8001a003700de409000614798006e40900039
:10430800f04f50000200360020c1b300604798000b
:1043180000022000ecfa0700704080000050a10065
:10432800704088006e40900000417800fe009000c8
:10433800f0c3b30083fa0700de4090006e4090009f
:1043480000c05000504798006e4090000080fb006d
:10435800fe00900000804000700798005e409000ca
:104368000004e000e3ff3a004e48900011e8b7006f
:10437800070037004e4890000004e00004003200b7
:104388004e4890001ffa07004e48900011e8b70009
:1043980011c8bf000004e000090032000e58900068
:1043a8000004e0000600320000082000c6fa0700fa
:1043b80071408000f0f52f00008060007040880098
:1043c8002e0890000000e000110032001e0090004e
:1043d8000000e0000e003a001e0890000000e00017
:1043e8000b003a0060c9b30006fa07000040eb0072
:1043f800304f98000040eb00204f98006a004700bb
:1044080022c0b30080007800a0c3b3004dfa0700b3
:104418001e0890000000e0009e0032006e509000e0
:10442800e14f400004003a00e1012000300720007d
:104438008cfa07002900370030072000a2fa07008d
:104448002600370020c1b300704798001e40900036
:104458000004e000050032007e4090009e4f5000ae
:10446800020036001e417800724798007e40900096
:104478009e08900013fa07007e4090000080fb0021
:104488009e08900000804000100f98009e40780021
:104498007e40900000cf5000ce4090007e409000bb
:1044a80000c0400040479800704080000050a100c4
:1044b800704088001e4090000004e00005003200b3
:1044c8001e4078000004e00002003a00c0cdb300ae
:1044d80071003700300720007bfa07007140800028
:1044e80000022000008060000000e00005003200ab
:1044f8007140800000042000008060000000e0009f
:10450800d0ff3200300520006ffa070071408000ac
:10451800410798000e28ef007e5090000004e0004c
:10452800090032004e009000710060000000e000b9
:1045380005003a007e509000b2f90700fe50900046
:10454800128120000149780090c3b300ecf90700fc
:104558007f406000704798001e4090000004e00013
:10456800080032007e4090009e4f50000500360043
:104578001e417800724798004e0090000090a000fd
:10458800400798007e4090000004e00003003200dd
:104598007e4090009e089000caf907009e4078006f
:1045a8007e40900000cf5000ce4090007e409000aa
:1045b80000c04000404798002e0890000000e0002e
:1045c800060032004e4090000080fb004300dd00f2
:1045d800800078002e08900001087800ce00900036
:1045e80090212000008060000000e00029003200d7
:1045f8004e00900061006000004078000004e00078
:1046080002003200f0cdb300230037004e009000c6
:10461800680060000000e0000700320011812000ff
:104628009140780010c9b30080cf500002003a00d2
:10463800e0cdb30018003700ce0090000020200025
:10464800008060000000e00002003200c0cdb3002e
:1046580011003700ce00900000102000008060009c
:104668000000e00002003200d0cdb3000a0037009d
:10467800ce00900000402000008060000000e000b4
:1046880002003200b0cdb3000300370000c0eb00d9
:10469800010037000040eb000080fa00000006002f
:1046a8000a00fa002007980031079800024f980086
:1046b800134f98001e4890000080fb001100200056
:1046c8000008dd00004078000040e900204798001d
:1046d8001e4890000080fb006800100011002000b8
:1046e8000008dd00004078000040e90030479800ed
:1046f8000000eb00000f78004d0037001e00780026
:10470800ae009000008040009e0078002e019000ce
:10471800810041009140780001417800ae4090004e
:1047280081c0ea0081406100014878001e007800dd
:10473800ae009000008040009e0078002e0190009e
:104748008100410091407800014178009e00780086
:10475800be01900081804100914078008181fb007a
:104768009e4890008180fb00e88010008198de0060
:1047780081417800ae40900081c0610081407100a5
:10478800014878001e0078000000e800ae009000a4
:10479800008040009e0078008100e8002e01900013
:1047a800810041009140780001417800be409000ae
:1047b8008180fb008181ea009e4890008180fb0097
:1047c8008118dd008140780081406100014878004f
:1047d8001e0078000000e800ae0090000080400055
:1047e8009e0078008100e8002e01900081004100c1
:1047f80091407800014178009e007800be01900049
:104808008180410091417800be40900081c06100e4
:104818008181fb009e4890008180fb008118dd00ab
:104828008140780081407100014878001e0fe8003f
:104838000e4890000080fb009e0f5000afff3c0028
:104848000080fa00000006000000fa0010c0b30063
:104858000080fa00000006000200fa00004f78000d
:104868000dc8bf009e4f5000120032000dc8bf0097
:104878000080fb00e10f500002003a0082f70700b9
:1048880001003700000000001e80fb00e10f50000f
:1048980003003a0060b1200075f7070001003700f7
:1048a800000000001e417800d18020008248780076
:1048b80001003700000000000080fa000000060038
:1048c8000200fa000000eb00000f78000800370033
:1048d8009e007800a00220000088b90080007800bf
:1048e8000082200000804000f8ef07001e0fe8005b
:1048f800004080009e007800808f5000f4ff350053
:104908000080fa00000006000200fa0003c8bf0099
:104918000004e00005003a0007000700004f780097
:1049280010c0b30003e8b700010037000000000022
:104938000080fa00000006000200fa007d0007006f
:1049480010c0b30098fb070000e823000100200016
:10495800770207000040eb00004f78001e40780007
:104968000004e00036003a0010c0b300baff0700a8
:104978000ac8bf008040780090c2b30008f9070059
:104988000ac8bf00e84f500002003a00a0cab300ae
:104998009cf807000268ef00c9ff070008c8bf00bd
:1049a8000004e00011003a0009c8bf000080fb00c5
:1049b8000000e9004f00de0000417800814222003b
:1049c8001cc8bf0015c0b3000242780081017800fe
:1049d80000417800c1c0b300408720006ef4070092
:1049e8000040780002e8b7001000370009c8bf008f
:1049f8000080fb000000e9004f00de000041780065
:104a0800814222001cc8bf0015c0b30002427800d2
:104a18008101780000417800c1c0b30040872000c0
:104a28003ef507000040780002e8b7000ac8bf005a
:104a3800e84f500002003a00b0cab30071f807000e
:104a48001e417800c1802000824878000040eb00b9
:104a580055fb07001d00070002c8bf000080fa00d0
:104a6800000006000000fa000d68ef000768ef007c
:104a78000968ef0010c0b30008e8b70060c0b300d1
:104a88000ae8b70080cdb30006e8b70010c0b3004d
:104a98000be8b7000368ef000268ef000040eb0086
:104aa80041fb0700090007000080fa00000006002b
:104ab8000000fa0007c8bf000004e000010032004f
:104ac80091ff07000080fa00000006000000fa00cd
:104ad8000bc8bf000080fb00e10f50000c00320043
:104ae800e10f500003003c000000e0000600320027
:104af8000d003700e20f500007003200e30f5000ae
:104b080007003200080037000cfa070007003700da
:104b1800c8fa070005003700d6fa07000300370077
:104b2800e4fa07000100370004fa07000080fa00e1
:104b3800000006000000fa000bc8bf000080fb0060
:104b4800e10f50000c003200e10f500003003c0060
:104b58000000e000060032000d003700e20f5000b0
:104b680007003200e30f500007003200080037004a
:104b780049fa070007003700bbfa070005003700ad
:104b8800c9fa070003003700d7fa07000100370009
:104b980041fa07000080fa00000006000000fa0051
:104ba8003003200010128800100020002012880016
:104bb80000002800001288000080fa0000000600ab
:104bc8000400fa00000f78001107980000000000a8
:104bd80000128000620060000000e000fcff3a0064
:104be8001e007800104078000080fb00401288000a
:104bf8000000000001128000000220000080600018
:104c08000000e000fbff3a0040128000804078007e
:104c18001e009000014878000080fa00000006009d
:104c28001800fa00100f9800210f9800320f980012
:104c38000000eb00000f78000000eb001007980060
:104c48000000eb00700798000000eb00000f9800d0
:104c580010002000600798001e0890000000e00087
:104c680005003a000000eb0050079800700047006c
:104c78002007980004003700ee00900051079800c4
:104c88009e089000210798003e0890000000e00070
:104c980005003a000000eb00400798006e0047004e
:104ca8003007980005003700ee0090004107980093
:104cb800be08900031079800000000000012800034
:104cc800620060000000e000fcff3a001d003700b1
:104cd80000128000620060000000e00009003a0055
:104ce8002e009000104078000080fb0040128800e1
:104cf800ae0090005e009000008040002007980001
:104d08001e0fe800011280000002200000806000f1
:104d18000000e0000b003a0040128000804078005c
:104d28003e00900001487800be0090004e009000c0
:104d380000804000300798001e0090000000e80046
:104d4800100798002e0890009e007800808f500071
:104d5800dfff390010003700011280000002200038
:104d6800008060000000e0000b003a004012800064
:104d7800804078003e00900001487800be00900016
:104d88004e00900000804000300798001e00900000
:104d98000000e800100798009e0090002e08900080
:104da800808f5000ecff39001e0078000080fa0068
:104db800000006000400fa00204798000e80e80072
:104dc8008e0078007eff07001e4078000080fa0001
:104dd800000006000600fa00000f7800110798008e
:104de800220798002e0190009e0090001e00780077
:104df8008bff07000080fa00000006000000fa00a0
:104e08001112800000402000008060000000e000d7
:104e180002003a000000eb000100370010002000fb
:104e28000080fa00000006000000fa00001280006e
:104e38000080fa00000006000000fa00c422ef001b
:104e480000802b0060168800d422ef00dc22ef00df
:104e5800e422ef000000230060178800f422ef002e
:104e6800f06f2c0000168800b03f24004016880020
:104e7800e001270080168800f0ef2f00c016880098
:104e8800f00f200000178800700b200040178800e2
:104e9800f03c2f008017880000012100b002880034
:104ea80000002f00c002880010002000d0028800f7
:104eb8005c20ef00c0c02100f00288006020ef00f5
:104ec8006e20ef007020ef007220ef007420ef00da
:104ed8007620ef007820ef00c622ef00ce22ef0008
:104ee800d622ef00de22ef00e622ef00ee22ef00ee
:104ef800f622ef00006c200000278800803f200089
:104f0800102788000001260020278800000c2000b8
:104f180030278800e824ef00100020005027880080
:104f2800003c200060278800a804a800113a8000ef
:104f3800f00b200000816000600420007105200053
:104f480023742000804978008149780082497800dc
:104f58004135800000fc2f00008060001001b30084
:104f68004035880001348000f00f2c0080806000fc
:104f780000e0200001007000003488001136800035
:104f880000fc2f00008060000030a0001036880070
:104f98008136800000fc2f00008060007000b300a4
:104fa80080368800103a8000000178000260a00076
:104fb80060042000710520002374200080497800d7
:104fc80081497800824978000080fa0000000600d4
:104fd8000000fa000a21ef00409c200070088800b9
:104fe8000002200090088800c04080000000e00017
:104ff80002003a0040842200240007008500a9002e
:105008009500a800e0b120008040eb00014878003e
:105018000080fa00000006000200fa00000f780085
:105028009e00780071088800e0b120008040eb0005
:10503800014878000080fa00000006000000fa002d
:10504800700880000080fa00000006000200fa00e4
:10505800000f78009e00780051088800e0b1200019
:105068008040eb00014878000080fa00000006004c
:105078000000fa00500880000080fa0000000600d6
:105088000000fa000080fa00000006000200fa00a2
:10509800000f78009500a9009e007800c1408800a4
:1050a8009500a8000080fa00000006000000fa0041
:1050b800e0b120008040eb00014878009500a8008e
:1050c80013e1a8000080fa00000006000000fa00c2
:1050d80013e1a9009500a9000080fa00000006006d
:1050e8000200fa00e0b12000104f78001e4078005e
:1050f8000004e00003003200e0b120008040eb0033
:10510800014878001e4078000080fa000000060080
:105118000000fa00f0b12000104078000080fb0089
:105128000080fa00000006000000fa00f0b120003c
:105138008040eb00014878000080fa00000006007b
:020000040000fa
:10514800f60a000020000000800000001608000099
:105158000200000082000000ffff00001e0b00009c
:105168000200000080000000180800000200000093
:10517800800000001a080000020000008000000003
:10518800160b000008000000820000000109020060
:10519800000000000000000020080000900200004d
:1051a800800000001c0800000200000082000000cf
:1051b80004000000000800000e000000800000004d
:1051c800b00a000024000000800000000e08000063
:1051d8000400000080000000120800000400000025
:1051e80082000000017f770000000000d40a000060
:1051f80022000000800000001e08000002000000dd
:0c520800820000000a000000000000000e
:020000040000fa
:105214000000fa0000102300203a88004627ef001f
:105224004827ef007027ef007227ef007427ef0084
:105234007627ef007827ef007a27ef00320020006e
:1052440080072000a10920003374200080497800e1
:10525400814978008249780012002000600420000f
:10526400710520002374200080497800814978006a
:105274008249780000000000103a8000610060005c
:105284000000e000fcff3a0000000000113a80003a
:1052940000022000008060000000e000fbff3200fc
:1052a4000080fa00000006000200fa00480007002f
:1052b400cd42a800cd62a800cda2a800cde2a900ed
:1052c40080632f00d1002000904b8800a14b880000
:1052d4000097200011c0b30001487800904b800073
:1052e400a14b800062f50700004078001ae8b7007f
:1052f400e522a80091fd07001be8b7001bc8bf000a
:105304000004e000050032000000eb00000f78000c
:10531400e502a80010002000000f7800e522a90093
:10532400001027002100200002000700e502a90068
:04533400efff370050
:020000040000fa
:10533800f03fb1000180b10006003500ee0309001e
:1053480000000000403fb1000180b100fbff3d00bc
:105358001000b000203fb0000200350000800900b6
:08536800000000000000060037
:020000040000fa
:105370000000fa007105800080ff2f0000806000af
