:020000040000fa
:080000000002040000000000f2
:020000040000fa
:04000800e20300000f
:020000040000fa
:04000c000c030000e1
:020000040000fa
:040010004e0300009b
:020000040000fa
:040014002c030000b9
:020000040000fa
:040018006e03000073
:020000040000fa
:04001c00e2030000fb
:020000040000fa
:04002000e2030000f7
:020000040000fa
:04002400e2030000f3
:020000040000fa
:04002800e2030000ef
:020000040000fa
:04002c00e2030000eb
:020000040000fa
:04003000e2030000e7
:020000040000fa
:04003400e2030000e3
:020000040000fa
:04003800e2030000df
:020000040000fa
:04003c00e2030000db
:020000040000fa
:04004000e2030000d7
:020000040000fa
:04004400e2030000d3
:020000040000fa
:04004800ac03000005
:020000040000fa
:04004c00e2030000cb
:020000040000fa
:04005000e2030000c7
:020000040000fa
:04005400e2030000c3
:020000040000fa
:04005800e2030000bf
:020000040000fa
:04005c00e2030000bb
:020000040000fa
:04006000e2030000b7
:020000040000fa
:04006400e2030000b3
:020000040000fa
:04006800e2030000af
:020000040000fa
:04006c00e2030000ab
:020000040000fa
:04007000e2030000a7
:020000040000fa
:04007400e2030000a3
:020000040000fa
:040078008e030000f3
:020000040000fa
:04007c00e20300009b
:020000040000fa
:04008000e203000097
:020000040000fa
:04008400e203000093
:020000040000fa
:04008800e20300008f
:020000040000fa
:04008c00e20300008b
:020000040000fa
:04009000e203000087
:020000040000fa
:04009400e203000083
:020000040000fa
:04009800e20300007f
:020000040000fa
:04009c00e20300007b
:020000040000fa
:0400a000e203000077
:020000040000fa
:0400a400e203000073
:020000040000fa
:0400a800e20300006f
:020000040000fa
:0400ac00e20300006b
:020000040000fa
:0400b000e203000067
:020000040000fa
:0400b400e203000063
:020000040000fa
:0400b800e20300005f
:020000040000fa
:0400bc00e20300005b
:020000040000fa
:0400c000e203000057
:020000040000fa
:0400c400e203000053
:020000040000fa
:0400c800e20300004f
:020000040000fa
:0400cc00e20300004b
:020000040000fa
:0400d000e203000047
:020000040000fa
:0400d400e203000043
:020000040000fa
:0400d800e20300003f
:020000040000fa
:0400dc00e20300003b
:020000040000fa
:0400e000e203000037
:020000040000fa
:0400e400e203000033
:020000040000fa
:0400e800e20300002f
:020000040000fa
:0400ec00e20300002b
:020000040000fa
:0400f000e203000027
:020000040000fa
:0400f400e203000023
:020000040000fa
:0400f800e20300001f
:020000040000fa
:0400fc00e20300001b
:020000040000fa
:04010000e203000016
:020000040000fa
:04010400e203000012
:020000040000fa
:04010800e20300000e
:020000040000fa
:04010c00e20300000a
:020000040000fa
:04011000e203000006
:020000040000fa
:04011400e203000002
:020000040000fa
:04011800e2030000fe
:020000040000fa
:04011c00e2030000fa
:020000040000fa
:04012000e2030000f6
:020000040000fa
:04012400e2030000f2
:020000040000fa
:04012800e2030000ee
:020000040000fa
:04012c00e2030000ea
:020000040000fa
:04013000e2030000e6
:020000040000fa
:04013400e2030000e2
:020000040000fa
:04013800e2030000de
:020000040000fa
:04013c00e2030000da
:020000040000fa
:04014000e2030000d6
:020000040000fa
:04014400e2030000d2
:020000040000fa
:04014800e2030000ce
:020000040000fa
:04014c00e2030000ca
:020000040000fa
:04015000e2030000c6
:020000040000fa
:04015400e2030000c2
:020000040000fa
:04015800e2030000be
:020000040000fa
:04015c00e2030000ba
:020000040000fa
:04016000e2030000b6
:020000040000fa
:04016400e2030000b2
:020000040000fa
:04016800e2030000ae
:020000040000fa
:04016c00e2030000aa
:020000040000fa
:04017000e2030000a6
:020000040000fa
:04017400e2030000a2
:020000040000fa
:04017800e20300009e
:020000040000fa
:04017c00e20300009a
:020000040000fa
:04018000e203000096
:020000040000fa
:04018400e203000092
:020000040000fa
:04018800e20300008e
:020000040000fa
:04018c00e20300008a
:020000040000fa
:04019000e203000086
:020000040000fa
:04019400e203000082
:020000040000fa
:04019800e20300007e
:020000040000fa
:04019c00e20300007a
:020000040000fa
:0401a000e203000076
:020000040000fa
:0401a400e203000072
:020000040000fa
:0401a800e20300006e
:020000040000fa
:0401ac00e20300006a
:020000040000fa
:0401b000e203000066
:020000040000fa
:0401b400e203000062
:020000040000fa
:0401b800e20300005e
:020000040000fa
:04020800e20300000d
:020000040000fa
:04020c000c030000df
:020000040000fa
:040210004e03000099
:020000040000fa
:040214002c030000b7
:020000040000fa
:040218006e03000071
:020000040000fa
:04021c00e2030000f9
:020000040000fa
:04022000e2030000f5
:020000040000fa
:04022400e2030000f1
:020000040000fa
:04022800e2030000ed
:020000040000fa
:04022c00e2030000e9
:020000040000fa
:04023000e2030000e5
:020000040000fa
:04023400e2030000e1
:020000040000fa
:04023800e2030000dd
:020000040000fa
:04023c00e2030000d9
:020000040000fa
:04024000e2030000d5
:020000040000fa
:04024400e2030000d1
:020000040000fa
:04024800ac03000003
:020000040000fa
:04024c00e2030000c9
:020000040000fa
:04025000e2030000c5
:020000040000fa
:04025400e2030000c1
:020000040000fa
:04025800e2030000bd
:020000040000fa
:04025c00e2030000b9
:020000040000fa
:04026000e2030000b5
:020000040000fa
:04026400e2030000b1
:020000040000fa
:04026800e2030000ad
:020000040000fa
:04026c00e2030000a9
:020000040000fa
:04027000e2030000a5
:020000040000fa
:04027400e2030000a1
:020000040000fa
:040278008e030000f1
:020000040000fa
:04027c00e203000099
:020000040000fa
:04028000e203000095
:020000040000fa
:04028400e203000091
:020000040000fa
:04028800e20300008d
:020000040000fa
:04028c00e203000089
:020000040000fa
:04029000e203000085
:020000040000fa
:04029400e203000081
:020000040000fa
:04029800e20300007d
:020000040000fa
:04029c00e203000079
:020000040000fa
:0402a000e203000075
:020000040000fa
:0402a400e203000071
:020000040000fa
:0402a800e20300006d
:020000040000fa
:0402ac00e203000069
:020000040000fa
:0402b000e203000065
:020000040000fa
:0402b400e203000061
:020000040000fa
:0402b800e20300005d
:020000040000fa
:0402bc00e203000059
:020000040000fa
:0402c000e203000055
:020000040000fa
:0402c400e203000051
:020000040000fa
:0402c800e20300004d
:020000040000fa
:0402cc00e203000049
:020000040000fa
:0402d000e203000045
:020000040000fa
:0402d400e203000041
:020000040000fa
:0402d800e20300003d
:020000040000fa
:0402dc00e203000039
:020000040000fa
:0402e000e203000035
:020000040000fa
:0402e400e203000031
:020000040000fa
:0402e800e20300002d
:020000040000fa
:0402ec00e203000029
:020000040000fa
:0402f000e203000025
:020000040000fa
:0402f400e203000021
:020000040000fa
:0402f800e20300001d
:020000040000fa
:0402fc00e203000019
:020000040000fa
:04030000e203000014
:020000040000fa
:04030400e203000010
:020000040000fa
:04030800e20300000c
:020000040000fa
:04030c00e203000008
:020000040000fa
:04031000e203000004
:020000040000fa
:04031400e203000000
:020000040000fa
:04031800e2030000fc
:020000040000fa
:04031c00e2030000f8
:020000040000fa
:04032000e2030000f4
:020000040000fa
:04032400e2030000f0
:020000040000fa
:04032800e2030000ec
:020000040000fa
:04032c00e2030000e8
:020000040000fa
:04033000e2030000e4
:020000040000fa
:04033400e2030000e0
:020000040000fa
:04033800e2030000dc
:020000040000fa
:04033c00e2030000d8
:020000040000fa
:04034000e2030000d4
:020000040000fa
:04034400e2030000d0
:020000040000fa
:04034800e2030000cc
:020000040000fa
:04034c00e2030000c8
:020000040000fa
:04035000e2030000c4
:020000040000fa
:04035400e2030000c0
:020000040000fa
:04035800e2030000bc
:020000040000fa
:04035c00e2030000b8
:020000040000fa
:04036000e2030000b4
:020000040000fa
:04036400e2030000b0
:020000040000fa
:04036800e2030000ac
:020000040000fa
:04036c00e2030000a8
:020000040000fa
:04037000e2030000a4
:020000040000fa
:04037400e2030000a0
:020000040000fa
:04037800e20300009c
:020000040000fa
:04037c00e203000098
:020000040000fa
:04038000e203000094
:020000040000fa
:04038400e203000090
:020000040000fa
:04038800e20300008c
:020000040000fa
:04038c00e203000088
:020000040000fa
:04039000e203000084
:020000040000fa
:04039400e203000080
:020000040000fa
:04039800e20300007c
:020000040000fa
:04039c00e203000078
:020000040000fa
:0403a000e203000074
:020000040000fa
:0403a400e203000070
:020000040000fa
:0403a800e20300006c
:020000040000fa
:0403ac00e203000068
:020000040000fa
:0403b000e203000064
:020000040000fa
:0403b400e203000060
:020000040000fa
:0403b800e20300005c
:020000040000fa
:10040000cfe520000eff27000e018800000000004d
:10041000000020000000e000020032000001200087
:100420002002880014000700e80007000000e00038
:1004300003003a00403a2400010020000200370087
:100440000000200001002000810f70000100320038
:1004500014000700000020000000e000020032004d
:1004600000000200000000006044020000000000e4
:100470000040da000000fe004440a90020002000f7
:100480000000e0000300320010002000900188000e
:100490004440a800000006008a1f78008b1f7800e7
:1004a00000000600a1028800800478000000eb0034
:1004b0001f003700e284440054a0b4009905ba003c
:1004c000e284440054a0b4009906ba00e2844400d7
:1004d00054a0b4000006eb00476fde00fd07b20039
:1004e000ae018800636ce10003003a00eaff0700f8
:1004f0000000eb000e003700606ce10008003a00dd
:10050000004deb000a05e800020039003420ec0041
:100510000af0a0008b05e900f9ff3e000400370057
:100520006168e100010032000086eb000b0007006b
:1005300019c7ba001905ba000e04e00003003a001a
:100540000a00e000dbff3a0000000600fe07b200f0
:10055000ae0288008a047800f5ff37000cd0a300b3
:10056000e20f4d001c00390089027800354dba00b9
:100570000a05e800020039003420ec000af0a0006f
:100580008b05e9000f003200254dba000a05e8008e
:10059000020039003420ec000af0a0008b05e900cd
:1005a000080032000c00e0000600320015cdba0051
:1005b0000a05e800020039003420ec000af0a0002f
:1005c0008b05e9008984e80054a0b4000b00e0002a
:1005d000e2ff3a00000006009902ba00055d7800cb
:1005e0008b05e900f7ff3200c82ade00055d7800c0
:1005f0008b05e900f3ff32000c00e000f1ff320050
:1006000019ddba00eeff370044430400000000008b
:1006100066060400000000003600f800809fbe005f
:10062000829fbe00849fbe00869fbe000000fa002d
:100630008020a9000000eb00df2007000080fa0006
:100640004f03be004f02be004f01be004f00be0070
:100650003600f900004006003600f800809fbe001a
:10066000829fbe00849fbe00869fbe000000fa00ed
:10067000d62007008040a90010002000ce200700ef
:100680000080fa004f03be004f02be004f01be00c3
:100690004f00be003600f900004006003600f800aa
:1006a000809fbe00829fbe00849fbe00869fbe00ca
:1006b0000000fa008060a90020002000be20070092
:1006c0000080fa004f03be004f02be004f01be0083
:1006d0004f00be003600f900004006003600f8006a
:1006e000809fbe00829fbe00849fbe00869fbe008a
:1006f0000000fa008080a90030002000ae20070032
:100700000080fa004f03be004f02be004f01be0042
:100710004f00be003600f900004006003600f80029
:10072000809fbe00829fbe00849fbe00869fbe0049
:100730000000fa00220d07008680a9000080fa0060
:100740004f03be004f02be004f01be004f00be006f
:100750003600f900004006003600f800809fbe0019
:10076000829fbe00849fbe00869fbe000000fa00ec
:10077000f04180000000e00002003200f041800003
:1007800000000100b0e52000104078008040e80043
:10079000b0e5200001487800a0e5200011c0b300ba
:1007a000014878008500a9000080fa004f03be00d0
:1007b0004f02be004f01be004f00be003600f900e0
:1007c000004006000040da000000fe0000000500c6
:1007d0001400200048003700f4ff2f0046003700c7
:1007e0006011b8005f003700889fbe008a9fbe007e
:1007f0008c1f7800b0000700b700330003866c0040
:100800006450e100240032006420e100270032003f
:100810006150e100220032006120e100210032003d
:100820008b854200eb07b1000134b800003ab800f4
:100830000804420089844a00013ab8000030b80038
:100840008880400009014a00040033000000400095
:1008500081804800020149008b05e900c909dd00db
:10086000830170000100320013002000c814de0074
:100870004814dd004709de001200b200c808de009f
:10088000088470006600070001f0a1000cf0a700ca
:1008900001f0a000990037006120e1009b003200c8
:1008a0000801be000200be00f7ff37006150e10002
:1008b000fcff3a00950037006022b80006022000d5
:1008c0000000d0008180d2000482d2008582d20054
:1008d0000000a0000202520083825a00030031008f
:1008e0000202420083824a000000a1000603e900e0
:1008f000f3ff3a0000000600889fbe008a9fbe00fa
:10090000841f78006c0007004f007800110033004e
:10091000f0ff2f00838f6c0006003b00040565008c
:100920000a00a7000800370009f0a6001000200008
:1009300008003700820f5400838f5c0003003900e9
:100940001000200001003e000000200009f0a70078
:100950000000ea004f05be004f04be000000e000aa
:1009600000000600889fbe008a9fbe0000827000c3
:100970000402710004827100260032000004be00ef
:100980000200be006011b8006b0920009502200033
:100990000182cf000a0039000541b1000082cf007a
:1009a000070039000541b1000982cf000400390079
:1009b0000541b1000882cf00010039000541b100b6
:1009c00005425200120032000a003b008281710091
:1009d000610164008100d1000080d3008984d300cc
:1009e0000884d3008b05e8000442e800f7ff3a00d2
:1009f000070037000804440089844c0000004800c8
:100a0000818048008b05e9000442e900f9ff3a00c3
:100a1000030007004f05be004f04be0000000600a3
:100a200081002000618055000b003d000b0020007c
:100a300061fe2f000100e1001d0034008281710081
:100a4000610164008904d1000884d3000000e8003b
:100a5000faff3a007100200061006400030070009a
:100a6000020060000900320061044400e0844c0090
:100a70000988a500050032008b05e8006808e10040
:100a800002003a008904d1000884d300f20f20004c
:100a90000258e10005003d00c75ddd00f907b20026
:100aa0008980750008007800000006000bf8270018
:100ab0008b007800000005000004be00160007004f
:100ac0000003be000405be000200be0012000700c5
:100ad000844f7500000006000200be006450e10073
:100ae000050036006420e100020036000968a3001a
:100af00001003a000800be000160a0004f06780027
:100b00004f05be004f04be0000000600f0ff2f009e
:100b1000f1ff2700f9ff3700c70ade00f107b20036
:100b2000f50fb20008003200e1cf420002003200af
:100b30000170a00024000500810f70000100320048
:100b40000408050044000500810f700002003a000f
:100b5000140005008502e9000000400081c0480043
:100b6000fcff3b000170a00024000500800178001c
:100b700002003700b15978000201e9000200e000ec
:100b8000fcff3a00000006008001780002003700f8
:100b9000815978000201e9000200e000fcff3a0000
:100ba0000000060000017800820178003204e000b5
:100bb000fdff3a0003017800b14178000359780045
:100bc0000304e000fcff3a0000000600800078000b
:100bd000010178003104e000fdff3a0000005100ff
:040be000000006000b
:020000040000fa
:100be4000e00fa0060922f00d1002000008fbe009a
:100bf400e20a07001e01be0070c1b300320d0700f7
:100c0400291107008000eb00a0408800b140880053
:100c140010c0b300f70e0700002c210001002000d3
:100c2400491f0700e7100700200798000040eb0069
:100c3400f00e0700ae009000f00f2000008060006e
:100c4400300798002e0090004800de00400798000e
:100c5400be0090003e0090000088b90000017800ba
:100c6400ce0090004e0090000088b900000078008b
:100c7400000041008000eb005007980061079800d5
:100c84005e019000ee019000c2408800d3408800cd
:100c94005e019000ee019000c0fd2f0001002000d5
:100ca400800f5100818f590004003600c0fd2f00d1
:100cb40001002000c0408800d1408800950a070048
:100cc4000080fa00000006000000fa005040800096
:100cd4000000e00002003a0010c0b3000100370039
:100ce40010c0b3000080fa00000006000200fa0001
:100cf400004f78001ec8bf009e4f50001200320003
:100d04001ec8bf000080fb00e10f500002003a0043
:100d14002d1a070001003700000000001e80fb00b0
:100d2400e10f500003003a0020e52000201a0700dc
:100d340001003700000000001e417800e18120001e
:100d44008248780001003700000000000080fa00ab
:100d5400000006000000fa00020007000080fa000c
:100d6400000006000000fa00a0de2000b1cfb300ae
:100d7400014878000080fa00000006000200fa0032
:100d84000000eb00000f7800080037009e00780098
:100d9400a00220000088b900800078004084200070
:100da40000804000741207001e0fe800004080001d
:100db4009e007800808f5000f4ff35000080fa0018
:100dc400000006000000fa00ecff07006066200047
:100dd4008042eb0014c0b300800178000041eb00b6
:100de40011c0b300d08a2000171807000040780013
:100df40002e8b70002c8bf000004e00002003200ad
:100e0400d08a20002040880002c8bf000080fb0078
:100e14000080fa00000006000000fa00020007004b
:100e24000080fa00000006000000fa00106f800045
:100e3400104078000080fb000000e0000400320055
:100e4400f10f2000810f5000090032000f0037001d
:100e54004a0a07000040eb00660e07002d0a07004f
:100e6400a0de20008040eb00014878000b00370032
:100e7400420a070010c0b3005e0e0700a0de200087
:100e84008040eb000148780004003700a0de200019
:100e940091cfb3000148780000000000306f80005b
:100ea4008040eb000148780010002000406f88006b
:100eb4000080fa00000006000000fa0002000700ab
:100ec4000080fa00000006000000fa000080fa002a
:100ed400000006000000fa00280a070003000700cb
:100ee4000c0a07000080fa00000006000000fa0067
:100ef4000080fa00000006000a00fa000000eb007f
:100f0400100798000000eb00200798006000b8006c
:100f14003007980041079800106f80000000e80037
:100f2400104078000080fb008000eb003e01900040
:100f3400ce019000020040008380480030079800f2
:100f440041079800106f80000080e800104078008e
:100f54000081fb008001eb004818dd00c810de00b2
:100f6400810070004810dd003e019000ce01900029
:100f74000200400083804800300798004107980031
:100f8400106f800063004000104078000080fb0078
:100f94008000eb00c000dd00000020003e01900056
:100fa400ce01900002004000838048003007980082
:100fb4004107980040ad2000104f780040c3b300b3
:100fc4009e40780080cf50000200360040c3b3003a
:100fd400004f78001e80fb00c200dd0060ad2000e1
:100fe400008040003e019000ce0190000288be00c7
:100ff4009e80fb0060ba2000008040008040eb002f
:1010040001487800106f80006400400010407800b0
:101014000004e000340032001e81fb001e80fb004f
:10102400210d20008080400040ad20000080400061
:10103400104078008040e80060ba200000004100c1
:10104400014878001e81fb00106f8000650040009d
:1010540090407800a0bd20000000410001487800c5
:101064001e81fb00106f80006600400090407800f5
:1010740020c4200000004100014878001e81fb00cc
:10108400106f80006700400090407800a0ca2000e4
:101094000000410001487800106f800068004000a3
:1010a400104078000080fb0010079800106f80004b
:1010b40069004000104078000080fb004800dd001b
:1010c4009e00900000804000100798001e80fb00e6
:1010d400f011b0008000400040ad200000804000ce
:1010e4009e01900003087800106f80006a004000a1
:1010f400104078000004e000340032001e81fb0040
:101104001e80fb00210d20008080400040ad2000a7
:10111400008040001040780080c0e80060ba2000e1
:1011240000004100014878001e81fb00106f800020
:101134006b00400090407800e0c0200000004100b7
:10114400014878001e81fb00106f80006c00400095
:101154009040780060c720000000410001487800fa
:101164001e81fb00106f80006d00400090407800ed
:10117400e0cd20000000410001487800106f80009d
:101184006e004000104078000080fb0020079800ab
:10119400106f80006f004000104078000080fb005a
:1011a4004800dd00ae009000008040002007980059
:1011b4001e80fb003015b0008000400040ad2000d0
:1011c40000804000ae009000010878001e80fb0003
:1011d400210d20008080400040ad200000804000b0
:1011e400104078000004e0000500320040ad20000b
:1011f400104078008040e80040ad200001487800ad
:1012040040ad20009040780030c3b30080cf500040
:101214000500360040ad200041c3b300014878000a
:1012240050c3b3000200370040ad200010407800e6
:101234000080fa00000006000000fa000200070027
:101244000080fa00000006000000fa00306f800001
:10125400320020008000eb004afe0700a0de2000e0
:101264008040eb0001487800106f80001040780047
:101274000080fb00e10f500011003200e20f50002b
:101284001d0032000000e00034003a00306f80009e
:101294008040eb0001487800306f80000000e800d7
:1012a40041c3b30001487800306f80000080e8003b
:1012b40041ad2000914078000148780032003700a9
:1012c40050ad20008040eb000148780040ad200084
:1012d4008040eb0001487800306f800011c0b300fb
:1012e40001487800306f80000000e80041c3b3007b
:1012f4000148780024003700206f8000ef0f500071
:1013040004003e00a0de200091cfb3000148780025
:1013140007003700f8fe070041c3b300814f5000b7
:1013240003003600a0de200080c0eb0001487800f6
:10133400306f800021c0b30001487800306f800016
:101344000000e80041ad20009140780042c3b300a2
:1013540081405100014878000b003700306f800055
:1013640080c0eb0001487800306f80000000e80086
:1013740041c3b30001487800a0de2000b1cfb30020
:10138400014878000000000030002000406f880011
:101394000080fa00000006000000fa0002000700c6
:1013a4000080fa00000006000200fa000040eb0092
:1013b400004f7800106f8000104078000004e000b7
:1013c4000e003200106f80000000e800104078002a
:1013d400e34f50000300360090cfb300004f780075
:1013e40006003700e5080700106f80000000e800e1
:1013f4001040780011e8b700c6080700306f80007d
:10140400a2002000f10f2000defd07000080fa009a
:10141400000006000600fa00004f7800114798000b
:101424001207980023079800d40807001e4078008c
:101434000004e000040035009e4090001e40780047
:101444006a0a0700020037001e407800000a0700fd
:101454002e0090008040eb00014878001e009000b0
:1014640011002000010878000040eb000080fa0021
:10147400000006000600fa00004f780011079800eb
:1014840022079800bd0807001e4078002f0a0700b5
:10149400ae009000804878001e00900011002000eb
:1014a400010878009b0807000040eb000080fa0068
:1014b400000006000000fa00b0080700030007005f
:1014c400940807000080fa00000006000000fa00fb
:1014d400881f7800106f8000104078000004e0003e
:1014e40004003200106f80000000e8001040780013
:1014f400730d070090002000406f8800306f80005b
:101504000004e8001c0d0700004c7800a0de200059
:101514008040eb00014878004f0478000080fa0016
:10152400000006000000fa001ec8bf00e14f500092
:1015340001003a001e68ef00106f80001040780030
:101544000004e00005003200106f80000000e80095
:101554009040780030e5200001487800106f80004a
:101564000080e800104078000004e000050032002c
:10157400106f8000630040009040780040e5200038
:1015840001487800106f800064004000104078002b
:101594000004e00005003200106f80006500400088
:1015a4009040780070e5200001487800106f8000ba
:1015b40066004000104078000004e000050032009e
:1015c400106f8000670040009040780050e52000d4
:1015d40001487800106f80006800400010407800d7
:1015e4000004e00005003200106f80006900400034
:1015f4009040780020e5200001487800106f8000ba
:101604006a004000104078000004e000040032004a
:10161400106f80006b0040001040780022e8b70093
:10162400106f80006c004000104078000004e0005f
:1016340005003200106f80006d004000904078007b
:1016440060e5200001487800106f80006e004000c3
:10165400104078000004e00005003200106f8000a4
:101664006f0040009040780080e520000148780039
:10167400306f8000020120008000eb0041fd070074
:1016840000012000406f8800a0de20008040eb00b5
:1016940001487800306f80000000e80031e5200048
:1016a4009140780001487800306f8000630040006a
:1016b40041e520009140780001487800306f8000b7
:1016c4006500400071e520009140780001487800f1
:1016d400306f80006700400051e5200091407800a1
:1016e40001487800306f80006900400021e5200047
:1016f4009140780001487800306f80006b00400012
:10170400218220009140780001487800306f8000e9
:101714006d00400061e520009140780001487800a8
:10172400306f80006f00400081e520009140780018
:10173400014878000080fa00000006000000fa006a
:1017440078ff07000080fa00000006000600fa0097
:10175400881f780010079800210798000040eb00cc
:1017640010479800050807000040eb00004f780080
:10177400290037001e407800ef4f5000250032004a
:101784001e407800fd4f50000400360010c2b30024
:101794009e40780080cf50001e00360020c2b30067
:1017a4009e40780080cf50000400360080c2b30011
:1017b4009e40780080cf500016003600e0c2b3008f
:1017c4009e40780080cf50000400360020c3b30050
:1017d4009e40780080cf50000e00360040c3b30016
:1017e4009e40780080cf50000a0032001e409000d6
:1017f4000080fb00ae009000008440001e40780092
:1018040052090700004c78001e4090000040e80098
:10181400104798001e4fe800e0c3b3009e407800d4
:1018240080cf5000d3ff36001e4090000080fb00a4
:101834000000e800800078001e0090000108780095
:10184400b40707000040eb004f0478000080fa0062
:10185400000006000600fa00808920002007980096
:101864006000b800008fbe000a0037002e00900010
:101874008040eb00014878002e0090000000e80052
:101884002007980012002000030020001e0f4100d2
:101894005e974900b00f2000010020001e01be0029
:1018a400800f5100818f5900f0ff36000080fa004c
:1018b400000006000000fa00306f80008040eb005a
:1018c40001487800306f80000000e8008040eb00a1
:1018d40001487800a0de2000b1cfb30001487800b1
:1018e40020002000406f88000080fa0000000600fd
:1018f4000000fa0020002000406f8800a0de2000d5
:10190400b1cfb30001487800306f80000000e800d8
:101914008040eb00014878000080fa0000000600d7
:101924000000fa009507070020c0b300effc070091
:10193400efff0700770707000080fa0000000600a9
:101944000000fa0010002000406f8800a0de200094
:10195400b1cfb300014878000080fa00000006000f
:101964000000fa008507070020c0b300dffc070071
:10197400f3ff0700670707000080fa000000060075
:101984000200fa0003c8bf000004e00005003a00aa
:1019940028000700004f780010c0b30003e8b70028
:1019a40001003700000000000080fa00000006007b
:1019b4000000fa00106f8000104078000ee8b700b5
:1019c400106f80000000e800104078000fe8b700b6
:1019d400106f80000080e8001040780010e8b70025
:1019e400e7ff0700a0de20008040eb0001487800fc
:1019f4000080fa00000006000000fa0078060700e4
:101a04000c0007000080fa00000006000000fa0045
:101a14002d0707000080fa00000006000000fa000d
:101a24000400070002e8b70002c8bf000080fa0003
:101a3400000006000200fa0069060700004f780063
:101a44001e4078000004e00036003a0010c0b300e5
:101a5400a6fc070010c8bf008040780090c2b30005
:101a6400e208070010c8bf00e84f500002003a0027
:101a7400a0cab300760807000268ef00bffc0700a5
:101a84000ec8bf000004e00011003a000fc8bf00f8
:101a94000080fb000000e9004f00de0000417800f8
:101aa4006166200022c8bf0015c0b300024278005e
:101ab4008101780000417800c1c0b3008089200012
:101ac400fb1307000040780002e8b700100037005d
:101ad4000fc8bf000080fb000000e9004f00de00db
:101ae400004178006166200022c8bf0015c0b30021
:101af400024278008101780000417800c1c0b3003f
:101b040080892000d01407000040780002e8b70064
:101b140010c8bf00e84f500002003a00b0cab3003a
:101b24004b0807001e41780021812000824878007c
:101b3400e506070002c8bf000080fa0000000600a6
:101b44000000fa00020007000080fa00000006000e
:101b54000200fa000040eb00004f78000040eb0068
:101b640010479800106f8000104078000004e000d7
:101b740002003a000028ef00b0003700106f800028
:101b840010407800e14f500006003a000040800009
:101b9400e20f500008003a0000c0eb00004f78004c
:101ba400a6003700106f800010407800e24f50000c
:101bb40001003a000028ef00206f8000e80f500079
:101bc40003003e0090cfb300004f78009b00370025
:101bd4000040800010479800004080000000e800aa
:101be400004088001e4090008080fb00106f800041
:101bf4000000e80010417800a00220000088b9002d
:101c04008000780040842000008040000248780072
:101c14001e4090008080fb00106f80000080e80070
:101c240010417800a00220000088b90080007800ec
:101c34004084200000804000124098001e40900024
:101c44008080fb00106f800063004000104178002a
:101c5400a00220000088b900800078006084200081
:101c640000804000024878001e4090008081fb0004
:101c7400106f800064004000104078000080fb007a
:101c84008000eb00a20220000299b90082017800d2
:101c940082862000028141000089be001e4090001f
:101ca4000082fb001e4090008080fb00a002200008
:101cb4000088b900000078004102200080804000c4
:101cc40040842000008040001001be00106f80009e
:101cd40065004000104078000080fb004800dd00f3
:101ce400cf80de000000710081807100a20220001c
:101cf40002a1b9008201780082862000028141009d
:101d04000089be001e4090008080fb00106f8000a0
:101d14006600400010417800a00220000088b9004d
:101d240080007800c08620000080400002487800cf
:101d34001e4090008080fb00106f80006700400010
:101d440010417800a00220000088b90080007800cb
:101d5400c08620000080400012409800206f800060
:101d6400690150001e4090008080fb00a00220000a
:101d74000088b900000078008102200080804000c3
:101d84004084200000804000104078000080fb0068
:101d9400670040000000e00001003d0067004000d3
:101da4004380de00800f51000300310090cfb30068
:101db400004f7800210037001e4090008080fb0017
:101dc400a00220000088b9000000780081022000f1
:101dd4008080400040842000008040001040780053
:101de4000080fb00670040000000e00001003d00af
:101df400670040004380de0000017800106f80001f
:101e0400e80140001e4090008080fb00a0022000fa
:101e14000088b900000078008080e8004084200039
:101e2400008040000000e800830078004efb0700bb
:101e340088fe07000040eb00004f78000000eb0034
:101e4400406f8800a0de20001e4878000080fa0061
:101e5400000006000000fa004806070010c0b300a6
:101e6400a2fb07004c0007000080fa0000000600f7
:101e74001200fa00200798003107980042079800e2
:101e840053079800444f9800554f980076079800e0
:101e9400070f98000040eb00004f78000040eb0073
:101ea40010479800350037000040eb0020479800a9
:101eb4001e4090000080fb0000004000de00900007
:101ec400008240001e4090000081fb008001eb0076
:101ed4002e009000be009000020040008380480065
:101ee4008e0a90000001be00de4890004e00900073
:101ef400f1110700004f78002e4090000040e800e8
:101f0400204798001e4078000004e00003003200df
:101f140000202e00410020008b1a07002e40900064
:101f2400e64f500006003e001e4078000004e0002a
:101f34000300320064fb07000004e000dcff3a0009
:101f44000cc8bf000004e00002003200c0cbb300a4
:101f5400004f78001e4078000004e00004003200c6
:101f64007e0090001e4878001e4090000800370054
:101f74001e4090000040e800104798009e409000ea
:101f84004e48900080cf5000c7ff39001e4090009b
:101f94000080fa00000006000800fa000040eb0090
:101fa400004f78000040eb0070479800106f8000ed
:101fb4009040780011479800106f80000000e800fe
:101fc400241707001007980021079800206f80004d
:101fd400690050000000d100604798000005070028
:101fe400704798007e4090000004e00035003a00fd
:101ff40074fb070002c8bf000004e00003003a00bd
:10200400f0cbb300704798002e003700106f8000ab
:1020140065004000104078000004e0000f003a0022
:10202400106f800066004000104078000004e0005b
:102034000a003a00106f80006700400010407800ea
:102044000004e00005003a00106f800068004000c2
:10205400104078000004e00008003200106f800097
:10206400e50040002040800096100700704798006b
:102074007e4090000004e00011003a00306f8000c0
:102084008000e800106f800069014000204080005b
:10209400e701470081037800030378009e42900023
:1020a4006e42900082017800000178001e009000ca
:1020b400ae0090006eff0700004f7800010037006b
:1020c400000000008005070020002000406f880009
:1020d400306f80001e487800fe409000a0de200093
:1020e400014878000080fa00000006000400fa00ad
:1020f4000000eb0010079800116f80001fc8bf009c
:102104000080fb00000040006700400000804000a9
:10211400104078008080fb00126f80001fc8bf0051
:102124000080fb006400400000004000000041000b
:10213400104078000080fb004800dd0001007000c2
:102144008000780000418000008068000041880021
:102154001fc8bf000040e8001fe8b7001fc8bf0049
:10216400e54f5000010036001f68ef000041800079
:1021740000407800004f7800004180004800de00f5
:1021840000407800104798000e80e80017c0b300a4
:102194000043eb008042eb00000278008001eb007a
:1021a400020120008e00780000c9b300f70b07007d
:1021b4000080fa00000006001400fa006000b80075
:1021c4001007980021079800106f80000000e800b5
:1021d400104078000080fb008000eb001e0190009e
:1021e400ae01900002004000838048001007980070
:1021f40021079800106f80000080e80010407800ec
:102204000081fb008001eb004818dd00c810de00ef
:10221400810070004810dd001e019000ae019000a6
:1022240002004000838048001007980021079800ae
:10223400106f800063004000104078000080fb00b5
:102244008000eb00c000dd00000020001e019000b3
:10225400ae019000020040008380480010079800ff
:1022640021079800106f8000104078000080fb0068
:10227400e50f5000da003200e50f500007003c0083
:10228400e20f500048003200e40f500074003200a6
:10229400e10f500008003200d6013700e90f50006a
:1022a40057013200f00f500080013200e80f500057
:1022b4000d013200cf013700206f8000e30f500082
:1022c40006003e00a0de200091cfb3000148780054
:1022d40030002000406f8800d30137002705070035
:1022e4001e019000ae01900070c1b3007607070094
:1022f400b0c8b300004f7800920907001e40780070
:102304007b404000004f78001e407800ec09070035
:1023140060479800f1004700700047000101780011
:10232400800078000000eb00560a07000e50900071
:102334000080fb006f006000ed0f500003003400cc
:102344001e407800f44f4000ecff3500830907007d
:1023540030002000406f8800306f80008e50900065
:10236400efc0600001487800306f80000000e80092
:102374008e5090008180fb00c408de00814078000c
:1023840001487800306f80000080e8009e50900083
:1023940001487800a0de20008040eb00014878006e
:1023a400dc040700a0013700206f8000e40f500018
:1023b40006003e00a0de200091cfb3000148780063
:1023c40020002000406f880097013700eb040700cd
:1023d4001e019000ae01900070c1b3003a070700df
:1023e400310b07004007980010c0b3000109070033
:1023f400f40a0700500798000040eb00fd080700ae
:1024040020002000406f8800306f8000de009000c4
:1024140001417800ce009000814078008140510055
:1024240001487800306f80000000e800de00900072
:10243400c808de0001417800ce009000c808de0024
:10244400814078008140510001487800a0de2000de
:102454008040eb0001487800ae04070072013700a9
:10246400206f8000e50f500006003e00a0de200033
:1024740091cfb3000148780010002000406f88001d
:1024840069013700106f800064004000104078003c
:102494000004e0000c003200409920008040eb0072
:1024a400014878002468ef001e019000ae019000fe
:1024b40052418800634188001e019000ae019000e3
:1024c4003241880043418800409920001040780040
:1024d4008040e800409920000148780024c8bf00eb
:1024e4000040e80024e8b7004099200090407800bc
:1024f40050c3b30080cf50000c0036004099200038
:1025040051c3b3000148780010002000406f8800d8
:10251400306f80008040eb0001487800a0de20008e
:1025240080c0eb00014878003f013700409920004b
:10253400104078000080fb000000e900c200dd00cc
:1025440060992000008040001e019000ae019000c0
:102554000288be00106f80006500400010407800c3
:1025640023e8b70052418000634180001e009000c0
:10257400ae009000800f5100818f5900040031009b
:102584001e019000ae019000524188006341880012
:1025940032418000434180001e009000ae00900054
:1025a400800f5100818f5900040036001e019000f5
:1025b400ae019000324188004341880010002000a1
:1025c400406f8800306f80008040eb000148780045
:1025d400a0de20008040eb000148780012013700a3
:1025e400306f8000318220009140780001487800eb
:1025f400306f80000001e8003041800041418000dc
:102604000040780000497800306f80000081e800c5
:102614003041800041418000c809dd004800de00ef
:1026240000807100c808de0000407800004978008e
:10263400306f8000630140003041800041418000e0
:102644004008de000040780000497800306f8000c8
:1026540064014000504180006141800000407800e6
:1026640000497800306f80006501400050418000cf
:1026740061418000c809dd004800de00008071006f
:10268400c808de000040780000497800306f800000
:102694006601400050418000614180004008de0036
:1026a4000040780000497800306f800067004000e7
:1026b400419920009140780001487800306f8000f3
:1026c4006800400041822000914078000148780071
:1026d40090002000406f8800a0de20008040eb00c6
:1026e40001487800d0003700206f8000e70f5000c9
:1026f40006003e00a0de200091cfb3000148780020
:1027040010002000406f8800c7003700106f800061
:102714000000e800104078000080fb008041880041
:10272400106f80000080e800104078000080fb00fb
:102734004800dd00800078008041800001007000c6
:1027440080418800106f80006300400010407800d2
:102754000080fb0070418800106f8000640040001e
:10276400104078000080fb004800dd008000780005
:10277400704180000100700070418800106f80007b
:1027840065004000104078000080fb004040880055
:10279400106f800066004000104078000080fb004d
:1027a4004800dd0080007800404080000100700097
:1027b40040408800106f800067004000104078009f
:1027c40006e8b70010002000406f8800306f8000da
:1027d4008040eb0001487800714180001003200024
:1027e400808f500002003e002003200070418800ca
:1027f400a0de20008040eb00014878008a0037000a
:1028040070002000406f8800306f8000814180009c
:102814008140780001487800306f80000000e800b3
:1028240081418000c808de008140780001487800ba
:10283400306f80000080e8007141800081407800a2
:1028440001487800306f80006300400071418000cf
:10285400c808de008140780001487800306f8000ad
:1028640064004000414080008140780001487800c5
:10287400306f80006500400041408000c808de00e1
:102884008140780001487800306f80006600400085
:10289400618020009140780001487800a0de20008b
:1028a4008040eb00014878005f003700206f800013
:1028b400f10f500006003e00a0de200091cfb300cf
:1028c400014878000000eb00406f88005600370094
:1028d400106f800064004000104078008080fb008e
:1028e400106f800065004000104078000080fb00fd
:1028f4004800dd0001007000600798000000eb0054
:10290400100f98009d03070070c0b3000f05070067
:10291400604f980080c0b3000c050700704f98000a
:102924008040eb0070c0b300300507008040eb002e
:1029340080c0b3002d0507001e019000ae01900079
:1029440070c1b300e005070010c0b300e7f807004a
:102954000000eb00406f8800ee00900051408800ba
:102964000c68ef0010c0b300a207070000e82300c2
:1029740001002000f4170700106f8000660040007b
:1029840010407800e14f500002003a00d7fd0700e4
:102994000a0037007200470017c0b3000043eb0081
:1029a4008042eb00000278008001eb000001eb00a4
:1029b4008000eb00e0c9b300f40907003428ef00fd
:1029c400c1f807000004e000ebff3a000040eb0010
:1029d40088070700ee48900070c0b30003050700a5
:1029e400fe48900080c0b3000005070049030700bb
:1029f4000d00370020002000406f8800306f8000f9
:102a040080c0eb0001487800306f80000000e800cf
:102a140080c0eb0001487800a0de2000b1cfb300f5
:102a240001487800000000000080fa000000060061
:102a34000000fa005103070010c0b300abf8070010
:102a4400020007000080fa00000006000c00fa00f3
:102a54000040eb00004f7800106f80009040780039
:102a6400214f9800106f80000000e80079140700df
:102a74001007980021079800406f80006047980075
:102a84000040eb0070479800416f8000306f800079
:102a9400010178008000eb003af8070050020700bb
:102aa400004f78001e4078000004e0007f003a00e8
:102ab400c4f8070002c8bf000004e00003003a00a5
:102ac400f0cbb300004f780078003700106f80001f
:102ad40065004000104078000004e0000f003a0058
:102ae400106f800066004000104078000004e00091
:102af4000a003a00106f8000670040001040780020
:102b04000004e00005003a00106f800068004000f7
:102b1400104078000004e00008003200106f8000cc
:102b2400e500400020408000e60d0700004f7800db
:102b34001e4078000004e0005b003a006e40900004
:102b44000080fb0061006000004078000004e000a9
:102b54003a003200316f8000410798006e409000c7
:102b64000080fb000000d10060479800240037007b
:102b74001e009000ae0090001e019000ae01900077
:102b840061014100e0814900120798002307980081
:102b940026408000ce02900014c0b3000001be00a5
:102ba400ae489000060078004f0f0700004f7800f1
:102bb400e0cdb3009e40780080cf500004003a007e
:102bc4007e4090000040e8007047980006003700ff
:102bd4001e4078000004e00003003a007e409000ac
:102be40000c0e800704798004e0090000080e800a4
:102bf400400798006e4090000040e900604798004c
:102c04001e4078000004e00006003a006e40900088
:102c14000004e000030032002bf807000004e00089
:102c2400d3ff3a000cc8bf000004e0001f003200cc
:102c3400c0cbb300004f78001c0037006e409000fa
:102c44000080fb000000d10060479800316f8000d5
:102c540020408000810278006e4290001e019000a6
:102c6400ae019000ae4890001f0f0700004f78009f
:102c7400e0cdb3009e40780080cf500003003a00be
:102c840010c0b30070479800080037001e40780059
:102c94000004e00005003a006e409000004040004f
:102ca400704798000100370000000000860207000a
:102cb4007e4090000080fb00406f8800a0de200072
:102cc4001e4878000080fa00000006000000fa00a8
:102cd400aa02070010c0b30004f8070002000700ae
:102ce4000080fa00000006000400fa00116f800062
:102cf40011079800ba010700004f78001e407800c1
:102d04000004e0002b003a002ef8070002c8bf00c0
:102d14000004e00003003a00f0cbb300004f780059
:102d240024003700106f80006300400010407800da
:102d34000004e0000f003a00106f800064004000bf
:102d4400104078000004e0000a003a00106f800090
:102d540065004000104078000004e00005003a00df
:102d6400106f800066004000104078000004e0000e
:102d740008003200106f8000e30040002040800013
:102d8400500d0700004f78001e4078000004e0005a
:102d940007003a00316f8000204080000101780074
:102da4009e0090009c0d0700004f78000100370042
:102db400000000001e4078000004e0000300320020
:102dc40000202e0041002000df1607003e0207000d
:102dd400a0de20001e48780010002000406f88000c
:102de4000080fa00000006000600fa00116f80005f
:102df40011079800106f8000640040009040780034
:102e040041479800106f80006500400090407800b2
:102e1400514798005902070010c0b300b3f70700e8
:102e24006f010700004f78001e4078000004e000a6
:102e34000f003a00e3f7070002c8bf000004e000f7
:102e440003003a00f0cbb300004f780008003700cd
:102e5400316f80002040800001027800de41900044
:102e64004e4190009e009000a70d0700004f78008f
:102e74001e4078000004e0000300320000202e0011
:102e840041002000b01607000f02070010002000c8
:102e9400406f8800a0de20001e4878000080fa0001
:102ea400000006000000fa00106f80001040780057
:102eb4000004e00013003200106f80000000e800fe
:102ec400104078000de8b7000dc8bf000004e00012
:102ed4000c003200106f80000080e8001040780081
:102ee4000ee8b700106f80006300400010407800c7
:102ef4000fe8b700106f80006400400010407800b5
:102f040010e8b7000000eb00406f8800a0de20004e
:102f14008040eb00014878000dc8bf000004e000c9
:102f240001003a00fb0107000080fa0000000600df
:102f34000000fa001102070010c0b3006bf707008d
:102f4400020007000080fa0000000600d800fa0022
:102f54000040eb00004f7800416f8000306f80002c
:102f6400010178008000eb0006f707001c01070050
:102f7400004f78001e4078000004e00081003a0011
:102f840090f7070002c8bf000004e00003003a0005
:102f9400f0cbb300004f78007a003700106f800048
:102fa400104078000004e0000f003a00106f800029
:102fb4000000e800104078000004e0000a003a0035
:102fc400106f80000080e800104078000004e000ea
:102fd40005003a00106f8000630040001040780044
:102fe4000004e00007003200116f800020408000e0
:102ff400b40c0700004f78001e4078000004e00085
:103004005f003a00106f80006400400010407800b8
:103014000080fb00c400dd00106f800065004000ec
:10302400104078000080fb004400de00004078007f
:103034000080fb000100700030079800106f8000d2
:1030440065004000104078000080fb006f006000c5
:10305400c800dd00106f800066004000104078005a
:103064000080fb000100700070079800106f800062
:103074006700400090407800014f9800106f800076
:103084006800400090407800114f98003e00900086
:10309400690050004300de00500798005e00900075
:1030a400c300dd003e00900000805000700040002e
:1030b400100798005e0090000000e90020079800c7
:1030c4001e0090000000e00005003a002e00900071
:1030d4000000e800200798008000200010079800f6
:1030e4005e00900000417800106f8000e90040000d
:1030f4007000470083c0b3006c1207001e009000ec
:103104000041780020408000f1004000f0014700b9
:103114002e009000008041008241780022c0b3005c
:1031240062120700306f80008080e8006e01470063
:103134007000470017c0b3000043eb009e4a9000a4
:1031440002027800810178003e019000800078003e
:103154000e4890000d080700004f7800306f800083
:103164009e40780001487800306f80000000e8003d
:10317400fe0090008140780001487800010037008b
:10318400000000007e009000670040004300de0065
:103194006007980000202e0041002000ea15070077
:1031a400490107006e0090000080e800406f88002d
:1031b400a0de20001e4878000080fa00000006000f
:1031c4000000fa006d01070010c0b300c7f6070045
:1031d400020007000080fa00000006000a00fa005e
:1031e4000040eb0040479800406f80004200de0042
:1031f400004f7800316f8000110798006000b8001c
:103204003007980041079800106f80001040780044
:103214000080fb008000eb003e019000ce01900096
:10322400020040008380480030079800410798005e
:10323400106f80000000e800104078000081fb005f
:103244008001eb004818dd00c810de00810070002a
:103254004810dd003e019000ce01900002004000c5
:10326400838048003007980041079800106f800061
:103274000080e800104078000080fb008000eb0034
:10328400c000dd00000020003e019000ce0190004f
:1032940002004000838048003007980041079800ee
:1032a4000000eb00406f880010c0b3005105070018
:1032b4003e019000ce01900070c1b300820307006c
:1032c400aef60700240037001e00900063014000a2
:1032d4001e0090008080e8001e0090000000e800be
:1032e4008201780001017800800078001e009000bf
:1032f400ee090700404798004e4090000004e000ab
:103304000f0032001e0090008040eb00014878005e
:103314001e0090000000e8008040eb0001487800a7
:103324001e0090000080e80001c8b3000148780046
:103334001e0090006300400001c8b30001487800fb
:103344001e0090006400400010079800406f800049
:1033540064004000406f88001e80fb000000ea000b
:103364004f00de00004078001e4fe9000004e0003a
:10337400d5ff3a000040eb001e0507000080fa006c
:10338400000006000000fa001e68ef000d68ef0060
:103394000f68ef0010c0b3000ee8b70060c0b300c0
:1033a40010e8b70080cdb30006e8b70010c0b30042
:1033b40011e8b7000368ef000268ef000040eb007b
:1033c4000c050700d30007000080fa000000060087
:1033d4000400fa00008fbe000080fa00000006001e
:1033e4000600fa00889fbe008a1f780000c8b30058
:1033f40040479800e10007000040eb00fd0407008f
:1034040000e82300010020004f1507004099200028
:10341400104078000004e00006003a000dc8bf0028
:103424000004e00001003a00ba000700c0cbb3007a
:10343400a10037007041800050408800e0408000c7
:10344400104798000040eb00004f78001c00370044
:10345400e04080000000e800e0408800e140800097
:1034640040992000104078000080fb00808f5000bd
:10347400010039001c28ef00e04080004200dd001c
:103484008080e80040992000008040001000be00c9
:103494000001be0070c1b3000b030700804180002f
:1034a40064014700e5004700f6050700ce409000a0
:1034b40006c8bf0080cf5000060034001e4fe8004d
:1034c40040c3b3009e40780080cf5000e0ff360038
:1034d4000100370000000000ce40900006c8bf0085
:1034e40080cf50006b003c000c68ef00e04080008f
:1034f4004200dd008080e800409920000080400008
:103504001000be00b2ff070010c0b300b9040700ea
:1035140040ad2000104078000004e0005b00320061
:10352400e0408000b106200080804000018140001e
:103534004199200081004100910078000101e800d8
:10354400b106200080804000818140004199200024
:103554008180410082087800b006b00080004000fd
:10356400409920000080400090007800401f200017
:10357400808f5000450036000000eb0010079800d3
:10358400e0408000b006b000800040004099200078
:10359400008040008000eb00010878001e009000cd
:1035a4008000eb008df407000004be0032c8bf00a9
:1035b4000080fb008000e90050ad2000104078003e
:1035c4000081fb00400320000088b900000078005f
:1035d40002004000f011b0008000400040ad200027
:1035e40000804000100078008000eb007bf40700ae
:1035f4006266260063fa23007af407001ac0b30057
:103604000001be000800be0072f407000000e000e4
:1036140001003c000045eb000a04e0001b003a00f6
:103624001e0090008000eb006cf407000004be0054
:1036340032c8bf000080fb008000e90050ad2000cc
:10364400104078000081fb00400320000088b9008e
:103654000000780002004000f011b000800040003b
:1036640040ad200000804000100078008000eb0096
:103674005af407003233230033f3230059f40700cc
:103684000001be000800be0050f407000040eb003b
:103694000900370010c0b3000ce8b7000040eb008d
:1036a400540407000dc8bf000004e00001003a0004
:1036b40018000700c0cbb3004f0578004f04be00cc
:1036c4000080fa00000006000000fa0011c8bf00e4
:1036d400e24f5000020032000040eb0045040700b6
:1036e4000dc8bf000004e00001003a000900070013
:1036f4000080fa00000006000000fa000dc8bf00b8
:103704000004e000010032009df807000080fa0088
:10371400000006000000fa0011c8bf000080fb0092
:10372400e10f50000c003200e10f500003003c0098
:103734000000e000060032000d003700e20f5000e8
:1037440007003200e30f5000070032000800370082
:103754000d03070007003700c90307000500370001
:10376400d703070003003700e50307000100370013
:10377400050307000080fa00000006000000fa00bc
:1037840011c8bf000080fb00e10f50000c003200a4
:10379400e10f500003003c000000e000060032008e
:1037a4000d003700e20f500007003200e30f500015
:1037b40007003200080037004a03070007003700fb
:1037c400bc03070005003700ca03070003003700e5
:1037d400d803070001003700420307000080fa0005
:1037e400000006000a00fa00000f78002147980044
:1037f400220798006347980074479800054f980083
:103804000e4890000004e00001003200ed02a9001f
:103814002e4090000080fb000001eb008000780047
:103824001e007800ec1207006e4090000004e000d7
:10383400060032006e4090000080fb002e019000d4
:10384400800078000000eb00e31207007e40900047
:103854000004e00001003200ed02a8000080fa003c
:10386400000006000800fa00000f780021479800c5
:103874002207980063479800ed02a9002e409000ab
:103884000080fb000001eb00800078001e0078003f
:10389400d11207006e4090000080fb002e019000c2
:1038a400800078000000eb00cb120700ed02a800b6
:1038b4000080fa00000006000800fa0020079800c3
:1038c400310798006203070050c5b300004f780029
:1038d400a0cab3001047980000c0eb00204798002e
:1038e4000040eb003047980042c0b3008e007800df
:1038f40030c1b3002601070042002000310320003c
:103904000e0078009ff407000e01780041c0b30058
:1039140030c1b300eb0007009e40780050c5b300ef
:1039240080cf50000a003a009e409000a0cab30025
:1039340080cf500006003a002e409000e14f400036
:1039440003003a003e4090000004e0000200320010
:1039540010002000970037003d0307000e01780097
:1039640041c0b30030c1b300d60007009e407800c8
:1039740050c5b30080cf50000a0032009e40900032
:10398400a0cab30080cf5000060032002e40900041
:10399400e14f4000030032003e4090000004e0008c
:1039a40002003a00200020008200370000e82300d3
:1039b40001002000e413070001c2b30050c3b300a8
:1039c4000a01070031c0b300d0c3b30007010700e8
:1039d40000c9b3009e00070042c0b3008e00780007
:1039e400f0c3b300ea00070042c0b3008e007800c1
:1039f400f0c3b300e600070042c0b3008e007800b5
:103a0400f0c3b300e200070042c0b3008e007800a8
:103a1400f0c3b300de00070042c0b3008e0078009c
:103a2400f0c3b300da00070042c0b3008e00780090
:103a3400f0c3b300d60007000002200035010700e0
:103a4400a141800000022000008060000000e0002e
:103a540002003a0030002000560037003428ef00fe
:103a6400fb02070040c8b3007900070021c0b3007f
:103a74000040eb00dd0007008040eb0010c0b30005
:103a8400da00070001c3b30020c0b300d700070069
:103a940011c4b30070c1b300d400070001cab3005d
:103aa40080c1b300d100070061c7b30090c1b30067
:103ab400ce0007008040eb0000c1b300cb0007003c
:103ac40001c8b300d0c0b300c8000700f1c3b300fd
:103ad400b0c0b300c500070021c2b300c0c0b3002a
:103ae400c200070000c2b300004f7800d0cdb3007d
:103af400104798000040eb002047980032c0b30004
:103b04008e00780030c1b300a100070051c3b30098
:103b140020c1b300b50007008040eb00e0c0b30053
:103b2400b200070080c0eb0050c3b300af00070031
:103b340071c0b30060c3b300ac00070001c1b3009f
:103b4400a0c3b300a90007002e019000be0190009d
:103b540070c1b3005c01070090cab300d80307002a
:103b640000202e004100200077130700a0c2b300fc
:103b740076000700004f78001e4078000080fb00ac
:103b8400630060000000e00002003a0040002000f2
:103b9400080037001e4078000080fb0062006000cf
:103ba4000000e00002003a0050002000010037004d
:103bb4000000eb000080fa00000006000200fa009a
:103bc40038c8bf000004e00003003200001e2000db
:103bd400010020005c13070023c0b3000e0178002d
:103be40011c0b300a08320001eff07001e40780010
:103bf4008080fb001e4090000080fb004800dd0038
:103c04000100700080007800a04180000100700075
:103c1400a04188008680a9000080fa000000060008
:103c24000200fa0030c3b30048000700004f7800d8
:103c340000c6b3009e40780080cf500001003600db
:103c44003868ef001e4078000080fa00000006008b
:103c54000200fa00004f78009680a90015c0b30056
:103c640014c0b3008041eb000001eb0011c0b300ad
:103c74000e007800dbfe07009680a8000080fa00a2
:103c8400000006000400fa0020479800314798001d
:103c9400ae409000014f7800be409000114798005c
:103ca40015c0b3000042eb008041eb000001eb00c3
:103cb40021c0b3000e007800cafe07000080fa009d
:103cc400000006000400fa00004f78001147980035
:103cd400120798009680a9001e4078000064a00096
:103ce400004f78001e40900015c0b30024c0b300fc
:103cf400804178001e01900011c0b3000e007800ce
:103d0400b8fe07009680a8000080fa0000000600b4
:103d14000400fa00004f7800110798009680a9006b
:103d24001e40780015c0b30024c0b3008041780061
:103d34001e01900011c0b30090832000a9fe07006b
:103d44009680a8000080fa00000006000400fa0033
:103d5400204798009680a9002e4090000064a0009f
:103d6400204798000e80e80015c0b30014c0b300cb
:103d740013c0b3000e01780011c0b30099fe070010
:103d84009680a8001e4078000080fa00000006001b
:103d94000600fa00004f7800110798004247980087
:103da4009680a90015c0b3000042eb008041eb00ef
:103db4000001eb0011c0b3000e00780089fe07007b
:103dc4004e4090008042eb0024c0b3008041eb00e1
:103dd4000001eb00804078001e00900081fe070087
:103de4009680a8000080fa00000006000400fa0093
:103df4002047980031479800ae409000014f78006a
:103e0400be409000114798009680a90015c0b300e9
:103e140014c0b3008041eb000001eb0021c0b300eb
:103e24000e0078006ffe07009680a8000080fa005c
:103e3400000006000800fa00000f780021479800ef
:103e44003247980023079800644798009680a90099
:103e540015c0b3000042eb008041eb000001eb0011
:103e6400ae4090001e0078005efe0700630047002d
:103e74008042eb000042eb008041eb000001eb00cc
:103e840011c0b30057fe07008042eb0024c0b3000a
:103e94008041eb000001eb00ee4090002e0090000a
:103ea40050fe07009680a8000080fa00000006007b
:103eb4000400fa00000f780011079800060037008c
:103ec40000e82300010020009f1207001e0090005c
:103ed4000000e90010079800a04180001e00600067
:103ee4000000e00003003a001e0090000000e00023
:103ef400f3ff3a001e0090000000e00003003a00c7
:103f0400cb01070010002000a04188000080fa00c7
:103f1400000006000400fa00100798000000eb00ff
:103f2400000f7800040037001e0fe8000032200064
:103f34000100200084120700a14180001e009000af
:103f4400008060000000e00004003a00703e2000a1
:103f54009e007800808f5000f3ff3600703e2000f2
:103f64009e007800808f500003003600b0010700e7
:103f740010002000a04188000080fa000000060024
:103f84000400fa002047980030c0b3006fff070018
:103f9400004f78009e4078006fcf60002e40900064
:103fa4000080fb004400dd00804078001e40780063
:103fb40000c07000004f78009e40780030c0b3000d
:103fc4008aff07000080fa00000006000600fa00dd
:103fd40090c2b3005dff070020479800ae409000f8
:103fe400f0ccb30000c06000204798002e40900041
:103ff4000044a00020479800ae40900090c2b30057
:104004007aff070010c1b30050ff07002047980053
:104014002e4090000074a00020479800ae4090000d
:1040240010c1b30071ff070000e823000100200065
:1040340045120700c0c2b30044ff07006740600098
:10404400304798002e4090000074a100204798004b
:10405400ae40900010c1b30064ff07003e409000e2
:10406400e14f5000030036003e409000e54f500001
:10407400130036000000eb00000f78001e0fe8006c
:1040840040cab300f2fe0700001027002100200000
:104094002d120700a0c2b3002cff07004047980070
:1040a4004e4090000080fb00620060000000e000d1
:1040b40003003a001e007800e20f5000efff3600c4
:1040c4000080fa00000006001c00fa006057980007
:1040d400420f9800530f98000000eb00000f780087
:1040e4000040eb0019ff0700004f98000e489000b5
:1040f4000004a100804078000040eb003bff070073
:104104006e509000f74f500028003a0072004700ac
:104114000001780031c0b30070c1b300e9fe0700ac
:104124002e5090008080fb0000072000008060007b
:1041340001052000810f500011003200010520000c
:10414400810f500004003c0001042000810f500046
:10415400080032001300370001062000810f5000d0
:104164000a00320001072000810f50000a003200cb
:104174000c003700d0072000000f78000b00370038
:1041840040062000000f78000800370020032000bc
:10419400000f78000500370090012000000f780020
:1041a400020037000000eb00000f78001e007800ca
:1041b4008000eb000001be004e089000de08900075
:1041c400bcf1070050079800610798005e0090005a
:1041d400ee0090004a09dd004600de000000710098
:1041e400c608de0080007800f0ff23000080600035
:1041f400100798001e009000c600dd001e0090000d
:1042040000804000300798003e0090006101b80033
:104214005e009000ee009000800f5100818f5900e5
:10422400060031003e0090001004b00030079800f2
:104234001e0090000000e800100798005e00900047
:10424400be00900000805000300798009e0090004f
:1042540021079800be00900000022000808f5000cb
:10426400060036001e0090000000e90010079800c8
:104274003e0090001002b100300798003e0090000c
:10428400ff0f5000060036002e0090000000e900e9
:10429400200798003e0090000002b100300798000b
:1042a4003e009000ff0f5000eaff3e003e009000e9
:1042b400f00f5000060036003e0090000002b100ee
:1042c400300798002e0090000000e90020079800b5
:1042d4009e0090003e0090000080500070079800ff
:1042e400ae0090003e00900000804000000f980057
:1042f4006e509000f74f50001d003a002e50900071
:104304008040780000cfb30080c060000e089000a9
:104314004600de00004078006f40600000c070007e
:10432400205798000e08900080407800200020005c
:104334000008dd00804078007e0090004800de0028
:10434400004078006340600000c07000305798005f
:104354007e009000004078004057980072004700ab
:1043640032c0b3008000780070c1b30088fe07003b
:1043740016ff07008e4890000040eb009bfe0700ec
:104384000080fa00000006000400fa00881f78008c
:1043940060168000640060000000e0004d00320000
:1043a4009680a9008680a9000040eb0067fe070004
:1043b400c1de200080487800c0de200090407800f4
:1043c400c0cfb30000c06000804078000040eb0024
:1043d40086fe070010c0b300004f780009003700c4
:1043e4001e407800ef4f5000050032001e84fb0091
:1043f4001e40780055fe0700c1de200080707c005e
:104404001e4fe8001e407800fc4f5000f4ff3600b9
:1044140020c2b3004dfe070091e0200080487800e0
:1044240090c2b30049fe0700a1e020008048780054
:1044340050c3b30045fe0700b1e020008048780077
:1044440060c3b30041fe0700c1e02000804878004b
:10445400c0c3b3003dfe0700d1e0200080487800cf
:10446400a0c3b30039fe0700e1e0200080487800d3
:10447400401f2000100798000300370000e82300c5
:1044840001002000301107001e00900000f0a7007a
:104494000000ea000000ea004f00de00004078005f
:1044a4009e0090008100e900110798000004e000dc
:1044b40006003200a0c2b30024fe07000080fb0007
:1044c400640060000000e000ecff3a00cc42a90068
:1044d40001003700000000004f0478000080fa005b
:1044e400000006000400fa0060168000640060000a
:1044f4000000e0004b003a00cc42a800000a200073
:10450400010020001011070095000700c0de200004
:1045140090407800c0cfb30000c0600080407800b5
:104524000040eb0031fe070010c0b300004f7800dc
:104534000a0037001e407800ef4f5000060032009a
:104544001e80fb00c1de20006140780080407800be
:104554001e40780025fe07001e4fe8001e4078002c
:10456400fc4f5000f3ff360090e02000104078002c
:104574008040780020c2b3001cfe0700a0e02000a9
:10458400104078008040780090c2b30017fe070006
:10459400b0e02000104078008040780050c3b300a1
:1045a40012fe0700c0e02000104078008040780030
:1045b40060c3b3000dfe0700d0e020001040780077
:1045c40080407800c0c3b30008fe0700e0e020008c
:1045d4009040780000cfb30000c0600080407800b5
:1045e400a0c3b30001fe0700002c2100010020003d
:1045f400d510070075fe0700c0de200010407800cb
:10460400804078000040eb00f8fd0700a0c2b30032
:10461400cefd0700104798008680a9009680a80068
:1046240001003700000000000080fa0000000600ce
:104634000000fa0054ff070000e8230001002000f6
:10464400c1100700a7ff07000080fa000000060061
:104654000000fa00cc42a90000e823000100200079
:10466400b9100700cc42a800000a20000100200075
:10467400b51007003a0007000080fa0000000600a9
:104684000200fa0097ff07000040eb00affd0700af
:10469400004f78001e74a1009e4078000040eb009b
:1046a400d2fd07000040eb00520007000080fa0032
:1046b400000006000000fa000080fa000000060076
:1046c4000200fa0087ff07000040eb009ffd07008f
:1046d400004f78001e74a1009e4078000040eb005b
:1046e400c2fd070010c0b300420007000080fa00ba
:1046f400000006000000fa000080fa000000060036
:104704000200fa0077ff07000040eb0039000700c1
:104714000040eb008dfd0700004f78001e74a000e0
:104724009e4078000040eb00b0fd07000080fa00d6
:10473400000006000200fa006aff07000040eb00d8
:1047440082fd0700004f78001e74a1009e4078008f
:104754000040eb00a5fd07000080fa000000060001
:104764000600fa000000eb00000f78002cfd0700a3
:104774000046b20020479800a0c2b30073fd0700b2
:10478400304798001e0fe800ae40900000c6b3000a
:1047940080cf500005003a003e4090000080fb00ae
:1047a400610060000000e00004003a00a00f200057
:1047b4009e007800808f5000ecff360000f421004a
:1047c4000100200060100700640047000001780029
:1047d40021c0b30070c3b3003afd07003428ef00d2
:1047e40000d0270001002000571007000080fa00c5
:1047f400000006000600fa00404798000040eb0065
:1048040052fd0700204798004e4090000004e0004d
:104814000f0032002e4090000080fb006300600017
:10482400e30f5000320032002e4090003040b300bd
:1048340020479800002c21000100200042100700ae
:10484400ae4090000040eb0068fd070021003700f7
:104854002e4090000080fb0063006000e30f5000d6
:1048640025003a00ae409000c0cfb30000c0600005
:1048740020479800ae4090000040eb005bfd07002d
:10488400401f2000000f7800030037000064200060
:10489400010020002c1007001e00780000f0a70083
:1048a4000000ea000000ea004f00de00004078004b
:1048b4001e0fe9000004e00006003200a0c2b300ad
:1048c40022fd07000080fb00640060000000e0009f
:1048d400eeff3a004e4090000004e0000700320072
:1048e4000070270011002000171007000300370094
:1048f4000000000001003700000000000080fa0002
:10490400000006000200fa0060c9b300d0fc0700f2
:1049140070c9b300cefc070000f4210001002000a0
:1049240009100700b0c2b30008fd0700004f78006b
:1049340060c9b300c6fc07001e4078000080fa007e
:10494400000006000000fa00a0c0b300fffc07004e
:1049540036e8b7000080fa00000006000000fa0004
:1049640036c8bf0080407800a0c0b3001ffd070018
:104974000080fa00000006000400fa000040eb008a
:10498400004f7800d0c0b300f0fc07001047980037
:10499400a0c0b300edfc0700204798001e40900023
:1049a4000080fb00640060000000e000160032009c
:1049b4009e40780090cab30000c04000004f7800c9
:1049c4002e4090000080fb0063006000e30f500065
:1049d40004003a001e40780066405000004f780002
:1049e4001e0037002e4090000080fb006300600032
:1049f4000000e00019003a001e40780066404000c4
:104a0400004f7800150037009e40780090cab3002c
:104a140000c04000004f78002e4090000080fb0052
:104a240061006000004078000004e00003003200f0
:104a34001e40780068404000004f78002e409000ef
:104a44000080fb00620060000000e0000300320010
:104a54001e4078006a405000004f78002e409000bd
:104a64000080fb004600de00004078006300b900cf
:104a740000007800304798002e4090008080fb00b2
:104a840000022000008060000000e0000500320009
:104a94009e4078003e40900000c05000004f7800d7
:104aa400040037009e4078003e40900000c0400063
:104ab400004f78001e4078000080fa0000000600d5
:104ac4000600fa0040479800a0c0b3009ffc07000e
:104ad400004f7800d0c0b3009cfc0700204798002a
:104ae4009e4078007ccf60002e4090000080fb0048
:104af400640060000000e000150032004e409000a9
:104b04007045b000404798004e409000e54f50007b
:104b1400040034004e409000664050004047980026
:104b24001c0037004e409000e54f400006003d0059
:104b34004e40900066404000404798009e407800f8
:104b440063cf7000130037001e04a000110037006b
:104b54004e4090007045b000404798004e40900091
:104b6400e74f5000040034004e409000684050006d
:104b7400404798001e04a0004e409000e94f4000ba
:104b840004003d004e4090006a40400040479800b9
:104b94001e14a0004e4090000004e00017003400f2
:104ba4001e54a1004e4090000001fb0060552500fa
:104bb4000090b9004f91de00028050000040780060
:104bc400104798001e409000e34f5000020036004a
:104bd40030c0b300104798009e409000d00f2000d2
:104be4000088b90000007800804078004e409000b2
:104bf40000c0400040479800150037001e54a00034
:104c04004e4090000000fb0062011000605525003a
:104c14000090b9004f91de000280500010479800c8
:104c24001e409000e34f50000200360030c0b30035
:104c3400104798001e4090006300b90000007800ff
:104c4400804078004e40900000c0400040479800eb
:104c54001e4090000080fb004600dd00804078008c
:104c64001e40780000c07000004f78009e4078001d
:104c7400a0c0b3005dfc07004e4090000080fa0025
:104c8400000006001000fa00500798006107980021
:104c9400720798005e0090000000d100000f7800b9
:104ca4001e0078000000e00002003a00100020001e
:104cb400000f78000040eb0024fc07003047980008
:104cc40021c0b3000040eb0048fc070090c2b300d1
:104cd4001efc070040479800ce40900000cfb30070
:104ce40000c0600040479800ce40900090c2b300de
:104cf4003efc070090c0b30014fc07005047980026
:104d040080c0eb0090c0b30038fc07003e40900028
:104d14000080fb00620060000000e00003003a0035
:104d24000010270021002000070f07000040eb00bf
:104d34002047980015003700f2fe070060479800ee
:104d44006e409000ef4060006e4090000080fb00d9
:104d54004400de000040780000c040007047980026
:104d64007e4090008080fb002e4090000000fb00fd
:104d7400808f500005003400fe40900021479800c9
:104d84006e009000ee409000014878001e0078000c
:104d940000f0a7000000ea000000ea004f00de0077
:104da400004078001e0fe9000004e000e2ff3a0032
:104db4002e4090000004e00007003a007e009000be
:104dc40001c8b300014878006e0090008040eb00f9
:104dd40001487800540037002e4090000000fb008a
:104de4004380de0000407800804078002e40900030
:104df40000c0400020479800d0c0b300d3fb070098
:104e040064406000004f9800a0c0b300cffb0700cf
:104e1400104f98000e4890000004e0000e0032008d
:104e2400ae40900050cbb30000c040002047980033
:104e34001e4890000080fb00610060000040780084
:104e44000004e000190032002e409000654040004c
:104e54002047980015003700ae40900090cbb30077
:104e640000c04000204798001e4890000080fb00ce
:104e7400620060000000e000030032002e40900059
:104e84006a405000204798001e4890000080fb00b4
:104e940061006000004078000004e000030032007c
:104ea4002e40900068404000204798001e48900023
:104eb4008080fb0000022000008060000000e00011
:104ec4000c0032001e4890000080fb004600de000b
:104ed40080407800d00f20000088b90000007800de
:104ee400804078002e40900000c040002047980089
:104ef4000a0037001e4890000080fb004600de00d8
:104f0400004078006300b900000078008040780019
:104f14002e40900000c04000204798007e00900082
:104f2400ae40900001487800de40900090c0b3008d
:104f3400aefb0700be4090000040eb00abfb070057
:104f44003e4090000080fb0061006000004078005b
:104f54000004e0000300320000d02700010020001c
:104f6400790e07000080fa00000006000200fa0033
:104f740070c8b30036fb07000014200001002000b5
:104f8400710e0700d0c2b30070fb0700004f780019
:104f94001e4078000004e00003003d001e4078003d
:104fa4000074a100030037001e4078000074a100c3
:104fb4000040ea00004f78001e4078000080fa00ac
:104fc400000006000600fa000040eb005ffb07004b
:104fd400004f780000c1b3005cfb07001047980045
:104fe4001e409000f043b2008040780000c1b3003e
:104ff4007efb07009e40780063c07000804078000c
:105004000040eb0079fb070060c9b30010fb070008
:1050140070c9b3000efb070011c0b30000c1b30098
:1050240072fb0700002c210001002000460e07003f
:10503400ceff07000000fb001007980021c0b3005a
:1050440000c1b30069fb0700002c2100010020000f
:105054003d0e0700c5ff07004047980060c9b30034
:10506400fbfa07009e009000f00f20008080600093
:105074004e4090000000fb004800dd00010070007d
:10508400100798009e40900000c1b30057fb070032
:105094009e4078000040eb0054fb07001e00900087
:1050a4000080fa00000006000600fa000040eb0051
:1050b40026fb0700004f780000c1b30023fb070064
:1050c400104798001e409000f043b20080407800e2
:1050d40000c1b30045fb07009e407800c0cfb30079
:1050e40000c060000014a000804078000040eb0085
:1050f4003efb070060c9b300d5fa070070c9b300ce
:10510400d3fa070011c0b30000c1b30037fb070096
:10511400002c2100010020000b0e070093ff070064
:105124002047980021c0b30000c1b3002ffb070043
:10513400002c210001002000030e07008bff070054
:10514400304798002e4090008000fb00f00f2000b4
:10515400808060003e4090000000fb004800dd00bd
:1051640001007000200798009e40900000c1b30029
:105174001efb07009e4078000040eb001bfb07006d
:105184002e0090000080fa00000006001a00fa00c9
:10519400404f980071079800020f9800130f980071
:1051a400240f98006557980076579800075f980079
:1051b4002e08900010007800670040004300de00d5
:1051c400004f78000040eb00104798000000eb000f
:1051d400100798000040eb00404798002e0890000c
:1051e4000000e000080032002e08900090007800d3
:1051f400110798002e0890008000eb000108780049
:1052040010c0b300104798001e0890000000e00092
:1052140003003a001e0090000000e000030032008a
:10522400ee50900070c0b300f0fa07001e0090002a
:105234000000e0000e0032001e00900000407800e4
:10524400304f98001e0090004800de0000407800b7
:105254006f4060000044a000204f98006a0047009f
:1052640022c0b30080007800a0c3b300c8fa0700ce
:105274000e0890000000e000510032000e0890007b
:10528400670040004300de00504798005e419000f4
:10529400624798006e409000f84f500002003600bc
:1052a40080c1b300604798000e0890000040780069
:1052b4006740600000404000304f9800be489000b6
:1052c4000e0890004300de000041780040002000fa
:1052d4000010dd0000c07000304f98000e089000f0
:1052e4004700de0000407800204f98006a00470025
:1052f40022c0b30080007800d0c3b300a4fa070032
:105304006c0047006e429000fe019000f2c3b300af
:1053140011c0b300c7fa0700de4090006e40900051
:1053240000c05000504798006e4090000080fb0081
:10533400fe00900000804000700798001a003700bb
:10534400de409000614798006e409000f04f50009e
:105354000200360020c1b30060479800000220001c
:10536400ecfa0700a04180000050a100a041880091
:105374006e40900000417800fe009000f0c3b3003e
:1053840083fa0700de4090006e40900000c0500099
:10539400504798006e4090000080fb00fe00900093
