:020000040000fa
:080000000002040000000000f2
:020000040000fa
:04000800e20300000f
:020000040000fa
:04000c000c030000e1
:020000040000fa
:040010004e0300009b
:020000040000fa
:040014002c030000b9
:020000040000fa
:040018006e03000073
:020000040000fa
:04001c00e2030000fb
:020000040000fa
:04002000e2030000f7
:020000040000fa
:04002400e2030000f3
:020000040000fa
:04002800e2030000ef
:020000040000fa
:04002c00e2030000eb
:020000040000fa
:04003000e2030000e7
:020000040000fa
:04003400e2030000e3
:020000040000fa
:04003800e2030000df
:020000040000fa
:04003c00e2030000db
:020000040000fa
:04004000e2030000d7
:020000040000fa
:04004400e2030000d3
:020000040000fa
:04004800ac03000005
:020000040000fa
:04004c00e2030000cb
:020000040000fa
:04005000e2030000c7
:020000040000fa
:04005400e2030000c3
:020000040000fa
:04005800e2030000bf
:020000040000fa
:04005c00e2030000bb
:020000040000fa
:04006000e2030000b7
:020000040000fa
:04006400e2030000b3
:020000040000fa
:04006800e2030000af
:020000040000fa
:04006c00e2030000ab
:020000040000fa
:04007000e2030000a7
:020000040000fa
:04007400e2030000a3
:020000040000fa
:040078008e030000f3
:020000040000fa
:04007c00e20300009b
:020000040000fa
:04008000e203000097
:020000040000fa
:04008400e203000093
:020000040000fa
:04008800e20300008f
:020000040000fa
:04008c00e20300008b
:020000040000fa
:04009000e203000087
:020000040000fa
:04009400e203000083
:020000040000fa
:04009800e20300007f
:020000040000fa
:04009c00e20300007b
:020000040000fa
:0400a000e203000077
:020000040000fa
:0400a400e203000073
:020000040000fa
:0400a800e20300006f
:020000040000fa
:0400ac00e20300006b
:020000040000fa
:0400b000e203000067
:020000040000fa
:0400b400e203000063
:020000040000fa
:0400b800e20300005f
:020000040000fa
:0400bc00e20300005b
:020000040000fa
:0400c000e203000057
:020000040000fa
:0400c400e203000053
:020000040000fa
:0400c800e20300004f
:020000040000fa
:0400cc00e20300004b
:020000040000fa
:0400d000e203000047
:020000040000fa
:0400d400e203000043
:020000040000fa
:0400d800e20300003f
:020000040000fa
:0400dc00e20300003b
:020000040000fa
:0400e000e203000037
:020000040000fa
:0400e400e203000033
:020000040000fa
:0400e800e20300002f
:020000040000fa
:0400ec00e20300002b
:020000040000fa
:0400f000e203000027
:020000040000fa
:0400f400e203000023
:020000040000fa
:0400f800e20300001f
:020000040000fa
:0400fc00e20300001b
:020000040000fa
:04010000e203000016
:020000040000fa
:04010400e203000012
:020000040000fa
:04010800e20300000e
:020000040000fa
:04010c00e20300000a
:020000040000fa
:04011000e203000006
:020000040000fa
:04011400e203000002
:020000040000fa
:04011800e2030000fe
:020000040000fa
:04011c00e2030000fa
:020000040000fa
:04012000e2030000f6
:020000040000fa
:04012400e2030000f2
:020000040000fa
:04012800e2030000ee
:020000040000fa
:04012c00e2030000ea
:020000040000fa
:04013000e2030000e6
:020000040000fa
:04013400e2030000e2
:020000040000fa
:04013800e2030000de
:020000040000fa
:04013c00e2030000da
:020000040000fa
:04014000e2030000d6
:020000040000fa
:04014400e2030000d2
:020000040000fa
:04014800e2030000ce
:020000040000fa
:04014c00e2030000ca
:020000040000fa
:04015000e2030000c6
:020000040000fa
:04015400e2030000c2
:020000040000fa
:04015800e2030000be
:020000040000fa
:04015c00e2030000ba
:020000040000fa
:04016000e2030000b6
:020000040000fa
:04016400e2030000b2
:020000040000fa
:04016800e2030000ae
:020000040000fa
:04016c00e2030000aa
:020000040000fa
:04017000e2030000a6
:020000040000fa
:04017400e2030000a2
:020000040000fa
:04017800e20300009e
:020000040000fa
:04017c00e20300009a
:020000040000fa
:04018000e203000096
:020000040000fa
:04018400e203000092
:020000040000fa
:04018800e20300008e
:020000040000fa
:04018c00e20300008a
:020000040000fa
:04019000e203000086
:020000040000fa
:04019400e203000082
:020000040000fa
:04019800e20300007e
:020000040000fa
:04019c00e20300007a
:020000040000fa
:0401a000e203000076
:020000040000fa
:0401a400e203000072
:020000040000fa
:0401a800e20300006e
:020000040000fa
:0401ac00e20300006a
:020000040000fa
:0401b000e203000066
:020000040000fa
:0401b400e203000062
:020000040000fa
:0401b800e20300005e
:020000040000fa
:04020800e20300000d
:020000040000fa
:04020c000c030000df
:020000040000fa
:040210004e03000099
:020000040000fa
:040214002c030000b7
:020000040000fa
:040218006e03000071
:020000040000fa
:04021c00e2030000f9
:020000040000fa
:04022000e2030000f5
:020000040000fa
:04022400e2030000f1
:020000040000fa
:04022800e2030000ed
:020000040000fa
:04022c00e2030000e9
:020000040000fa
:04023000e2030000e5
:020000040000fa
:04023400e2030000e1
:020000040000fa
:04023800e2030000dd
:020000040000fa
:04023c00e2030000d9
:020000040000fa
:04024000e2030000d5
:020000040000fa
:04024400e2030000d1
:020000040000fa
:04024800ac03000003
:020000040000fa
:04024c00e2030000c9
:020000040000fa
:04025000e2030000c5
:020000040000fa
:04025400e2030000c1
:020000040000fa
:04025800e2030000bd
:020000040000fa
:04025c00e2030000b9
:020000040000fa
:04026000e2030000b5
:020000040000fa
:04026400e2030000b1
:020000040000fa
:04026800e2030000ad
:020000040000fa
:04026c00e2030000a9
:020000040000fa
:04027000e2030000a5
:020000040000fa
:04027400e2030000a1
:020000040000fa
:040278008e030000f1
:020000040000fa
:04027c00e203000099
:020000040000fa
:04028000e203000095
:020000040000fa
:04028400e203000091
:020000040000fa
:04028800e20300008d
:020000040000fa
:04028c00e203000089
:020000040000fa
:04029000e203000085
:020000040000fa
:04029400e203000081
:020000040000fa
:04029800e20300007d
:020000040000fa
:04029c00e203000079
:020000040000fa
:0402a000e203000075
:020000040000fa
:0402a400e203000071
:020000040000fa
:0402a800e20300006d
:020000040000fa
:0402ac00e203000069
:020000040000fa
:0402b000e203000065
:020000040000fa
:0402b400e203000061
:020000040000fa
:0402b800e20300005d
:020000040000fa
:0402bc00e203000059
:020000040000fa
:0402c000e203000055
:020000040000fa
:0402c400e203000051
:020000040000fa
:0402c800e20300004d
:020000040000fa
:0402cc00e203000049
:020000040000fa
:0402d000e203000045
:020000040000fa
:0402d400e203000041
:020000040000fa
:0402d800e20300003d
:020000040000fa
:0402dc00e203000039
:020000040000fa
:0402e000e203000035
:020000040000fa
:0402e400e203000031
:020000040000fa
:0402e800e20300002d
:020000040000fa
:0402ec00e203000029
:020000040000fa
:0402f000e203000025
:020000040000fa
:0402f400e203000021
:020000040000fa
:0402f800e20300001d
:020000040000fa
:0402fc00e203000019
:020000040000fa
:04030000e203000014
:020000040000fa
:04030400e203000010
:020000040000fa
:04030800e20300000c
:020000040000fa
:04030c00e203000008
:020000040000fa
:04031000e203000004
:020000040000fa
:04031400e203000000
:020000040000fa
:04031800e2030000fc
:020000040000fa
:04031c00e2030000f8
:020000040000fa
:04032000e2030000f4
:020000040000fa
:04032400e2030000f0
:020000040000fa
:04032800e2030000ec
:020000040000fa
:04032c00e2030000e8
:020000040000fa
:04033000e2030000e4
:020000040000fa
:04033400e2030000e0
:020000040000fa
:04033800e2030000dc
:020000040000fa
:04033c00e2030000d8
:020000040000fa
:04034000e2030000d4
:020000040000fa
:04034400e2030000d0
:020000040000fa
:04034800e2030000cc
:020000040000fa
:04034c00e2030000c8
:020000040000fa
:04035000e2030000c4
:020000040000fa
:04035400e2030000c0
:020000040000fa
:04035800e2030000bc
:020000040000fa
:04035c00e2030000b8
:020000040000fa
:04036000e2030000b4
:020000040000fa
:04036400e2030000b0
:020000040000fa
:04036800e2030000ac
:020000040000fa
:04036c00e2030000a8
:020000040000fa
:04037000e2030000a4
:020000040000fa
:04037400e2030000a0
:020000040000fa
:04037800e20300009c
:020000040000fa
:04037c00e203000098
:020000040000fa
:04038000e203000094
:020000040000fa
:04038400e203000090
:020000040000fa
:04038800e20300008c
:020000040000fa
:04038c00e203000088
:020000040000fa
:04039000e203000084
:020000040000fa
:04039400e203000080
:020000040000fa
:04039800e20300007c
:020000040000fa
:04039c00e203000078
:020000040000fa
:0403a000e203000074
:020000040000fa
:0403a400e203000070
:020000040000fa
:0403a800e20300006c
:020000040000fa
:0403ac00e203000068
:020000040000fa
:0403b000e203000064
:020000040000fa
:0403b400e203000060
:020000040000fa
:0403b800e20300005c
:020000040000fa
:10040000cfe520000eff27000e018800000000004d
:10041000000020000000e000020032000001200087
:100420002002880014000700e80007000000e00038
:1004300003003a0000ec2300010020000200370016
:100440000000200001002000810f70000100320038
:1004500014000700000020000000e000020032004d
:1004600000000200000000007c3f020000000000cd
:100470000040da000000fe004440a90020002000f7
:100480000000e0000300320010002000900188000e
:100490004440a800000006008a1f78008b1f7800e7
:1004a00000000600a1028800800478000000eb0034
:1004b0001f003700e284440054a0b4009905ba003c
:1004c000e284440054a0b4009906ba00e2844400d7
:1004d00054a0b4000006eb00476fde00fd07b20039
:1004e000ae018800636ce10003003a00eaff0700f8
:1004f0000000eb000e003700606ce10008003a00dd
:10050000004deb000a05e800020039003420ec0041
:100510000af0a0008b05e900f9ff3e000400370057
:100520006168e100010032000086eb000b0007006b
:1005300019c7ba001905ba000e04e00003003a001a
:100540000a00e000dbff3a0000000600fe07b200f0
:10055000ae0288008a047800f5ff37000cd0a300b3
:10056000e20f4d001c00390089027800354dba00b9
:100570000a05e800020039003420ec000af0a0006f
:100580008b05e9000f003200254dba000a05e8008e
:10059000020039003420ec000af0a0008b05e900cd
:1005a000080032000c00e0000600320015cdba0051
:1005b0000a05e800020039003420ec000af0a0002f
:1005c0008b05e9008984e80054a0b4000b00e0002a
:1005d000e2ff3a00000006009902ba00055d7800cb
:1005e0008b05e900f7ff3200c82ade00055d7800c0
:1005f0008b05e900f3ff32000c00e000f1ff320050
:1006000019ddba00eeff3700603e04000000000074
:100610001a070400000000003600f800809fbe00aa
:10062000829fbe00849fbe00869fbe000000fa002d
:100630008020a9000000eb006d1e07000080fa007a
:100640004f03be004f02be004f01be004f00be0070
:100650003600f900004006003600f800809fbe001a
:10066000829fbe00849fbe00869fbe000000fa00ed
:10067000641e07008040a900100020005c1e0700d7
:100680000080fa004f03be004f02be004f01be00c3
:100690004f00be003600f900004006003600f800aa
:1006a000809fbe00829fbe00849fbe00869fbe00ca
:1006b0000000fa008060a900200020004c1e070006
:1006c0000080fa004f03be004f02be004f01be0083
:1006d0004f00be003600f900004006003600f8006a
:1006e000809fbe00829fbe00849fbe00869fbe008a
:1006f0000000fa008080a900300020003c1e0700a6
:100700000080fa004f03be004f02be004f01be0042
:100710004f00be003600f900004006003600f80029
:10072000809fbe00829fbe00849fbe00869fbe0049
:100730000000fa005d1507008680a9000080fa001d
:100740004f03be004f02be004f01be004f00be006f
:100750003600f900004006003600f800809fbe0019
:10076000829fbe00849fbe00869fbe000000fa00ec
:10077000f04180000000e00002003200f041800003
:1007800000000100b0e52000104078008040e80043
:10079000b0e5200001487800a0e5200011c0b300ba
:1007a000014878008500a9000080fa004f03be00d0
:1007b0004f02be004f01be004f00be003600f900e0
:1007c000004006000040da000000fe0000000500c6
:1007d0001400200048003700f4ff2f0046003700c7
:1007e0006011b8005f003700889fbe008a9fbe007e
:1007f0008c1f7800b0000700b700330003866c0040
:100800006450e100240032006420e100270032003f
:100810006150e100220032006120e100210032003d
:100820008b854200eb07b1000134b800003ab800f4
:100830000804420089844a00013ab8000030b80038
:100840008880400009014a00040033000000400095
:1008500081804800020149008b05e900c909dd00db
:10086000830170000100320013002000c814de0074
:100870004814dd004709de001200b200c808de009f
:10088000088470006600070001f0a1000cf0a700ca
:1008900001f0a000990037006120e1009b003200c8
:1008a0000801be000200be00f7ff37006150e10002
:1008b000fcff3a00950037006022b80006022000d5
:1008c0000000d0008180d2000482d2008582d20054
:1008d0000000a0000202520083825a00030031008f
:1008e0000202420083824a000000a1000603e900e0
:1008f000f3ff3a0000000600889fbe008a9fbe00fa
:10090000841f78006c0007004f007800110033004e
:10091000f0ff2f00838f6c0006003b00040565008c
:100920000a00a7000800370009f0a6001000200008
:1009300008003700820f5400838f5c0003003900e9
:100940001000200001003e000000200009f0a70078
:100950000000ea004f05be004f04be000000e000aa
:1009600000000600889fbe008a9fbe0000827000c3
:100970000402710004827100260032000004be00ef
:100980000200be006011b8006b0920009502200033
:100990000182cf000a0039000541b1000082cf007a
:1009a000070039000541b1000982cf000400390079
:1009b0000541b1000882cf00010039000541b100b6
:1009c00005425200120032000a003b008281710091
:1009d000610164008100d1000080d3008984d300cc
:1009e0000884d3008b05e8000442e800f7ff3a00d2
:1009f000070037000804440089844c0000004800c8
:100a0000818048008b05e9000442e900f9ff3a00c3
:100a1000030007004f05be004f04be0000000600a3
:100a200081002000618055000b003d000b0020007c
:100a300061fe2f000100e1001d0034008281710081
:100a4000610164008904d1000884d3000000e8003b
:100a5000faff3a007100200061006400030070009a
:100a6000020060000900320061044400e0844c0090
:100a70000988a500050032008b05e8006808e10040
:100a800002003a008904d1000884d300f20f20004c
:100a90000258e10005003d00c75ddd00f907b20026
:100aa0008980750008007800000006000bf8270018
:100ab0008b007800000005000004be00160007004f
:100ac0000003be000405be000200be0012000700c5
:100ad000844f7500000006000200be006450e10073
:100ae000050036006420e100020036000968a3001a
:100af00001003a000800be000160a0004f06780027
:100b00004f05be004f04be0000000600f0ff2f009e
:100b1000f1ff2700f9ff3700c70ade00f107b20036
:100b2000f50fb20008003200e1cf420002003200af
:100b30000170a00024000500810f70000100320048
:100b40000408050044000500810f700002003a000f
:100b5000140005008502e9000000400081c0480043
:100b6000fcff3b000170a00024000500800178001c
:100b700002003700b15978000201e9000200e000ec
:100b8000fcff3a00000006008001780002003700f8
:100b9000815978000201e9000200e000fcff3a0000
:040ba000000006004b
:020000040000fa
:100ba4000a00fa002007980031079800024f9800c5
:100bb400134f98001e4890000080fb001100200095
:100bc4000008dd00004078000040e900204798005c
:100bd4001e4890000080fb006800100011002000f7
:100be4000008dd00004078000040e900304798002c
:100bf4000000eb00000f78004d0037001e00780065
:100c0400ae009000008040009e0078002e0190000d
:100c1400810041009140780001417800ae4090008d
:100c240081c0ea0081406100014878001e0078001c
:100c3400ae009000008040009e0078002e019000dd
:100c44008100410091407800014178009e007800c5
:100c5400be01900081804100914078008181fb00b9
:100c64009e4890008180fb00e88010008198de009f
:100c740081417800ae40900081c0610081407100e4
:100c8400014878001e0078000000e800ae009000e3
:100c9400008040009e0078008100e8002e01900052
:100ca400810041009140780001417800be409000ed
:100cb4008180fb008181ea009e4890008180fb00d6
:100cc4008118dd008140780081406100014878008e
:100cd4001e0078000000e800ae0090000080400094
:100ce4009e0078008100e8002e0190008100410000
:100cf40091407800014178009e007800be01900088
:100d04008180410091417800be40900081c0610023
:100d14008181fb009e4890008180fb008118dd00ea
:100d24008140780081407100014878001e0fe8007e
:100d34000e4890000080fb009e0f5000afff3c0067
:100d44000080fa00000006000e00fa0060922f00f6
:100d5400d1002000008fbe00d20a07001e01be0091
:100d640070c1b300131507000a1907008000eb00d7
:100d7400a0408800b140880010c0b300d816070016
:100d8400002c2100010020007d1c0700c81807006a
:100d9400200798000040eb00d1160700ae00900039
:100da400f00f200000806000300798002e009000b3
:100db4004800de0040079800be0090003e0090000e
:100dc4000088b90000017800ce0090004e00900029
:100dd4000088b90000007800000041008000eb00aa
:100de40050079800610798005e019000ee019000a2
:100df400c2408800d34088005e019000ee0190005c
:100e0400c0fd2f0001002000800f5100818f590088
:100e140004003600c0fd2f0001002000c0408800ff
:100e2400d1408800850a07000080fa00000006000f
:100e34000000fa00504080000000e00002003a0088
:100e440010c0b3000100370010c0b3000080fa00e6
:100e5400000006000200fa00004f78001ec8bf0020
:100e64009e4f5000120032001ec8bf000080fb00dd
:100e7400e10f500002003a00511207000100370050
:100e8400000000001e80fb00e10f500003003a0048
:100e940020e5200044120700010037000000000094
:100ea4001e417800e181200082487800010037006b
:100eb400000000000080fa00000006000000fa00b4
:100ec400020007000080fa00000006000000fa009b
:100ed400a0de2000b1cfb300014878000080fa0002
:100ee400000006000200fa000000eb00000f78008a
:100ef400080037009e007800a00220000088b90096
:100f0400800078004084200000804000a20a07008e
:100f14001e0fe800004080009e007800808f500083
:100f2400f4ff35000080fa00000006000000fa001b
:100f3400ecff0700a07120008042eb0014c0b30056
:100f4400800178000041eb0011c0b300d08a20007a
:100f5400401007000040780002e8b70002c8bf0054
:100f64000004e00002003200d08a20002040880003
:100f740002c8bf000080fb000080fa0000000600e9
:100f84000000fa00020007000080fa0000000600da
:100f94000000fa00106f8000104078000080fb0011
:100fa4000000e00004003200f10f2000810f500027
:100fb400090032000f0037003a0a07000040eb0036
:100fc400471607001d0a0700a0de20008040eb0042
:100fd400014878000b003700320a070010c0b30044
:100fe4003f160700a0de20008040eb000148780097
:100ff40004003700a0de200091cfb3000148780040
:1010040000000000306f80008040eb000148780051
:1010140010002000406f88000080fa0000000600e5
:101024000000fa00020007000080fa000000060039
:101034000000fa000080fa00000006000000fa0038
:10104400180a070003000700fc0907000080fa00e3
:10105400000006000000fa000080fa00000006000c
:101064000a00fa000000eb00100798000000eb00f3
:10107400200798006000b8003007980041079800e6
:10108400106f80000000e800104078000080fb0032
:101094008000eb003e019000ce0190000200400071
:1010a400838048003007980041079800106f800043
:1010b4000080e800104078000081fb008001eb0014
:1010c4004818dd00c810de00810070004810dd0003
:1010d4003e019000ce019000020040008380480051
:1010e4003007980041079800106f800063004000ab
:1010f400104078000080fb008000eb00c000dd00a1
:10110400000020003e019000ce019000020040004b
:1011140083804800300798004107980040ad2000c4
:10112400104f780040c3b3009e40780080cf500039
:101134000200360040c3b300004f78001e80fb005d
:10114400c200dd0060ad2000008040003e01900040
:10115400ce0190000288be009e80fb0060ba200091
:10116400008040008040eb0001487800106f800050
:1011740064004000104078000004e00034003200b5
:101184001e81fb001e80fb00210d2000808040009a
:1011940040ad200000804000104078008040e8000e
:1011a40060ba200000004100014878001e81fb0065
:1011b400106f80006500400090407800a0bd2000c2
:1011c40000004100014878001e81fb00106f800080
:1011d400660040009040780020c4200000004100d8
:1011e400014878001e81fb00106f800067004000fa
:1011f40090407800a0ca2000000041000148780017
:10120400106f800068004000104078000080fb00f0
:1012140010079800106f80006900400010407800ab
:101224000080fb004800dd009e009000008040002c
:10123400100798001e80fb00f011b00080004000f1
:1012440040ad2000008040009e019000030878001b
:10125400106f80006a004000104078000004e00035
:10126400340032001e81fb001e80fb00210d200093
:101274008080400040ad2000008040001040780095
:1012840080c0e80060ba20000000410001487800f6
:101294001e81fb00106f80006b00400090407800be
:1012a400e0c0200000004100014878001e81fb00de
:1012b400106f80006c0040009040780060c72000f0
:1012c40000004100014878001e81fb00106f80007f
:1012d4006d00400090407800e0cd20000000410007
:1012e40001487800106f80006e00400010407800c4
:1012f4000080fb0020079800106f80006f00400002
:10130400104078000080fb004800dd00ae00900033
:1013140000804000200798001e80fb003015b000bc
:101324008000400040ad200000804000ae009000ee
:10133400010878001e80fb00210d20008080400001
:1013440040ad200000804000104078000004e00020
:101354000500320040ad2000104078008040e800d5
:1013640040ad20000148780040ad20009040780056
:1013740030c3b30080cf50000500360040ad2000dc
:1013840041c3b3000148780050c3b30002003700e2
:1013940040ad2000104078000080fa0000000600f4
:1013a4000000fa00020007000080fa0000000600b6
:1013b4000000fa00306f8000320020008000eb0053
:1013c400f0fd0700a0de20008040eb00014878001b
:1013d400106f8000104078000080fb00e10f500087
:1013e40011003200e20f50001d0032000000e00046
:1013f40034003a00306f80008040eb0001487800f0
:10140400306f80000000e80041c3b3000148780059
:10141400306f80000080e80041ad200091407800ea
:10142400014878003200370050ad20008040eb00c6
:101434000148780040ad20008040eb00014878006e
:10144400306f800011c0b30001487800306f800015
:101454000000e80041c3b3000148780024003700cd
:10146400206f8000ef0f500004003e00a0de20003b
:1014740091cfb3000148780007003700f8fe070059
:1014840041c3b300814f500003003600a0de2000aa
:1014940080c0eb0001487800306f800021c0b300a9
:1014a40001487800306f80000000e80041ad200062
:1014b4009140780042c3b300814051000148780054
:1014c4000b003700306f800080c0eb0001487800cb
:1014d400306f80000000e80041c3b3000148780089
:1014e400a0de2000b1cfb300014878000000000066
:1014f40030002000406f88000080fa0000000600e1
:101504000000fa00020007000080fa000000060054
:101514000200fa000040eb00004f7800106f8000da
:10152400104078000004e0000e003200106f8000cc
:101534000000e80010407800e34f5000030036003c
:1015440090cfb300004f780006003700d50807009d
:10155400106f80000000e8001040780011e8b70028
:10156400b6080700306f8000a2002000f10f2000b1
:1015740084fd07000080fa00000006000600fa005f
:10158400004f78001147980012079800230798002d
:10159400c40807001e4078000004e0000400350081
:1015a4009e4090001e4078004b1207000200370056
:1015b4001e407800e11107002e0090008040eb00ef
:1015c400014878001e0090001100200001087800f6
:1015d4000040eb000080fa00000006000600fa005c
:1015e400004f78001107980022079800ad08070003
:1015f4001e40780010120700ae009000804878006a
:101604001e00900011002000010878008b080700dc
:101614000040eb000080fa00000006000000fa0021
:10162400a008070003000700840807000080fa00f0
:10163400000006000000fa00881f7800106f800088
:10164400104078000004e00004003200106f8000b5
:101654000000e800104078005415070090002000b6
:10166400406f8800306f80000004e800fd1407001c
:10167400004c7800a0de20008040eb000148780098
:101684004f0478000080fa00000006000000fa0011
:101694001ec8bf00e14f500001003a001e68ef0071
:1016a400106f8000104078000004e0000500320054
:1016b400106f80000000e8009040780030e52000c2
:1016c40001487800106f80000080e8001040780026
:1016d4000004e00005003200106f80006300400049
:1016e4009040780040e5200001487800106f8000a9
:1016f40064004000104078000004e000050032005f
:10170400106f8000650040009040780070e5200074
:1017140001487800106f8000660040001040780097
:101724000004e00005003200106f800067004000f4
:101734009040780050e5200001487800106f800048
:1017440068004000104078000004e000050032000a
:10175400106f8000690040009040780020e5200070
:1017640001487800106f80006a0040001040780043
:101774000004e00004003200106f80006b004000a1
:101784001040780022e8b700106f80006c00400021
:10179400104078000004e00005003200106f800063
:1017a4006d0040009040780060e52000014878001a
:1017b400106f80006e004000104078000004e000cc
:1017c40005003200106f80006f00400090407800e8
:1017d40080e5200001487800306f8000020120007d
:1017e4008000eb00e7fc070000012000406f880048
:1017f400a0de20008040eb0001487800306f8000bc
:101804000000e80031e520009140780001487800ac
:10181400306f80006300400041e520009140780073
:1018240001487800306f80006500400071e52000b9
:101834009140780001487800306f800067004000d4
:1018440051e520009140780001487800306f800015
:101854006900400021e520009140780001487800ab
:10186400306f80006b00400021822000914078009e
:1018740001487800306f80006d00400061e5200071
:101884009140780001487800306f80006f0040007c
:1018940081e5200091407800014878000080fa003a
:1018a400000006000000fa0078ff07000080fa003c
:1018b400000006000600fa00881f78001007980050
:1018c400210798000040eb0010479800f507070037
:1018d4000040eb00004f7800290037001e407800dc
:1018e400ef4f5000250032001e407800fd4f50009d
:1018f4000400360010c2b3009e40780080cf500030
:101904001e00360020c2b3009e40780080cf5000f5
:101914000400360080c2b3009e40780080cf50009f
:1019240016003600e0c2b3009e40780080cf50001d
:101934000400360020c3b3009e40780080cf5000de
:101944000e00360040c3b3009e40780080cf5000a4
:101954000a0032001e4090000080fb00ae009000a0
:10196400008440001e40780033110700004c7800ca
:101974001e4090000040e800104798001e4fe80009
:10198400e0c3b3009e40780080cf5000d3ff360000
:101994001e4090000080fb000000e80080007800fa
:1019a4001e00900001087800a40707000040eb0027
:1019b4004f0478000080fa00000006000600fa00d8
:1019c40080892000200798006000b800008fbe00c6
:1019d4000a0037002e0090008040eb000148780098
:1019e4002e0090000000e80020079800120020005c
:1019f400030020001e0f41005e974900b00f200035
:101a0400010020001e01be00800f5100818f59008b
:101a1400f0ff36000080fa00000006000000fa0023
:101a24000080fa00000006000000fa0020002000f8
:101a3400406f8800a0de2000b1cfb30001487800d9
:101a4400306f80000000e8008040eb00014878001f
:101a54000080fa00000006000000fa009107070069
:101a640020c0b300fbfc0700efff0700730707006b
:101a74000080fa00000006000000fa0010002000b8
:101a8400406f8800a0de2000b1cfb3000148780089
:101a94000080fa00000006000000fa008107070039
:101aa40020c0b300ebfc0700f3ff07006307070047
:101ab4000080fa00000006000200fa0003c8bf001c
:101ac4000004e00005003a0028000700004f7800f9
:101ad40010c0b30003e8b7000100370000000000a5
:101ae4000080fa00000006000000fa00106f800079
:101af400104078000ee8b700106f80000000e80086
:101b0400104078000fe8b700106f80000080e800f4
:101b14001040780010e8b700e7ff0700a0de2000bf
:101b24008040eb00014878000080fa0000000600c5
:101b34000000fa00740607000c0007000080fa0099
:101b4400000006000000fa00290707000080fa00e0
:101b5400000006000000fa000400070002e8b700d5
:101b640002c8bf000080fa00000006000200fa006c
:101b740065060700004f78001e4078000004e0006e
:101b840036003a0010c0b300b2fc070010c8bf0012
:101b94008040780090c2b300cf10070010c8bf0087
:101ba400e84f500002003a00a0cab30063100700d7
:101bb4000268ef00cbfc07000ec8bf000004e00081
:101bc40011003a000fc8bf000080fb000000e900cc
:101bd4004f00de0000417800a171200022c8bf0040
:101be40015c0b300024278008101780000417800fa
:101bf400c1c0b30080892000350c07000040780084
:101c040002e8b700100037000fc8bf000080fb00d7
:101c14000000e9004f00de0000417800a1712000bf
:101c240022c8bf0015c0b3000242780081017800c9
:101c340000417800c1c0b30080892000050d070071
:101c44000040780002e8b70010c8bf00e84f500019
:101c540002003a00b0cab300381007001e417800f1
:101c64002181200082487800e106070002c8bf00f5
:101c74000080fa00000006000000fa0002000700dd
:101c84000080fa00000006000200fa000040eb00a9
:101c9400004f78000040eb0010479800106f800060
:101ca400104078000004e00002003a000028ef0031
:101cb400b0003700106f800010407800e14f5000f2
:101cc40006003a0000408000e20f500008003a008d
:101cd40000c0eb00004f7800a6003700106f8000b2
:101ce40010407800e24f500001003a000028ef0055
:101cf400206f8000e80f500003003e0090cfb30037
:101d0400004f78009b003700004080001047980087
:101d1400004080000000e800004088001e40900061
:101d24008080fb00106f80000000e8001041780004
:101d3400a00220000088b9008000780040842000c0
:101d440000804000024878001e4090008080fb0024
:101d5400106f80000080e80010417800a00220008d
:101d64000088b90080007800408420000080400092
:101d7400124098001e4090008080fb00106f80008d
:101d84006300400010417800a00220000088b900e0
:101d940080007800608420000080400002487800c1
:101da4001e4090008081fb00106f800064004000a2
:101db400104078000080fb008000eb00a2022000ad
:101dc4000299b900820178008286200002814100d4
:101dd4000089be001e4090000082fb001e4090005f
:101de4008080fb00a00220000088b9000000780079
:101df4004102200080804000408420000080400098
:101e04001001be00106f8000650040001040780093
:101e14000080fb004800dd00cf80de000000710080
:101e240081807100a202200002a1b9008201780021
:101e340082862000028141000089be001e4090007d
:101e44008080fb00106f8000660040001041780025
:101e5400a00220000088b90080007800c08620001d
:101e640000804000024878001e4090008080fb0003
:101e7400106f80006700400010417800a00220002d
:101e84000088b90080007800c086200000804000ef
:101e940012409800206f8000690150001e4090009d
:101ea4008080fb00a00220000088b90000007800b8
:101eb4008102200080804000408420000080400097
:101ec400104078000080fb00670040000000e00044
:101ed40001003d00670040004380de00800f510098
:101ee4000300310090cfb300004f78002100370089
:101ef4001e4090008080fb00a00220000088b900f2
:101f0400000078008102200080804000408420008e
:101f140000804000104078000080fb006700400013
:101f24000000e00001003d00670040004380de0047
:101f340000017800106f8000e80140001e4090000e
:101f44008080fb00a00220000088b9000000780017
:101f54008080e80040842000008040000000e80009
:101f64008300780000fb070094fe07000040eb00ac
:101f7400004f78000000eb00406f8800a0de2000d6
:101f84001e4878000080fa00000006000000fa00f5
:101f94004406070010c0b300aefb07004c00070066
:101fa4000080fa00000006001200fa0020079800e2
:101fb400310798004207980053079800444f98004f
:101fc400554f980076079800070f98000040eb00e3
:101fd400004f78000040eb001047980035003700b0
:101fe4000040eb00204798001e4090000080fb005a
:101ff40000004000de009000008240001e4090007f
:102004000081fb008001eb002e009000be009000d8
:1020140002004000838048008e0a90000001be0048
:10202400de4890004e0090002b0a0700004f780015
:102034002e4090000040e800204798001e407800a1
:102044000004e0000300320000202e0041002000c4
:10205400cb1707002e409000e64f500006003e00cc
:102064001e4078000004e0000300320070fb07000b
:102074000004e000dcff3a000cc8bf000004e000ec
:1020840002003200c0cbb300004f78001e4078003d
:102094000004e000040032007e0090001e48780036
:1020a4001e409000080037001e4090000040e800e9
:1020b400104798009e4090004e48900080cf5000fa
:1020c400c7ff39001e4090000080fa00000006009f
:1020d4000800fa000040eb00004f78000040eb00dd
:1020e40070479800106f8000904078001147980066
:1020f4006000b8001007980021079800206f800046
:10210400690050000000d10060479800fe040700f9
:10211400704798007e4090000004e00035003a00cb
:1021240082fb070002c8bf000004e00003003a007d
:10213400f0cbb300704798002e003700106f80007a
:1021440065004000104078000004e0000f003a00f1
:10215400106f800066004000104078000004e0002a
:102164000a003a00106f80006700400010407800b9
:102174000004e00005003a00106f80006800400091
:10218400104078000004e00008003200106f800066
:10219400e500400020408000d20807007047980006
:1021a4007e4090000004e00011003a00306f80008f
:1021b4008000e800106f800069014000204080002a
:1021c400e701470081037800030378009e429000f2
:1021d4006e42900082017800000178001e00900099
:1021e400ae00900070ff0700004f78000100370038
:1021f400000000007e05070020002000406f8800da
:10220400306f80001e487800fe409000a0de200061
:10221400014878000080fa00000006000400fa007b
:102224000000eb0010079800116f80001fc8bf006a
:102234000080fb0000004000670040000080400078
:10224400104078008080fb00126f80001fc8bf0020
:102254000080fb00640040000000400000004100da
:10226400104078000080fb004800dd000100700091
:1022740080007800004180000080680000418800f0
:102284001fc8bf000040e8001fe8b7001fc8bf0018
:10229400e54f5000010036001f68ef000041800048
:1022a40000407800004f7800004180004800de00c4
:1022b40000407800104798000e80e80017c0b30073
:1022c4000043eb008042eb00000278008001eb0049
:1022d400020120008e00780000c9b300e613070055
:1022e4000080fa00000006001400fa006000b80044
:1022f4001007980021079800106f80000000e80084
:10230400104078000080fb008000eb001e0190006c
:10231400ae0190000200400083804800100798003e
:1023240021079800106f80000080e80010407800ba
:102334000081fb008001eb004818dd00c810de00be
:10234400810070004810dd001e019000ae01900075
:10235400020040008380480010079800210798007d
:10236400106f800063004000104078000080fb0084
:102374008000eb00c000dd00000020001e01900082
:10238400ae019000020040008380480010079800ce
:1023940021079800106f8000104078000080fb0037
:1023a400e50f5000da003200e50f500007003c0052
:1023b400e20f500048003200e40f50007400320075
:1023c400e10f500008003200d6013700e90f500039
:1023d40057013200f00f500080013200e80f500026
:1023e4000d013200cf013700206f8000e30f500051
:1023f40006003e00a0de200091cfb3000148780023
:1024040030002000406f8800d30137002505070005
:102414001e019000ae01900070c1b300650f07006b
:10242400b0c8b300004f7800811107001e40780047
:102434007b404000004f78001e407800db1107000d
:1024440060479800f10047007000470001017800e0
:10245400800078000000eb00451207000e50900049
:102464000080fb006f006000ed0f5000030034009b
:102474001e407800f44f4000ecff35007211070055
:1024840030002000406f8800306f80008e50900034
:10249400efc0600001487800306f80000000e80061
:1024a4008e5090008180fb00c408de0081407800db
:1024b40001487800306f80000080e8009e50900052
:1024c40001487800a0de20008040eb00014878003d
:1024d400da040700a0013700206f8000e40f5000e9
:1024e40006003e00a0de200091cfb3000148780032
:1024f40020002000406f880097013700e90407009e
:102504001e019000ae01900070c1b300290f0700b6
:10251400201307004007980010c0b300f010070014
:10252400e3120700500798000040eb00ec1007008e
:1025340020002000406f8800306f8000de00900093
:1025440001417800ce009000814078008140510024
:1025540001487800306f80000000e800de00900041
:10256400c808de0001417800ce009000c808de00f3
:10257400814078008140510001487800a0de2000ad
:102584008040eb0001487800ac040700720137007a
:10259400206f8000e50f500006003e00a0de200002
:1025a40091cfb3000148780010002000406f8800ec
:1025b40069013700106f800064004000104078000b
:1025c4000004e0000c003200409920008040eb0041
:1025d400014878002468ef001e019000ae019000cd
:1025e40052418800634188001e019000ae019000b2
:1025f400324188004341880040992000104078000f
:102604008040e800409920000148780024c8bf00b9
:102614000040e80024e8b70040992000904078008a
:1026240050c3b30080cf50000c0036004099200006
:1026340051c3b3000148780010002000406f8800a7
:10264400306f80008040eb0001487800a0de20005d
:1026540080c0eb00014878003f013700409920001a
:10266400104078000080fb000000e900c200dd009b
:1026740060992000008040001e019000ae0190008f
:102684000288be00106f8000650040001040780092
:1026940023e8b70052418000634180001e0090008f
:1026a400ae009000800f5100818f5900040031006a
:1026b4001e019000ae0190005241880063418800e1
:1026c40032418000434180001e009000ae00900023
:1026d400800f5100818f5900040036001e019000c4
:1026e400ae01900032418800434188001000200070
:1026f400406f8800306f80008040eb000148780014
:10270400a0de20008040eb00014878001201370071
:10271400306f8000318220009140780001487800b9
:10272400306f80000001e8003041800041418000aa
:102734000040780000497800306f80000081e80094
:102744003041800041418000c809dd004800de00be
:1027540000807100c808de0000407800004978005d
:10276400306f8000630140003041800041418000af
:102774004008de000040780000497800306f800097
:1027840064014000504180006141800000407800b5
:1027940000497800306f800065014000504180009e
:1027a40061418000c809dd004800de00008071003e
:1027b400c808de000040780000497800306f8000cf
:1027c4006601400050418000614180004008de0005
:1027d4000040780000497800306f800067004000b6
:1027e400419920009140780001487800306f8000c2
:1027f4006800400041822000914078000148780040
:1028040090002000406f8800a0de20008040eb0094
:1028140001487800d0003700206f8000e70f500097
:1028240006003e00a0de200091cfb30001487800ee
:1028340010002000406f8800c7003700106f800030
:102844000000e800104078000080fb008041880010
:10285400106f80000080e800104078000080fb00ca
:102864004800dd0080007800804180000100700095
:1028740080418800106f80006300400010407800a1
:102884000080fb0070418800106f800064004000ed
:10289400104078000080fb004800dd0080007800d4
:1028a400704180000100700070418800106f80004a
:1028b40065004000104078000080fb004040880024
:1028c400106f800066004000104078000080fb001c
:1028d4004800dd0080007800404080000100700066
:1028e40040408800106f800067004000104078006e
:1028f40006e8b70010002000406f8800306f8000a9
:102904008040eb00014878007141800010032000f2
:10291400808f500002003e00200320007041880098
:10292400a0de20008040eb00014878008a003700d8
:1029340070002000406f8800306f8000814180006b
:102944008140780001487800306f80000000e80082
:1029540081418000c808de00814078000148780089
:10296400306f80000080e800714180008140780071
:1029740001487800306f800063004000714180009e
:10298400c808de008140780001487800306f80007c
:102994006400400041408000814078000148780094
:1029a400306f80006500400041408000c808de00b0
:1029b4008140780001487800306f80006600400054
:1029c400618020009140780001487800a0de20005a
:1029d4008040eb00014878005f003700206f8000e2
:1029e400f10f500006003e00a0de200091cfb3009e
:1029f400014878000000eb00406f88005600370063
:102a0400106f800064004000104078008080fb005c
:102a1400106f800065004000104078000080fb00cb
:102a24004800dd0001007000600798000000eb0022
:102a3400100f98009b03070070c0b300fe0c070042
:102a4400604f980080c0b300fb0c0700704f9800e3
:102a54008040eb0070c0b3001f0d07008040eb0006
:102a640080c0b3001c0d07001e019000ae01900051
:102a740070c1b300cf0d070010c0b300f5f8070014
:102a84000000eb00406f8800ee0090005140880089
:102a94000c68ef0010c0b300910f070000e823009a
:102aa4000100200036150700106f8000660040000a
:102ab40010407800e14f500002003a00d7fd0700b3
:102ac4000a0037007200470017c0b3000043eb0050
:102ad4008042eb00000278008001eb000001eb0073
:102ae4008000eb00e0c9b300e31107003428ef00d5
:102af400cff807000004e000ebff3a000040eb00d1
:102b0400770f0700ee48900070c0b300f20c070086
:102b1400fe48900080c0b300ef0c07004703070095
:102b24000d00370020002000406f8800306f8000c7
:102b340080c0eb0001487800306f80000000e8009e
:102b440080c0eb0001487800a0de2000b1cfb300c4
:102b540001487800000000000080fa000000060030
:102b64000000fa004f03070010c0b300b9f80700d3
:102b7400020007000080fa00000006000c00fa00c2
:102b84000040eb00004f7800106f80009040780008
:102b9400214f98006000b8001007980021079800a2
:102ba400406f8000604798000040eb007047980039
:102bb400416f8000306f8000010178008000eb00dd
:102bc400f0f7070050020700004f78001e4078001d
:102bd4000004e0007f003a00d4f8070002c8bf00f8
:102be4000004e00003003a00f0cbb300004f78008b
:102bf40078003700106f80006500400010407800b6
:102c04000004e0000f003a00106f800066004000ee
:102c1400104078000004e0000a003a00106f8000c1
:102c240067004000104078000004e00005003a000e
:102c3400106f800068004000104078000004e0003d
:102c440008003200106f8000e50040002040800042
:102c540024060700004f78001e4078000004e000be
:102c64005b003a006e4090000080fb006100600051
:102c7400004078000004e0003a003200316f800028
:102c8400410798006e4090000080fb000000d100d6
:102c940060479800240037001e009000ae009000aa
:102ca4001e019000ae01900061014100e0814900e5
:102cb400120798002307980026408000ce02900057
:102cc40014c0b3000001be00ae48900006007800b6
:102cd4008d070700004f7800e0cdb3009e407800d8
:102ce40080cf500004003a007e4090000040e8008d
:102cf40070479800060037001e4078000004e0008a
:102d040003003a007e40900000c0e800704798003d
:102d14004e0090000080e800400798006e4090004c
:102d24000040e900604798001e4078000004e0007d
:102d340006003a006e4090000004e00003003200f8
:102d44003bf807000004e000d3ff3a000cc8bf00c2
:102d54000004e0001f003200c0cbb300004f780035
:102d64001c0037006e4090000080fb000000d10082
:102d740060479800316f8000204080008102780015
:102d84006e4290001e019000ae019000ae4890008b
:102d94005d070700004f7800e0cdb3009e40780047
:102da40080cf500003003a0010c0b3007047980071
:102db400080037001e4078000004e00005003a00d7
:102dc4006e409000004040007047980001003700ba
:102dd40000000000860207007e4090000080fb0097
:102de400406f8800a0de20001e4878000080fa00b2
:102df400000006000000fa00aa02070010c0b30099
:102e040014f80700020007000080fa000000060022
:102e14000400fa00116f800011079800ba0107003e
:102e2400004f78001e4078000004e0002b003a00b8
:102e34003ef8070002c8bf000004e00003003a00a7
:102e4400f0cbb300004f780024003700106f8000ef
:102e540063004000104078000004e0000f003a00d6
:102e6400106f800064004000104078000004e0000f
:102e74000a003a00106f800065004000104078009e
:102e84000004e00005003a00106f80006600400076
:102e9400104078000004e00008003200106f800049
:102ea400e3004000204080008e050700004f7800ba
:102eb4001e4078000004e00007003a00316f8000f3
:102ec40020408000010178009e009000da05070090
:102ed400004f780001003700000000001e40780019
:102ee4000004e0000300320000202e004100200016
:102ef400231407003e020700a0de20001e487800cd
:102f040010002000406f88000080fa0000000600d6
:102f14000600fa00116f800011079800106f8000fe
:102f2400640040009040780041479800106f800092
:102f3400650040009040780051479800590207000e
:102f440010c0b300c3f707006f010700004f7800fb
:102f54001e4078000004e0000f003a00f3f7070079
:102f640002c8bf000004e00003003a00f0cbb30045
:102f7400004f780008003700316f80002040800047
:102f840001027800de4190004e4190009e009000c6
:102f9400e5050700004f78001e4078000004e000bb
:102fa4000300320000202e0041002000f41307002b
:102fb4000f02070010002000406f8800a0de2000f0
:102fc4001e4878000080fa00000006000000fa00a5
:102fd400106f8000104078000004e00013003200fd
:102fe400106f80000000e800104078000de8b70082
:102ff4000dc8bf000004e0000c003200106f800018
:103004000080e800104078000ee8b700106f8000e0
:1030140063004000104078000fe8b700106f800094
:10302400640040001040780010e8b7000000eb0096
:10303400406f8800a0de20008040eb00014878004b
:103044000dc8bf000004e00001003a00fb010700c6
:103054000080fa00000006000000fa0011020700d8
:1030640010c0b3007bf70700020007000080fa00dd
:1030740000000600d800fa000040eb00004f780082
:10308400416f8000306f8000010178008000eb0008
:10309400bcf607001c010700004f78001e407800b2
:1030a4000004e00081003a00a0f7070002c8bf0056
:1030b4000004e00003003a00f0cbb300004f7800b6
:1030c4007a003700106f8000104078000004e000a0
:1030d4000f003a00106f80000000e80010407800f4
:1030e4000004e0000a003a00106f80000080e8004d
:1030f400104078000004e00005003a00106f8000e2
:1031040063004000104078000004e0000700320033
:10311400116f800020408000f2040700004f780007
:103124001e4078000004e0005f003a00106f800049
:1031340064004000104078000080fb00c400dd0003
:10314400106f800065004000104078000080fb0094
:103154004400de00004078000080fb0001007000a5
:1031640030079800106f8000650040001040780020
:103174000080fb006f006000c800dd00106f80005d
:1031840066004000104078000080fb0001007000e1
:1031940070079800106f800067004000904078002e
:1031a400014f9800106f8000680040009040780044
:1031b400114f98003e009000690050004300de006b
:1031c400500798005e009000c300dd003e009000b0
:1031d4000080500070004000100798005e009000ce
:1031e4000000e900200798001e0090000000e000a5
:1031f40005003a002e0090000000e8002007980027
:1032040080002000100798005e00900000417800c4
:10321400106f8000e90040007000470083c0b300d5
:103224005ff607001e0090000041780020408000f7
:10323400f1004000f00147002e00900000804100a2
:103244008241780022c0b30055f60700306f800039
:103254008080e8006e0147007000470017c0b3008b
:103264000043eb009e4a900002027800810178003e
:103274003e019000800078000e489000fe0f070089
:10328400004f7800306f80009e407800014878003d
:10329400306f80000000e800fe009000814078005c
:1032a4000148780001003700000000007e00900013
:1032b400670040004300de006007980000202e00f5
:1032c400410020002e130700490107006e00900002
:1032d4000080e800406f8800a0de20001e487800cf
:1032e4000080fa00000006000000fa006d010700eb
:1032f40010c0b300d7f60700020007000080fa00f0
:10330400000006000a00fa000040eb004047980065
:10331400406f80004200de00004f7800316f800073
:10332400110798006000b800300798004107980022
:10333400106f8000104078000080fb008000eb00dc
:103344003e019000ce0190000200400083804800be
:103354003007980041079800106f80000000e800d3
:10336400104078000081fb008001eb004818dd006c
:10337400c810de00810070004810dd003e0190009e
:10338400ce0190000200400083804800300798007e
:1033940041079800106f80000080e800104078001a
:1033a4000080fb008000eb00c000dd000000200076
:1033b4003e019000ce01900002004000838048004e
:1033c40030079800410798000000eb00406f880028
:1033d40010c0b300420d07003e019000ce019000e2
:1033e40070c1b300730b0700bef60700240037005a
:1033f4001e009000630140001e0090008080e800e1
:103404001e0090000000e8008201780001017800ad
:10341400800078001e0090002c02070040479800ae
:103424004e4090000004e0000f0032001e009000a7
:103434008040eb00014878001e0090000000e80086
:103444008040eb00014878001e0090000080e800f6
:1034540001c8b300014878001e00900063004000da
:1034640001c8b300014878001e00900064004000c9
:1034740010079800406f800064004000406f88008f
:103484001e80fb000000ea004f00de0000407800d0
:103494001e4fe9000004e000d5ff3a000040eb00b5
:1034a4000f0d07000080fa00000006000000fa007b
:1034b4001e68ef000d68ef000f68ef0010c0b30046
:1034c4000ee8b70060c0b30010e8b70080cdb300c9
:1034d40006e8b70010c0b30011e8b7000368ef00b6
:1034e4000268ef000040eb00fd0c0700d30007006a
:1034f4000080fa00000006000400fa00008fbe00fd
:103504000080fa00000006000600fa00889fbe0052
:103514008a1f780000c8b30040479800e100070004
:103524000040eb00ee0c070000e82300010020003f
:103534009312070040992000104078000004e00036
:1035440006003a000dc8bf000004e00001003a0084
:10355400ba000700c0cbb300a1003700704180005f
:1035640050408800e0408000104798000040eb0085
:10357400004f78001c003700e04080000000e800a5
:10358400e0408800e140800040992000104078002d
:103594000080fb00808f5000010039001c28ef00e0
:1035a400e04080004200dd008080e8004099200077
:1035b400008040001000be000001be0070c1b300d6
:1035c400fc0a07008041800064014700e5004700d1
:1035d400e70d0700ce40900006c8bf0080cf500022
:1035e400060034001e4fe80040c3b3009e4078003c
:1035f40080cf5000e0ff36000100370000000000db
:10360400ce40900006c8bf0080cf50006b003c0045
:103614000c68ef00e04080004200dd008080e8009c
:1036240040992000008040001000be00b2ff070057
:1036340010c0b300aa0c070040ad20001040780071
:103644000004e0005b003200e0408000b10620008e
:1036540080804000018140004199200081004100a8
:10366400910078000101e800b1062000808040004c
:1036740081814000419920008180410082087800c6
:10368400b006b00080004000409920000080400057
:1036940090007800401f2000808f500045003600c5
:1036a4000000eb0010079800e0408000b006b00076
:1036b4008000400040992000008040008000eb0022
:1036c400010878001e0090008000eb0043f407001e
:1036d4000004be0032c8bf000080fb008000e90087
:1036e40050ad2000104078000081fb004003200012
:1036f4000088b9000000780002004000f011b0001a
:103704008000400040ad20000080400010007800a0
:103714008000eb0031f407006266260063fa2300a0
:1037240030f407001ac0b3000001be000800be0058
:1037340028f407000000e00001003c000045eb0015
:103744000a04e0001b003a001e0090008000eb0019
:1037540022f407000004be0032c8bf000080fb0052
:103764008000e90050ad2000104078000081fb008b
:10377400400320000088b9000000780002004000e7
:10378400f011b0008000400040ad200000804000f7
:10379400100078008000eb0010f40700323323009f
:1037a40033f323000ff407000001be000800be003d
:1037b40006f407000040eb000900370010c0b30016
:1037c4000ce8b7000040eb00450c07000dc8bf0033
:1037d4000004e00001003a0018000700c0cbb30069
:1037e4004f0578004f04be000080fa000000060078
:1037f4000000fa0011c8bf00e24f5000020032007e
:103804000040eb00360c07000dc8bf000004e000c8
:1038140001003a00090007000080fa0000000600d9
:103824000000fa000dc8bf000004e00001003200ef
:10383400a1f807000080fa00000006000000fa006a
:1038440011c8bf000080fb00e10f50000c003200e3
:10385400e10f500003003c000000e00006003200cd
:103864000d003700e20f500007003200e30f500054
:103874000700320008003700fe0a0700070037007f
:10388400ba0b070005003700c80b07000300370018
:10389400d60b070001003700f60a07000080fa0083
:1038a400000006000000fa0011c8bf000080fb0001
:1038b400e10f50000c003200e10f500003003c0007
:1038c4000000e000060032000d003700e20f500057
:1038d40007003200e30f50000700320008003700f1
:1038e4003b0b070007003700ad0b0700050037004e
:1038f400bb0b070003003700c90b070001003700aa
:10390400330b07000080fa00000006000e00fa00e6
:10391400300798004107980052079800434f9800d9
:1039240065004700800178000e0178003e00900099
:10393400ce009000a50707005e409000ce4990009d
:10394400004178008e0078005e00900094f4070037
:103954005e4090000080fa00000006000600fa00b5
:1039640010079800210798000e01780021c0b300c9
:10397400a0c2b3000e0907009e4078001e0090000c
:10398400014878009e4090002e0090000148780085
:103994000080fa00000006000e00fa00600798009c
:1039a4006e009000006890000080fb0020079800e3
:1039b40010002000400798006e009000630f400044
:1039c4003428ef00820120008000eb0000e1200099
:1039d4006cf407006e009000104078000080fb003b
:1039e4000000400000407800ee40600000cab300d0
:1039f40080c070006e009000104090000080fb00ba
:103a04004200de00004078006140600000c07000a9
:103a14008040780000e12000014878006e009000aa
:103a2400104090000080fb004600dd0080407800dc
:103a34006e009000204090000080fb004400dd00f8
:103a4400004078000043b20000c07000804078005d
:103a540010e12000014878006e009000b010900042
:103a64002010900043c0b30012e12000a7ff07001c
:103a7400604798006e4090000080fb000000e80062
:103a8400ee009000816890008180fb00c408de0095
:103a94000141780001e12000827078006e409000be
:103aa4000080fb000080e800ee0090008168900038
:103ab4008180fb00c408dd000141780001e12000a1
:103ac400827078006e40900000c0e8003047980093
:103ad4002e009000204798001e0037003e409000c2
:103ae4000080fb00be4090008180fb0002e12000ca
:103af40062c178009e007800914078008180fb00cc
:103b0400c408de00814078000141710001e1200019
:103b1400827078003e4090000040e80030479800f2
:103b24003e4090000080fb009e00780091407800a9
:103b34008180fb00c408dd000141780001e1200020
:103b4400827078002e409000684050002047980012
:103b54001e0fe8002e409000e74f5000dfff3e00ac
:103b64003e4090000080fb00be4090008180fb003e
:103b740002e12000e2c0780001417800ee009000ec
:103b8400916890008180fb00c308dd0081407800cb
:103b9400e8c06000814071000141780001e120002b
:103ba400827078006e4090000080fb004300dd00ce
:103bb400800078002e0090000080400075004000d6
:103bc40020079800e80047006a00470017c0b300c8
:103bd4000043eb0015c0b3000102780080017800b7
:103be4002e01900001e1200000c9b300a20d0700de
:103bf4000080fa00000006000400fa00000f7800bc
:103c040021479800f0e22000104078000080fb007b
:103c14004500dd000040780002c2b300824060002d
:103c2400a0e22000104078000080fb004300dd008b
:103c3400004078007840600080c07000b0e220004e
:103c4400104078000080fb004200dd000040780056
:103c54006440600080c07000c0e220001040780022
:103c64006340600000c07000804078001e0078004f
:103c7400014878009e00e800d0e22000104078005f
:103c84000080fb004600dd0000417800e0e22000f7
:103c9400104078000080fb004500dd000040780003
:103ca4000042b200004171002e4090000080fb00f1
:103cb40000004000004078007e4060000040710039
:103cc400804878000080fa00000006001000fa0026
:103cd40040079800510798006207980073079800fe
:103ce4000040eb001047980040c6b300004f780036
:103cf40000c1b30050080700204798008040eb0043
:103d040000e12000bcff070000012000200798000c
:103d140000e32000904078006400470017c0b3001f
:103d24000043eb0081427800000278008001eb0040
:103d34000201200001e1200080c9b3004e0d0700fc
:103d4400104798001e4090000004e0000800320074
:103d54001e4090003800370090c3b30036080700b7
:103d64000044b2000004e0000a003a0001003700f9
:103d7400000000001e80fb000000ea004f00de008f
:103d8400004078001e4fe9000004e000f2ff3a0012
:103d94000100370000000000de0090004e0090009b
:103da400eefe0700ae40900000cfb30000c06000fc
:103db400b040b3008040780000c1b300460807005b
:103dc400a50c0700ee00900080487800ae409000fb
:103dd40000cfb30000c06000c040b3008040780052
:103de40000c1b3003c0807009b0c0700fe009000d4
:103df40080487800000120002007980000e320009c
:103e040010417800e4004700660047008043eb005f
:103e14000043eb00824278000102780080017800c0
:103e24000001eb008000eb000040eb00120d0700e6
:103e3400104798001e4090000080fa000000060021
:103e44000a00fa002007980061479800724798001a
:103e5400034f9800144f98000040eb00004f780087
:103e640000012000100798006e4090000080fb00c5
:103e74000000e0001500320081092000810f50008d
:103e840021003a00fe40900000e120005aff0700a4
:103e940000e32000104178002e0090008e80e8009e
:103ea40017c0b300d6c9b30082427800010278007b
:103eb400800178000201200001e1200080c9b300e4
:103ec400ed0c0700004f78001d00370000e32000d0
:103ed400104178002e0090008e80e80017c0b300d7
:103ee400d6c9b300824278000102780080017800cc
:103ef4000001eb008000eb000040eb00de0c07004b
:103f0400004f78000e00370000e3200010417800d5
:103f14002e0090008e80e80017c0b300d6c9b3000d
:103f24008242780001027800800178000001eb00f1
:103f34008000eb006e409000cf0c0700004f78002b
:103f4400f0cdb3009e40780080cf500002003a00cc
:103f54000040eb007f0037001e4078000004e000c2
:103f640002003d0000c0eb007a003700000c200086
:103f7400100798000e4890000004e0000200320090
:103f84001e48900001003700f0c9b30001e320008f
:103f9400114178008e80e8008043eb0000437800f4
:103fa400824278000102780003e120000001eb0066
:103fb40001e120000040eb00af0c0700004f780047
:103fc40000e12000904078002e00900021409800ed
:103fd40010e12000904078002e00900031409800bd
:103fe4001e4078000004e000030035001e0090002d
:103ff400ef0f500002003e0000c0eb0055003700f8
:104004001e009000670040004300de00004078007e
:1040140080c0e9002e009000015098002e0090000e
:1040240000509000ec4f5000030036002e0090002a
:10403400c1c0b300015098002e00900000509000c1
:104044000081fb0021e120002e009000640040006c
:10405400c5f207000e4890000004e000140032008e
:104064002e009000f30040002e00900074004000e9
:104074003afe07002e009000204090008080fb0054
:10408400800f200000806000c280de002e009000bf
:10409400005090000080fb00808f5000020032002e
:1040a40000c0eb002b00370010c0b300290037001c
:1040b400000220001007980000e32000104178005f
:1040c4002e009000710040008e80e8008043eb00d9
:1040d4001e4b900082427800010278008001780033
:1040e4000001eb008000eb000040eb00620c0700d5
:1040f400004f78002e009000f30040002e00900046
:104104007400400015fe07001e4078000004e00023
:1041140002003d0000c0eb000e0037002e009000ae
:10412400204090008080fb00800f20000080600011
:10413400c280de002e009000005090000080fb0042
:10414400808f50000200320000c0eb0001003700f5
:1041540010c0b3000080fa00000006000a00fa0054
:10416400200798006147980072479800034f980011
:10417400144f98000040eb00004f7800000c200022
:10418400100798006e4090000080fb000000e000e3
:104194001a00320081092000810f50002b003a00e0
:1041a400fe40900000e1200093fe07000e489000be
:1041b4000004e000020032001e48900001003700b5
:1041c4000040eb0001e32000114178008e80e800fc
:1041d4008043eb00004378008242780001027800bb
:1041e40003e120000201200001e1200080c9b300a6
:1041f400210c0700004f7800270037000e4890007c
:104204000004e000020032001e4890000100370064
:104214000040eb0001e32000114178008e80e800ab
:104224008043eb000043780082427800010278006a
:1042340003e120000001eb008000eb000040eb00f4
:104244000d0c0700004f7800130037000e48900053
:104254000004e000020032001e4890000100370014
:104264000040eb0001e32000114178008e80e8005b
:104274008043eb000043780082427800010278001a
:1042840003e120000001eb008000eb006e40900091
:10429400f90b0700004f7800f0cdb3009e40780082
:1042a40080cf500002003a000040eb006500370068
:1042b40000e12000904078002e00900021409800fa
:1042c40010e12000904078002e00900031409800ca
:1042d4001e4078000004e000030035001e0090003a
:1042e400ef0f500002003e0000c0eb005500370005
:1042f4001e009000670040004300de00004078008c
:1043040080c0e9002e009000015098002e0090001b
:1043140000509000ec4f5000030036002e00900037
:10432400c1c0b300015098002e00900000509000ce
:104334000081fb0021e120002e0090006400400079
:1043440009f207000e4890000004e0001400320057
:104354002e009000f30040002e00900074004000f6
:104364007efd07002e009000204090008080fb001e
:10437400800f200000806000c280de002e009000cc
:10438400005090000080fb00808f5000020032003b
:1043940000c0eb002b00370010c0b3002900370029
:1043a400000220001007980000e32000104178006c
:1043b4002e009000710040008e80e8008043eb00e6
:1043c4001e4b900082427800010278008001780040
:1043d4000001eb008000eb000040eb00a60b07009f
:1043e400004f78002e009000f30040002e00900053
:1043f4007400400059fd07001e4078000004e000ee
:1044040002003d0000c0eb000e0037002e009000bb
:10441400204090008080fb00800f2000008060001e
:10442400c280de002e009000005090000080fb004f
:10443400808f50000200320000c0eb000100370002
:1044440010c0b3000080fa00000006000800fa0063
:1044540020079800310798000002200010079800f8
:1044640000e1200011ccb300014878002e00900038
:104474009040780010e12000014878002e00900060
:104484000000e8009040780020e120000148780016
:1044940000e32000904078000e80e80017c0b300cd
:1044a4000043eb008142780000027800be019000d6
:1044b4008201200001e1200000c9b3006e0b070057
:1044c400004f78001e4078000004e00002003d0028
:1044d400d0cbb300010037000040eb000080fa00ad
:1044e400000006001200fa0070079800010f9800ff
:1044f4000040eb0010479800490037007e00900010
:1045040071004000eb004700d0ff070020479800ef
:104514002e4090000004e000020032002e40900083
:104524004300370000e1200061ccb300014878006b
:104534000e089000904078003e48900080c06800cb
:1045440010e12000014878000e0890000000e80007
:10455400904078004e48900080c0680020e1200020
:10456400014878007e0090009050900030e12000d7
:10457400014878007e009000a050900040e12000a7
:1045840001487800000220002007980000e3200082
:1045940010417800e40047006600470017c0b300ec
:1045a4000043eb0082427800010278008001780029
:1045b4008202200001e1200000c9b3002e0b070095
:1045c400004f78001e4078000004e00002003d0027
:1045d400e0cbb300160037000e0890000080e8001e
:1045e400000f9800fe4090007e0090002050900044
:1045f40080cf500005003a00ee4090007e0090000d
:104604001050900080cf500002003200e0cbb30085
:10461400070037001e4090000040e8001047980053
:104624001e409000e14f5000b4ff36001e40780059
:104634000080fa00000006000a00fa002007980033
:1046440031079800420798001002200010079800d4
:104654004e00900051cab3000148780000e12000e8
:1046640051ccb300014878003e009000904078009f
:1046740010e12000014878003e0090000000e800ae
:104684009040780020e12000014878003e0090002e
:104694000080e8009040780000cfb30080c0600044
:1046a40030e12000014878002e00900071004000a5
:1046b40043c0b30022c0b3008000780030e1200082
:1046c40037f107000e80e80017c0b3000043eb0089
:1046d40080c2eb000002780003e12000c202200047
:1046e40001e1200010c9b300e30a0700004f78007d
:1046f400e0cdb3009e40780080cf500007003a0020
:104704001e0090000000e0000400320000e12000e0
:10471400904078004e009000014878001e407800d8
:104724000080fa00000006001000fa00400798001c
:1047340051079800424f9800534f9800740798000f
:10474400000220003007980000c9b30020479800f9
:1047540000e3200090407800314798007e009000ec
:1047640051cab300014878000040eb00104798009c
:10477400440037004e00900071004000e400470000
:1047840032ff0700004f78001e4078000004e0006c
:1047940040003a001e409000e14f500008003a00eb
:1047a40010c9b30020479800100220003007980079
:1047b400de489000414f980000c0eb00304798005d
:1047c40000e1200041ccb300014878005e00900075
:1047d400904078004e40900080c0680010e12000b6
:1047e400014878005e0090000000e80090407800e6
:1047f4005e40900080c0680020e1200001487800fd
:104804004e4890000080fb004500dd0080407800a9
:1048140030e12000014878004e0090007100400013
:1048240053c0b30022c0b3008000780030e1200000
:10483400dbf007006600470017c0b3000043eb003d
:10484400be4290000002780003e12000b202200082
:1048540001e120002e409000870a0700004f7800f5
:104864001e4078000004e0000c003a005e00900056
:104874000080e800500798001e4090000040e800c7
:10488400104798001e409000e14f5000b9ff3600d9
:1048940003003700000000000100370000000000a2
:1048a400e0cdb3009e40780080cf500007003a006e
:1048b4003e0090000000e0000400320000e120000f
:1048c400904078007e009000014878001e407800f7
:1048d4000080fa00000006001400fa004007980067
:1048e400214f98006207980073079800040f9800fe
:1048f400150f980010022000300798001e08900041
:1049040051cab300014878004e0090007100400085
:10491400e4004700cdfe0700004f78001e407800f9
:104924000004e000020032001e40780074003700ea
:1049340000e1200031ccb300014878002e489000fb
:104944000080fb004600dd008040780010e120007c
:104954000148780063c0b30012e120006e009000ab
:10496400fe009000e9fb0700104798000e08900035
:10497400904078004e40900000c0680020479800a6
:104984001e4090000080fb000000e8009e40900064
:104994008180fb008100e80002e12000e2c0780091
:1049a40001417800ae4090008180fb00c208de0027
:1049b40081407800814071000141780001e12000cc
:1049c400827078001e4090000080fb000080e800a8
:1049d400ae4090008180fb00c608dd0001417800f4
:1049e40001e12000827078000e0890000000e800c9
:1049f400904078005e40900000c068002047980016
:104a04001e4090000080fb000080e8009e40900063
:104a14008180fb008180e80002e12000e2c0780090
:104a240001417800ae4090008180fb00c208de00a6
:104a340081407800814071000141780001e120004b
:104a4400827078001e4090000080fb0063004000ec
:104a5400ae4090008180fb00c608dd000141780073
:104a640001e12000827078004e009000f1004000c7
:104a74001e4090000080fb006300400000017800ad
:104a840000e120000000410063c0b30022c0b30075
:104a940043f007001e4090000080fb004300dd004f
:104aa400a002b000e600470017c0b3000043eb00cb
:104ab40080c2eb000102780003e1200000017800cd
:104ac40001e1200010c9b300eb090700304798004a
:104ad400be409000e0cdb30080cf500007003a0004
:104ae4003e0090000000e0000400320000e12000dd
:104af400904078001e089000014878003e409000e5
:104b04000080fa00000006001000fa002007980058
:104b1400614798004207980053079800444f980053
:104b2400750798004e4890000080fb000080e80064
:104b34004400dd000000e8001007980000e12000b8
:104b440021ccb300014878006e4090000080fb0047
:104b54004600dd008040780010e120000148780024
:104b640063c0b30012e120004e009000de0090000c
:104b740066fb0700004f78001e80fb000000e80081
:104b84009e80fb008100e80002e12000e2c0780082
:104b940001417800ce4890008180fb00c208de000d
:104ba40081407800814071000141780001e12000da
:104bb400827078001e80fb000080e800ce489000e0
:104bc4008180fb00c608dd000141780001e120007e
:104bd400827078002e009000f10040001e80fb00df
:104be4000080e8000001780000e12000000041009e
:104bf40063c0b30022c0b300e9ef070000e3200064
:104c0400104178001e80fb004300dd002002b0004c
:104c14008e80e80017c0b3000043eb0082427800a6
:104c240001027800fe0190000001780001e12000fb
:104c340010c9b30090090700104798001e40900067
:104c44000080fa00000006000a00fa000e01780055
:104c540091c0b30010c0b300550407000080fa00ef
:104c6400000006000400fa00100798000000eb00a2
:104c7400000f7800010037001e0fe8001e009000ae
:104c8400005090000080fb009e0f5000faff3e0091
:104c94000080fa00000006000600fa0010079800e1
:104ca40041479800524798000040eb00004f7800bd
:104cb400010037001e4fe8004e4090009e407800ef
:104cc40080cf5000fbff39000080fa00000006008e
:104cd4001400fa0060079800614f9800724f980022
:104ce400030f980024579800355798000000eb00f4
:104cf400000f78000000eb00100798000040eb0064
:104d04006047980010c0b3007047980080c9b30092
:104d1400004f98000040eb00104f980010c0b30003
:104d2400ef06070002e1200021c0b30070c3b30006
:104d34001f0407003428ef000040eb006047980090
:104d44001b0037006e4090000080fb007500b90026
:104d540000007800ee009000008040008040eb00ee
:104d6400014878006e4090000080fb007500b90097
:104d740000007800ee009000008040008040eb00ce
:104d8400114098006e4090000080fb007500b9004f
:104d940000007800ee009000008040008040eb00ae
:104da400015098006e4090000040e8006047980071
:104db400ee4090006e48900080cf5000e1ff390033
:104dc4000000eb00100798007e4890000081fb0073
:104dd4001000200001002000820178008301e90016
:104de400030033000000400081804800fbff3700cf
:104df400200798006e4890000080fb009e0f500032
:104e0400370036002e0090000000e90020079800cb
:104e14002e5090000080fb000000e9004f00de00ef
:104e2400004178001e0078007500b9000000780089
:104e3400ee009000008040001e4a900082417800fd
:104e44007e4990008e489000fdfb07000000fb00a7
:104e54000000e00014003200e10f500008003200ae
:104e6400e10f400013003a001e0090000000e8002b
:104e74001007980090c9b300004f98000e00370047
:104e84001e0fe8001e4890000004e00003003200fa
:104e94000040eb00004f98000700370090c9b300b2
:104ea400004f98000400370090c9b300004f9800e9
:104eb40001003700000000000e089000000001000f
:104ec400204f98002e0090000000e0000500320002
:104ed4002e4890000004e000c6ff3a0001003700ad
:104ee400000000007e4090000040e90070479800f8
:104ef4001e0090000000e000350032001e0090000b
:104f04006101b8007e4890000082fb001000200080
:104f140001002000840278008502e90003003300c8
:104f24000000400081804800fbff37004e0add008e
:104f34004200de0000007200c208de00800f510053
:104f4400818f5900060039007e4890000040e80037
:104f5400704f9800a0c9b300004f98001e0037009e
:104f64001e0090006101b8007e4890000082fb00a2
:104f74001000200001002000840278008502e9006e
:104f8400030033000000400081804800fbff37002d
:104f94004d0add004300de0000007200c308de009d
:104fa400800f5100818f5900060031007e48900027
:104fb4000040e900704f9800c0c9b300004f98004a
:104fc40005003700b0c9b300004f98000200370055
:104fd4000040eb00704798006e4890000080fb0092
:104fe4009e0f5000070036007e4090000004e00051
:104ff400040032000e089000000001000004e000ec
:105004006fff3a001e0078000000e0000c003a0038
:10501400104280000000e900104288001042800025
:105024000000e00008003a000040eb002c060700f6
:10503400ba050700a00020001042880002003700d3
:10504400a0002000104288001e0078000080fa00b2
:10505400000006001400fa0060079800614f9800f1
:10506400724f9800030f9800245798003557980002
:105074000000eb00000f78000000eb001007980020
:105084000040eb006047980080c9b3007047980067
:105094000040eb00104f980010c0b300204f980060
:1050a40010c0b3000e06070002e1200021c0b300c7
:1050b40070c3b3003e0307003428ef0010c0b300f0
:1050c4005d030700004f98008e489000f0ccb300b9
:1050d40000c06000004f98002e5090000004e000d3
:1050e400040032000e4890000054a000004f9800c5
:1050f400030037000e4890000044a000004f9800c1
:105104008e48900010c0b300730307000040eb000a
:10511400604798001b0037006e4090000080fb0041
:105124007500b90000007800ee0090000080400097
:105134008040eb00014878006e4090000080fb0046
:105144007500b90000007800ee0090000080400077
:105154008040eb00114098006e4090000080fb00fe
:105164007500b90000007800ee0090000080400057
:105174008040eb00015098006e4090000040e80031
:1051840060479800ee4090006e48900080cf500039
:10519400e1ff39007e4890000081fb0010002000f0
:1051a40001002000820178008301e900030033003c
:1051b4000000400081804800fbff37002007980072
:1051c4006e4890000080fb009e0f500037003600b0
:1051d4002e0090000000e900200798002e50900057
:1051e4000080fb000000e9004f00de000041780071
:1051f4001e0078007500b90000007800ee009000f1
:10520400008040001e4a9000824178007e49900050
:10521400fe409000d1fb07000000fb000000e0000e
:1052240014003200e10f500008003200e10f40008a
:1052340013003a001e0090000000e80010079800d8
:1052440090c9b300704798000e0037001e0fe800a5
:105254001e4890000004e000030032000040eb0010
:10526400704798000700370090c9b3007047980052
:105274000400370090c9b30070479800010037005c
:10528400000000000e08900000000100204f98006c
:105294002e0090000000e000050032002e4890002f
:1052a4000004e000c6ff3a000100370000000000df
:1052b40010c0b300e0020700004f98008e48900031
:1052c400f0ccb30000c06000004f98008e489000fe
:1052d40010c0b300000307001e0078000000e000c7
:1052e40009003a00104280000000e90010428800e2
:1052f400104280000000e00005003a00a0002000f9
:105304001042880002003700a000200010428800ec
:105314001e0078000080fa00000006000c00fa006d
:10532400500798005e009000d0409000014f780034
:10533400f0e2200011c0b300014878005e00900044
:1053440081e2200006000900b05878007000b10026
:105354001e407800e34f5000020036000040eb008e
:10536400004f7800a0e22000104078000004e00024
:1053740004003200a0e2200010407800e14f500009
:1053840003003a00b0e2200011c0b30001487800e5
:105394005e009000104090000080fb00e80f500079
