:020000040000fa
:080000000002040000000000f2
:020000040000fa
:04000800e20300000f
:020000040000fa
:04000c000c030000e1
:020000040000fa
:040010004e0300009b
:020000040000fa
:040014002c030000b9
:020000040000fa
:040018006e03000073
:020000040000fa
:04001c00e2030000fb
:020000040000fa
:04002000e2030000f7
:020000040000fa
:04002400e2030000f3
:020000040000fa
:04002800e2030000ef
:020000040000fa
:04002c00e2030000eb
:020000040000fa
:04003000e2030000e7
:020000040000fa
:04003400e2030000e3
:020000040000fa
:04003800e2030000df
:020000040000fa
:04003c00e2030000db
:020000040000fa
:04004000e2030000d7
:020000040000fa
:04004400e2030000d3
:020000040000fa
:04004800ac03000005
:020000040000fa
:04004c00e2030000cb
:020000040000fa
:04005000e2030000c7
:020000040000fa
:04005400e2030000c3
:020000040000fa
:04005800e2030000bf
:020000040000fa
:04005c00e2030000bb
:020000040000fa
:04006000e2030000b7
:020000040000fa
:04006400e2030000b3
:020000040000fa
:04006800e2030000af
:020000040000fa
:04006c00e2030000ab
:020000040000fa
:04007000e2030000a7
:020000040000fa
:04007400e2030000a3
:020000040000fa
:040078008e030000f3
:020000040000fa
:04007c00e20300009b
:020000040000fa
:04008000e203000097
:020000040000fa
:04008400e203000093
:020000040000fa
:04008800e20300008f
:020000040000fa
:04008c00e20300008b
:020000040000fa
:04009000e203000087
:020000040000fa
:04009400e203000083
:020000040000fa
:04009800e20300007f
:020000040000fa
:04009c00e20300007b
:020000040000fa
:0400a000e203000077
:020000040000fa
:0400a400e203000073
:020000040000fa
:0400a800e20300006f
:020000040000fa
:0400ac00e20300006b
:020000040000fa
:0400b000e203000067
:020000040000fa
:0400b400e203000063
:020000040000fa
:0400b800e20300005f
:020000040000fa
:0400bc00e20300005b
:020000040000fa
:0400c000e203000057
:020000040000fa
:0400c400e203000053
:020000040000fa
:0400c800e20300004f
:020000040000fa
:0400cc00e20300004b
:020000040000fa
:0400d000e203000047
:020000040000fa
:0400d400e203000043
:020000040000fa
:0400d800e20300003f
:020000040000fa
:0400dc00e20300003b
:020000040000fa
:0400e000e203000037
:020000040000fa
:0400e400e203000033
:020000040000fa
:0400e800e20300002f
:020000040000fa
:0400ec00e20300002b
:020000040000fa
:0400f000e203000027
:020000040000fa
:0400f400e203000023
:020000040000fa
:0400f800e20300001f
:020000040000fa
:0400fc00e20300001b
:020000040000fa
:04010000e203000016
:020000040000fa
:04010400e203000012
:020000040000fa
:04010800e20300000e
:020000040000fa
:04010c00e20300000a
:020000040000fa
:04011000e203000006
:020000040000fa
:04011400e203000002
:020000040000fa
:04011800e2030000fe
:020000040000fa
:04011c00e2030000fa
:020000040000fa
:04012000e2030000f6
:020000040000fa
:04012400e2030000f2
:020000040000fa
:04012800e2030000ee
:020000040000fa
:04012c00e2030000ea
:020000040000fa
:04013000e2030000e6
:020000040000fa
:04013400e2030000e2
:020000040000fa
:04013800e2030000de
:020000040000fa
:04013c00e2030000da
:020000040000fa
:04014000e2030000d6
:020000040000fa
:04014400e2030000d2
:020000040000fa
:04014800e2030000ce
:020000040000fa
:04014c00e2030000ca
:020000040000fa
:04015000e2030000c6
:020000040000fa
:04015400e2030000c2
:020000040000fa
:04015800e2030000be
:020000040000fa
:04015c00e2030000ba
:020000040000fa
:04016000e2030000b6
:020000040000fa
:04016400e2030000b2
:020000040000fa
:04016800e2030000ae
:020000040000fa
:04016c00e2030000aa
:020000040000fa
:04017000e2030000a6
:020000040000fa
:04017400e2030000a2
:020000040000fa
:04017800e20300009e
:020000040000fa
:04017c00e20300009a
:020000040000fa
:04018000e203000096
:020000040000fa
:04018400e203000092
:020000040000fa
:04018800e20300008e
:020000040000fa
:04018c00e20300008a
:020000040000fa
:04019000e203000086
:020000040000fa
:04019400e203000082
:020000040000fa
:04019800e20300007e
:020000040000fa
:04019c00e20300007a
:020000040000fa
:0401a000e203000076
:020000040000fa
:0401a400e203000072
:020000040000fa
:0401a800e20300006e
:020000040000fa
:0401ac00e20300006a
:020000040000fa
:0401b000e203000066
:020000040000fa
:0401b400e203000062
:020000040000fa
:0401b800e20300005e
:020000040000fa
:04020800e20300000d
:020000040000fa
:04020c000c030000df
:020000040000fa
:040210004e03000099
:020000040000fa
:040214002c030000b7
:020000040000fa
:040218006e03000071
:020000040000fa
:04021c00e2030000f9
:020000040000fa
:04022000e2030000f5
:020000040000fa
:04022400e2030000f1
:020000040000fa
:04022800e2030000ed
:020000040000fa
:04022c00e2030000e9
:020000040000fa
:04023000e2030000e5
:020000040000fa
:04023400e2030000e1
:020000040000fa
:04023800e2030000dd
:020000040000fa
:04023c00e2030000d9
:020000040000fa
:04024000e2030000d5
:020000040000fa
:04024400e2030000d1
:020000040000fa
:04024800ac03000003
:020000040000fa
:04024c00e2030000c9
:020000040000fa
:04025000e2030000c5
:020000040000fa
:04025400e2030000c1
:020000040000fa
:04025800e2030000bd
:020000040000fa
:04025c00e2030000b9
:020000040000fa
:04026000e2030000b5
:020000040000fa
:04026400e2030000b1
:020000040000fa
:04026800e2030000ad
:020000040000fa
:04026c00e2030000a9
:020000040000fa
:04027000e2030000a5
:020000040000fa
:04027400e2030000a1
:020000040000fa
:040278008e030000f1
:020000040000fa
:04027c00e203000099
:020000040000fa
:04028000e203000095
:020000040000fa
:04028400e203000091
:020000040000fa
:04028800e20300008d
:020000040000fa
:04028c00e203000089
:020000040000fa
:04029000e203000085
:020000040000fa
:04029400e203000081
:020000040000fa
:04029800e20300007d
:020000040000fa
:04029c00e203000079
:020000040000fa
:0402a000e203000075
:020000040000fa
:0402a400e203000071
:020000040000fa
:0402a800e20300006d
:020000040000fa
:0402ac00e203000069
:020000040000fa
:0402b000e203000065
:020000040000fa
:0402b400e203000061
:020000040000fa
:0402b800e20300005d
:020000040000fa
:0402bc00e203000059
:020000040000fa
:0402c000e203000055
:020000040000fa
:0402c400e203000051
:020000040000fa
:0402c800e20300004d
:020000040000fa
:0402cc00e203000049
:020000040000fa
:0402d000e203000045
:020000040000fa
:0402d400e203000041
:020000040000fa
:0402d800e20300003d
:020000040000fa
:0402dc00e203000039
:020000040000fa
:0402e000e203000035
:020000040000fa
:0402e400e203000031
:020000040000fa
:0402e800e20300002d
:020000040000fa
:0402ec00e203000029
:020000040000fa
:0402f000e203000025
:020000040000fa
:0402f400e203000021
:020000040000fa
:0402f800e20300001d
:020000040000fa
:0402fc00e203000019
:020000040000fa
:04030000e203000014
:020000040000fa
:04030400e203000010
:020000040000fa
:04030800e20300000c
:020000040000fa
:04030c00e203000008
:020000040000fa
:04031000e203000004
:020000040000fa
:04031400e203000000
:020000040000fa
:04031800e2030000fc
:020000040000fa
:04031c00e2030000f8
:020000040000fa
:04032000e2030000f4
:020000040000fa
:04032400e2030000f0
:020000040000fa
:04032800e2030000ec
:020000040000fa
:04032c00e2030000e8
:020000040000fa
:04033000e2030000e4
:020000040000fa
:04033400e2030000e0
:020000040000fa
:04033800e2030000dc
:020000040000fa
:04033c00e2030000d8
:020000040000fa
:04034000e2030000d4
:020000040000fa
:04034400e2030000d0
:020000040000fa
:04034800e2030000cc
:020000040000fa
:04034c00e2030000c8
:020000040000fa
:04035000e2030000c4
:020000040000fa
:04035400e2030000c0
:020000040000fa
:04035800e2030000bc
:020000040000fa
:04035c00e2030000b8
:020000040000fa
:04036000e2030000b4
:020000040000fa
:04036400e2030000b0
:020000040000fa
:04036800e2030000ac
:020000040000fa
:04036c00e2030000a8
:020000040000fa
:04037000e2030000a4
:020000040000fa
:04037400e2030000a0
:020000040000fa
:04037800e20300009c
:020000040000fa
:04037c00e203000098
:020000040000fa
:04038000e203000094
:020000040000fa
:04038400e203000090
:020000040000fa
:04038800e20300008c
:020000040000fa
:04038c00e203000088
:020000040000fa
:04039000e203000084
:020000040000fa
:04039400e203000080
:020000040000fa
:04039800e20300007c
:020000040000fa
:04039c00e203000078
:020000040000fa
:0403a000e203000074
:020000040000fa
:0403a400e203000070
:020000040000fa
:0403a800e20300006c
:020000040000fa
:0403ac00e203000068
:020000040000fa
:0403b000e203000064
:020000040000fa
:0403b400e203000060
:020000040000fa
:0403b800e20300005c
:020000040000fa
:10040000efe520000eff27000e018800000000002d
:10041000000020000000e000020032000001200087
:100420002002880014000700e80007000000e00038
:1004300003003a000083240001002000020037007e
:100440000000200001002000810f70000100320038
:1004500014000700000020000000e000020032004d
:1004600000000200000000004849020000000000f7
:100470000040da000000fe004440a90020002000f7
:100480000000e0000300320010002000900188000e
:100490004440a800000006008a1f78008b1f7800e7
:1004a00000000600a1028800800478000000eb0034
:1004b0001f003700e284440054a0b4009905ba003c
:1004c000e284440054a0b4009906ba00e2844400d7
:1004d00054a0b4000006eb00476fde00fd07b20039
:1004e000ae018800636ce10003003a00eaff0700f8
:1004f0000000eb000e003700606ce10008003a00dd
:10050000004deb000a05e800020039003420ec0041
:100510000af0a0008b05e900f9ff3e000400370057
:100520006168e100010032000086eb000b0007006b
:1005300019c7ba001905ba000e04e00003003a001a
:100540000a00e000dbff3a0000000600fe07b200f0
:10055000ae0288008a047800f5ff37000cd0a300b3
:10056000e20f4d001c00390089027800354dba00b9
:100570000a05e800020039003420ec000af0a0006f
:100580008b05e9000f003200254dba000a05e8008e
:10059000020039003420ec000af0a0008b05e900cd
:1005a000080032000c00e0000600320015cdba0051
:1005b0000a05e800020039003420ec000af0a0002f
:1005c0008b05e9008984e80054a0b4000b00e0002a
:1005d000e2ff3a00000006009902ba00055d7800cb
:1005e0008b05e900f7ff3200c82ade00055d7800c0
:1005f0008b05e900f3ff32000c00e000f1ff320050
:1006000019ddba00eeff3700d047040000000000fb
:1006100000090400000000003600f800809fbe00c2
:10062000829fbe00849fbe00869fbe000000fa002d
:100630008020a9000000eb00532307000080fa008f
:100640004f03be004f02be004f01be004f00be0070
:100650003600f900004006003600f800809fbe001a
:10066000829fbe00849fbe00869fbe000000fa00ed
:100670004a2307008040a900100020004223070001
:100680000080fa004f03be004f02be004f01be00c3
:100690004f00be003600f900004006003600f800aa
:1006a000809fbe00829fbe00849fbe00869fbe00ca
:1006b0000000fa008060a90020002000322307001b
:1006c0000080fa004f03be004f02be004f01be0083
:1006d0004f00be003600f900004006003600f8006a
:1006e000809fbe00829fbe00849fbe00869fbe008a
:1006f0000000fa008080a9003000200022230700bb
:100700000080fa004f03be004f02be004f01be0042
:100710004f00be003600f900004006003600f80029
:10072000809fbe00829fbe00849fbe00869fbe0049
:100730000000fa00980e07008680a9000080fa00e9
:100740004f03be004f02be004f01be004f00be006f
:100750003600f900004006003600f800809fbe0019
:10076000829fbe00849fbe00869fbe000000fa00ec
:10077000f04180000000e00002003200f041800003
:1007800000000100d0e52000104078008040e80023
:10079000d0e5200001487800c0e5200011c0b3007a
:1007a000014878008500a9000080fa004f03be00d0
:1007b0004f02be004f01be004f00be003600f900e0
:1007c000004006000040da000000fe0000000500c6
:1007d0001400200073013700f4ff2f00710137006f
:1007e0006011b8008a013700889fbe008a9fbe0052
:1007f0008c1f7800db010700e201330003866c00e8
:100800006450e100240032006420e100270032003f
:100810006150e100220032006120e100210032003d
:100820008b854200eb07b1000134b800003ab800f4
:100830000804420089844a00013ab8000030b80038
:100840008880400009014a00040033000000400095
:1008500081804800020149008b05e900c909dd00db
:10086000830170000100320013002000c814de0074
:100870004814dd004709de001200b200c808de009f
:10088000088470009101070001f0a1000cf0a7009e
:1008900001f0a000c40137006120e100c601320070
:1008a0000801be000200be00f7ff37006150e10002
:1008b000fcff3a00c00137006022b80006022000a9
:1008c0000000d0008180d2000482d2008582d20054
:1008d0000000a0000202520083825a00030031008f
:1008e0000202420083824a000000a1000603e900e0
:1008f000f3ff3a0000000600889fbe008a9fbe00fa
:1009000030044200b0844a0030054b0090854b0013
:100910006000b1000898be000a90be000440e100eb
:1009200005c8e10006d0e10007d8e100020031006f
:10093000680040001008e8004f05be004f04be00ec
:1009400000000600889fbe008a9fbe003004be00e3
:100950002005be000418540005985c0006185d00d0
:1009600007985d00110020000440e10005c8e10087
:1009700006d0e10007d8e100010039008000eb005b
:10098000108810004f05be004f04be000000060096
:100990001200fa00889fbe008a9fbe008c9fbe0096
:1009a000e0b79f00f1b79f0082bf9f0093bf9f00f9
:1009b0000605be000404be000000eb00d0b79f0097
:1009c000c0b79f00b0b79f00a0b79f0090b79f002f
:1009d000000678005fb19700cfb097008201410018
:1009e0003fb097000200e00004003d003700070020
:1009f0007e805700c0ff0700030037003300070068
:100a00007e805700cfff0700dfb697000d00e000a3
:100a10000c0035006fb29700ffb297000fbb970034
:100a20009fbb970010002000010020006011b8005b
:100a300000027200818272000203730083837300dc
:100a40001b0007000c06e80001042000810f56007f
:100a5000e0ff3a000d00e00004003d000802be0087
:100a60000a03be007e805700a3ff07005fa897001f
:100a70000000e00005003a001fb29700afb29700f7
:100a80003fb39700cfb39700090007006fb09700fe
:100a9000ffb097000fb997009fb997004f06be00af
:100aa0004f05be004f04be000080fa0000000600a3
:100ab0000100070000000600a4b79f00b5b79f0023
:100ac000c6b79f00d7b79f00000006004f09de00a1
:100ad00082817100b3b79f004f01de00818040002a
:100ae00082807000a1b79f008fb097004f09de0091
:100af000000040000200700090b79f007fa89700a0
:100b00004f01de00818040008280700081b79f002d
:100b10000d0007004f3ade000000400004007000a6
:100b2000f0af9f00080007000402420085824a00df
:100b300006034b0087834b00dfff07000802be005f
:100b40000a03be00000006002fb29700bfb2970054
:100b50004fb39700dfb3970000000600881f7800ae
:100b600018002000881f780089ff07008f87e900a0
:100b70004f04780000000600801feb0084ff070090
:100b80008f87e90000000600889fbe008a9fbe0094
:100b9000e00f5000e08f5800e00f5900e08f59003f
:100ba0000c003d006044b8006055b80000005400df
:100bb00081805c0002015d0083815d0018002000df
:100bc0001500070008003d00180007000004eb00b6
:100bd000050037000004eb000f00070002003d0095
:100be0001200070018002000dcff07000800e000ea
:100bf000060032006022b8006033b80000005200e6
:100c000081805a0002015b0083815b004f05be00ba
:100c10004f04be0000000600e00f5200e08f5a00b3
:100c2000e00f5b00e08f5b00000006006044b8004e
:100c30006055b8000402540085825c0006035d0024
:100c400087835d0000000600889fbe008a9fbe006b
:100c50008c1f7800e00f5000e08f5800e00f590023
:100c6000e08f59000d003d006044b8006055b800a9
:100c70000000540081805c0002015d0083815d0002
:100c80001c0020000820e10009a8e1000ab0e100f2
:100c90000bb8e1000d003d00080037000006eb0036
:100ca000e00f5200e08f5a00e00f5b00e08f5b0026
:100cb00006003d006044b8006055b80004025400ce
:100cc00085825c0006035d0087835d00aaff070044
:100cd0000c00e000060032006022b8006033b8006b
:100ce0000000520081805a0002015b0083815b009a
:100cf0004f0678004f05be004f04be0000000600fe
:100d0000889fbe008a9fbe008c1f78000006eb0003
:100d1000e00f5000e08f5800e00f5900e08f5900bd
:100d200007003d006044b8006055b8000000540062
:100d300081805c0002015d0083815d001c00200059
:100d4000e00f5200e08f5a00e00f5b00e08f5b0085
:100d500007003d006044b8006055b800040254002c
:100d600085825c0006035d0087835d000c00a200a5
:100d7000940007000c00e000060032006022b8007a
:100d80006033b8000000520081805a0002015b000d
:100d900083815b004f0678004f05be004f04be0004
:100da00000000600889fbe008a9fbe00841f780056
:100db0006c0007004f00780011003300f0ff2f0097
:100dc000838f6c0006003b00040565000a00a70045
:100dd0000800370009f0a6001000200008003700c6
:100de000820f5400838f5c00030039001000200044
:100df00001003e000000200009f0a7000000ea000a
:100e00004f05be004f04be000000e00000000600d9
:100e1000889fbe008a9fbe0000827000040271009d
:100e200004827100260032000004be000200be00f1
:100e30006011b8006b092000950220000182cf00ec
:100e40000a0039000541b1000082cf0007003900d7
:100e50000541b1000982cf00040039000541b1000d
:100e60000882cf00010039000541b100054252005f
:100e7000120032000a003b008281710061016400af
:100e80008100d1000080d3008984d3000884d3007e
:100e90008b05e8000442e800f7ff3a00070037003e
:100ea0000804440089844c00000048008180480008
:100eb0008b05e9000442e900f9ff3a00030007004e
:100ec0004f05be004f04be00000006008100200058
:100ed000618055000b003d000b00200061fe2f00db
:100ee0000100e1001d003400828171006101640095
:100ef0008904d1000884d3000000e800faff3a001a
:100f000071002000610064000300700002006000b6
:100f10000900320061044400e0844c000988a50007
:100f2000050032008b05e8006808e10002003a0085
:100f30008904d1000884d300f20f20000258e10098
:100f400005003d00c75ddd00f907b200898075002e
:100f500008007800000006000bf827008b007800de
:100f6000000005000004be00380007000003be00ba
:100f70000405be000200be0034000700844f750067
:100f8000000006000200be006450e10005003600cb
:100f90006420e100020036000968a30001003a0065
:100fa0000800be000160a0004f0678004f05be009b
:100fb0004f04be0000000600f0ff2f00f1ff2700e5
:100fc000f9ff3700889fbe008a9fbe008c9fbe003d
:100fd0000404b8000506b8008904460060854e0088
:100fe0000606b8000a054600e0854e000706b80070
:100ff0008b054600040eb800890446000a854e00a1
:10100000e0854d00050eb8000a0546008b854e00b0
:10101000060eb8008b0546000416b8000a05460007
:101020008b854e000516b8008b054600041eb800df
:101030008b0546000800be000a01be004f06be0038
:101040004f05be004f04be0000000600c70ade00c8
:10105000f107b200f50fb20008003200e1cf420004
:10106000020032000170a00024000500810f700012
:10107000010032000408050044000500810f7000e3
:1010800002003a00140005008502e900000040005b
:1010900081c04800fcff3b000170a0002400050057
:1010a0008001780002003700b15978000201e900a0
:1010b0000200e000fcff3a0000000600800178001a
:1010c00002003700815978000201e9000200e000c7
:1010d000fcff3a0000000600000178008201780061
:1010e0003204e000fdff3a0003017800b1417800ce
:1010f000035978000304e000fcff3a0000000600fa
:1011000080007800010178003104e000fdff3a0022
:08111000000051000000060080
:020000040000fa
:101118000e00fa0060922f00d1002000008fbe0060
:101128000b0b07001e01be0070c1b3005b0d07006a
:10113800521107008000eb00a0408800b1408800f1
:1011480010c0b300200f0700002c21000100200070
:101158007020070010110700200798000040eb00de
:10116800190f0700ae009000f00f2000008060000b
:10117800300798002e0090004800de0040079800d5
:10118800be0090003e0090000088b9000001780081
:10119800ce0090004e0090000088b9000000780052
:1011a800000041008000eb0050079800610798009c
:1011b8005e019000ee019000c2408800d340880094
:1011c8005e019000ee019000c0fd2f00010020009c
:1011d800800f5100818f590004003600c0fd2f0098
:1011e80001002000c0408800d1408800be0a0700e6
:1011f8000080fa00000006000000fa00504080005d
:101208000000e00002003a0010c0b3000a003700f6
:10121800d61f070051408000810f5000050039009b
:10122800d61f070010c0b3000ce8b7000040eb0061
:101238000100370010c0b3000080fa00000006006b
:101248000200fa00004f78001ec8bf009e4f5000f1
:10125800120032001ec8bf000080fb00e10f5000e2
:1012680002003a004d1a0700010037000000000094
:101278001e80fb00e10f500003003a0040e520000b
:10128800401a070001003700000000001e417800e6
:10129800e18120008248780001003700000000004a
:1012a8000080fa00000006000000fa0002000700b3
:1012b8000080fa00000006000000fa00c0de2000ee
:1012c800b1cfb300014878000080fa0000000600a2
:1012d8000200fa000000eb00000f78000800370059
:1012e8009e007800a00220000088b90080007800e5
:1012f8006084200000804000941207001e0fe80060
:10130800004080009e007800808f5000f4ff350078
:101318000080fa00000006000000fa00ecff070059
:10132800009020008042eb0014c0b30080017800d8
:101338000041eb0011c0b300f08a20003718070005
:101348000040780002e8b70002c8bf000004e000cf
:1013580002003200f08a20002040880002c8bf0046
:101368000080fb000080fa00000006000000fa0080
:10137800020007000080fa00000006000000fa00e2
:10138800206f8000104078000080fb000000e00023
:1013980004003200f10f2000810f500009003200d4
:1013a8000f0037006a0a07000040eb00860e0700ae
:1013b8004d0a0700c0de20008040eb00014878009d
:1013c8000b003700620a070010c0b3007e0e07004a
:1013d800c0de20008040eb000148780004003700a0
:1013e800c0de200091cfb300014878000000000063
:1013f800406f80008040eb0001487800100020001a
:10140800506f88000080fa00000006000000fa0013
:10141800020007000080fa00000006000000fa0041
:101428000080fa00000006000000fa00480a0700e1
:10143800030007002c0a07000080fa0000000600dd
:101448000000fa000080fa00000006000a00fa0016
:101458000000eb00100798000000eb002007980040
:101468006000b8003007980041079800206f80009e
:101478000000e800104078000080fb008000eb00ce
:101488003e019000ce019000020040008380480099
:101498003007980041079800206f80000080e8001e
:1014a800104078000081fb008001eb004818dd0047
:1014b800c810de00810070004810dd003e01900079
:1014c800ce01900002004000838048003007980059
:1014d80041079800206f80006300400010407800aa
:1014e8000080fb008000eb00c000dd000000200051
:1014f8003e019000ce019000020040008380480029
:10150800300798004107980060ad2000104f780020
:1015180040c3b3009e40780080cf500002003600e0
:1015280040c3b300004f78001e80fb00c200dd00fe
:1015380080ad2000008040003e019000ce01900068
:101548000288be009e80fb0080ba20000080400018
:101558008040eb0001487800206f80006400400064
:10156800104078000004e000340032001e81fb00c7
:101578001e80fb00210d20008080400060ad20000f
:1015880000804000104078008040e80080ba2000c9
:1015980000004100014878001e81fb00206f800098
:1015a8006500400090407800c0bd20000000410068
:1015b800014878001e81fb00206f80006600400013
:1015c8009040780040c420000000410001487800a5
:1015d8001e81fb00206f800067004000904078006b
:1015e800c0ca20000000410001487800206f800038
:1015f80068004000104078000080fb001007980049
:10160800206f800069004000104078000080fb00d7
:101618004800dd009e009000008040001007980000
:101628001e80fb00f011b0008000400060ad20007b
:10163800008040009e01900003087800206f800021
:101648006a004000104078000004e00034003200d6
:101658001e81fb001e80fb00210d200080804000c1
:1016680060ad2000008040001040780080c0e80095
:1016780080ba200000004100014878001e81fb006c
:10168800206f80006b0040009040780000c120006f
:1016980000004100014878001e81fb00206f800097
:1016a8006c0040009040780080c720000000410096
:1016b800014878001e81fb00206f80006d0040000b
:1016c8009040780000ce20000000410001487800da
:1016d800206f80006e004000104078000080fb0002
:1016e80020079800206f80006f00400010407800ad
:1016f8000080fb004800dd00ae0090000080400044
:10170800200798001e80fb003015b00080004000c4
:1017180060ad200000804000ae0090000108780015
:101728001e80fb00210d20008080400060ad20005d
:1017380000804000104078000004e00005003200fe
:1017480060ad2000104078008040e80060ad2000c7
:101758000148780060ad20009040780030c3b300a5
:1017680080cf50000500360060ad200041c3b300b3
:101778000148780050c3b3000200370060ad200074
:10178800104078000080fa00000006000000fa000f
:10179800020007000080fa00000006000000fa00be
:1017a800406f8000320020008000eb0041fe0700ff
:1017b800c0de20008040eb0001487800206f8000e8
:1017c800104078000080fb00e10f5000110032004b
:1017d800e20f50001d0032000000e00034003a0023
:1017e800406f80008040eb0001487800406f800027
:1017f8000000e80041c3b30001487800406f800052
:101808000080e80061ad2000914078000148780030
:101818003200370070ad20008040eb0001487800ae
:1018280060ad20008040eb0001487800406f8000e8
:1018380011c0b30001487800406f80000000e80044
:1018480041c3b3000148780024003700306f80009e
:10185800ef0f500004003e00c0de200091cfb3001f
:101868000148780007003700f8fe070041c3b300bd
:10187800814f500003003600c0de200080c0eb001e
:1018880001487800406f800021c0b300014878000b
:10189800406f80000000e80061ad200091407800b2
:1018a80042c3b30081405100014878000b00370063
:1018b800406f800080c0eb0001487800406f8000d6
:1018c8000000e80041c3b30001487800c0de2000f2
:1018d800b1cfb300014878000000000030002000bc
:1018e800506f88000080fa00000006000000fa002f
:1018f800020007000080fa00000006000200fa005b
:101908000040eb00004f7800206f80001040780006
:101918000004e0000e003200206f80000000e800a4
:1019280010407800e34f50000300360090cfb3001a
:10193800004f78000600370005090700206f800077
:101948000000e8001040780011e8b700e60807003a
:10195800406f8000a2002000f10f2000d5fd070095
:101968000080fa00000006000600fa00004f780028
:10197800114798001207980023079800f4080700f9
:101988001e4078000004e000040035009e409000ee
:101998001e4078008a0a0700020037001e407800bf
:1019a800200a07002e0090008040eb0001487800d4
:1019b8001e00900011002000010878000040eb0094
:1019c8000080fa00000006000600fa00004f7800c8
:1019d8001107980022079800dd0807001e407800cc
:1019e8004f0a0700ae009000804878001e00900063
:1019f8001100200001087800bb0807000040eb0038
:101a08000080fa00000006000000fa00d008070075
:101a180003000700b40807000080fa000000060071
:101a28000000fa00881f7800206f800010407800be
:101a38000004e00004003200206f80000000e8008d
:101a480010407800930d070090002000506f880028
:101a5800406f80000004e8003c0d0700004c78004f
:101a6800c0de20008040eb00014878004f04780079
:101a78000080fa00000006000000fa001ec8bf003f
:101a8800e14f500001003a001e68ef00206f80000f
:101a9800104078000004e00005003200206f80004c
:101aa8000000e8009040780050e5200001487800e8
:101ab800206f80000080e800104078000004e000fb
:101ac80005003200206f80006300400090407800dd
:101ad80060e5200001487800206f80006400400025
:101ae800104078000004e00005003200206f8000fc
:101af800650040009040780090e52000014878009b
:101b0800206f800066004000104078000004e0006c
:101b180005003200206f8000670040009040780088
:101b280070e5200001487800206f800068004000c0
:101b3800104078000004e00005003200206f8000ab
:101b4800690040009040780040e520000148780096
:101b5800206f80006a004000104078000004e00018
:101b680004003200206f80006b00400010407800b5
:101b780022e8b700206f80006c0040001040780019
:101b88000004e00005003200206f80006d00400076
:101b98009040780080e5200001487800206f8000a0
:101ba8006e004000104078000004e000050032009c
:101bb800206f80006f00400090407800a0e5200072
:101bc80001487800406f8000020120008000eb008f
:101bd80038fd070000012000506f8800c0de20009b
:101be8008040eb0001487800406f80000000e8006a
:101bf80051e520009140780001487800406f80004e
:101c08006300400061e520009140780001487800b9
:101c1800406f80006500400091e520009140780009
:101c280001487800406f80006700400071e520009f
:101c38009140780001487800406f800069004000ba
:101c480041e520009140780001487800406f80000d
:101c58006b00400021822000914078000148780004
:101c6800406f80006d00400081e5200091407800c1
:101c780001487800406f80006f004000a1e5200017
:101c880091407800014878000080fa0000000600c2
:101c98000000fa0078ff07000080fa000000060044
:101ca8000600fa00881f780010079800210798009e
:101cb8000040eb0010479800250807000040eb00a3
:101cc800004f7800290037001e407800ef4f500081
:101cd800250032001e407800fd4f500004003600f9
:101ce80010c2b3009e40780080cf50001e0036001e
:101cf80020c2b3009e40780080cf50000400360018
:101d080080c2b3009e40780080cf50001600360095
:101d1800e0c2b3009e40780080cf50000400360037
:101d280020c3b3009e40780080cf50000e003600dc
:101d380040c3b3009e40780080cf50000a003200b4
:101d48001e4090000080fb00ae0090000084400020
:101d58001e40780072090700004c78001e40900071
:101d68000040e800104798001e4fe800e0c3b300a9
:101d78009e40780080cf5000d3ff36001e40900070
:101d88000080fb000000e800800078001e00900042
:101d980001087800d40707000040eb004f047800e2
:101da8000080fa00000006000600fa00a089200062
:101db800200798006000b800008fbe000a003700b6
:101dc8002e0090008040eb00014878002e00900023
:101dd8000000e800200798001200200003002000ff
:101de8001e0f41005e974900b00f2000010020003f
:101df8001e01be00800f5100818f5900f0ff360090
:101e08000080fa00000006000000fa00406f800021
:101e18008040eb0001487800406f80000000e80037
:101e28008040eb0001487800c0de2000b1cfb3004d
:101e38000148780020002000506f88000080fa00d8
:101e4800000006000000fa0020002000506f880003
:101e5800c0de2000b1cfb30001487800406f800099
:101e68000000e8008040eb00014878000080fa009c
:101e7800000006000000fa00b507070020c0b30004
:101e8800effc0700efff0700970707000080fa0044
:101e9800000006000000fa0010002000506f8800c3
:101ea800c0de2000b1cfb300014878000080fa00fe
:101eb800000006000000fa00a507070020c0b300d4
:101ec800dffc0700f3ff0700870707000080fa0020
:101ed800000006000200fa0003c8bf000004e0008a
:101ee80005003a0028000700004f780010c0b30032
:101ef80003e8b70001003700000000000080fa0086
:101f0800000006000000fa00206f800010407800f2
:101f18000ee8b700206f80000000e800104078004d
:101f28000fe8b700206f80000080e80010407800bc
:101f380010e8b700e7ff0700c0de20008040eb0094
:101f4800014878000080fa00000006000000fa004e
:101f58007d0607000c0007000080fa00000006005c
:101f68000000fa004c0707000080fa000000060095
:101f78000000fa000400070002e8b70002c8bf002a
:101f88000080fa00000006000200fa006e06070052
:101f9800004f78001e4078000004e00036003a0048
:101fa80010c0b300a6fc070010c8bf00804078002e
:101fb80090c2b3000209070010c8bf00e84f5000e4
:101fc80002003a00a0cab300960807000268ef00b2
:101fd800bffc07000ec8bf000004e00011003a0073
:101fe8000fc8bf000080fb000000e9004f00de00c2
:101ff800004178000190200022c8bf0015c0b3003e
:10200800024278008101780000417800c1c0b30025
:10201800a08920001b1407000040780002e8b700e0
:10202800100037000fc8bf000080fb000000e90067
:102038004f00de00004178000190200022c8bf0058
:1020480015c0b30002427800810178000041780091
:10205800c1c0b300a0892000f01407000040780038
:1020680002e8b70010c8bf00e84f500002003a006d
:10207800b0cab3006b0807001e4178002181200018
:10208800824878000407070002c8bf000080fa00f1
:10209800000006000000fa00020007000080fa00b5
:1020a800000006000200fa000040eb00004f780034
:1020b8000040eb0010479800206f80001040780027
:1020c8000004e00002003a000028ef00b0003700ea
:1020d800206f800010407800e14f500006003a0061
:1020e80000408000e20f500008003a0000c0eb00fa
:1020f800004f7800a6003700206f8000104078005d
:10210800e24f500001003a000028ef00306f8000d5
:10211800e80f500003003e0090cfb300004f780056
:102128009b00370000408000104798000040800066
:102138000000e800004088001e4090008080fb00fe
:10214800206f80000000e80010417800a002200005
:102158000088b9008000780060842000008040007a
:10216800024878001e4090008080fb00206f8000ad
:102178000080e80010417800a00220000088b90023
:1021880080007800608420000080400012409800a1
:102198001e4090008080fb00206f8000630040009c
:1021a80010417800a00220000088b9008000780063
:1021b8008084200000804000024878001e40900083
:1021c8008081fb00206f8000640040001040780090
:1021d8000080fb008000eb00a20220000299b900f9
:1021e80082017800a2862000028141000089be0099
:1021f8001e4090000082fb001e4090008080fb0083
:10220800a00220000088b9000000780041022000e8
:102218008080400060842000008040001001be00e3
:10222800206f800065004000104078000080fb00af
:102238004800dd00cf80de00000071008180710061
:10224800a202200002a1b90082017800a286200023
:10225800028141000089be001e4090008080fb0082
:10226800206f80006600400010417800a002200026
:102278000088b90080007800e086200000804000d7
:10228800024878001e4090008080fb00206f80008c
:102298006700400010417800a00220000088b900c3
:1022a80080007800e08620000080400012409800fe
:1022b800306f8000690150001e4090008080fb0054
:1022c800a00220000088b9000000780081022000e8
:1022d800808040006084200000804000104078002a
:1022e8000080fb00670040000000e00001003d00a6
:1022f800670040004380de00800f5100030031007a
:1023080090cfb300004f7800210037001e409000a6
:102318008080fb00a00220000088b900000078003f
:1023280081022000808040006084200000804000fe
:10233800104078000080fb00670040000000e000cb
:1023480001003d00670040004380de000001780086
:10235800206f8000e80140001e4090008080fb0054
:10236800a00220000088b900000078008080e80002
:1023780060842000008040000000e80083007800ae
:1023880045fb070088fe07000040eb00004f78007f
:102398000000eb00506f8800c0de20001e48780067
:1023a8000080fa00000006000000fa006806070036
:1023b80010c0b300a2fb07004c0007000080fa0021
:1023c800000006001200fa00200798003107980064
:1023d8004207980053079800444f9800554f9800bb
:1023e80076079800070f98000040eb00004f780030
:1023f8000040eb0010479800350037000040eb0024
:10240800204798001e4090000080fb00000040001c
:10241800de009000008240001e4090000081fb001a
:102428008001eb002e009000be00900002004000ea
:10243800838048008e0a90000001be00de489000ac
:102448004e00900011120700004f78002e409000b7
:102458000040e800204798001e4078000004e00093
:102468000300320000202e0041002000a91b0700b5
:102478002e409000e64f500006003e001e407800b7
:102488000004e000030032005bfb07000004e000ea
:10249800dcff3a000cc8bf000004e0000200320074
:1024a800c0cbb300004f78001e4078000004e00065
:1024b800040032007e0090001e4878001e40900004
:1024c800080037001e4090000040e80010479800c0
:1024d8009e4090004e48900080cf5000c7ff3900c2
:1024e8001e4090000080fa00000006000800fa0074
:1024f8000040eb00004f78000040eb007047980068
:10250800206f80009040780011479800206f80006d
:102518000000e800441707001007980021079800fa
:10252800306f8000690050000000d10060479800bb
:1025380005050700704798007e4090000004e00001
:1025480035003a0074fb070002c8bf000004e00031
:1025580003003a00f0cbb300704798002e00370014
:10256800206f800065004000104078000004e00003
:102578000f003a00206f800066004000104078008d
:102588000004e0000a003a00206f80006700400065
:10259800104078000004e00005003a00206f800039
:1025a80068004000104078000004e0000800320095
:1025b800206f8000e500400020408000b610070032
:1025c800704798007e4090000004e00011003a0037
:1025d800406f80008000e800206f800069014000a3
:1025e80020408000e701470081037800030378005a
:1025f8009e4290006e4290008201780000017800af
:102608001e009000ae0090006eff0700004f78009b
:1026180001003700000000009f050700200020008f
:10262800506f8800406f80001e487800fe40900080
:10263800c0de2000014878000080fa000000060093
:102648000400fa000000eb0010079800216f8000da
:102658001fc8bf000080fb0000004000670040006a
:1026680000804000104078008080fb00226f8000ce
:102678001fc8bf000080fb0064004000000040004d
:1026880000004100104078000080fb004800dd0099
:102698000100700080007800004180000080680020
:1026a80000418800014180005008800000806800d7
:1026b800004188001fc8bf000040e8001fe8b700bd
:1026c8001fc8bf00e54f5000010036001f68ef002b
:1026d8000041800000407800004f780000418000f1
:1026e8004800de0000407800104798000e80e8009f
:1026f80017c0b3000043eb008042eb0000027800f3
:102708008001eb00020120008e00780000c9b300b0
:10271800130c07000080fa00000006001400fa00fd
:102728006000b8001007980021079800206f80000b
:102738000000e800104078000080fb008000eb00fb
:102748001e019000ae019000020040008380480006
:102758001007980021079800206f80000080e8008b
:10276800104078000081fb008001eb004818dd0074
:10277800c810de00810070004810dd001e019000c6
:10278800ae019000020040008380480010079800c6
:1027980021079800206f80006300400010407800f7
:1027a8000080fb008000eb00c000dd00000020007e
:1027b8001e019000ae019000020040008380480096
:1027c8001007980021079800206f800010407800bb
:1027d8000080fb00e50f5000da003200e50f5000e2
:1027e80007003c00e20f500048003200e40f5000a0
:1027f80074003200e10f500008003200d7013700a2
:10280800e90f500057013200f00f500080013200ec
:10281800e80f50000d013200d0013700306f800002
:10282800e30f500006003e00c0de200091cfb30049
:102838000148780030002000506f8800d40137002c
:10284800430507001e019000ae01900070c1b3005f
:1028580092070700b0c8b300004f7800ae09070020
:102868001e4078007b404000004f78001e407800f2
:10287800080a070060479800f10047007000470009
:1028880001017800800078000000eb00720a070060
:102898000e5090000080fb006f006000ed0f5000ac
:1028a800030034001e407800f44f4000ecff350070
:1028b8009f09070030002000506f8800406f80009b
:1028c8008e509000efc0600001487800406f800093
:1028d8000000e8008e5090008180fb00c408de00f4
:1028e8008140780001487800406f80000080e8004f
:1028f8009e50900001487800c0de20008040eb0028
:1029080001487800f8040700a1013700306f800003
:10291800e40f500006003e00c0de200091cfb30057
:102928000148780020002000506f88009801370087
:10293800070507001e019000ae01900070c1b300aa
:10294800560707004d0b07004007980010c0b3005a
:102958001d090700100b0700500798000040eb0006
:102968001909070020002000506f8800406f800080
:10297800de00900001417800ce0090008140780090
:102988008140510001487800406f80000000e80055
:10299800de009000c808de0001417800ce009000fb
:1029a800c808de0081407800814051000148780065
:1029b800c0de20008040eb0001487800ca04070010
:1029c80073013700306f8000e50f500006003e00ad
:1029d800c0de200091cfb30001487800100020002d
:1029e800506f88006a013700206f80006400400043
:1029f800104078000004e0000c00320060992000cc
:102a08008040eb00014878002468ef001e01900028
:102a1800ae01900052418800634188001e01900079
:102a2800ae0190003241880043418800609920003f
:102a3800104078008040e800609920000148780044
:102a480024c8bf000040e80024e8b70060992000cf
:102a58009040780050c3b30080cf50000c0036007f
:102a68006099200051c3b30001487800100020008d
:102a7800506f8800406f80008040eb00014878006c
:102a8800c0de200080c0eb0001487800400137001c
:102a980060992000104078000080fb000000e900e9
:102aa800c200dd0080992000008040001e019000d7
:102ab800ae0190000288be00206f800065004000d3
:102ac8001040780023e8b70052418000634180003d
:102ad8001e009000ae009000800f5100818f5900b9
:102ae800040031001e019000ae01900052418800a0
:102af8006341880032418000434180001e009000fd
:102b0800ae009000800f5100818f590004003600fc
:102b18001e019000ae0190003241880043418800b8
:102b280010002000506f8800406f80008040eb004c
:102b380001487800c0de20008040eb0001487800a2
:102b480013013700406f80003182200091407800e7
:102b580001487800406f80000001e80030418000a3
:102b6800414180000040780000497800406f8000b3
:102b78000081e8003041800041418000c809dd0043
:102b88004800de0000807100c808de0000407800c0
:102b980000497800406f80006301400030418000a8
:102ba800414180004008de0000407800004978007c
:102bb800406f800064014000504180006141800006
:102bc8000040780000497800406f800065014000af
:102bd8005041800061418000c809dd004800de00e6
:102be80000807100c808de000040780000497800c5
:102bf800406f8000660140005041800061418000c4
:102c08004008de000040780000497800406f8000ee
:102c180067004000619920009140780001487800e1
:102c2800406f800068004000418220009140780099
:102c38000148780090002000506f8800c0de200016
:102c48008040eb0001487800d1003700306f8000e9
:102c5800e70f500006003e00c0de200091cfb30011
:102c68000148780010002000506f8800c800370025
:102c7800206f80000000e800104078000080fb0012
:102c880080418800206f80000080e80010407800b4
:102c98000080fb004800dd00800078008041800053
:102ca8000100700080418800206f800063004000b0
:102cb800104078000080fb0070418800206f800081
:102cc80064004000104078000080fb004800dd00f0
:102cd8008000780070418000010070007041880019
:102ce800206f800065004000104078000080fb00e5
:102cf80040408800206f8000660040001040780047
:102d08000080fb004800dd00800078004040800023
:102d18000100700040408800206f8000670040007c
:102d28001040780006e8b70010002000506f8800b7
:102d3800406f80008040eb000148780071418000be
:102d480010032000808f500002003e002003200066
:102d580070418800c0de20008040eb000148780008
:102d68008b00370070002000506f8800406f800093
:102d7800814180008140780001487800406f8000e0
:102d88000000e80081418000c808de00814078002a
:102d980001487800406f80000080e80071418000a1
:102da8008140780001487800406f8000630040004f
:102db80071418000c808de00814078000148780031
:102dc800406f8000640040004140800081407800ee
:102dd80001487800406f8000650040004140800055
:102de800c808de008140780001487800406f800004
:102df800660040006180200091407800014878001a
:102e0800c0de20008040eb000148780060003700f9
:102e1800306f8000f10f500006003e00c0de200039
:102e280091cfb300014878000000eb00506f880094
:102e380057003700206f8000640040001040780081
:102e48008080fb00206f8000650040001040780003
:102e58000080fb004800dd0001007000600798005a
:102e68000000eb00100f9800b903070070c0b30012
:102e78002b050700604f980080c0b30028050700a5
:102e8800704f98008040eb0070c0b3004c050700fd
:102e98008040eb0080c0b300490507001e01900088
:102ea800ae01900070c1b300fc05070010c0b3006c
:102eb800e3f807000000eb00506f8800ee00900078
:102ec800514088000c68ef0010c0b300be0707002f
:102ed80000e82300010020000e19070099180700d8
:102ee800206f80006600400010407800e14f5000dd
:102ef80002003a00d2fd07000a00370072004700be
:102f080017c0b3000043eb008042eb0000027800da
:102f18008001eb000001eb008000eb00e0c9b3008a
:102f28000f0a07003428ef00b3f807000004e00098
:102f3800ebff3a000040eb00a3070700ee489000c3
:102f480070c0b3001e050700fe48900080c0b300a3
:102f58001b050700640307000d0037002000200050
:102f6800506f8800406f800080c0eb0001487800f7
:102f7800406f80000000e80080c0eb000148780046
:102f8800c0de2000b1cfb300014878000000000087
:102f98000080fa00000006000000fa006c03070039
:102fa80010c0b300a6f80700020007000080fa006e
:102fb800000006000c00fa000040eb00004f78000b
:102fc800206f800090407800214f9800206f80008b
:102fd8000000e800941407001007980021079800e3
:102fe800506f8000604798000040eb0070479800e1
:102ff800516f8000406f8000010178008000eb0075
:103008002cf8070050020700004f78001e40780097
:103018000004e0007f003a00bff8070002c8bf00c4
:103028000004e00003003a00f0cbb300004f780042
:1030380078003700206f800065004000104078005d
:103048000004e0000f003a00206f80006600400096
:10305800104078000004e0000a003a00206f800069
:1030680067004000104078000004e00005003a00c6
:10307800206f800068004000104078000004e000e5
:1030880008003200206f8000e500400020408000ea
:10309800010e0700004f78001e4078000004e00091
:1030a8005b003a006e4090000080fb006100600009
:1030b800004078000004e0003a003200416f8000d0
:1030c800410798006e4090000080fb000000d1008e
:1030d80060479800240037001e009000ae00900062
:1030e8001e019000ae01900061014100e08149009d
:1030f800120798002307980026408000ce0290000f
:1031080014c0b3000001be00ae489000060078006d
:103118006a0f0700004f7800e0cdb3009e407800aa
:1031280080cf500004003a007e4090000040e80044
:1031380070479800060037001e4078000004e00041
:1031480003003a007e40900000c0e80070479800f5
:103158004e0090000080e800400798006e40900004
:103168000040e900604798001e4078000004e00035
:1031780006003a006e4090000004e00003003200b0
:103188001df807000004e000d3ff3a000cc8bf0098
:103198000004e0001f003200c0cbb300004f7800ed
:1031a8001c0037006e4090000080fb000000d1003a
:1031b80060479800416f80002040800081027800bd
:1031c8006e4290001e019000ae019000ae48900043
:1031d8003a0f0700004f7800e0cdb3009e4078001a
:1031e80080cf500003003a0010c0b3007047980029
:1031f800080037001e4078000004e00005003a008f
:103208006e40900000404000704798000100370071
:1032180000000000a00207007e4090000080fb0034
:10322800506f8800c0de20001e4878000080fa0039
:10323800000006000000fa00c502070010c0b30035
:10324800fff70700020007000080fa0000000600f0
:103258000400fa00216f800011079800ba010700e6
:10326800004f78001e4078000004e0002b003a0070
:1032780029f8070002c8bf000004e00003003a0074
:10328800f0cbb300004f780024003700206f800097
:1032980063004000104078000004e0000f003a008e
:1032a800206f800064004000104078000004e000b7
:1032b8000a003a00206f8000650040001040780046
:1032c8000004e00005003a00206f8000660040001e
:1032d800104078000004e00008003200206f8000f1
:1032e800e3004000204080006b0d0700004f78008d
:1032f8001e4078000004e00007003a00416f80009b
:1033080020408000010178009e009000b70d070062
:10331800004f780001003700000000001e407800d0
:103328000004e0000300320000202e0041002000cd
:10333800f817070058020700c0de20001e48780072
:1033480010002000506f88000080fa00000006007e
:103358000600fa00216f800011079800206f800096
:10336800640040009040780041479800206f80003a
:1033780065004000904078005147980074020700ab
:1033880010c0b300aef707006f010700004f7800c8
:103398001e4078000004e0000f003a00def7070046
:1033a80002c8bf000004e00003003a00f0cbb300fd
:1033b800004f780008003700416f800020408000ef
:1033c80001027800de4190004e4190009e0090007e
:1033d800c20d0700004f78001e4078000004e0008e
:1033e8000300320000202e0041002000c91707000a
:1033f8002902070010002000506f8800c0de20005e
:103408001e4878000080fa00000006000000fa005c
:10341800206f8000104078000004e00013003200a4
:10342800206f80000000e800104078000de8b70029
:103438000dc8bf000004e0000c003200206f8000bf
:103448000080e800104078000ee8b700206f800088
:1034580063004000104078000fe8b700206f80003c
:10346800640040001040780010e8b7000000eb004e
:10347800506f8800c0de20008040eb0001487800d3
:103488000dc8bf000004e00001003a001602070062
:103498000080fa00000006000000fa002c02070075
:1034a80010c0b30066f70700020007000080fa00aa
:1034b80000000600d800fa000040eb00004f78003a
:1034c800516f8000406f8000010178008000eb00a0
:1034d800f8f607001c010700004f78001e4078002e
:1034e8000004e00081003a008bf7070002c8bf0023
:1034f8000004e00003003a00f0cbb300004f78006e
:103508007a003700206f8000104078000004e00047
:103518000f003a00206f80000000e800104078009b
:103528000004e0000a003a00206f80000080e800f4
:10353800104078000004e00005003a00206f800089
:1035480063004000104078000004e00007003200eb
:10355800216f800020408000cf0c0700004f7800ca
:103568001e4078000004e0005f003a00206f8000f1
:1035780064004000104078000080fb00c400dd00bb
:10358800206f800065004000104078000080fb003c
:103598004400de00004078000080fb00010070005d
:1035a80030079800206f80006500400010407800c8
:1035b8000080fb006f006000c800dd00206f800005
:1035c80066004000104078000080fb000100700099
:1035d80070079800206f80006700400090407800d6
:1035e800014f9800206f80006800400090407800ec
:1035f800114f98003e009000690050004300de0023
:10360800500798005e009000c300dd003e00900067
:103618000080500070004000100798005e00900085
:103628000000e900200798001e0090000000e0005c
:1036380005003a002e0090000000e80020079800de
:1036480080002000100798005e009000004178007c
:10365800206f8000e90040007000470083c0b3007d
:10366800871207001e00900000417800204080006b
:10367800f1004000f00147002e009000008041005a
:103688008241780022c0b3007d120700406f80009d
:103698008080e8006e0147007000470017c0b30043
:1036a8000043eb009e4a90000202780081017800f6
:1036b8003e019000800078000e489000280807001e
:1036c800004f7800406f80009e40780001487800e5
:1036d800406f80000000e800fe0090008140780004
:1036e8000148780001003700000000007e009000cb
:1036f800670040004300de006007980000202e00ad
:103708004100200003170700630107006e009000c6
:103718000080e800506f8800c0de20001e48780056
:103728000080fa00000006000000fa008801070087
:1037380010c0b300c2f60700020007000080fa00bc
:10374800000006000a00fa000040eb00404798001d
:10375800506f80004200de00004f7800416f80000b
:10376800110798006000b8003007980041079800da
:10377800206f8000104078000080fb008000eb0084
:103788003e019000ce019000020040008380480076
:103798003007980041079800206f80000000e8007b
:1037a800104078000081fb008001eb004818dd0024
:1037b800c810de00810070004810dd003e01900056
:1037c800ce01900002004000838048003007980036
:1037d80041079800206f80000080e80010407800c2
:1037e8000080fb008000eb00c000dd00000020002e
:1037f8003e019000ce019000020040008380480006
:1038080030079800410798000000eb00506f8800cf
:1038180010c0b3006c0507003e019000ce01900077
:1038280070c1b3009d030700a9f607002400370004
:103838001e009000630140001e0090008080e80098
:103848001e0090000000e800820178000101780065
:10385800800078001e009000090a07004047980081
:103868004e4090000004e0000f0032001e0090005f
:103878008040eb00014878001e0090000000e8003e
:103888008040eb00014878001e0090000080e800ae
:1038980001c8b300014878001e0090006300400092
:1038a80001c8b300014878001e0090006400400081
:1038b80010079800506f800064004000506f880027
:1038c8001e80fb000000ea004f00de000040780088
:1038d8001e4fe9000004e000d5ff3a000040eb006d
:1038e800390507000080fa00000006000000fa0011
:1038f8001e68ef000d68ef000f68ef0010c0b300fe
:103908000ee8b70060c0b30010e8b70080cdb30080
:1039180006e8b70010c0b30011e8b7000368ef006d
:103928000268ef000040eb0027050700ee000700e3
:103938000080fa00000006000400fa00008fbe00b4
:103948000080fa00000006000a00fa00889fbe0006
:103958008a1f780000c8b300004f9800f9150700c7
:10396800fb0007000040eb0017050700ff150700e4
:1039780010079800414080001e009000808f500082
:1039880014003600404080006102b8006033b8007f
:103998001e0090008000eb006011b800000052008b
:1039a80081805a0002015b0083815b000440220091
:1039b800450f20006033b800cff40700843e200094
:1039c800050020006033b80062f407000000be0064
:1039d80050160700e915070060992000104078008c
:1039e8000004e00006003a000dc8bf000004e00033
:1039f80001003a00bc000700c0cbb300a2003700aa
:103a08007041800050408800e040800040479800a6
:103a18000040eb00004f78001c003700e0408000b9
:103a28000000e800e0408800e14080006099200044
:103a3800104078000080fb00808f500001003900a2
:103a48001c28ef00e04080004200dd008080e80094
:103a580060992000008040001000be000001be00f8
:103a680070c1b3000d030700804180006801470062
:103a7800e9004700f80507008e48900006c8bf0017
:103a880080cf5000060034001e4fe80040c3b3004a
:103a98009e40780080cf5000e0ff360001003700dc
:103aa800000000008e48900006c8bf0080cf50007c
:103ab8006c003c00a31507000c68ef00e040800094
:103ac8004200dd008080e80060992000008040000e
:103ad8001000be0098ff070010c0b300ba0407002a
:103ae80060ad2000104078000004e0005b00320068
:103af800e0408000b1062000808040000181400045
:103b08006199200081004100910078000101e800de
:103b1800b10620008080400081814000619920002a
:103b28008180410082087800b006b0008000400023
:103b3800609920000080400090007800401f20001d
:103b4800808f5000450036000000eb0030079800d9
:103b5800e0408000b006b00080004000609920007e
:103b6800008040008000eb00010878003e009000d3
:103b78008000eb0018f307000004be0032c8bf0045
:103b88000080fb008000e90070ad20001040780044
:103b98000081fb00400320000088b9000000780085
:103ba80002004000f011b0008000400060ad20002d
:103bb80000804000100078008000eb0006f307004a
:103bc8006266260063fa230005f307001ac0b300f3
:103bd8000001be000800be00fdf207000000e00082
:103be80001003c000045eb000a04e0001b003a001d
:103bf8003e0090008000eb00f7f207000004be00d2
:103c080032c8bf000080fb008000e90070ad2000d2
:103c1800104078000081fb00400320000088b900b4
:103c28000000780002004000f011b0008000400061
:103c380060ad200000804000100078008000eb009c
:103c4800e5f207003233230033f32300e4f20700e0
:103c58000001be000800be00dbf207000040eb00d8
:103c68000900370010c0b3000ce8b7000040eb00b3
:103c7800550407000dc8bf000004e00001003a0029
:103c880019000700c0cbb3004f0578004f04be00f1
:103c98000080fa00000006000000fa00371507004f
:103ca80011c8bf00e24f5000020032000040eb0094
:103cb800450407000dc8bf000004e00001003a00f9
:103cc800090007000080fa00000006000000fa0062
:103cd8000dc8bf000004e000010032007df80700b5
:103ce8000080fa00000006000000fa0011c8bf00ba
:103cf8000080fb00e10f50000c003200e10f500083
:103d080003003c000000e000060032000d00370010
:103d1800e20f500007003200e30f500007003200a6
:103d2800080037000d03070007003700c903070024
:103d380005003700d703070003003700e503070035
:103d480001003700050307000080fa0000000600a4
:103d58000000fa0011c8bf000080fb00e10f50000e
:103d68000c003200e10f500003003c000000e000ae
:103d7800060032000d003700e20f50000700320045
:103d8800e30f500007003200080037004a0307001d
:103d980007003700bc03070005003700ca03070007
:103da80003003700d803070001003700420307006b
:103db8000080fa00000006000a00fa00000f7800f0
:103dc8002147980022079800634798007447980095
:103dd800054f98000e4890000004e00001003200f2
:103de800ed02a9002e4090000080fb000001eb00ce
:103df800800078001e007800bc1307006e40900019
:103e08000004e000060032006e4090000080fb00d5
:103e18002e019000800078000000eb00b31307002b
:103e28007e4090000004e00001003200ed02a8008e
:103e38000080fa00000006000800fa00000f780071
:103e4800214798002207980063479800ed02a900cf
:103e58002e4090000080fb000001eb0080007800fd
:103e68001e007800a11307006e4090000080fb0040
:103e78002e019000800078000000eb009b130700e3
:103e8800ed02a8000080fa00000006000800fa0011
:103e980020079800310798006203070050c5b30057
:103ea800004f7800a0cab3001047980000c0eb008c
:103eb800204798000040eb003047980042c0b3000c
:103ec8008e00780030c1b3002601070042002000b0
:103ed800310320000e00780076f407000e01780008
:103ee80041c0b30030c1b300eb0007009e4078002a
:103ef80050c5b30080cf50000a003a009e409000a1
:103f0800a0cab30080cf500006003a002e409000af
:103f1800e14f400003003a003e4090000004e000fa
:103f28000200320010002000970037003d03070010
:103f38000e01780041c0b30030c1b300d6000700bd
:103f48009e40780050c5b30080cf50000a00320070
:103f58009e409000a0cab30080cf500006003200f7
:103f68002e409000e14f4000030032003e40900098
:103f78000004e00002003a00200020008200370020
:103f880000e8230001002000e214070001c2b3008a
:103f980050c3b3000a01070031c0b300d0c3b30057
:103fa8000701070000c9b3009e00070042c0b30024
:103fb8008e007800f0c3b300ea00070042c0b300e7
:103fc8008e007800f0c3b300e600070042c0b300db
:103fd8008e007800f0c3b300e200070042c0b300cf
:103fe8008e007800f0c3b300de00070042c0b300c3
:103ff8008e007800f0c3b300da00070042c0b300b7
:104008008e007800f0c3b300d6000700000220003d
:1040180035010700a14180000002200000806000f7
:104028000000e00002003a0030002000560037008f
:104038003428ef00fb02070040c8b30079000700ee
:1040480021c0b3000040eb00dd0007008040eb001a
:1040580010c0b300da00070001c3b30020c0b300ea
:10406800d700070011c4b30070c1b300d400070023
:1040780001cab30080c1b300d100070061c7b30013
:1040880090c1b300ce0007008040eb0000c1b30030
:10409800cb00070001c8b300d0c0b300c8000700b8
:1040a800f1c3b300b0c0b300c500070021c2b3001c
:1040b800c0c0b300c200070000c2b300004f7800c0
:1040c800d0cdb300104798000040eb00204798007f
:1040d80032c0b3008e00780030c1b300a1000700e1
:1040e80051c3b30020c1b300b50007008040eb0006
:1040f800e0c0b300b200070080c0eb0050c3b300bb
:10410800af00070071c0b30060c3b300ac00070084
:1041180001c1b300a0c3b300a90007002e0190009d
:10412800be01900070c1b3005c01070090cab300e3
:10413800d803070000202e00410020007514070056
:10414800a0c2b30076000700004f78001e40780038
:104158000080fb00630060000000e00002003a00fd
:1041680040002000080037001e4078000080fb0057
:10417800620060000000e00002003a0050002000e9
:10418800010037000000eb000080fa000000060084
:104198000200fa0038c8bf000004e0000300320043
:1041a800001e2000010020005a14070023c0b3009d
:1041b8000e01780011c0b300a08320001eff070085
:1041c8001e4078008080fb001e4090000080fb00ad
:1041d8004800dd000100700080007800a0418000e8
:1041e80001007000a04188008680a9000080fa00c4
:1041f800000006000200fa0030c3b30048000700c0
:10420800004f780000c6b3009e40780080cf500071
:10421800010036003868ef001e4078000080fa0080
:10422800000006000200fa00004f78009680a900fe
:1042380015c0b30014c0b3008041eb000001eb00cf
:1042480011c0b3000e007800dbfe07009680a800be
:104258000080fa00000006000400fa0020479800d9
:1042680031479800ae409000014f7800be40900062
:104278001147980015c0b3000042eb008041eb00e5
:104288000001eb0021c0b3000e007800cafe070051
:104298000080fa00000006000400fa00004f7800d1
:1042a80011479800120798009680a9001e407800d0
:1042b8000064a000004f78001e40900015c0b300b5
:1042c80024c0b300804178001e01900011c0b300e3
:1042d8000e007800b8fe07009680a8000080fa005b
:1042e800000006000400fa00004f7800110798004b
:1042f8009680a9001e40780015c0b30024c0b30002
:10430800804178001e01900011c0b3009083200006
:10431800a9fe07009680a8000080fa0000000600a9
:104328000400fa00204798009680a9002e409000cb
:104338000064a000204798000e80e80015c0b30074
:1043480014c0b30013c0b3000e01780011c0b3004d
:1043580099fe07009680a8001e4078000080fa00a9
:10436800000006000600fa00004f780011079800c8
:10437800424798009680a90015c0b3000042eb00a0
:104388008041eb000001eb0011c0b3000e00780083
:1043980089fe07004e4090008042eb0024c0b30025
:1043a8008041eb000001eb00804078001e00900087
:1043b80081fe07009680a8000080fa000000060031
:1043c8000400fa002047980031479800ae4090005a
:1043d800014f7800be409000114798009680a900d0
:1043e80015c0b30014c0b3008041eb000001eb001e
:1043f80021c0b3000e0078006ffe07009680a80069
:104408000080fa00000006000800fa00000f78009b
:10441800214798003247980023079800644798007e
:104428009680a90015c0b3000042eb008041eb0064
:104438000001eb00ae4090001e0078005efe070011
:10444800630047008042eb000042eb008041eb0034
:104458000001eb0011c0b30057fe07008042eb00db
:1044680024c0b3008041eb000001eb00ee40900057
:104478002e00900050fe07009680a8000080fa00e9
:10448800000006000400fa00000f780011079800e9
:104498000600370000e82300010020009d130700f4
:1044a8001e0090000000e90010079800a04180005d
:1044b8001e0060000000e00003003a001e009000ab
:1044c8000000e000f3ff3a001e0090000000e0004a
:1044d80003003a00cb01070010002000a04188002b
:1044e8000080fa00000006000400fa001007980097
:1044f8000000eb00000f7800040037001e0fe800f2
:10450800003220000100200082130700a141800032
:104518001e009000008060000000e00004003a00e7
:10452800703e20009e007800808f5000f3ff360018
:10453800703e20009e007800808f500003003600f7
:10454800b001070010002000a04188000080fa0098
:10455800000006000400fa002047980030c0b300ad
:104568006fff0700004f78009e4078006fcf600013
:104578002e4090000080fb004400dd008040780061
:104588001e40780000c07000004f78009e40780000
:1045980030c0b3008aff07000080fa000000060060
:1045a8000600fa0090c2b3005dff0700204798009c
:1045b800ae409000f0ccb30000c0600020479800e7
:1045c8002e4090000044a00020479800ae40900084
:1045d80090c2b3007aff070010c1b30050ff070074
:1045e800204798002e4090000074a00020479800b3
:1045f800ae40900010c1b30071ff070000e823002f
:104608000100200043130700c0c2b30044ff0700a5
:1046180067406000304798002e4090000074a10069
:1046280020479800ae40900010c1b30064ff070017
:104638003e409000e14f5000030036003e4090009d
:10464800e54f5000130036000000eb00000f780023
:104658001e0fe80040cab300f2fe07000010270052
:10466800210020002b130700a0c2b3002cff070075
:10467800404798004e4090000080fb0062006000b8
:104688000000e00003003a001e007800e20f50002e
:10469800efff36000080fa00000006001c00fa0058
:1046a80060579800420f9800530f98000000eb00e5
:1046b800000f78000040eb0019ff0700004f98003a
:1046c8000e4890000004a100804078000040eb00f4
:1046d8003bff07006e509000f74f500028003a004b
:1046e800720047000001780031c0b30070c1b30008
:1046f800e9fe07002e5090008080fb000007200094
:104708000080600001052000810f50001100320078
:1047180001052000810f500004003c000104200026
:10472800810f5000080032001300370001062000f6
:10473800810f50000a00320001072000810f50004d
:104748000a0032000c003700d0072000000f780064
:104758000b00370040062000000f780008003700e3
:1047680020032000000f780005003700900120008a
:10477800000f7800020037000000eb00000f7800ff
:104788001e0078008000eb000001be004e0890007b
:10479800de08900046f0070050079800610798006f
:1047a8005e009000ee0090004a09dd004600de0041
:1047b80000007100c608de0080007800f0ff2300ca
:1047c80000806000100798001e009000c600dd0001
:1047d8001e00900000804000300798003e009000c6
:1047e8006101b8005e009000ee009000800f51005b
:1047f800818f5900060031003e0090001004b0007f
:10480800300798001e0090000000e800100798008c
:104818005e009000be0090000080500030079800b5
:104828009e00900021079800be0090000002200022
:10483800808f5000060036001e0090000000e9003e
:10484800100798003e0090001002b1003007980051
:104858003e009000ff0f5000060036002e0090002a
:104868000000e900200798003e0090000002b10017
:10487800300798003e009000ff0f5000eaff3e000e
:104888003e009000f00f5000060036003e009000f9
:104898000002b100300798002e0090000000e900e7
:1048a800200798009e0090003e0090000080500075
:1048b80070079800ae0090003e0090000080400015
:1048c800000f98006e509000f74f50001d003a00fe
:1048d8002e5090008040780000cfb30080c0600068
:1048e8000e0890004600de00004078006f4060002f
:1048f80000c07000205798000e0890008040780093
:10490800200020000008dd00804078007e00900034
:104918004800de00004078006340600000c070007e
:10492800305798007e00900000407800405798006b
:104938007200470032c0b3008000780070c1b30035
:1049480088fe070016ff07008e4890000040eb0025
:104958009bfe07000080fa00000006000400fa0031
:10496800881f780060168000640060000000e00086
:104978004d0032009680a9008680a9000040eb0017
:1049880067fe0700e1de200080487800e0de2000b6
:1049980090407800c0cfb30000c06000804078002d
:1049a8000040eb0086fe070010c0b300004f7800ff
:1049b800090037001e407800ef4f50000500320014
:1049c8001e84fb001e40780055fe0700e1de200033
:1049d80080707c001e4fe8001e407800fc4f50009d
:1049e800f4ff360020c2b3004dfe0700b1e02000fe
:1049f8008048780090c2b30049fe0700c1e020005b
:104a08008048780050c3b30045fe0700d1e020007d
:104a18008048780060c3b30041fe0700e1e0200051
:104a280080487800c0c3b3003dfe0700f1e02000d5
:104a380080487800a0c3b30039fe070001e12000d8
:104a480080487800401f20001007980003003700b6
:104a580000e82300010020002e1207001e0090002d
:104a680000f0a7000000ea000000ea004f00de00a6
:104a7800004078009e0090008100e900110798002e
:104a88000004e00006003200a0c2b30024fe0700c4
:104a98000080fb00640060000000e000ecff3a00ca
:104aa800cc42a90001003700000000004f04780044
:104ab8000080fa00000006000400fa00601680007a
:104ac800640060000000e0004b003a00cc42a800ff
:104ad800000a2000010020000e12070095000700c0
:104ae800e0de200090407800c0cfb30000c0600036
:104af800804078000040eb0031fe070010c0b30092
:104b0800004f78000a0037001e407800ef4f500031
:104b1800060032001e80fb00e1de200061407800c4
:104b2800804078001e40780025fe07001e4fe800f0
:104b38001e407800fc4f5000f3ff3600b0e0200024
:104b4800104078008040780020c2b3001cfe0700a7
:104b5800c0e02000104078008040780090c2b30088
:104b680017fe0700d0e02000104078008040780051
:104b780050c3b30012fe0700e0e0200010407800a8
:104b88008040780060c3b3000dfe0700f0e020000d
:104b98001040780080407800c0c3b30008fe0700ca
:104ba80000e120009040780000cfb30000c0600012
:104bb80080407800a0c3b30001fe0700002c21004c
:104bc80001002000d311070075fe0700e0de200079
:104bd80010407800804078000040eb00f8fd0700a6
:104be800a0c2b300cefd0700104798008680a90038
:104bf8009680a80001003700000000000080fa003d
:104c0800000006000000fa0054ff070000e8230037
:104c180001002000bf110700a7ff07000080fa006d
:104c2800000006000000fa00cc42a90000e82300ba
:104c380001002000b7110700cc42a800000a20009c
:104c480001002000b31107003a0007000080fa00b5
:104c5800000006000200fa0097ff07000040eb0082
:104c6800affd0700004f78001e74a1009e40780039
:104c78000040eb00d2fd07000040eb0052000700a7
:104c88000080fa00000006000000fa000080fa0028
:104c9800000006000200fa0087ff07000040eb0052
:104ca8009ffd0700004f78001e74a1009e40780009
:104cb8000040eb00c2fd070010c0b300420007002f
:104cc8000080fa00000006000000fa000080fa00e8
:104cd800000006000200fa0077ff07000040eb0022
:104ce800390007000040eb008dfd0700004f7800f9
:104cf8001e74a0009e4078000040eb00b0fd070045
:104d08000080fa00000006000200fa006aff0700af
:104d18000040eb0082fd0700004f78001e74a100e0
:104d28009e4078000040eb00a5fd07000080fa00d7
:104d3800000006000600fa000000eb00000f7800f3
:104d48002cfd07000046b20020479800a0c2b3001f
:104d580073fd0700304798001e0fe800ae40900032
:104d680000c6b30080cf500005003a003e409000d6
:104d78000080fb00610060000000e00004003a00d1
:104d8800a00f20009e007800808f5000ecff3600b6
:104d980000f42100010020005e11070064004700b4
:104da8000001780021c0b30070c3b3003afd0700ca
:104db8003428ef0000d0270001002000551107001b
:104dc8000080fa00000006000600fa00404798003c
:104dd8000040eb0052fd0700204798004e4090002d
:104de8000004e0000f0032002e4090000080fb001d
:104df80063006000e30f5000320032002e40900044
:104e08003040b30020479800002c2100010020000a
:104e180040110700ae4090000040eb0068fd07001d
:104e2800210037002e4090000080fb0063006000e6
:104e3800e30f500025003a00ae409000c0cfb30009
:104e480000c0600020479800ae4090000040eb0092
:104e58005bfd0700401f2000000f780003003700ab
:104e680000642000010020002a1107001e007800bd
:104e780000f0a7000000ea000000ea004f00de0092
:104e8800004078001e0fe9000004e0000600320030
:104e9800a0c2b30022fd07000080fb006400600090
:104ea8000000e000eeff3a004e4090000004e000f1
:104eb80007003200007027001100200015110700bc
:104ec8000300370000000000010037000000000068
:104ed8000080fa00000006000200fa0060c9b30072
:104ee800d0fc070070c9b300cefc070000f4210015
:104ef8000100200007110700b0c2b30008fd070039
:104f0800004f780060c9b300c6fc07001e40780057
:104f18000080fa00000006000000fa00a0c0b300fc
:104f2800fffc070036e8b7000080fa000000060022
:104f38000000fa0036c8bf0080407800a0c0b30067
:104f48001ffd07000080fa00000006000400fa00b8
:104f58000040eb00004f7800d0c0b300f0fc070021
:104f680010479800a0c0b300edfc07002047980048
:104f78001e4090000080fb00640060000000e0001c
:104f8800160032009e40780090cab30000c040006e
:104f9800004f78002e4090000080fb006300600006
:104fa800e30f500004003a001e40780066405000ad
:104fb800004f78001e0037002e4090000080fb0054
:104fc800630060000000e00019003a001e4078000d
:104fd80066404000004f7800150037009e4078007a
:104fe80090cab30000c04000004f78002e409000e7
:104ff8000080fb0061006000004078000004e000d1
:10500800030032001e40780068404000004f7800de
:105018002e4090000080fb00620060000000e0006d
:10502800030032001e4078006a405000004f7800ac
:105038002e4090000080fb004600de000040780013
:105048006300b90000007800304798002e409000b7
:105058008080fb0000022000008060000000e0006b
:10506800050032009e4078003e40900000c050008d
:10507800004f7800040037009e4078003e409000c2
:1050880000c04000004f78001e4078000080fa0001
:10509800000006000600fa0040479800a0c0b300d0
:1050a8009ffc0700004f7800d0c0b3009cfc0700ad
:1050b800204798009e4078007ccf60002e409000ea
:1050c8000080fb00640060000000e0001500320072
:1050d8004e4090007045b000404798004e40900008
:1050e800e54f5000040034004e40900066405000e8
:1050f800404798001c0037004e409000e54f4000a4
:1051080006003d004e409000664040004047980031
:105118009e40780063cf7000130037001e04a00083
:10512800110037004e4090007045b000404798008d
:105138004e409000e74f5000040034004e4090006d
:1051480068405000404798001e04a0004e40900060
:10515800e94f400004003d004e4090006a40400086
:10516800404798001e14a0004e4090000004e00044
:10517800170034001e54a1004e4090000001fb00af
:10518800605525000090b9004f91de000280500064
:1051980000407800104798001e409000e34f5000f0
:1051a8000200360030c0b300104798009e409000bf
:1051b800d00f20000088b9000000780080407800f7
:1051c8004e40900000c0400040479800150037004e
:1051d8001e54a0004e4090000000fb006201100029
:1051e800605525000090b9004f91de000280500004
:1051f800104798001e409000e34f50000200360010
:1052080030c0b300104798001e4090006300b900fa
:1052180000007800804078004e40900000c04000b8
:10522800404798001e4090000080fb004600dd00cb
:10523800804078001e40780000c07000004f780061
:105248009e407800a0c0b3005dfc07004e4090006f
:105258000080fa00000006001000fa0050079800cd
:1052680061079800720798005e0090000000d10066
:10527800000f78001e0078000000e00002003a00ed
:1052880010002000000f78000040eb0024fc07000d
:105298003047980021c0b3000040eb0048fc0700ed
:1052a80090c2b3001efc070040479800ce40900013
:1052b80000cfb30000c0600040479800ce40900087
:1052c80090c2b3003efc070090c0b30014fc070076
:1052d8005047980080c0eb0090c0b30038fc07002e
:1052e8003e4090000080fb00620060000000e0008b
:1052f80003003a00001027002100200005100700d5
:105308000040eb002047980015003700f2fe070028
:10531800604798006e409000ef4060006e4090003b
:105328000080fb004400de000040780000c0400020
:10533800704798007e4090008080fb002e409000cf
:105348000000fb00808f500005003400fe409000f4
:10535800214798006e009000ee40900001487800c8
:105368001e00780000f0a7000000ea000000ea0034
:105378004f00de00004078001e0fe9000004e00046
:10538800e2ff3a002e4090000004e00007003a00d7
