:020000040000fa
:080000000002040000000000f2
:020000040000fa
:0400080006040000ea
:020000040000fa
:04000c0030030000bd
:020000040000fa
:040010007203000077
:020000040000fa
:040014005003000095
:020000040000fa
:04001800920300004f
:020000040000fa
:04001c0006040000d6
:020000040000fa
:0400200006040000d2
:020000040000fa
:0400240006040000ce
:020000040000fa
:0400280006040000ca
:020000040000fa
:04002c0006040000c6
:020000040000fa
:0400300006040000c2
:020000040000fa
:0400340006040000be
:020000040000fa
:0400380006040000ba
:020000040000fa
:04003c0006040000b6
:020000040000fa
:0400400006040000b2
:020000040000fa
:0400440006040000ae
:020000040000fa
:04004800d0030000e1
:020000040000fa
:04004c0006040000a6
:020000040000fa
:0400500006040000a2
:020000040000fa
:04005400060400009e
:020000040000fa
:04005800060400009a
:020000040000fa
:04005c000604000096
:020000040000fa
:040060000604000092
:020000040000fa
:04006400060400008e
:020000040000fa
:04006800060400008a
:020000040000fa
:04006c000604000086
:020000040000fa
:040070000604000082
:020000040000fa
:04007400060400007e
:020000040000fa
:04007800b2030000cf
:020000040000fa
:04007c000604000076
:020000040000fa
:040080000604000072
:020000040000fa
:04008400060400006e
:020000040000fa
:04008800060400006a
:020000040000fa
:04008c000604000066
:020000040000fa
:040090000604000062
:020000040000fa
:04009400060400005e
:020000040000fa
:04009800060400005a
:020000040000fa
:04009c000604000056
:020000040000fa
:0400a0000604000052
:020000040000fa
:0400a400060400004e
:020000040000fa
:0400a800060400004a
:020000040000fa
:0400ac000604000046
:020000040000fa
:0400b0000604000042
:020000040000fa
:0400b400060400003e
:020000040000fa
:0400b800060400003a
:020000040000fa
:0400bc000604000036
:020000040000fa
:0400c0000604000032
:020000040000fa
:0400c400060400002e
:020000040000fa
:0400c800060400002a
:020000040000fa
:0400cc000604000026
:020000040000fa
:0400d0000604000022
:020000040000fa
:0400d400060400001e
:020000040000fa
:0400d800060400001a
:020000040000fa
:0400dc000604000016
:020000040000fa
:0400e0000604000012
:020000040000fa
:0400e400060400000e
:020000040000fa
:0400e800060400000a
:020000040000fa
:0400ec000604000006
:020000040000fa
:0400f0000604000002
:020000040000fa
:0400f40006040000fe
:020000040000fa
:0400f80006040000fa
:020000040000fa
:0400fc0006040000f6
:020000040000fa
:0401000006040000f1
:020000040000fa
:0401040006040000ed
:020000040000fa
:0401080006040000e9
:020000040000fa
:04010c0006040000e5
:020000040000fa
:0401100006040000e1
:020000040000fa
:0401140006040000dd
:020000040000fa
:0401180006040000d9
:020000040000fa
:04011c0006040000d5
:020000040000fa
:0401200006040000d1
:020000040000fa
:0401240006040000cd
:020000040000fa
:0401280006040000c9
:020000040000fa
:04012c0006040000c5
:020000040000fa
:0401300006040000c1
:020000040000fa
:0401340006040000bd
:020000040000fa
:0401380006040000b9
:020000040000fa
:04013c0006040000b5
:020000040000fa
:0401400006040000b1
:020000040000fa
:0401440006040000ad
:020000040000fa
:0401480006040000a9
:020000040000fa
:04014c0006040000a5
:020000040000fa
:0401500006040000a1
:020000040000fa
:04015400060400009d
:020000040000fa
:040158000604000099
:020000040000fa
:04015c000604000095
:020000040000fa
:040160000604000091
:020000040000fa
:04016400060400008d
:020000040000fa
:040168000604000089
:020000040000fa
:04016c000604000085
:020000040000fa
:040170000604000081
:020000040000fa
:04017400060400007d
:020000040000fa
:040178000604000079
:020000040000fa
:04017c000604000075
:020000040000fa
:040180000604000071
:020000040000fa
:04018400060400006d
:020000040000fa
:040188000604000069
:020000040000fa
:04018c000604000065
:020000040000fa
:040190000604000061
:020000040000fa
:04019400060400005d
:020000040000fa
:040198000604000059
:020000040000fa
:04019c000604000055
:020000040000fa
:0401a0000604000051
:020000040000fa
:0401a400060400004d
:020000040000fa
:0401a8000604000049
:020000040000fa
:0401ac000604000045
:020000040000fa
:0401b0000604000041
:020000040000fa
:0401b400060400003d
:020000040000fa
:0401b8000604000039
:020000040000fa
:0402080006040000e8
:020000040000fa
:04020c0030030000bb
:020000040000fa
:040210007203000075
:020000040000fa
:040214005003000093
:020000040000fa
:04021800920300004d
:020000040000fa
:04021c0006040000d4
:020000040000fa
:0402200006040000d0
:020000040000fa
:0402240006040000cc
:020000040000fa
:0402280006040000c8
:020000040000fa
:04022c0006040000c4
:020000040000fa
:0402300006040000c0
:020000040000fa
:0402340006040000bc
:020000040000fa
:0402380006040000b8
:020000040000fa
:04023c0006040000b4
:020000040000fa
:0402400006040000b0
:020000040000fa
:0402440006040000ac
:020000040000fa
:04024800d0030000df
:020000040000fa
:04024c0006040000a4
:020000040000fa
:0402500006040000a0
:020000040000fa
:04025400060400009c
:020000040000fa
:040258000604000098
:020000040000fa
:04025c000604000094
:020000040000fa
:040260000604000090
:020000040000fa
:04026400060400008c
:020000040000fa
:040268000604000088
:020000040000fa
:04026c000604000084
:020000040000fa
:040270000604000080
:020000040000fa
:04027400060400007c
:020000040000fa
:04027800b2030000cd
:020000040000fa
:04027c000604000074
:020000040000fa
:040280000604000070
:020000040000fa
:04028400060400006c
:020000040000fa
:040288000604000068
:020000040000fa
:04028c000604000064
:020000040000fa
:040290000604000060
:020000040000fa
:04029400060400005c
:020000040000fa
:040298000604000058
:020000040000fa
:04029c000604000054
:020000040000fa
:0402a0000604000050
:020000040000fa
:0402a400060400004c
:020000040000fa
:0402a8000604000048
:020000040000fa
:0402ac000604000044
:020000040000fa
:0402b0000604000040
:020000040000fa
:0402b400060400003c
:020000040000fa
:0402b8000604000038
:020000040000fa
:0402bc000604000034
:020000040000fa
:0402c0000604000030
:020000040000fa
:0402c400060400002c
:020000040000fa
:0402c8000604000028
:020000040000fa
:0402cc000604000024
:020000040000fa
:0402d0000604000020
:020000040000fa
:0402d400060400001c
:020000040000fa
:0402d8000604000018
:020000040000fa
:0402dc000604000014
:020000040000fa
:0402e0000604000010
:020000040000fa
:0402e400060400000c
:020000040000fa
:0402e8000604000008
:020000040000fa
:0402ec000604000004
:020000040000fa
:0402f0000604000000
:020000040000fa
:0402f40006040000fc
:020000040000fa
:0402f80006040000f8
:020000040000fa
:0402fc0006040000f4
:020000040000fa
:0403000006040000ef
:020000040000fa
:0403040006040000eb
:020000040000fa
:0403080006040000e7
:020000040000fa
:04030c0006040000e3
:020000040000fa
:0403100006040000df
:020000040000fa
:0403140006040000db
:020000040000fa
:0403180006040000d7
:020000040000fa
:04031c0006040000d3
:020000040000fa
:0403200006040000cf
:020000040000fa
:0403240006040000cb
:020000040000fa
:0403280006040000c7
:020000040000fa
:04032c0006040000c3
:020000040000fa
:0403300006040000bf
:020000040000fa
:0403340006040000bb
:020000040000fa
:0403380006040000b7
:020000040000fa
:04033c0006040000b3
:020000040000fa
:0403400006040000af
:020000040000fa
:0403440006040000ab
:020000040000fa
:0403480006040000a7
:020000040000fa
:04034c0006040000a3
:020000040000fa
:04035000060400009f
:020000040000fa
:04035400060400009b
:020000040000fa
:040358000604000097
:020000040000fa
:04035c000604000093
:020000040000fa
:04036000060400008f
:020000040000fa
:04036400060400008b
:020000040000fa
:040368000604000087
:020000040000fa
:04036c000604000083
:020000040000fa
:04037000060400007f
:020000040000fa
:04037400060400007b
:020000040000fa
:040378000604000077
:020000040000fa
:04037c000604000073
:020000040000fa
:04038000060400006f
:020000040000fa
:04038400060400006b
:020000040000fa
:040388000604000067
:020000040000fa
:04038c000604000063
:020000040000fa
:04039000060400005f
:020000040000fa
:04039400060400005b
:020000040000fa
:040398000604000057
:020000040000fa
:04039c000604000053
:020000040000fa
:0403a000060400004f
:020000040000fa
:0403a400060400004b
:020000040000fa
:0403a8000604000047
:020000040000fa
:0403ac000604000043
:020000040000fa
:0403b000060400003f
:020000040000fa
:0403b400060400003b
:020000040000fa
:0403b8000604000037
:020000040000fa
:100400004fb320000eff27000e01880000000000ff
:10041000000020000000e000020032000001200087
:100420002002880014000700fa0007000000e00026
:1004300003003a0080c222000100200002003700c1
:100440000000200001002000810f70000100320038
:1004500014000700000020000000e000020032004d
:100460000000020000000000822c020000000000da
:100470000040da000000fe004440a90020002000f7
:100480000000e0000300320010002000900188000e
:100490004440a800000006008a1f78008b1f7800e7
:1004a00000000600a1028800800478000000eb0034
:1004b0001f003700e284440054a0b4009905ba003c
:1004c000e284440054a0b4009906ba00e2844400d7
:1004d00054a0b4000006eb00476fde00fd07b20039
:1004e000ae018800636ce10003003a00eaff0700f8
:1004f0000000eb000e003700606ce10008003a00dd
:10050000004deb000a05e800020039003420ec0041
:100510000af0a0008b05e900f9ff3e000400370057
:100520006168e100010032000086eb000b0007006b
:1005300019c7ba001905ba000e04e00003003a001a
:100540000a00e000dbff3a0000000600fe07b200f0
:10055000ae0288008a047800f5ff37000cd0a300b3
:10056000e20f4d001c00390089027800354dba00b9
:100570000a05e800020039003420ec000af0a0006f
:100580008b05e9000f003200254dba000a05e8008e
:10059000020039003420ec000af0a0008b05e900cd
:1005a000080032000c00e0000600320015cdba0051
:1005b0000a05e800020039003420ec000af0a0002f
:1005c0008b05e9008984e80054a0b4000b00e0002a
:1005d000e2ff3a00000006009902ba00055d7800cb
:1005e0008b05e900f7ff3200c82ade00055d7800c0
:1005f0008b05e900f3ff32000c00e000f1ff320050
:1006000019ddba00eeff3700682b0400000000007f
:100610000e2c040000000000022c0400000000006a
:10062000e82b040000000000e02b040000000000a4
:10063000d82b040000000000d02b040000000000b4
:100640003e2d0400000000001c2d040000000000ee
:10065000122a0400000000009017040000000000af
:100660003600f800809fbe00829fbe00849fbe00bf
:10067000869fbe000000fa008020a9000000eb0069
:100680002a1507000080fa004f03be004f02be008b
:100690004f01be004f00be003600f90000400600ca
:1006a0003600f800809fbe00829fbe00849fbe007f
:1006b000869fbe000000fa00211507008040a900b7
:1006c00010002000191507000080fa004f03be003b
:1006d0004f02be004f01be004f00be003600f900c1
:1006e000004006003600f800809fbe00829fbe00da
:1006f000849fbe00869fbe000000fa008060a900b3
:1007000020002000091507000080fa004f03be00fa
:100710004f02be004f01be004f00be003600f90080
:10072000004006003600f800809fbe00829fbe0099
:10073000849fbe00869fbe000000fa008080a90052
:1007400030002000f91407000080fa004f03be00bb
:100750004f02be004f01be004f00be003600f90040
:10076000004006003600f800809fbe00829fbe0059
:10077000849fbe00869fbe000000fa00041407009c
:100780008680a9000080fa004f03be004f02be0021
:100790004f01be004f00be003600f90000400600c9
:1007a0003600f800809fbe00829fbe00849fbe007e
:1007b000869fbe000000fa00804180000000e0003b
:1007c00002003200804180000000010030b32000b0
:1007d000104078008040e80030b3200001487800e5
:1007e00020b3200011c0b300014878008500a900a3
:1007f0000080fa004f03be004f02be004f01be0052
:100800004f00be003600f900004006000040da004c
:100810000000fe00000005006022b8000602200073
:100820000000d0008180d2000482d2008582d200f4
:100830000000a0000202520083825a00030031002f
:100840000202420083824a000000a1000603e90080
:10085000f3ff3a0000000600889fbe008a9fbe009a
:1008600030044200b0844a0030054b0090854b00b4
:100870006000b1000898be000a90be000440e1008c
:1008800005c8e10006d0e10007d8e1000200310010
:10089000680040001008e8004f05be004f04be008d
:1008a00000000600889fbe008a9fbe003004be0084
:1008b0002005be000418540005985c0006185d0071
:1008c00007985d00110020000440e10005c8e10028
:1008d00006d0e10007d8e100010039008000eb00fc
:1008e000108810004f05be004f04be000000060037
:1008f0001200fa00889fbe008a9fbe008c9fbe0037
:10090000e0b79f00f1b79f0082bf9f0093bf9f0099
:100910000605be000404be000000eb00d0b79f0037
:10092000c0b79f00b0b79f00a0b79f0090b79f00cf
:10093000000678005fb19700cfb0970082014100b8
:100940003fb097000200e00004003d0037000700c0
:100950007e805700c0ff0700030037003300070008
:100960007e805700cfff0700dfb697000d00e00044
:100970000c0035006fb29700ffb297000fbb9700d5
:100980009fbb970010002000010020006011b800fc
:10099000000272008182720002037300838373007d
:1009a0001b0007000c06e80001042000810f560020
:1009b000e0ff3a000d00e00004003d000802be0028
:1009c0000a03be007e805700a3ff07005fa89700c0
:1009d0000000e00005003a001fb29700afb2970098
:1009e0003fb39700cfb39700090007006fb097009f
:1009f000ffb097000fb997009fb997004f06be0050
:100a00004f05be004f04be000080fa000000060043
:100a10000100070000000600a4b79f00b5b79f00c3
:100a2000c6b79f00d7b79f00000006004f09de0041
:100a300082817100b3b79f004f01de0081804000ca
:100a400082807000a1b79f008fb097004f09de0031
:100a5000000040000200700090b79f007fa8970040
:100a60004f01de00818040008280700081b79f00ce
:100a70000d0007004f3ade00000040000400700047
:100a8000f0af9f00080007000402420085824a0080
:100a900006034b0087834b00dfff07000802be0000
:100aa0000a03be00000006002fb29700bfb29700f5
:100ab0004fb39700dfb3970000000600881f78004f
:100ac00018002000881f780089ff07008f87e90041
:100ad0004f04780000000600801feb0084ff070031
:100ae0008f87e90000000600889fbe008a9fbe0035
:100af000e00f5000e08f5800e00f5900e08f5900e0
:100b00000c003d006044b8006055b800000054007f
:100b100081805c0002015d0083815d00180020007f
:100b20001500070008003d00180007000004eb0056
:100b3000050037000004eb000f00070002003d0035
:100b40001200070018002000dcff07000800e0008a
:100b5000060032006022b8006033b8000000520086
:100b600081805a0002015b0083815b004f05be005b
:100b70004f04be0000000600e00f5200e08f5a0054
:100b8000e00f5b00e08f5b00000006006044b800ef
:100b90006055b8000402540085825c0006035d00c5
:100ba00087835d0000000600889fbe008a9fbe000c
:100bb0008c1f7800e00f5000e08f5800e00f5900c4
:100bc000e08f59000d003d006044b8006055b8004a
:100bd0000000540081805c0002015d0083815d00a3
:100be0001c0020000820e10009a8e1000ab0e10093
:100bf0000bb8e1000d003d00080037000006eb00d7
:100c0000e00f5200e08f5a00e00f5b00e08f5b00c6
:100c100006003d006044b8006055b800040254006e
:100c200085825c0006035d0087835d00aaff0700e4
:100c30000c00e000060032006022b8006033b8000b
:100c40000000520081805a0002015b0083815b003a
:100c50004f0678004f05be004f04be00000006009e
:100c6000889fbe008a9fbe008c1f78000006eb00a4
:100c7000e00f5000e08f5800e00f5900e08f59005e
:100c800007003d006044b8006055b8000000540003
:100c900081805c0002015d0083815d001c002000fa
:100ca000e00f5200e08f5a00e00f5b00e08f5b0026
:100cb00007003d006044b8006055b80004025400cd
:100cc00085825c0006035d0087835d000c00a20046
:100cd0000c0007000c00e000060032006022b800a3
:100ce0006033b8000000520081805a0002015b00ae
:100cf00083815b004f0678004f05be004f04be00a5
:100d000000000600889fbe008a9fbe008c9fbe0028
:100d10000404b8000506b8008904460060854e004a
:100d20000606b8000a054600e0854e000706b80032
:100d30008b054600040eb800890446000a854e0063
:100d4000e0854d00050eb8000a0546008b854e0073
:100d5000060eb8008b0546000416b8000a054600ca
:100d60008b854e000516b8008b054600041eb800a2
:100d70008b0546000800be000a01be004f06be00fb
:100d80004f05be004f04be00000006008001780041
:100d900002003700b15978000201e9000200e000ca
:100da000fcff3a00000006008001780002003700d6
:100db000815978000201e9000200e000fcff3a00de
:040dc0000000060029
:020000040000fa
:100dc4000e00fa0030079800410798005207980077
:100dd400434f980065004700800178000e017800b9
:100de4003e009000ce009000890707005e4090000e
:100df400ce499000004178008e0078005e0090009b
:100e0400dc0707005e4090000080fa000000060046
:100e14000600fa0010079800210798000e017800d8
:100e240021c0b300a0c2b3003c0a07009e40780072
:100e34001e009000014878009e4090002e00900013
:100e4400014878000080fa00000006000e00fa0055
:100e5400600798006e009000006890000080fb001e
:100e64002007980010002000400798006e009000b2
:100e7400630f40000028ef00820120008000eb0097
:100e840040832000c7ff07006e00900010407800e8
:100e94000080fb000000400000407800ee4060004d
:100ea40000cab30080c070006e0090001040900033
:100eb4000080fb004200de000040780061406000da
:100ec40000c0700080407800408320000148780012
:100ed4006e009000104090000080fb004600dd0092
:100ee400804078006e009000204090000080fb005d
:100ef4004400dd00004078000043b20000c07000f0
:100f04008040780050832000014878006e009000f3
:100f1400b01090002010900043c0b3005283200012
:100f2400a7ff0700604798006e4090000080fb0018
:100f34000000e800ee009000816890008180fb00d2
:100f4400c408de00014178004183200082707800eb
:100f54006e4090000080fb000080e800ee009000ee
:100f6400816890008180fb00c408dd0001417800a5
:100f740041832000827078006e40900000c0e80039
:100f8400304798002e009000204798001e0037003c
:100f94003e4090000080fb00be4090008180fb003a
:100fa4004283200062c178009e007800914078005e
:100fb4008180fb00c408de0081407800014171009b
:100fc40041832000827078003e4090000040e80099
:100fd400304798003e4090000080fb009e0078005f
:100fe400914078008180fb00c408dd000141780055
:100ff40041832000827078002e40900068405000a9
:10100400204798001e0fe8002e409000e74f500044
:10101400dfff3e003e4090000080fb00be40900099
:101024008180fb0042832000e2c078000141780007
:10103400ee009000916890008180fb00c308dd0001
:1010440081407800e8c0600081407100014178006f
:1010540041832000827078006e4090000080fb0085
:101064004300dd00800078002e00900000804000e6
:101074007500400020079800e80047006a00470018
:1010840017c0b3000043eb0015c0b30001027800a1
:10109400800178002e0190004183200000c9b30034
:1010a400c50e07000080fa00000006000400fa00e4
:1010b400000f780021479800308520001040780008
:1010c4000080fb004500dd000040780002c2b30050
:1010d40082406000e0842000104078000080fb0023
:1010e4004300dd00004078007840600080c070005c
:1010f400f0842000104078000080fb004200dd00f6
:10110400004078006440600080c0700000852000ca
:10111400104078006340600000c070008040780098
:101124001e007800014878009e00e8001085200029
:10113400104078000080fb004600dd00004178008c
:1011440020852000104078000080fb004500dd0071
:10115400004078000042b200004171002e4090002f
:101164000080fb0000004000004078007e406000ea
:1011740000407100804878000080fa0000000600fa
:101184001000fa0040079800510798006207980081
:10119400730798000040eb001047980040c6b30066
:1011a400004f780000c1b3007e0907002047980073
:1011b4008040eb0040832000bcff070000012000ba
:1011c4002007980040852000904078006400470084
:1011d40017c0b3000043eb0081427800000278009e
:1011e4008001eb00020120004183200080c9b3008c
:1011f400710e0700104798001e4090000004e000a4
:10120400080032001e4090003800370090c3b3003d
:10121400640907000044b2000004e0000a003a0038
:1012240001003700000000001e80fb000000ea00ff
:101234004f00de00004078001e4fe9000004e0008b
:10124400f2ff3a000100370000000000de009000c9
:101254004e009000eefe0700ae40900000cfb300b9
:1012640000c06000b040b3008040780000c1b3000b
:1012740074090700cd0d0700ee0090008048780047
:10128400ae40900000cfb30000c06000c040b30087
:101294008040780000c1b3006a090700c30d07004d
:1012a400fe0090008048780000012000200798008c
:1012b4004085200010417800e400470066004700a4
:1012c4008043eb000043eb00824278000102780087
:1012d400800178000001eb008000eb000040eb008f
:1012e400350e0700104798001e4090000080fa0059
:1012f400000006000a00fa002007980061479800e1
:1013040072479800034f9800144f98000040eb0078
:10131400004f780000012000100798006e409000f4
:101324000080fb000000e00015003200810920006d
:10133400810f500021003a00fe40900040832000bd
:101344005aff070040852000104178002e009000cd
:101354008e80e80017c0b300d6c9b300824278007b
:1013640001027800800178000201200041832000fe
:1013740080c9b300100e0700004f78001d0037002d
:1013840040852000104178002e0090008e80e800f7
:1013940017c0b300d6c9b3008242780001027800b6
:1013a400800178000001eb008000eb000040eb00be
:1013b400010e0700004f78000e0037004085200022
:1013c400104178002e0090008e80e80017c0b30012
:1013d400d6c9b30082427800010278008001780007
:1013e4000001eb008000eb006e409000f20d07005e
:1013f400004f7800f0cdb3009e40780080cf5000bd
:1014040002003a000040eb007f0037001e407800e5
:101414000004e00002003d0000c0eb007a00370049
:10142400000c2000100798000e4890000004e00013
:10143400020032001e48900001003700f0c9b300da
:1014440041852000114178008e80e8008043eb0044
:101454000043780082427800010278004383200030
:101464000001eb00418320000040eb00d20d070097
:10147400004f780040832000904078002e009000b8
:101484002140980050832000904078002e00900066
:10149400314098001e4078000004e000030035004d
:1014a4001e009000ef0f500002003e0000c0eb0051
:1014b400550037001e009000670040004300de0026
:1014c4000040780080c0e9002e0090000150980090
:1014d4002e00900000509000ec4f500003003600a6
:1014e4002e009000c1c0b300015098002e0090005f
:1014f400005090000081fb00618320002e009000ca
:101504006400400020fe07000e4890000004e00044
:10151400140032002e009000f30040002e009000d2
:10152400740040003afe07002e0090002040900016
:101534008080fb00800f200000806000c280de00fd
:101544002e009000005090000080fb00808f50001f
:101554000200320000c0eb002b00370010c0b300c3
:101564002900370000022000100798004085200061
:10157400104178002e009000710040008e80e80039
:101584008043eb001e4b90008242780001027800f9
:10159400800178000001eb008000eb000040eb00cc
:1015a400850d0700004f78002e009000f3004000e6
:1015b4002e0090007400400015fe07001e407800c5
:1015c4000004e00002003d0000c0eb000e00370004
:1015d4002e009000204090008080fb00800f2000af
:1015e40000806000c280de002e0090000050900059
:1015f4000080fb00808f50000200320000c0eb002e
:101604000100370010c0b3000080fa00000006009b
:101614000a00fa0020079800614798007247980072
:10162400034f9800144f98000040eb00004f7800df
:10163400000c2000100798006e4090000080fb0012
:101644000000e0001a00320081092000810f5000e0
:101654002b003a00fe4090004083200093fe0700d8
:101664000e4890000004e000020032001e48900082
:10167400010037000040eb00418520001141780053
:101684008e80e8008043eb000043780082427800bb
:1016940001027800438320000201200041832000de
:1016a40080c9b300440d0700004f780027003700bd
:1016b4000e4890000004e000020032001e48900032
:1016c400010037000040eb00418520001141780003
:1016d4008e80e8008043eb0000437800824278006b
:1016e40001027800438320000001eb008000eb003e
:1016f4000040eb00300d0700004f78001300370066
:101704000e4890000004e000020032001e489000e1
:10171400010037000040eb004185200011417800b2
:101724008e80e8008043eb0000437800824278001a
:1017340001027800438320000001eb008000eb00ed
:101744006e4090001c0d0700004f7800f0cdb300f0
:101754009e40780080cf500002003a000040eb0029
:101764006500370040832000904078002e009000f0
:101774002140980050832000904078002e00900073
:10178400314098001e4078000004e000030035005a
:101794001e009000ef0f500002003e0000c0eb005e
:1017a400550037001e009000670040004300de0033
:1017b4000040780080c0e9002e009000015098009d
:1017c4002e00900000509000ec4f500003003600b3
:1017d4002e009000c1c0b300015098002e0090006c
:1017e400005090000081fb00618320002e009000d7
:1017f4006400400064fd07000e4890000004e0000f
:10180400140032002e009000f30040002e009000df
:10181400740040007efd07002e00900020409000e0
:101824008080fb00800f200000806000c280de000a
:101834002e009000005090000080fb00808f50002c
:101844000200320000c0eb002b00370010c0b300d0
:10185400290037000002200010079800408520006e
:10186400104178002e009000710040008e80e80046
:101874008043eb001e4b9000824278000102780006
:10188400800178000001eb008000eb000040eb00d9
:10189400c90c0700004f78002e009000f3004000b0
:1018a4002e0090007400400059fd07001e4078008f
:1018b4000004e00002003d0000c0eb000e00370011
:1018c4002e009000204090008080fb00800f2000bc
:1018d40000806000c280de002e0090000050900066
:1018e4000080fb00808f50000200320000c0eb003b
:1018f4000100370010c0b3000080fa0000000600a9
:101904000800fa0020079800310798000002200020
:10191400100798004083200011ccb30001487800e0
:101924002e009000904078005083200001487800f9
:101934002e0090000000e8009040780060832000b2
:101944000148780040852000904078000e80e8002f
:1019540017c0b3000043eb00814278000002780016
:10196400be019000820120004183200000c9b30021
:10197400910c0700004f78001e4078000004e0003e
:1019840002003d00d0cbb300010037000040eb0063
:101994000080fa00000006001200fa0070079800a8
:1019a400010f98000040eb001047980049003700f1
:1019b4007e00900071004000eb004700d0ff07005c
:1019c400204798002e4090000004e00002003200fe
:1019d4002e409000430037004083200061ccb300c8
:1019e400014878000e089000904078003e4890002e
:1019f40080c0680050832000014878000e089000e1
:101a04000000e800904078004e48900080c06800d4
:101a140060832000014878007e0090009050900080
:101a240070832000014878007e009000a050900050
:101a340080832000014878000002200020079800dd
:101a44004085200010417800e4004700660047000c
:101a540017c0b3000043eb00824278000102780013
:101a640080017800820220004183200000c9b30075
:101a7400510c0700004f78001e4078000004e0007d
:101a840002003d00e0cbb300160037000e089000c2
:101a94000080e800000f9800fe4090007e00900057
:101aa4002050900080cf500005003a00ee40900096
:101ab4007e0090001050900080cf50000200320051
:101ac400e0cbb300070037001e4090000040e80060
:101ad400104798001e409000e14f5000b4ff3600bc
:101ae4001e4078000080fa00000006000a00fa0098
:101af4002007980031079800420798001002200040
:101b0400100798004e00900051cab30001487800b5
:101b14004083200051ccb300014878003e0090007f
:101b24009040780050832000014878003e009000e7
:101b34000000e800904078006083200001487800ad
:101b44003e0090000080e8009040780000cfb30091
:101b540080c0600070832000014878002e0090004f
:101b64007100400043c0b30022c0b300800078007d
:101b7400708320007f0407000e80e80017c0b300c4
:101b84000043eb0080c2eb00000278004383200096
:101b9400c20220004183200010c9b300060c0700d4
:101ba400004f7800e0cdb3009e40780080cf500015
:101bb40007003a001e0090000000e000040032001c
:101bc40040832000904078004e0090000148780047
:101bd4001e4078000080fa00000006001000fa00a1
:101be4004007980051079800424f9800534f9800bf
:101bf40074079800000220003007980000c9b30061
:101c04002047980040852000904078003147980094
:101c14007e00900051cab300014878000040eb00f8
:101c240010479800440037004e00900071004000b7
:101c3400e400470032ff0700004f78001e407800a0
:101c44000004e00040003a001e409000e14f5000c4
:101c540008003a0010c9b300204798001002200081
:101c640030079800de489000414f980000c0eb0018
:101c7400304798004083200041ccb30001487800ed
:101c84005e009000904078004e40900080c0680054
:101c940050832000014878005e0090000000e800b6
:101ca400904078005e40900080c06800608320000f
:101cb400014878004e4890000080fb004500dd009c
:101cc4008040780070832000014878004e00900026
:101cd4007100400053c0b30022c0b30080007800fc
:101ce40070832000230407006600470017c0b30078
:101cf4000043eb00be4290000002780043832000c2
:101d0400b2022000418320002e409000aa0b07005d
:101d1400004f78001e4078000004e0000c003a00f8
:101d24005e0090000080e800500798001e4090007c
:101d34000040e800104798001e409000e14f50001a
:101d4400b9ff36000300370000000000010037002f
:101d540000000000e0cdb3009e40780080cf50002a
:101d640007003a003e0090000000e000040032004a
:101d740040832000904078007e0090000148780065
:101d84001e4078000080fa00000006001400fa00eb
:101d940040079800214f9800620798007307980045
:101da400040f9800150f98001002200030079800c7
:101db4001e08900051cab300014878004e009000fc
:101dc40071004000e4004700cdfe0700004f78009a
:101dd4001e4078000004e000020032001e4078003b
:101de400740037004083200031ccb30001487800f0
:101df4002e4890000080fb004600dd008040780003
:101e0400508320000148780063c0b300528320004f
:101e14006e009000fe009000e9fb07001047980058
:101e24000e089000904078004e40900000c068007a
:101e3400204798001e4090000080fb000000e8004e
:101e44009e4090008180fb008100e80042832000d6
:101e5400e2c0780001417800ae4090008180fb0030
:101e6400c208de00814078008140710001417800a1
:101e740041832000827078001e4090000080fb00a7
:101e84000080e800ae4090008180fb00c608dd00c1
:101e94000141780041832000827078000e08900090
:101ea4000000e800904078005e40900000c06800a8
:101eb400204798001e4090000080fb000080e8004e
:101ec4009e4090008180fb008180e80042832000d6
:101ed400e2c0780001417800ae4090008180fb00b0
:101ee400c208de0081407800814071000141780021
:101ef40041832000827078001e4090000080fb0027
:101f040063004000ae4090008180fb00c608dd0005
:101f14000141780041832000827078004e009000d7
:101f2400f10040001e4090000080fb006300400070
:101f340000017800408320000000410063c0b3002a
:101f440022c0b3008b0307001e4090000080fb00fa
:101f54004300dd00a002b000e600470017c0b30054
:101f64000043eb0080c2eb000102780043832000b1
:101f7400000178004183200010c9b3000e0b070054
:101f840030479800be409000e0cdb30080cf5000b1
:101f940007003a003e0090000000e0000400320018
:101fa40040832000904078001e089000014878008b
:101fb4003e4090000080fa00000006001000fa0085
:101fc400200798006147980042079800530798003b
:101fd400444f9800750798004e4890000080fb001d
:101fe4000080e8004400dd000000e80010079800cd
:101ff4004083200021ccb300014878006e4090005b
:102004000080fb004600dd00804078005083200003
:102014000148780063c0b300528320004e00900052
:10202400de00900066fb0700004f78001e80fb0076
:102034000000e8009e80fb008100e800428320004d
:10204400e2c0780001417800ce4890008180fb0016
:10205400c208de00814078008140710001417800af
:1020640041832000827078001e80fb000080e8001d
:10207400ce4890008180fb00c608dd000141780055
:1020840041832000827078002e009000f10040000f
:102094001e80fb000080e8000001780040832000df
:1020a4000000410063c0b30022c0b3003103070045
:1020b40040852000104178001e80fb004300dd00b5
:1020c4002002b0008e80e80017c0b3000043eb008c
:1020d4008242780001027800fe019000000178003d
:1020e4004183200010c9b300b30a070010479800c9
:1020f4001e4090000080fa00000006000a00fa006a
:102104000e01780091c0b30010c0b300830507002e
:102114000080fa00000006001400fa00600798002e
:10212400614f9800724f9800030f9800245798004d
:10213400355798000000eb00000f78000000eb001a
:10214400100798000040eb006047980010c0b300ef
:102154007047980080c9b300004f98000040eb001e
:10216400104f980010c0b3003508070042832000c8
:1021740021c0b30070c3b300680507000028ef0056
:102184000040eb00604798001b0037006e40900051
:102194000080fb007500b90000007800ee0090009c
:1021a400008040008040eb00014878006e409000c1
:1021b4000080fb007500b90000007800ee0090007c
:1021c400008040008040eb00114098006e40900079
:1021d4000080fb007500b90000007800ee0090005c
:1021e400008040008040eb00015098006e40900059
:1021f4000040e80060479800ee4090006e48900070
:1022040080cf5000e1ff39000000eb001007980078
:102214007e4890000081fb00100020000100200097
:10222400820178008301e9000300330000004000cc
:1022340081804800fbff3700200798006e4890001b
:102244000080fb009e0f5000360036002e009000e8
:102254000000e900200798002e5090000080fb0049
:102264000000e9004f00de00004178001e00780005
:102274007500b90000007800ee0090000080400076
:102284001e4a9000824178007e4990008e4890005a
:1022940018fc07000000fb000000e00014003200fe
:1022a400e10f500008003200e10f400013003a0033
:1022b4001e0090000000e8001007980090c9b300c9
:1022c400004f98000e0037001e0fe8001e489000d3
:1022d4000004e000030032000040eb00004f9800cf
:1022e4000700370090c9b300004f9800040037007e
:1022f40090c9b300004f98000100370000000000af
:1023040010c0b300204f98002e0090000000e000a1
:10231400050032002e4890000004e000c7ff3a0098
:1023240001003700000000007e4090000040e900fa
:10233400704798001e0090000000e0003500320055
:102344001e0090006101b8007e4890000082fb00ee
:102354001000200001002000840278008502e900ba
:10236400030033000000400081804800fbff370079
:102374004e0add004200de0000007200c208de00ea
:10238400800f5100818f5900060039007e4890006b
:102394000040e800704f9800a0c9b300004f9800b7
:1023a4001e0037001e0090006101b8007e489000b6
:1023b4000082fb001000200001002000840278004d
:1023c4008502e900030033000000400081804800da
:1023d400fbff37004d0add004300de000000720001
:1023e400c308de00800f5100818f590006003100c0
:1023f4007e4890000040e900704f9800c0c9b300c7
:10240400004f980005003700b0c9b300004f980092
:10241400020037000040eb00704798006e489000bf
:102424000080fb009e0f5000070036007e409000a5
:102434000004e000040032000e08900000000100d7
:102444000004e00070ff3a001e0078000000e00085
:102454000c003a00504180000000e900504188001f
:10246400504180000000e00008003a000040eb000a
:102474007307070001070700a000200050418800ef
:1024840002003700a0002000504188001e007800a0
:102494000080fa00000006001400fa0060079800ab
:1024a400614f9800724f9800030f980024579800ca
:1024b400355798000000eb00000f78000000eb0097
:1024c400100798000040eb006047980080c9b300f3
:1024d400704798000040eb00104f980010c0b30004
:1024e400204f980010c0b300550707004283200016
:1024f40021c0b30070c3b300880407000028ef00b4
:1025040010c0b300a7040700004f98008e48900045
:10251400f0ccb30000c06000004f98002e50900033
:102524000004e000040032000e4890000054a000b3
:10253400004f9800030037000e4890000044a000ac
:10254400004f98008e48900010c0b300bd040700ef
:102554000040eb00604798001b0037006e4090007d
:102564000080fb007500b90000007800ee009000c8
:10257400008040008040eb00014878006e409000ed
:102584000080fb007500b90000007800ee009000a8
:10259400008040008040eb00114098006e409000a5
:1025a4000080fb007500b90000007800ee00900088
:1025b400008040008040eb00015098006e40900085
:1025c4000040e80060479800ee4090006e4890009c
:1025d40080cf5000e1ff39007e4890000081fb006d
:1025e4001000200001002000820178008301e9002e
:1025f400030033000000400081804800fbff3700e7
:10260400200798006e4890000080fb009e0f500049
:10261400370036002e0090000000e90020079800e3
:102624002e5090000080fb000000e9004f00de0007
:10263400004178001e0078007500b90000007800a1
:10264400ee009000008040001e4a90008241780015
:102654007e499000fe409000edfb07000000fb0067
:102664000000e00014003200e10f500008003200c6
:10267400e10f400013003a001e0090000000e80043
:102684001007980090c9b300704798000e003700f7
:102694001e0fe8001e4890000004e0000300320012
:1026a4000040eb00704798000700370090c9b30062
:1026b400704798000400370090c9b3007047980031
:1026c40001003700000000000e0890000000010027
:1026d400204f98002e0090000000e000050032001a
:1026e4002e4890000004e000c6ff3a0001003700c5
:1026f4000000000010c0b3002a040700004f980037
:102704008e489000f0ccb30000c06000004f9800e9
:102714008e48900010c0b3004a0407001e007800e1
:102724000000e00009003a00504180000000e90088
:1027340050418800504180000000e00005003a004c
:10274400a00020005041880002003700a0002000b3
:10275400504188001e0078000080fa000000060046
:102764000c00fa00500798005e009000d0409000e2
:10277400014f78003085200011c0b3000148780073
:102784005e009000c184200006000900b058780063
:102794007000b1001e407800e34f50000200360084
:1027a4000040eb00004f7800e084200010407800e7
:1027b4000004e00004003200e084200010407800af
:1027c400e14f500003003a00f084200011c0b30030
:1027d400014878005e009000104090000080fb00eb
:1027e400e80f50006e003200e80f500005003c0076
:1027f4000000e000b2003200e60f50008c0032000e
:10280400f8003700ec0f50001d003200ef0f5000ad
:1028140003003200e90f50003d003200f1003700a0
:1028240000c2b3001047980000cfb30020479800bf
:1028340010c0b30030479800d0c4b300404798009c
:1028440030c0b3005047980020c0b30060479800e0
:1028540010c0b30070479800e08420001040780056
:10286400e14f50000300360040c0b300004f980011
:10287400a700370070c0b300004f9800a4003700d1
:1028840000c2b3001047980000ccb3002047980062
:10289400c0842000104078000004e00008003a00e2
:1028a400308520008040eb00014878000040eb00b8
:1028b40030479800a0cfb300404798000400370089
:1028c40020c0b30030479800b0c9b3004047980017
:1028d40040c0b3005047980030c0b3006047980030
:1028e40020c0b30070479800e084200010407800b6
:1028f400e14f50000300360040c2b300004f98007f
:102904008300370070c2b300004f98008000370086
:1029140000c2b3001047980000c9b30020479800d4
:10292400c0842000104078000004e00008003a0051
:10293400308520008040eb000148780010c0b300cf
:102944003047980090c3b300404798000400370014
:1029540030c0b3003047980010c4b300404798001b
:1029640050c0b3005047980050c0b300604798006f
:1029740040c0b30070479800e08420001040780005
:10298400e14f50000300360040c3b300004f9800ed
:102994005f00370070c3b300004f98005c0037003d
:1029a40000c2b3001047980000c8b3002047980045
:1029b400c0842000104078000004e00008003a00c1
:1029c400308520008040eb000148780010c0b3003f
:1029d4003047980070c7b3004047980004003700a0
:1029e40030c0b3003047980080ceb3004047980011
:1029f40060c0b3005047980050c0b30060479800cf
:102a040050c0b30070479800e08420001040780064
:102a1400e14f50000300360040c3b300004f98005c
:102a24003b00370070c3b300004f980038003700f4
:102a340000c2b3001047980000c6b30020479800b6
:102a4400c084200010407800e14f500008003a0094
:102a5400308520008040eb000148780010c0b300ae
:102a64003047980040cfb300404798000400370037
:102a740050c0b3003047980050c3b300404798009b
:102a840080c0b3005047980050c0b300604798001e
:102a940080c0b30070479800e084200010407800a4
:102aa4000004e00003003200f0c3b300004f9800bc
:102ab40017003700f0cbb300004f98001400370024
:102ac40000c3b300104798000040eb002047980073
:102ad40070c0b3003047980000cdb3004047980061
:102ae40000c2b30050479800c0c0b30060479800cc
:102af40040c2b3007047980000c0eb00004f98003c
:102b0400308520008040eb00014878000000000080
:102b14009e409000c08420001040780000c07000e7
:102b2400104798002e4090008040780000cfb300fa
:102b340080c06000e08420001040780080c07000f5
:102b4400f0842000104078000080fb004300dd008a
:102b54000040780000c0700020479800ee409000cc
:102b640040852000014878000e00e80082c0b300d0
:102b74008000780020c0b3001b030700c0c3b3006b
:102b840008030700104798001e409000804078001a
:102b9400c0cfb30080c060001085200010407800d2
:102ba40000c07000104798001e40900080407800dc
:102bb400c0c3b3002303070010c0b300f902070029
:102bc400104798009e40900080cfb30000c0600082
:102bd400104798001e4090008040780010c0b30059
:102be400180307000080fa00000006000200fa0043
:102bf400000f78001e007800d9fe07000080fa005c
:102c0400000006000000fa000080fa000000060040
:102c14001200fa00500798006107980072079800a4
:102c2400030f9800640f47000e0890008040eb00eb
:102c3400014878001e0078008040eb0001487800cd
:102c44001e00780010407800804078005e009000fc
:102c5400004078000074a10000c07000804078003b
:102c64001e007800014878005e009000ee0090009d
:102c74004909dd004700de0000007100c708de00de
:102c840050079800610798001e0fe8000e08900096
:102c9400104078008040e8000e0890000148780059
:102ca4001e00780001c8b300014878005e0090005f
:102cb400ee009000e00f5000e08f5800e0ff3a0073
:102cc4000000eb00100798000a0037001e0fe9000f
:102cd4001e009000fe009000008040009e007800de
:102ce40091407800014878001e0090000000e80040
:102cf400100798000e089000104078008080fb00b8
:102d04001e009000808f5000f0ff3c000080fa000d
:102d1400000006000200fa00004f78000ac8bf0055
:102d24009e4f5000100032000ac8bf000080fb0014
:102d3400e10f500002003a00b2ff0700000000005b
:102d44001e80fb00e10f500003003a00a0b22000f7
:102d5400a6ff0700000000001e417800a1802000ab
:102d64008248780001003700000000000080fa006b
:102d7400000006000a00fa002007980031079800b6
:102d8400024f9800134f98001e4890000080fb00eb
:102d9400110020000008dd00004078000040e90038
:102da400204798001e4890000080fb006800100037
:102db400110020000008dd00004078000040e90018
:102dc400304798000000eb00000f78004d003700fa
:102dd4001e007800ae009000008040009e00780045
:102de4002e0190008100410091407800014178005b
:102df400ae40900081c0ea00814061000148780043
:102e04001e007800ae009000008040009e00780014
:102e14002e0190008100410091407800014178002a
:102e24009e007800be0190008180410091407800ae
:102e34008181fb009e4890008180fb00e8801000a7
:102e44008198de0081417800ae40900081c061002d
:102e540081407100014878001e0078000000e800fd
:102e6400ae009000008040009e0078008100e800e1
:102e74002e019000810041009140780001417800ca
:102e8400be4090008180fb008181ea009e48900052
:102e94008180fb008118dd00814078008140610061
:102ea400014878001e0078000000e800ae009000a1
:102eb400008040009e0078008100e8002e01900010
:102ec4008100410091407800014178009e00780023
:102ed400be0190008180410091417800be40900085
:102ee40081c061008181fb009e4890008180fb00cd
:102ef4008118dd008140780081407100014878002c
:102f04001e0fe8000e4890000080fb009e0f50004a
:102f1400afff3c000080fa00000006000000fa0049
:102f240010c0b3000080fa00000006000200fa009e
:102f34000000eb00000f7800080037009e007800c6
:102f4400a00220000088b90080007800608520007d
:102f540000804000bdf707001e0fe800004180001c
:102f64009e007800808f5000f4ff35000080fa0046
:102f7400000006000200fa008108070010c0b30038
:102f8400af04070010002000610007000040eb00c0
:102f9400004f78001e4078000004e00036003a003c
:102fa40010c0b3005bff070008c8bf008040780072
:102fb40090c2b3002302070008c8bf00e84f5000c6
:102fc40002003a00a0cab300b70107002268ef006c
:102fd400d6ff070006c8bf000004e00011003a0055
:102fe40007c8bf000080fb000000e9004f00de00be
:102ff40000417800017921002cc8bf0015c0b3003e
:10300400024278008101780000417800c1c0b30019
:10301400a08a200040fc07000040780022e8b700a6
:103024001000370007c8bf000080fb000000e90063
:103034004f00de0000417800017921002cc8bf0058
:1030440015c0b30002427800810178000041780085
:10305400c1c0b300a08a20000ffd07000040780023
:1030640022e8b70008c8bf00e84f500002003a0049
:10307400b0cab3008c0107001e4178009180200083
:10308400824878000040eb006d0407002208070026
:1030940022c8bf000080fa00000006001000fa00f9
:1030a400000f780011079800220798003307980052
:1030b400440798005507980066079800770798001a
:1030c4001e007800604088001e0090007040880058
:1030d4002e009000804088003e00900090408800c0
:1030e4004e009000a04088005e009000b040880030
:1030f4006e009000c04088007e009000d0408800a0
:103104004eb89700e04088000080fa0000000600f6
:103114000200fa00000f7800714080001e00780061
:10312400010001000080fa00000006000200fa001d
:10313400000f7800814080001e007800010001002b
:103144000080fa00000006000600fa00000f780074
:103154001107980022079800634080002e01900018
:103164009e0090001e007800030001000080fa0019
:10317400000006000000fa009040800000000100fa
:103184000080fa00000006000000fa00a040800061
:10319400000001000080fa00000006000000fa00b0
:1031a400b0408000000001000080fa00000006002a
:1031b4000200fa00004f7800c14080001e407800f1
:1031c400010001000080fa00000006000000fa007f
:1031d400d0408000000001000080fa0000000600da
:1031e4000200fa00004f7800e14080001e407800a1
:1031f400010001000080fa00000006000a00fa0045
:10320400000f780021479800220798006347980030
:1032140074479800054f98000e4890000004e000a1
:10322400020032000040eb00edff07002e4090004a
:103234000080fb000001eb00800078001e00780095
:10324400c1ff07006e4090000004e0000600320059
:103254006e4090000080fb002e01900080007800fa
:103264000000eb00b8ff07007e4090000004e0007f
:103274000200320010c0b300d9ff07000080fa003a
:10328400000006000800fa00000f780021479800ab
:1032940022079800634798000040eb00d0ff070026
:1032a4002e4090000080fb000001eb0080007800bd
:1032b4001e007800a4ff07006e4090000080fb0011
:1032c4002e019000800078000000eb009eff0700b4
:1032d40010c0b300c2ff07000080fa00000006001f
:1032e4000800fa00200798003107980010c0b300c6
:1032f40003e8b7000a68ef000568ef000768ef000d
:1033040010c0b30006e8b70060c0b30008e8b70017
:1033140080cdb30004e8b7006003070050c5b300d4
:10332400004f7800a0cab3001047980000c0eb001b
:103334002047980020c2b3003047980042c0b30031
:103344008e00780030c1b30027010700420020003e
:10335400310320000e00780092f607000e01780079
:1033640041c0b30030c1b300ec0007009e407800b8
:1033740050c5b30080cf50000b003a009e4090002f
:10338400a0cab30080cf500007003a002e4090003e
:10339400e14f400004003a00be40900020c2b30058
:1033a40080cf500002003200100020009800370047
:1033b4003a0307000e01780041c0b30030c1b300e6
:1033c400d60007009e40780050c5b30080cf50005f
:1033d4000b0032009e409000a0cab30080cf500082
:1033e400070032002e409000e14f400004003200fc
:1033f400be40900020c2b30080cf500002003a00cb
:10340400200020008200370071408000100020005e
:103414000100010001c2b30050c3b3000901070059
:1034240031c0b300d0c3b3000601070000c9b30024
:103434009d00070042c0b3008e007800f0c3b300c3
:10344400e900070042c0b3008e007800f0c3b30067
:10345400e500070042c0b3008e007800f0c3b3005b
:10346400e100070042c0b3008e007800f0c3b3004f
:10347400dd00070042c0b3008e007800f0c3b30043
:10348400d900070042c0b3008e007800f0c3b30037
:10349400d50007000002200034010700014080002d
:1034a40000022000008060000000e00002003a00fa
:1034b40030002000560037000028ef00f702070014
:1034c40040c8b3007800070021c0b3000040eb00ff
:1034d400dc0007008040eb0010c0b300d9000700f7
:1034e40001c3b30020c0b300d6000700f1c3b3008a
:1034f400b0c0b300d300070021c2b300c0c0b30002
:10350400d000070001c8b300d0c0b300cd0007004d
:103514008040eb00e0c0b300ca0007008040eb002d
:1035240000c1b300c700070051c3b30020c1b300fa
:10353400c400070000c2b300004f7800d0cdb30030
:10354400104798000040eb002047980032c0b300b9
:103554008e00780030c1b300a300070011c4b3008b
:1035640070c1b300b700070001cab30080c1b30043
:10357400b400070061c7b30090c1b300b1000700f5
:1035840080c0eb0050c3b300ae00070071c0b300ad
:1035940060c3b300ab00070001c1b300a0c3b30014
:1035a400a80007002e019000be01900070c1b30076
:1035b4005a01070090cab300d1030700714080008c
:1035c4004001200001000100a0c2b3007500070003
:1035d400004f78001e4078000080fb00630060000c
:1035e4000000e00002003a0040002000080037001c
:1035f4001e4078000080fb00620060000000e000d4
:1036040002003a0050002000010037000000eb00e7
:103614000080fa00000006000200fa0026c8bf007d
:103624000004e00002003200e0012000bffe0700b9
:1036340023c0b3000e01780011c0b30080822000c3
:1036440010ff07001e4078008080fb001e409000a1
:103654000080fb004800dd0001007000800078005d
:10366400004080000100700000408800cbfe07008d
:103674000080fa00000006000200fa0030c3b30024
:1036840048000700004f780000c6b3009e40780051
:1036940080cf5000010036002668ef001e407800fd
:1036a4000080fa00000006000200fa00004f7800d3
:1036b400b5fe070015c0b30014c0b3008041eb0091
:1036c4000001eb0011c0b3000e007800cbfe070030
:1036d400a8fe07000080fa00000006000400fa00bb
:1036e4002047980031479800ae409000014f780081
:1036f400be4090001147980015c0b3000042eb0093
:103704008041eb000001eb0021c0b3000e00780003
:10371400bafe07000080fa00000006000400fa0068
:10372400004f7800114798001207980096fe070092
:103734001e4078000064a000004f78001e409000f6
:1037440015c0b30024c0b300804178001e0190006e
:1037540011c0b3000e007800a8fe070085fe070024
:103764000080fa00000006000400fa00004f780010
:103774001107980084fe07001e40780015c0b300ae
:1037840024c0b300804178001e01900011c0b30032
:103794007082200099fe070076fe07000080fa0080
:1037a400000006000400fa002047980076fe070097
:1037b4002e4090000064a000204798000e80e8008e
:1037c40015c0b30014c0b30013c0b3000e017800d9
:1037d40011c0b30089fe070066fe07001e40780092
:1037e4000080fa00000006000600fa00004f78008e
:1037f400110798004247980063fe070015c0b30004
:103804000042eb008041eb000001eb0011c0b3006b
:103814000e00780079fe07004e4090008042eb00d5
:1038240024c0b3008041eb000001eb00804078002d
:103834001e00900071fe07004efe07000080fa0093
:10384400000006000400fa00204798003147980061
:10385400ae409000014f7800be40900011479800a0
:1038640049fe070015c0b30014c0b3008041eb004b
:103874000001eb0021c0b3000e0078005ffe0700da
:103884003cfe07000080fa00000006000800fa0071
:10389400000f7800214798003247980023079800ca
:1038a4006447980038fe070015c0b3000042eb00df
:1038b4008041eb000001eb00ae4090001e00780058
:1038c4004efe0700630047008042eb000042eb001d
:1038d4008041eb000001eb0011c0b30047fe07007c
:1038e4008042eb0024c0b3008041eb000001eb00f8
:1038f400ee4090002e00900040fe07001dfe0700e1
:103904000080fa00000006000400fa00000f7800ae
:103914001107980006003700714080001000200055
:10392400010001001e0090000000e900100798004b
:10393400004080001e0060000000e00003003a0028
:103944001e0090000000e000f3ff3a001e0090000b
:103954000000e00003003a00c80107001000200046
:10396400004088000080fa00000006000400fa000d
:10397400100798000000eb00000f780003003700e8
:103984001e0fe80020032000e8fd0700014080002e
:103994001e009000008060000000e00004003a0077
:1039a400703e20009e007800808f5000f4ff3600a7
:1039b400703e20009e007800808f50000300360087
:1039c400ae01070010002000004088000080fa00cb
:1039d400000006000400fa002047980030c0b3003d
:1039e40070ff0700004f78009e4078006fcf6000a2
:1039f4002e4090000080fb004400dd0080407800f1
:103a04001e40780000c07000004f78009e4078008f
:103a140030c0b3008bff07000080fa0000000600ee
:103a24000600fa0090c2b3005eff0700204798002a
:103a3400ae409000f0ccb30000c060002047980076
:103a44002e4090000044a00020479800ae40900013
:103a540090c2b3007bff070010c1b30051ff070001
:103a6400204798002e4090000074a0002047980042
:103a7400ae40900010c1b30072ff07007140800097
:103a84001000200001000100c0c2b30045ff070080
:103a940067406000304798002e4090000074a100f9
:103aa40020479800ae40900010c1b30065ff0700a6
:103ab4003e409000e14f5000030036003e4090002d
:103ac400e54f5000130036000000eb00000f7800b3
:103ad4001e0fe80040cab300f3fe070071408000e7
:103ae400a000200001000100a0c2b3002dff0700c8
:103af400404798004e4090000080fb006200600048
:103b04000000e00003003a001e007800e20f5000bd
:103b1400efff36000080fa00000006001c00fa00e7
:103b240060579800420f9800530f98000000eb0074
:103b3400000f78000040eb001aff0700004f9800c8
:103b44000e4890000004a100804078000040eb0083
:103b54003cff07006e509000f74f500028003a00d9
:103b6400720047000001780031c0b30070c1b30097
:103b7400eafe07002e5090008080fb000007200022
:103b84000080600001052000810f50001100320008
:103b940001052000810f500004003c0001042000b6
:103ba400810f500008003200130037000106200086
:103bb400810f50000a00320001072000810f5000dd
:103bc4000a0032000c003700d0072000000f7800f4
:103bd4000b00370040062000000f78000800370073
:103be40020032000000f780005003700900120001a
:103bf400000f7800020037000000eb00000f78008f
:103c04001e0078008000eb000001be004e0890000a
:103c1400de089000fff20700500798006107980043
:103c24005e009000ee0090004a09dd004600de00d0
:103c340000007100c608de0080007800f0ff230059
:103c440000806000100798001e009000c600dd0090
:103c54001e00900000804000300798003e00900055
:103c64006101b8005e009000ee009000800f5100ea
:103c7400818f5900060031003e0090001004b0000e
:103c8400300798001e0090000000e800100798001c
:103c94005e009000be009000008050003007980045
:103ca4009e00900021079800be00900000022000b2
:103cb400808f5000060036001e0090000000e900ce
:103cc400100798003e0090001002b10030079800e1
:103cd4003e009000ff0f5000060036002e009000ba
:103ce4000000e900200798003e0090000002b100a7
:103cf400300798003e009000ff0f5000eaff3e009e
:103d04003e009000f00f5000060036003e00900088
:103d14000002b100300798002e0090000000e90076
:103d2400200798009e0090003e0090000080500004
:103d340070079800ae0090003e00900000804000a4
:103d4400000f98006e509000f74f50001d003a008d
:103d54002e5090008040780000cfb30080c06000f7
:103d64000e0890004600de00004078006f406000be
:103d740000c07000205798000e0890008040780022
:103d8400200020000008dd00804078007e009000c4
:103d94004800de00004078006340600000c070000e
:103da400305798007e0090000040780040579800fb
:103db4007200470032c0b3008000780070c1b300c5
:103dc40089fe070016ff07008e4890000040eb00b4
:103dd4009cfe07000080fa00000006000400fa00c0
:103de400881f7800f9fc07000004e0004e00320050
:103df400e5fc0700e9fc07000040eb0069fe070052
:103e040061ae20008048780060ae200090407800c9
:103e1400c0cfb30000c06000804078000040eb00d9
:103e240088fe070010c0b300004f78000900370077
:103e34001e407800ef4f5000050032001e84fb0046
:103e44001e40780057fe070061ae200080707c00a1
:103e54001e4fe8001e407800fc4f5000f4ff36006f
:103e640020c2b3004ffe070031b020008048780024
:103e740090c2b3004bfe070041b020008048780098
:103e840050c3b30047fe070051b0200080487800bb
:103e940060c3b30043fe070061b02000804878008f
:103ea400c0c3b3003ffe070071b020008048780013
:103eb400a0c3b3003bfe070081b020008048780017
:103ec400401f200010079800030037007140800055
:103ed40010002000010001001e00900000f0a70067
:103ee4000000ea000000ea004f00de000040780015
:103ef4009e0090008100e900110798000004e00092
:103f040006003200a0c2b30026fe07000080fb00ba
:103f1400640060000000e000ecff3a000040eb00a9
:103f2400a3fc070001003700000000004f047800e4
:103f34000080fa00000006000400fa00a3fc070059
:103f44000004e0004a003a0010c0b30098fc0700e7
:103f5400a000200075fc07009500070060ae20005b
:103f640090407800c0cfb30000c06000804078006b
:103f74000040eb0033fe070010c0b300004f780090
:103f84000a0037001e407800ef4f50000600320050
:103f94001e80fb0061ae2000614078008040780004
:103fa4001e40780027fe07001e4fe8001e407800e0
:103fb400fc4f5000f3ff360030b020001040780072
:103fc4008040780020c2b3001efe070040b02000ed
:103fd400104078008040780090c2b30019fe0700ba
:103fe40050b02000104078008040780050c3b300e7
:103ff40014fe070060b02000104078008040780074
:1040040060c3b3000ffe070070b0200010407800ba
:1040140080407800c0c3b3000afe070080b02000cf
:104024009040780000cfb30000c06000804078006a
:10403400a0c3b30003fe0700c01220003bfc07002e
:1040440077fe070060ae20001040780080407800c2
:104054000040eb00fbfd0700a0c2b300d1fd070048
:10406400104798004dfc070042fc07000100370090
:10407400000000000080fa00000006000000fa00c2
:1040840056ff07007140800010002000010001006d
:10409400a9ff07000080fa00000006000000fa00f3
:1040a4000040eb0042fc070071408000100020003b
:1040b4000100010010c0b3003dfc0700a000200077
:1040c4001afc07003a0007000080fa00000006000e
:1040d4000200fa0098ff07000040eb00b1fd070062
:1040e400004f78001e74a1009e4078000040eb0051
:1040f400d4fd07000040eb00510007000080fa00e7
:10410400000006000000fa000080fa00000006002b
:104114000200fa0088ff07000040eb00a1fd070041
:10412400004f78001e74a1009e4078000040eb0010
:10413400c4fd070010c0b300410007000080fa006e
:10414400000006000000fa000080fa0000000600eb
:104154000200fa0078ff07000040eb003800070077
:104164000040eb008ffd0700004f78001e74a00094
:104174009e4078000040eb00b2fd07000080fa008a
:10418400000006000200fa006bff07000040eb008d
:1041940084fd0700004f78001e74a1009e40780043
:1041a4000040eb00a7fd07000080fa0000000600b5
:1041b4000600fa000000eb00000f78002efd070057
:1041c4000046b20020479800a0c2b30075fd070066
:1041d400304798001e0fe800ae40900000c6b300c0
:1041e40080cf500005003a003e4090000080fb0064
:1041f400610060000000e00004003a00a00f20000d
:104204009e007800808f5000ecff3600401f200095
:10421400c6fb0700640047000001780021c0b3001a
:1042240070c3b3003dfd07000028ef00714080001b
:1042340020002000010001000080fa0000000600b8
:104244000600fa00404798000040eb0055fd0700c7
:10425400204798004e4090000004e0000e00320019
:104264002e4090000080fb0063006000e30f5000cc
:10427400300032002e4090003040b30020479800b8
:10428400c0122000a9fb0700ae4090000040eb00e4
:104294006cfd0700200037002e4090000080fb00da
:1042a40063006000e30f500024003a00ae40900029
:1042b400c0cfb30000c0600020479800ae4090001b
:1042c4000040eb005ffd0700401f2000000f780056
:1042d400020037004006200094fb07001e0078000f
:1042e40000f0a7000000ea000000ea004f00de0032
:1042f400004078001e0fe9000004e00006003200d0
:10430400a0c2b30027fd07000080fb00640060002a
:104314000000e000efff3a004e4090000004e0008f
:10432400070032007140800060002000010001009d
:104334000300370000000000010037000000000007
:104344000080fa00000006000200fa0060c9b30011
:10435400d5fc070070c9b300d3fc0700401f200040
:1043640072fb0700b0c2b3000efd0700004f7800d7
:1043740060c9b300ccfc07001e4078000080fa003e
:10438400000006000000fa00a0c0b30005fd07000d
:1043940002e8b7000080fa00000006000000fa00fe
:1043a40002c8bf0080407800a0c0b30025fd07000c
:1043b4000080fa00000006000400fa000040eb0050
:1043c400004f7800d0c0b300f6fc070010479800f7
:1043d400a0c0b300f3fc0700204798001e409000e3
:1043e4000080fb00640060000000e0001600320062
:1043f4009e40780090cab30000c04000004f78008f
:104404002e4090000080fb0063006000e30f50002a
:1044140004003a001e40780066405000004f7800c7
:104424001e0037002e4090000080fb0063006000f7
:104434000000e00019003a001e4078006640400089
:10444400004f7800150037009e40780090cab300f2
:1044540000c04000004f78002e4090000080fb0018
:1044640061006000004078000004e00003003200b6
:104474001e40780068404000004f78002e409000b5
:104484000080fb00620060000000e00003003200d6
:104494001e4078006a405000004f78002e40900083
:1044a4000080fb004600de00004078006300b90095
:1044b40000007800304798002e4090008080fb0078
:1044c40000022000008060000000e00005003200cf
:1044d4009e4078003e40900000c05000004f78009d
:1044e400040037009e4078003e40900000c0400029
:1044f400004f78001e4078000080fa00000006009b
:104504000600fa0040479800a0c0b300a5fc0700cd
:10451400004f7800d0c0b300a2fc070020479800e9
:104524009e4078007ccf60002e4090000080fb000d
:10453400640060000000e000150032004e4090006e
:104544007045b000404798004e409000e54f500041
:10455400040034004e4090006640500040479800ec
:104564001c0037004e409000e54f400006003d001f
:104574004e40900066404000404798009e407800be
:1045840063cf7000130037001e04a0001100370031
:104594004e4090007045b000404798004e40900057
:1045a400e74f5000040034004e4090006840500033
:1045b400404798001e04a0004e409000e94f400080
:1045c40004003d004e4090006a404000404798007f
:1045d4001e14a0004e4090000004e00017003400b8
:1045e4001e54a1004e4090000001fb0060552500c0
:1045f4000090b9004f91de00028050000040780026
:10460400104798001e409000e34f5000020036000f
:1046140030c0b300104798009e409000d00f200097
:104624000088b90000007800804078004e40900077
:1046340000c0400040479800150037001e54a000f9
:104644004e4090000000fb00620110006055250000
:104654000090b9004f91de0002805000104798008e
:104664001e409000e34f50000200360030c0b300fb
:10467400104798001e4090006300b90000007800c5
:10468400804078004e40900000c0400040479800b1
:104694001e4090000080fb004600dd008040780052
:1046a4001e40780000c07000004f78009e407800e3
:1046b400a0c0b30063fc07004e4090000080fa00e5
:1046c400000006001000fa005007980061079800e7
:1046d400720798005e0090000000d100000f78007f
:1046e4001e0078000000e00002003a0010002000e4
:1046f400000f78000040eb002afc070030479800c8
:1047040021c0b3000040eb004efc070090c2b30090
:1047140024fc070040479800ce40900000cfb3002f
:1047240000c0600040479800ce40900090c2b300a3
:1047340044fc070090c0b3001afc070050479800df
:1047440080c0eb0090c0b3003efc07003e409000e8
:104754000080fb00620060000000e00003003a00fb
:1047640071408000a0002000010001000040eb0027
:104774002047980015003700f3fe070060479800b3
:104784006e409000ef4060006e4090000080fb009f
:104794004400de000040780000c0400070479800ec
:1047a4007e4090008080fb002e4090000000fb00c3
:1047b400808f500005003400fe409000214798008f
:1047c4006e009000ee409000014878001e007800d2
:1047d40000f0a7000000ea000000ea004f00de003d
:1047e400004078001e0fe9000004e000e2ff3a00f8
:1047f4002e4090000004e00007003a007e00900084
:1048040001c8b300014878006e0090008040eb00be
:1048140001487800540037002e4090000000fb004f
:104824004380de0000407800804078002e409000f5
:1048340000c0400020479800d0c0b300d9fb070057
:1048440064406000004f9800a0c0b300d5fb07008f
:10485400104f98000e4890000004e0000e00320053
:10486400ae40900050cbb30000c0400020479800f9
:104874001e4890000080fb0061006000004078004a
:104884000004e000190032002e4090006540400012
:104894002047980015003700ae40900090cbb3003d
:1048a40000c04000204798001e4890000080fb0094
:1048b400620060000000e000030032002e4090001f
:1048c4006a405000204798001e4890000080fb007a
:1048d40061006000004078000004e0000300320042
:1048e4002e40900068404000204798001e489000e9
:1048f4008080fb0000022000008060000000e000d7
:104904000c0032001e4890000080fb004600de00d0
:1049140080407800d00f20000088b90000007800a3
:10492400804078002e40900000c04000204798004e
:104934000a0037001e4890000080fb004600de009d
:10494400004078006300b9000000780080407800df
:104954002e40900000c04000204798007e00900048
:10496400ae40900001487800de40900090c0b30053
:10497400b4fb0700be4090000040eb00b1fb070011
:104984003e4090000080fb00610060000040780021
:104994000004e00003003200714080002000200089
:1049a400010001000080fa00000006000200fa0085
:1049b40070c8b3003cfb070040012000dbf907008e
:1049c400d0c2b30077fb0700004f78001e40780088
:1049d4000004e00003003d001e4078000074a100c4
:1049e400030037001e4078000074a1000040ea0074
:1049f400004f78001e4078000080fa000000060096
:104a04000600fa000040eb0066fb0700004f780048
:104a140000c1b30063fb0700104798001e409000dc
:104a2400f043b2008040780000c1b30085fb07006a
:104a34009e40780063c07000804078000040eb0026
:104a440080fb070060c9b30017fb070070c9b300ff
:104a540015fb070011c0b30000c1b30079fb0700c8
:104a6400c0122000b1f90700d0ff07000000fb00ce
:104a74001007980021c0b30000c1b30071fb070008
:104a8400c0122000a9f90700c8ff0700404798009a
:104a940060c9b30004fb07009e009000f00f2000e3
:104aa400808060004e4090000000fb004800dd0064
:104ab40001007000100798009e40900000c1b300f0
:104ac40060fb07009e4078000040eb005dfb0700a0
:104ad4001e0090000080fa00000006000600fa00a4
:104ae4000040eb002ffb0700004f780000c1b3002b
:104af4002cfb0700104798001e409000f043b200c2
:104b04008040780000c1b3004efb07009e4078004f
:104b1400c0cfb30000c060000014a0008040780043
:104b24000040eb0047fb070060c9b300defa070052
:104b340070c9b300dcfa070011c0b30000c1b300b0
:104b440040fb0700c012200078f9070097ff070018
:104b54002047980021c0b30000c1b30039fb07000f
:104b6400c012200071f9070090ff07003047980039
:104b74002e4090008000fb00f00f20008080600039
:104b84003e4090000000fb004800dd000100700082
:104b9400200798009e40900000c1b30029fb070045
:104ba4009e4078000040eb0026fb07002e0090009a
:104bb4000080fa00000006001a00fa00404f980036
:104bc40071079800020f9800130f9800240f9800a3
:104bd4006557980076579800075f98002e08900054
:104be40010007800670040004300de00004f7800aa
:104bf4000040eb00104798000000eb0010079800fd
:104c04000040eb00404798002e0890000000e000b0
:104c1400080032002e0890009000780011079800d8
:104c24002e0890008000eb000108780010c0b3004b
:104c3400104798001e0890000000e00003003a00ae
:104c44001e0090000000e00003003200ee509000cf
:104c540070c0b300fbfa07001e0090000000e000e3
:104c64000e0032001e00900000407800304f980083
:104c74001e0090004800de00004078006f40600095
:104c84000044a000204f98006a00470022c0b300ef
:104c940080007800a0c3b300d3fa07000e08900088
:104ca4000000e000510032000e0890006700400050
:104cb4004300de00504798005e4190006247980030
:104cc4006e409000f84f50000200360080c1b300df
:104cd400604798000e08900000407800674060002c
:104ce40000404000304f9800be4890000e089000ed
:104cf4004300de0000417800400020000010dd0089
:104d040000c07000304f98000e0890004700de008d
:104d140000407800204f98006a00470022c0b3008a
:104d240080007800d0c3b300affa07006c004700de
:104d34006e429000fe019000f2c3b30011c0b300b4
:104d4400d2fa0700de4090006e40900000c0500090
:104d5400504798006e4090000080fb00fe009000d9
:104d640000804000700798001a003700de40900071
:104d7400614798006e409000f04f500002003600ea
:104d840020c1b3006047980000022000f7fa070032
:104d9400004080000050a100004088006e40900058
:104da40000417800fe009000f0c3b3008efa0700c3
:104db400de4090006e40900000c0500050479800c4
:104dc4006e4090000080fb00fe00900000804000d8
:104dd400700798005e4090000004e000e3ff3a0092
:104de4004e4890001ee8b700070037004e48900078
:104df4000004e000040032004e4890002afa070044
:104e04004e4890001ee8b7001ec8bf000004e00032
:104e1400090032000e5890000004e0000600320041
:104e240000082000d1fa070001408000f0f52f00af
:104e340000806000004088002e0890000000e00020
:104e4400110032001e0090000000e0000e003a0045
:104e54001e0890000000e0000b003a0060c9b30097
:104e640011fa07000040eb00304f98000040eb00bf
:104e7400204f98006a00470022c0b30080007800e9
:104e8400a0c3b30058fa07001e0890000000e00019
:104e94009e0032006e509000e14f400004003a0042
:104ea400e10120003007200097fa070029003700ad
:104eb40030072000adfa07002600370020c1b300f8
:104ec400704798001e4090000004e0000500320086
:104ed4007e4090009e4f5000020036001e41780034
:104ee400724798007e4090009e0890001efa0700ca
:104ef4007e4090000080fb009e08900000804000ef
:104f0400100f98009e4078007e40900000cf500023
:104f1400ce4090007e40900000c040004047980082
:104f2400004080000050a100004088001e40900016
:104f34000004e000050032001e4078000004e00098
:104f440002003a00c0cdb3007100370030072000e2
:104f540086fa070001408000000220000080600003
:104f64000000e00005003200014080000004200041
:104f7400008060000000e000d0ff32003005200017
:104f84007afa070001408000410798000028ef00ea
:104f94007e5090000004e000090032004e009000b2
:104fa400710060000000e00005003a007e509000af
:104fb400bdf90700fe509000e2812000014978000d
:104fc40090c3b300f7f907007f4060007047980072
:104fd4001e4090000004e000080032007e40900073
:104fe4009e4f5000050036001e417800724798001d
:104ff4004e0090000090a000400798007e40900072
:105004000004e000030032007e4090009e089000ff
:10501400d5f907009e4078007e40900000cf5000f4
:10502400ce4090007e40900000c040004047980071
:105034002e0890000000e000060032004e40900070
:105044000080fb004300dd00800078002e08900003
:1050540001087800ce0090009021200000806000bc
:105064000000e000290032004e0090006100600062
:10507400004078000004e00002003200f0cdb300ec
:10508400230037004e009000680060000000e0003c
:1050940007003200e18120009140780010c9b3007c
:1050a40080cf500002003a00e0cdb3001800370072
:1050b400ce00900000202000008060000000e0008e
:1050c40002003200c0cdb30011003700ce009000c2
:1050d40000102000008060000000e00002003200a8
:1050e400d0cdb3000a003700ce009000004020006d
:1050f400008060000000e00002003200b0cdb30088
:105104000300370000c0eb00010037000040eb0053
:105114000080fa00000006000000fa0003c8bf0087
:105124000080fb00e10f50000c003200e10f500042
:1051340003003c000000e000060032000d003700d0
:10514400e20f500007003200e30f50000700320066
:105154000800370021fb070007003700dcfb0700cd
:1051640005003700eafb070003003700f8fb0700df
:105174000100370019fb07000080fa000000060058
:105184000000fa0003c8bf000080fb00e10f5000dc
:105194000c003200e10f500003003c000000e0006e
:1051a400060032000d003700e20f50000700320005
:1051b400e30f500007003200080037005efb0700d1
:1051c40007003700cffb070005003700ddfb0700b1
:1051d40003003700ebfb07000100370056fb070014
:1051e4000080fa00000006000000fa0030032000ee
:1051f40010128800100020002012880000002800ef
:10520400001288000080fa00000006000400fa0082
:10521400000f7800110798000000000000128000c1
:10522400620060000000e000fcff3a001e0078000d
:10523400104078000080fb0040128800000000004d
:105244000112800000022000008060000000e000e5
:10525400fbff3a0040128000804078001e0090005e
:10526400014878000080fa00000006001800fa00e7
:10527400100f9800210f9800320f98000000eb00e7
:10528400000f78000000eb00100798000000eb000e
:10529400700798000000eb00000f98001000200039
:1052a400600798001e0890000000e00005003a0026
:1052b4000000eb005007980070004700200798009a
:1052c40004003700ee009000510798009e089000fb
:1052d400210798003e0890000000e00005003a0015
:1052e4000000eb00400798006e004700300798006c
:1052f40005003700ee00900041079800be089000ba
:105304003107980000000000001280006200600075
:105314000000e000fcff3a001d003700001280008e
:10532400620060000000e00009003a002e009000d6
:10533400104078000080fb0040128800ae0090000e
:105344005e00900000804000200798001e0fe800d7
:105354000112800000022000008060000000e000d4
:105364000b003a0040128000804078003e0090001c
:1053740001487800be0090004e009000008040007c
:10538400300798001e0090000000e8001007980005
:105394002e0890009e007800808f5000dfff3900b7
