:020000040000fa
:080000000002040000000000f2
:020000040000fa
:04000800ee03000003
:020000040000fa
:04000c0018030000d5
:020000040000fa
:040010005a0300008f
:020000040000fa
:0400140038030000ad
:020000040000fa
:040018007a03000067
:020000040000fa
:04001c00ee030000ef
:020000040000fa
:04002000ee030000eb
:020000040000fa
:04002400ee030000e7
:020000040000fa
:04002800ee030000e3
:020000040000fa
:04002c00ee030000df
:020000040000fa
:04003000ee030000db
:020000040000fa
:04003400ee030000d7
:020000040000fa
:04003800ee030000d3
:020000040000fa
:04003c00ee030000cf
:020000040000fa
:04004000ee030000cb
:020000040000fa
:04004400ee030000c7
:020000040000fa
:04004800b8030000f9
:020000040000fa
:04004c00ee030000bf
:020000040000fa
:04005000ee030000bb
:020000040000fa
:04005400ee030000b7
:020000040000fa
:04005800ee030000b3
:020000040000fa
:04005c00ee030000af
:020000040000fa
:04006000ee030000ab
:020000040000fa
:04006400ee030000a7
:020000040000fa
:04006800ee030000a3
:020000040000fa
:04006c00ee0300009f
:020000040000fa
:04007000ee0300009b
:020000040000fa
:04007400ee03000097
:020000040000fa
:040078009a030000e7
:020000040000fa
:04007c00ee0300008f
:020000040000fa
:04008000ee0300008b
:020000040000fa
:04008400ee03000087
:020000040000fa
:04008800ee03000083
:020000040000fa
:04008c00ee0300007f
:020000040000fa
:04009000ee0300007b
:020000040000fa
:04009400ee03000077
:020000040000fa
:04009800ee03000073
:020000040000fa
:04009c00ee0300006f
:020000040000fa
:0400a000ee0300006b
:020000040000fa
:0400a400ee03000067
:020000040000fa
:0400a800ee03000063
:020000040000fa
:0400ac00ee0300005f
:020000040000fa
:0400b000ee0300005b
:020000040000fa
:0400b400ee03000057
:020000040000fa
:0400b800ee03000053
:020000040000fa
:0400bc00ee0300004f
:020000040000fa
:0400c000ee0300004b
:020000040000fa
:0400c400ee03000047
:020000040000fa
:0400c800ee03000043
:020000040000fa
:0400cc00ee0300003f
:020000040000fa
:0400d000ee0300003b
:020000040000fa
:0400d400ee03000037
:020000040000fa
:0400d800ee03000033
:020000040000fa
:0400dc00ee0300002f
:020000040000fa
:0400e000ee0300002b
:020000040000fa
:0400e400ee03000027
:020000040000fa
:0400e800ee03000023
:020000040000fa
:0400ec00ee0300001f
:020000040000fa
:0400f000ee0300001b
:020000040000fa
:0400f400ee03000017
:020000040000fa
:0400f800ee03000013
:020000040000fa
:0400fc00ee0300000f
:020000040000fa
:04010000ee0300000a
:020000040000fa
:04010400ee03000006
:020000040000fa
:04010800ee03000002
:020000040000fa
:04010c00ee030000fe
:020000040000fa
:04011000ee030000fa
:020000040000fa
:04011400ee030000f6
:020000040000fa
:04011800ee030000f2
:020000040000fa
:04011c00ee030000ee
:020000040000fa
:04012000ee030000ea
:020000040000fa
:04012400ee030000e6
:020000040000fa
:04012800ee030000e2
:020000040000fa
:04012c00ee030000de
:020000040000fa
:04013000ee030000da
:020000040000fa
:04013400ee030000d6
:020000040000fa
:04013800ee030000d2
:020000040000fa
:04013c00ee030000ce
:020000040000fa
:04014000ee030000ca
:020000040000fa
:04014400ee030000c6
:020000040000fa
:04014800ee030000c2
:020000040000fa
:04014c00ee030000be
:020000040000fa
:04015000ee030000ba
:020000040000fa
:04015400ee030000b6
:020000040000fa
:04015800ee030000b2
:020000040000fa
:04015c00ee030000ae
:020000040000fa
:04016000ee030000aa
:020000040000fa
:04016400ee030000a6
:020000040000fa
:04016800ee030000a2
:020000040000fa
:04016c00ee0300009e
:020000040000fa
:04017000ee0300009a
:020000040000fa
:04017400ee03000096
:020000040000fa
:04017800ee03000092
:020000040000fa
:04017c00ee0300008e
:020000040000fa
:04018000ee0300008a
:020000040000fa
:04018400ee03000086
:020000040000fa
:04018800ee03000082
:020000040000fa
:04018c00ee0300007e
:020000040000fa
:04019000ee0300007a
:020000040000fa
:04019400ee03000076
:020000040000fa
:04019800ee03000072
:020000040000fa
:04019c00ee0300006e
:020000040000fa
:0401a000ee0300006a
:020000040000fa
:0401a400ee03000066
:020000040000fa
:0401a800ee03000062
:020000040000fa
:0401ac00ee0300005e
:020000040000fa
:0401b000ee0300005a
:020000040000fa
:0401b400ee03000056
:020000040000fa
:0401b800ee03000052
:020000040000fa
:04020800ee03000001
:020000040000fa
:04020c0018030000d3
:020000040000fa
:040210005a0300008d
:020000040000fa
:0402140038030000ab
:020000040000fa
:040218007a03000065
:020000040000fa
:04021c00ee030000ed
:020000040000fa
:04022000ee030000e9
:020000040000fa
:04022400ee030000e5
:020000040000fa
:04022800ee030000e1
:020000040000fa
:04022c00ee030000dd
:020000040000fa
:04023000ee030000d9
:020000040000fa
:04023400ee030000d5
:020000040000fa
:04023800ee030000d1
:020000040000fa
:04023c00ee030000cd
:020000040000fa
:04024000ee030000c9
:020000040000fa
:04024400ee030000c5
:020000040000fa
:04024800b8030000f7
:020000040000fa
:04024c00ee030000bd
:020000040000fa
:04025000ee030000b9
:020000040000fa
:04025400ee030000b5
:020000040000fa
:04025800ee030000b1
:020000040000fa
:04025c00ee030000ad
:020000040000fa
:04026000ee030000a9
:020000040000fa
:04026400ee030000a5
:020000040000fa
:04026800ee030000a1
:020000040000fa
:04026c00ee0300009d
:020000040000fa
:04027000ee03000099
:020000040000fa
:04027400ee03000095
:020000040000fa
:040278009a030000e5
:020000040000fa
:04027c00ee0300008d
:020000040000fa
:04028000ee03000089
:020000040000fa
:04028400ee03000085
:020000040000fa
:04028800ee03000081
:020000040000fa
:04028c00ee0300007d
:020000040000fa
:04029000ee03000079
:020000040000fa
:04029400ee03000075
:020000040000fa
:04029800ee03000071
:020000040000fa
:04029c00ee0300006d
:020000040000fa
:0402a000ee03000069
:020000040000fa
:0402a400ee03000065
:020000040000fa
:0402a800ee03000061
:020000040000fa
:0402ac00ee0300005d
:020000040000fa
:0402b000ee03000059
:020000040000fa
:0402b400ee03000055
:020000040000fa
:0402b800ee03000051
:020000040000fa
:0402bc00ee0300004d
:020000040000fa
:0402c000ee03000049
:020000040000fa
:0402c400ee03000045
:020000040000fa
:0402c800ee03000041
:020000040000fa
:0402cc00ee0300003d
:020000040000fa
:0402d000ee03000039
:020000040000fa
:0402d400ee03000035
:020000040000fa
:0402d800ee03000031
:020000040000fa
:0402dc00ee0300002d
:020000040000fa
:0402e000ee03000029
:020000040000fa
:0402e400ee03000025
:020000040000fa
:0402e800ee03000021
:020000040000fa
:0402ec00ee0300001d
:020000040000fa
:0402f000ee03000019
:020000040000fa
:0402f400ee03000015
:020000040000fa
:0402f800ee03000011
:020000040000fa
:0402fc00ee0300000d
:020000040000fa
:04030000ee03000008
:020000040000fa
:04030400ee03000004
:020000040000fa
:04030800ee03000000
:020000040000fa
:04030c00ee030000fc
:020000040000fa
:04031000ee030000f8
:020000040000fa
:04031400ee030000f4
:020000040000fa
:04031800ee030000f0
:020000040000fa
:04031c00ee030000ec
:020000040000fa
:04032000ee030000e8
:020000040000fa
:04032400ee030000e4
:020000040000fa
:04032800ee030000e0
:020000040000fa
:04032c00ee030000dc
:020000040000fa
:04033000ee030000d8
:020000040000fa
:04033400ee030000d4
:020000040000fa
:04033800ee030000d0
:020000040000fa
:04033c00ee030000cc
:020000040000fa
:04034000ee030000c8
:020000040000fa
:04034400ee030000c4
:020000040000fa
:04034800ee030000c0
:020000040000fa
:04034c00ee030000bc
:020000040000fa
:04035000ee030000b8
:020000040000fa
:04035400ee030000b4
:020000040000fa
:04035800ee030000b0
:020000040000fa
:04035c00ee030000ac
:020000040000fa
:04036000ee030000a8
:020000040000fa
:04036400ee030000a4
:020000040000fa
:04036800ee030000a0
:020000040000fa
:04036c00ee0300009c
:020000040000fa
:04037000ee03000098
:020000040000fa
:04037400ee03000094
:020000040000fa
:04037800ee03000090
:020000040000fa
:04037c00ee0300008c
:020000040000fa
:04038000ee03000088
:020000040000fa
:04038400ee03000084
:020000040000fa
:04038800ee03000080
:020000040000fa
:04038c00ee0300007c
:020000040000fa
:04039000ee03000078
:020000040000fa
:04039400ee03000074
:020000040000fa
:04039800ee03000070
:020000040000fa
:04039c00ee0300006c
:020000040000fa
:0403a000ee03000068
:020000040000fa
:0403a400ee03000064
:020000040000fa
:0403a800ee03000060
:020000040000fa
:0403ac00ee0300005c
:020000040000fa
:0403b000ee03000058
:020000040000fa
:0403b400ee03000054
:020000040000fa
:0403b800ee03000050
:020000040000fa
:100400008fb220000eff27000e01880000000000c0
:10041000000020000000e000020032000001200087
:100420002002880014000700ee0007000000e00032
:1004300003003a00c0bc2200010020000200370087
:100440000000200001002000810f70000100320038
:1004500014000700000020000000e000020032004d
:1004600000000200000000008c2b020000000000d1
:100470000040da000000fe004440a90020002000f7
:100480000000e0000300320010002000900188000e
:100490004440a800000006008a1f78008b1f7800e7
:1004a00000000600a1028800800478000000eb0034
:1004b0001f003700e284440054a0b4009905ba003c
:1004c000e284440054a0b4009906ba00e2844400d7
:1004d00054a0b4000006eb00476fde00fd07b20039
:1004e000ae018800636ce10003003a00eaff0700f8
:1004f0000000eb000e003700606ce10008003a00dd
:10050000004deb000a05e800020039003420ec0041
:100510000af0a0008b05e900f9ff3e000400370057
:100520006168e100010032000086eb000b0007006b
:1005300019c7ba001905ba000e04e00003003a001a
:100540000a00e000dbff3a0000000600fe07b200f0
:10055000ae0288008a047800f5ff37000cd0a300b3
:10056000e20f4d001c00390089027800354dba00b9
:100570000a05e800020039003420ec000af0a0006f
:100580008b05e9000f003200254dba000a05e8008e
:10059000020039003420ec000af0a0008b05e900cd
:1005a000080032000c00e0000600320015cdba0051
:1005b0000a05e800020039003420ec000af0a0002f
:1005c0008b05e9008984e80054a0b4000b00e0002a
:1005d000e2ff3a00000006009902ba00055d7800cb
:1005e0008b05e900f7ff3200c82ade00055d7800c0
:1005f0008b05e900f3ff32000c00e000f1ff320050
:1006000019ddba00eeff3700e02a04000000000008
:100610006a2b040000000000482b040000000000ca
:100620008a29040000000000781704000000000080
:100630003600f800809fbe00829fbe00849fbe00ef
:10064000869fbe000000fa008020a9000000eb0099
:10065000bf1407000080fa004f03be004f02be0027
:100660004f01be004f00be003600f90000400600fa
:100670003600f800809fbe00829fbe00849fbe00af
:10068000869fbe000000fa00b61407008040a90053
:1006900010002000ae1407000080fa004f03be00d7
:1006a0004f02be004f01be004f00be003600f900f1
:1006b000004006003600f800809fbe00829fbe000a
:1006c000849fbe00869fbe000000fa008060a900e3
:1006d000200020009e1407000080fa004f03be0097
:1006e0004f02be004f01be004f00be003600f900b1
:1006f000004006003600f800809fbe00829fbe00ca
:10070000849fbe00869fbe000000fa008080a90082
:10071000300020008e1407000080fa004f03be0056
:100720004f02be004f01be004f00be003600f90070
:10073000004006003600f800809fbe00829fbe0089
:10074000849fbe00869fbe000000fa00cc13070005
:100750008680a9000080fa004f03be004f02be0051
:100760004f01be004f00be003600f90000400600f9
:100770003600f800809fbe00829fbe00849fbe00ae
:10078000869fbe000000fa00204180000000e000cb
:1007900002003200204180000000010070b2200001
:1007a000104078008040e80070b2200001487800d6
:1007b00060b2200011c0b300014878008500a90094
:1007c0000080fa004f03be004f02be004f01be0082
:1007d0004f00be003600f900004006000040da007d
:1007e0000000fe00000005006022b80006022000a4
:1007f0000000d0008180d2000482d2008582d20025
:100800000000a0000202520083825a00030031005f
:100810000202420083824a000000a1000603e900b0
:10082000f3ff3a0000000600889fbe008a9fbe00ca
:1008300030044200b0844a0030054b0090854b00e4
:100840006000b1000898be000a90be000440e100bc
:1008500005c8e10006d0e10007d8e1000200310040
:10086000680040001008e8004f05be004f04be00bd
:1008700000000600889fbe008a9fbe003004be00b4
:100880002005be000418540005985c0006185d00a1
:1008900007985d00110020000440e10005c8e10058
:1008a00006d0e10007d8e100010039008000eb002c
:1008b000108810004f05be004f04be000000060067
:1008c0001200fa00889fbe008a9fbe008c9fbe0067
:1008d000e0b79f00f1b79f0082bf9f0093bf9f00ca
:1008e0000605be000404be000000eb00d0b79f0068
:1008f000c0b79f00b0b79f00a0b79f0090b79f0000
:10090000000678005fb19700cfb0970082014100e8
:100910003fb097000200e00004003d0037000700f0
:100920007e805700c0ff0700030037003300070038
:100930007e805700cfff0700dfb697000d00e00074
:100940000c0035006fb29700ffb297000fbb970005
:100950009fbb970010002000010020006011b8002c
:1009600000027200818272000203730083837300ad
:100970001b0007000c06e80001042000810f560050
:10098000e0ff3a000d00e00004003d000802be0058
:100990000a03be007e805700a3ff07005fa89700f0
:1009a0000000e00005003a001fb29700afb29700c8
:1009b0003fb39700cfb39700090007006fb09700cf
:1009c000ffb097000fb997009fb997004f06be0080
:1009d0004f05be004f04be000080fa000000060074
:1009e0000100070000000600a4b79f00b5b79f00f4
:1009f000c6b79f00d7b79f00000006004f09de0072
:100a000082817100b3b79f004f01de0081804000fa
:100a100082807000a1b79f008fb097004f09de0061
:100a2000000040000200700090b79f007fa8970070
:100a30004f01de00818040008280700081b79f00fe
:100a40000d0007004f3ade00000040000400700077
:100a5000f0af9f00080007000402420085824a00b0
:100a600006034b0087834b00dfff07000802be0030
:100a70000a03be00000006002fb29700bfb2970025
:100a80004fb39700dfb3970000000600881f78007f
:100a900018002000881f780089ff07008f87e90071
:100aa0004f04780000000600801feb0084ff070061
:100ab0008f87e90000000600889fbe008a9fbe0065
:100ac000e00f5000e08f5800e00f5900e08f590010
:100ad0000c003d006044b8006055b80000005400b0
:100ae00081805c0002015d0083815d0018002000b0
:100af0001500070008003d00180007000004eb0087
:100b0000050037000004eb000f00070002003d0065
:100b10001200070018002000dcff07000800e000ba
:100b2000060032006022b8006033b80000005200b6
:100b300081805a0002015b0083815b004f05be008b
:100b40004f04be0000000600e00f5200e08f5a0084
:100b5000e00f5b00e08f5b00000006006044b8001f
:100b60006055b8000402540085825c0006035d00f5
:100b700087835d0000000600889fbe008a9fbe003c
:100b80008c1f7800e00f5000e08f5800e00f5900f4
:100b9000e08f59000d003d006044b8006055b8007a
:100ba0000000540081805c0002015d0083815d00d3
:100bb0001c0020000820e10009a8e1000ab0e100c3
:100bc0000bb8e1000d003d00080037000006eb0007
:100bd000e00f5200e08f5a00e00f5b00e08f5b00f7
:100be00006003d006044b8006055b800040254009f
:100bf00085825c0006035d0087835d00aaff070015
:100c00000c00e000060032006022b8006033b8003b
:100c10000000520081805a0002015b0083815b006a
:100c20004f0678004f05be004f04be0000000600ce
:100c3000889fbe008a9fbe008c1f78000006eb00d4
:100c4000e00f5000e08f5800e00f5900e08f59008e
:100c500007003d006044b8006055b8000000540033
:100c600081805c0002015d0083815d001c0020002a
:100c7000e00f5200e08f5a00e00f5b00e08f5b0056
:100c800007003d006044b8006055b80004025400fd
:100c900085825c0006035d0087835d000c00a20076
:100ca0000c0007000c00e000060032006022b800d3
:100cb0006033b8000000520081805a0002015b00de
:100cc00083815b004f0678004f05be004f04be00d5
:100cd00000000600889fbe008a9fbe008c9fbe0059
:100ce0000404b8000506b8008904460060854e007b
:100cf0000606b8000a054600e0854e000706b80063
:100d00008b054600040eb800890446000a854e0093
:100d1000e0854d00050eb8000a0546008b854e00a3
:100d2000060eb8008b0546000416b8000a054600fa
:100d30008b854e000516b8008b054600041eb800d2
:100d40008b0546000800be000a01be004f06be002b
:100d50004f05be004f04be00000006008001780071
:100d600002003700b15978000201e9000200e000fa
:100d7000fcff3a0000000600800178000200370006
:100d8000815978000201e9000200e000fcff3a000e
:040d90000000060059
:020000040000fa
:100d94000e00fa00300798004107980052079800a7
:100da400434f980065004700800178000e017800e9
:100db4003e009000ce009000890707005e4090003e
:100dc400ce499000004178008e0078005e009000cb
:100dd400dc0707005e4090000080fa000000060077
:100de4000600fa0010079800210798000e01780009
:100df40021c0b300a0c2b300060a07009e407800d9
:100e04001e009000014878009e4090002e00900043
:100e1400014878000080fa00000006000e00fa0085
:100e2400600798006e009000006890000080fb004e
:100e34002007980010002000400798006e009000e2
:100e4400630f40000028ef00820120008000eb00c7
:100e540080822000c7ff07006e00900010407800d9
:100e64000080fb000000400000407800ee4060007d
:100e740000cab30080c070006e0090001040900063
:100e84000080fb004200de0000407800614060000a
:100e940000c0700080407800808220000148780003
:100ea4006e009000104090000080fb004600dd00c2
:100eb400804078006e009000204090000080fb008d
:100ec4004400dd00004078000043b20000c0700020
:100ed4008040780090822000014878006e009000e5
:100ee400b01090002010900043c0b3009282200004
:100ef400a7ff0700604798006e4090000080fb0049
:100f04000000e800ee009000816890008180fb0002
:100f1400c408de00014178008182200082707800dc
:100f24006e4090000080fb000080e800ee0090001e
:100f3400816890008180fb00c408dd0001417800d5
:100f440081822000827078006e40900000c0e8002a
:100f5400304798002e009000204798001e0037006c
:100f64003e4090000080fb00be4090008180fb006a
:100f74008282200062c178009e007800914078004f
:100f84008180fb00c408de008140780001417100cb
:100f940081822000827078003e4090000040e8008a
:100fa400304798003e4090000080fb009e0078008f
:100fb400914078008180fb00c408dd000141780085
:100fc40081822000827078002e409000684050009a
:100fd400204798001e0fe8002e409000e74f500075
:100fe400dfff3e003e4090000080fb00be409000ca
:100ff4008180fb0082822000e2c0780001417800f9
:10100400ee009000916890008180fb00c308dd0031
:1010140081407800e8c0600081407100014178009f
:1010240081822000827078006e4090000080fb0076
:101034004300dd00800078002e0090000080400016
:101044007500400020079800e80047006a00470048
:1010540017c0b3000043eb0015c0b30001027800d1
:10106400800178002e0190008182200000c9b30025
:101074008d0e07000080fa00000006000400fa004c
:10108400000f7800214798007084200010407800f9
:101094000080fb004500dd000040780002c2b30080
:1010a4008240600020842000104078000080fb0013
:1010b4004300dd00004078007840600080c070008c
:1010c40030842000104078000080fb004200dd00e6
:1010d400004078006440600080c0700040842000bc
:1010e400104078006340600000c0700080407800c9
:1010f4001e007800014878009e00e800508420001b
:10110400104078000080fb004600dd0000417800bc
:1011140060842000104078000080fb004500dd0062
:10112400004078000042b200004171002e4090005f
:101134000080fb0000004000004078007e4060001a
:1011440000407100804878000080fa00000006002a
:101154001000fa00400798005107980062079800b1
:10116400730798000040eb001047980040c6b30096
:10117400004f780000c1b3004809070020479800d9
:101184008040eb0080822000bcff070000012000ab
:101194002007980080842000904078006400470075
:1011a40017c0b3000043eb008142780000027800ce
:1011b4008001eb00020120008182200080c9b3007d
:1011c400390e0700104798001e4090000004e0000c
:1011d400080032001e4090003800370090c3b3006e
:1011e4002e0907000044b2000004e0000a003a009f
:1011f40001003700000000001e80fb000000ea0030
:101204004f00de00004078001e4fe9000004e000bb
:10121400f2ff3a000100370000000000de009000f9
:101224004e009000eefe0700ae40900000cfb300e9
:1012340000c06000b040b3008040780000c1b3003b
:101244003e090700950d0700ee00900080487800e5
:10125400ae40900000cfb30000c06000c040b300b7
:101264008040780000c1b300340907008b0d0700eb
:10127400fe009000804878000001200020079800bc
:101284008084200010417800e40047006600470095
:101294008043eb000043eb008242780001027800b7
:1012a400800178000001eb008000eb000040eb00bf
:1012b400fd0d0700104798001e4090000080fa00c2
:1012c400000006000a00fa00200798006147980011
:1012d40072479800034f9800144f98000040eb00a9
:1012e400004f780000012000100798006e40900025
:1012f4000080fb000000e00015003200810920009e
:10130400810f500021003a00fe40900080822000ae
:101314005aff070080842000104178002e009000be
:101324008e80e80017c0b300d6c9b30082427800ab
:1013340001027800800178000201200081822000ef
:1013440080c9b300d80d0700004f78001d00370096
:1013540080842000104178002e0090008e80e800e8
:1013640017c0b300d6c9b3008242780001027800e6
:10137400800178000001eb008000eb000040eb00ee
:10138400c90d0700004f78000e003700808420004c
:10139400104178002e0090008e80e80017c0b30042
:1013a400d6c9b30082427800010278008001780037
:1013b4000001eb008000eb006e409000ba0d0700c6
:1013c400004f7800f0cdb3009e40780080cf5000ed
:1013d40002003a000040eb007f0037001e40780016
:1013e4000004e00002003d0000c0eb007a0037007a
:1013f400000c2000100798000e4890000004e00044
:10140400020032001e48900001003700f0c9b3000a
:1014140081842000114178008e80e8008043eb0035
:101424000043780082427800010278008382200021
:101434000001eb00818220000040eb009a0d0700c0
:10144400004f780080822000904078002e009000a9
:101454002140980090822000904078002e00900057
:10146400314098001e4078000004e000030035007d
:101474001e009000ef0f500002003e0000c0eb0081
:10148400550037001e009000670040004300de0056
:101494000040780080c0e9002e00900001509800c0
:1014a4002e00900000509000ec4f500003003600d6
:1014b4002e009000c1c0b300015098002e0090008f
:1014c400005090000081fb00a18220002e009000bb
:1014d4006400400020fe07000e4890000004e00075
:1014e400140032002e009000f30040002e00900003
:1014f400740040003afe07002e0090002040900047
:101504008080fb00800f200000806000c280de002d
:101514002e009000005090000080fb00808f50004f
:101524000200320000c0eb002b00370010c0b300f3
:101534002900370000022000100798008084200052
:10154400104178002e009000710040008e80e80069
:101554008043eb001e4b9000824278000102780029
:10156400800178000001eb008000eb000040eb00fc
:101574004d0d0700004f78002e009000f30040004e
:101584002e0090007400400015fe07001e407800f5
:101594000004e00002003d0000c0eb000e00370034
:1015a4002e009000204090008080fb00800f2000df
:1015b40000806000c280de002e0090000050900089
:1015c4000080fb00808f50000200320000c0eb005e
:1015d4000100370010c0b3000080fa0000000600cc
:1015e4000a00fa00200798006147980072479800a3
:1015f400034f9800144f98000040eb00004f780010
:10160400000c2000100798006e4090000080fb0042
:101614000000e0001a00320081092000810f500010
:101624002b003a00fe4090008082200093fe0700c9
:101634000e4890000004e000020032001e489000b2
:10164400010037000040eb00818420001141780044
:101654008e80e8008043eb000043780082427800eb
:101664000102780083822000020120008182200090
:1016740080c9b3000c0d0700004f78002700370025
:101684000e4890000004e000020032001e48900062
:10169400010037000040eb008184200011417800f4
:1016a4008e80e8008043eb0000437800824278009b
:1016b40001027800838220000001eb008000eb002f
:1016c4000040eb00f80c0700004f780013003700cf
:1016d4000e4890000004e000020032001e48900012
:1016e400010037000040eb008184200011417800a4
:1016f4008e80e8008043eb0000437800824278004b
:1017040001027800838220000001eb008000eb00de
:101714006e409000e40c0700004f7800f0cdb30059
:101724009e40780080cf500002003a000040eb0059
:101734006500370080822000904078002e009000e1
:101744002140980090822000904078002e00900064
:10175400314098001e4078000004e000030035008a
:101764001e009000ef0f500002003e0000c0eb008e
:10177400550037001e009000670040004300de0063
:101784000040780080c0e9002e00900001509800cd
:101794002e00900000509000ec4f500003003600e3
:1017a4002e009000c1c0b300015098002e0090009c
:1017b400005090000081fb00a18220002e009000c8
:1017c4006400400064fd07000e4890000004e0003f
:1017d400140032002e009000f30040002e00900010
:1017e400740040007efd07002e0090002040900011
:1017f4008080fb00800f200000806000c280de003b
:101804002e009000005090000080fb00808f50005c
:101814000200320000c0eb002b00370010c0b30000
:10182400290037000002200010079800808420005f
:10183400104178002e009000710040008e80e80076
:101844008043eb001e4b9000824278000102780036
:10185400800178000001eb008000eb000040eb0009
:10186400910c0700004f78002e009000f300400018
:101874002e0090007400400059fd07001e407800bf
:101884000004e00002003d0000c0eb000e00370041
:101894002e009000204090008080fb00800f2000ec
:1018a40000806000c280de002e0090000050900096
:1018b4000080fb00808f50000200320000c0eb006b
:1018c4000100370010c0b3000080fa0000000600d9
:1018d4000800fa0020079800310798000002200051
:1018e400100798008082200011ccb30001487800d2
:1018f4002e009000904078009082200001487800eb
:101904002e0090000000e80090407800a0822000a3
:101914000148780080842000904078000e80e80020
:1019240017c0b3000043eb00814278000002780046
:10193400be019000820120008182200000c9b30012
:10194400590c0700004f78001e4078000004e000a6
:1019540002003d00d0cbb300010037000040eb0093
:101964000080fa00000006001200fa0070079800d8
:10197400010f98000040eb00104798004900370021
:101984007e00900071004000eb004700d0ff07008c
:10199400204798002e4090000004e000020032002e
:1019a4002e409000430037008082200061ccb300b9
:1019b400014878000e089000904078003e4890005e
:1019c40080c0680090822000014878000e089000d2
:1019d4000000e800904078004e48900080c0680005
:1019e400a0822000014878007e0090009050900072
:1019f400b0822000014878007e009000a050900042
:101a0400c0822000014878000002200020079800ce
:101a14008084200010417800e400470066004700fd
:101a240017c0b3000043eb00824278000102780043
:101a340080017800820220008182200000c9b30066
:101a4400190c0700004f78001e4078000004e000e5
:101a540002003d00e0cbb300160037000e089000f2
:101a64000080e800000f9800fe4090007e00900087
:101a74002050900080cf500005003a00ee409000c6
:101a84007e0090001050900080cf50000200320081
:101a9400e0cbb300070037001e4090000040e80090
:101aa400104798001e409000e14f5000b4ff3600ec
:101ab4001e4078000080fa00000006000a00fa00c8
:101ac4002007980031079800420798001002200070
:101ad400100798004e00900051cab30001487800e6
:101ae4008082200051ccb300014878003e00900071
:101af4009040780090822000014878003e009000d9
:101b04000000e80090407800a0822000014878009e
:101b14003e0090000080e8009040780000cfb300c1
:101b240080c06000b0822000014878002e00900040
:101b34007100400043c0b30022c0b30080007800ad
:101b4400b08220007f0407000e80e80017c0b300b5
:101b54000043eb0080c2eb00000278008382200087
:101b6400c20220008182200010c9b300ce0b0700fe
:101b7400004f7800e0cdb3009e40780080cf500045
:101b840007003a001e0090000000e000040032004c
:101b940080822000904078004e0090000148780038
:101ba4001e4078000080fa00000006001000fa00d1
:101bb4004007980051079800424f9800534f9800ef
:101bc40074079800000220003007980000c9b30091
:101bd4002047980080842000904078003147980086
:101be4007e00900051cab300014878000040eb0029
:101bf40010479800440037004e00900071004000e8
:101c0400e400470032ff0700004f78001e407800d0
:101c14000004e00040003a001e409000e14f5000f4
:101c240008003a0010c9b3002047980010022000b1
:101c340030079800de489000414f980000c0eb0048
:101c4400304798008082200041ccb30001487800de
:101c54005e009000904078004e40900080c0680084
:101c640090822000014878005e0090000000e800a7
:101c7400904078005e40900080c06800a082200000
:101c8400014878004e4890000080fb004500dd00cc
:101c940080407800b0822000014878004e00900017
:101ca4007100400053c0b30022c0b300800078002c
:101cb400b0822000230407006600470017c0b30069
:101cc4000043eb00be4290000002780083822000b3
:101cd400b2022000818220002e409000720b070087
:101ce400004f78001e4078000004e0000c003a0029
:101cf4005e0090000080e800500798001e409000ad
:101d04000040e800104798001e409000e14f50004a
:101d1400b9ff36000300370000000000010037005f
:101d240000000000e0cdb3009e40780080cf50005a
:101d340007003a003e0090000000e000040032007a
:101d440080822000904078007e0090000148780056
:101d54001e4078000080fa00000006001400fa001b
:101d640040079800214f9800620798007307980075
:101d7400040f9800150f98001002200030079800f7
:101d84001e08900051cab300014878004e0090002c
:101d940071004000e4004700cdfe0700004f7800ca
:101da4001e4078000004e000020032001e4078006b
:101db400740037008082200031ccb30001487800e1
:101dc4002e4890000080fb004600dd008040780033
:101dd400908220000148780063c0b3009282200002
:101de4006e009000fe009000e9fb07001047980089
:101df4000e089000904078004e40900000c06800ab
:101e0400204798001e4090000080fb000000e8007e
:101e14009e4090008180fb008100e80082822000c7
:101e2400e2c0780001417800ae4090008180fb0060
:101e3400c208de00814078008140710001417800d1
:101e440081822000827078001e4090000080fb0098
:101e54000080e800ae4090008180fb00c608dd00f1
:101e64000141780081822000827078000e08900081
:101e74000000e800904078005e40900000c06800d8
:101e8400204798001e4090000080fb000080e8007e
:101e94009e4090008180fb008180e80082822000c7
:101ea400e2c0780001417800ae4090008180fb00e0
:101eb400c208de0081407800814071000141780051
:101ec40081822000827078001e4090000080fb0018
:101ed40063004000ae4090008180fb00c608dd0036
:101ee4000141780081822000827078004e009000c9
:101ef400f10040001e4090000080fb0063004000a1
:101f040000017800808220000000410063c0b3001b
:101f140022c0b3008b0307001e4090000080fb002a
:101f24004300dd00a002b000e600470017c0b30084
:101f34000043eb0080c2eb000102780083822000a2
:101f4400000178008182200010c9b300d60a07007e
:101f540030479800be409000e0cdb30080cf5000e1
:101f640007003a003e0090000000e0000400320048
:101f740080822000904078001e089000014878007c
:101f84003e4090000080fa00000006001000fa00b5
:101f9400200798006147980042079800530798006b
:101fa400444f9800750798004e4890000080fb004d
:101fb4000080e8004400dd000000e80010079800fd
:101fc4008082200021ccb300014878006e4090004c
:101fd4000080fb004600dd008040780090822000f5
:101fe4000148780063c0b300928220004e00900044
:101ff400de00900066fb0700004f78001e80fb00a7
:102004000000e8009e80fb008100e800828220003e
:10201400e2c0780001417800ce4890008180fb0046
:10202400c208de00814078008140710001417800df
:1020340081822000827078001e80fb000080e8000e
:10204400ce4890008180fb00c608dd000141780085
:1020540081822000827078002e009000f100400000
:102064001e80fb000080e8000001780080822000d0
:102074000000410063c0b30022c0b3003103070075
:1020840080842000104178001e80fb004300dd00a6
:102094002002b0008e80e80017c0b3000043eb00bc
:1020a4008242780001027800fe019000000178006d
:1020b4008182200010c9b3007b0a070010479800f2
:1020c4001e4090000080fa00000006000a00fa009a
:1020d4000e01780091c0b30010c0b3004d05070095
:1020e4000080fa00000006001400fa00600798005f
:1020f400614f9800724f9800030f9800245798007e
:10210400355798000000eb00000f78000000eb004a
:10211400100798000040eb006047980010c0b3001f
:102124007047980080c9b300004f98000040eb004e
:10213400104f980010c0b300fd07070082822000f2
:1021440021c0b30070c3b300320507000028ef00bc
:102154000040eb00604798001b0037006e40900081
:102164000080fb007500b90000007800ee009000cc
:10217400008040008040eb00014878006e409000f1
:102184000080fb007500b90000007800ee009000ac
:10219400008040008040eb00114098006e409000a9
:1021a4000080fb007500b90000007800ee0090008c
:1021b400008040008040eb00015098006e40900089
:1021c4000040e80060479800ee4090006e489000a0
:1021d40080cf5000e1ff39000000eb0010079800a9
:1021e4007e4890000081fb001000200001002000c8
:1021f400820178008301e9000300330000004000fd
:1022040081804800fbff3700200798006e4890004b
:102214000080fb009e0f5000360036002e00900018
:102224000000e900200798002e5090000080fb0079
:102234000000e9004f00de00004178001e00780035
:102244007500b90000007800ee00900000804000a6
:102254001e4a9000824178007e4990008e4890008a
:1022640018fc07000000fb000000e000140032002e
:10227400e10f500008003200e10f400013003a0063
:102284001e0090000000e8001007980090c9b300f9
:10229400004f98000e0037001e0fe8001e48900003
:1022a4000004e000030032000040eb00004f9800ff
:1022b4000700370090c9b300004f980004003700ae
:1022c40090c9b300004f98000100370000000000df
:1022d40010c0b300204f98002e0090000000e000d2
:1022e400050032002e4890000004e000c7ff3a00c9
:1022f40001003700000000007e4090000040e9002b
:10230400704798001e0090000000e0003500320085
:102314001e0090006101b8007e4890000082fb001e
:102324001000200001002000840278008502e900ea
:10233400030033000000400081804800fbff3700a9
:102344004e0add004200de0000007200c208de001a
:10235400800f5100818f5900060039007e4890009b
:102364000040e800704f9800a0c9b300004f9800e7
:102374001e0037001e0090006101b8007e489000e6
:102384000082fb001000200001002000840278007d
:102394008502e9000300330000004000818048000a
:1023a400fbff37004d0add004300de000000720031
:1023b400c308de00800f5100818f590006003100f0
:1023c4007e4890000040e900704f9800c0c9b300f7
:1023d400004f980005003700b0c9b300004f9800c3
:1023e400020037000040eb00704798006e489000f0
:1023f4000080fb009e0f5000070036007e409000d6
:102404000004e000040032000e0890000000010007
:102414000004e00070ff3a001e0078000000e000b5
:102424000c003a00f04080000000e900f040880011
:10243400f04080000000e00008003a000040eb009b
:102444003b070700cb060700a0002000f0408800ef
:1024540002003700a0002000f04088001e00780031
:102464000080fa00000006001400fa0060079800db
:10247400614f9800724f9800030f980024579800fa
:10248400355798000000eb00000f78000000eb00c7
:10249400100798000040eb006047980080c9b30023
:1024a400704798000040eb00104f980010c0b30034
:1024b400204f980010c0b3001d070700828220003f
:1024c40021c0b30070c3b300520407000028ef001a
:1024d40010c0b30071040700004f98008e489000ac
:1024e400f0ccb30000c06000004f98002e50900064
:1024f4000004e000040032000e4890000054a000e4
:10250400004f9800030037000e4890000044a000dc
:10251400004f98008e48900010c0b3008704070055
:102524000040eb00604798001b0037006e409000ad
:102534000080fb007500b90000007800ee009000f8
:10254400008040008040eb00014878006e4090001d
:102554000080fb007500b90000007800ee009000d8
:10256400008040008040eb00114098006e409000d5
:102574000080fb007500b90000007800ee009000b8
:10258400008040008040eb00015098006e409000b5
:102594000040e80060479800ee4090006e489000cc
:1025a40080cf5000e1ff39007e4890000081fb009d
:1025b4001000200001002000820178008301e9005e
:1025c400030033000000400081804800fbff370017
:1025d400200798006e4890000080fb009e0f50007a
:1025e400370036002e0090000000e9002007980014
:1025f4002e5090000080fb000000e9004f00de0038
:10260400004178001e0078007500b90000007800d1
:10261400ee009000008040001e4a90008241780045
:102624007e499000fe409000edfb07000000fb0097
:102634000000e00014003200e10f500008003200f6
:10264400e10f400013003a001e0090000000e80073
:102654001007980090c9b300704798000e00370027
:102664001e0fe8001e4890000004e0000300320042
:102674000040eb00704798000700370090c9b30092
:10268400704798000400370090c9b3007047980061
:1026940001003700000000000e0890000000010057
:1026a400204f98002e0090000000e000050032004a
:1026b4002e4890000004e000c6ff3a0001003700f5
:1026c4000000000010c0b300f4030700004f98009e
:1026d4008e489000f0ccb30000c06000004f98001a
:1026e4008e48900010c0b300140407001e00780048
:1026f4000000e00009003a00f04080000000e9001a
:10270400f0408800f04080000000e00005003a003e
:10271400a0002000f040880002003700a000200044
:10272400f04088001e0078000080fa0000000600d7
:102734000c00fa00500798005e009000d040900012
:10274400014f78007084200011c0b3000148780064
:102754005e0090000184200006000900b058780053
:102764007000b1001e407800e34f500002003600b4
:102774000040eb00004f78002084200010407800d7
:102784000004e0000400320020842000104078009f
:10279400e14f500003003a003084200011c0b30020
:1027a400014878005e009000104090000080fb001b
:1027b400e80f50006e003200e80f500005003c00a6
:1027c4000000e000b2003200e60f50008c0032003e
:1027d400f8003700ec0f50001d003200ef0f5000de
:1027e40003003200e90f50003d003200f1003700d1
:1027f40000c2b3001047980000cfb30020479800f0
:1028040010c0b30030479800d0c4b30040479800cc
:1028140030c0b3005047980020c0b3006047980010
:1028240010c0b30070479800208420001040780046
:10283400e14f50000300360040c0b300004f980041
:10284400a700370070c0b300004f9800a400370001
:1028540000c2b3001047980000ccb3002047980092
:1028640000842000104078000004e00008003a00d2
:10287400708420008040eb00014878000040eb00a9
:1028840030479800a0cfb3004047980004003700b9
:1028940020c0b30030479800b0c9b3004047980047
:1028a40040c0b3005047980030c0b3006047980060
:1028b40020c0b300704798002084200010407800a6
:1028c400e14f50000300360040c2b300004f9800af
:1028d4008300370070c2b300004f980080003700b7
:1028e40000c2b3001047980000c9b3002047980005
:1028f40000842000104078000004e00008003a0042
:10290400708420008040eb000148780010c0b300c0
:102914003047980090c3b300404798000400370044
:1029240030c0b3003047980010c4b300404798004b
:1029340050c0b3005047980050c0b300604798009f
:1029440040c0b300704798002084200010407800f5
:10295400e14f50000300360040c3b300004f98001d
:102964005f00370070c3b300004f98005c0037006d
:1029740000c2b3001047980000c8b3002047980075
:1029840000842000104078000004e00008003a00b1
:10299400708420008040eb000148780010c0b30030
:1029a4003047980070c7b3004047980004003700d0
:1029b40030c0b3003047980080ceb3004047980041
:1029c40060c0b3005047980050c0b30060479800ff
:1029d40050c0b30070479800208420001040780055
:1029e400e14f50000300360040c3b300004f98008d
:1029f4003b00370070c3b300004f98003800370025
:102a040000c2b3001047980000c6b30020479800e6
:102a14000084200010407800e14f500008003a0084
:102a2400708420008040eb000148780010c0b3009f
:102a34003047980040cfb300404798000400370067
:102a440050c0b3003047980050c3b30040479800cb
:102a540080c0b3005047980050c0b300604798004e
:102a640080c0b30070479800208420001040780094
:102a74000004e00003003200f0c3b300004f9800ec
:102a840017003700f0cbb300004f98001400370054
:102a940000c3b300104798000040eb0020479800a3
:102aa40070c0b3003047980000cdb3004047980091
:102ab40000c2b30050479800c0c0b30060479800fc
:102ac40040c2b3007047980000c0eb00004f98006c
:102ad400708420008040eb00014878000000000072
:102ae4009e409000008420001040780000c07000d8
:102af400104798002e4090008040780000cfb3002b
:102b040080c06000208420001040780080c07000e5
:102b140030842000104078000080fb004300dd007a
:102b24000040780000c0700020479800ee409000fc
:102b340080842000014878000e00e80082c0b300c1
:102b44008000780020c0b300e5020700c0c3b300d2
:102b5400d2020700104798001e4090008040780081
:102b6400c0cfb30080c060005084200010407800c3
:102b740000c07000104798001e409000804078000c
:102b8400c0c3b300ed02070010c0b300c3020700c6
:102b9400104798009e40900080cfb30000c06000b2
:102ba400104798001e4090008040780010c0b30089
:102bb400e20207000080fa00000006000200fa00aa
:102bc400000f78001e007800d9fe07000080fa008c
:102bd400000006000000fa000080fa000000060071
:102be4001200fa00500798006107980072079800d5
:102bf400030f9800640f47000e0890008040eb001c
:102c0400014878001e0078008040eb0001487800fd
:102c14001e00780010407800804078005e0090002c
:102c2400004078000074a10000c07000804078006b
:102c34001e007800014878005e009000ee009000cd
:102c44004909dd004700de0000007100c708de000e
:102c540050079800610798001e0fe8000e089000c6
:102c6400104078008040e8000e0890000148780089
:102c74001e00780001c8b300014878005e0090008f
:102c8400ee009000e00f5000e08f5800e0ff3a00a3
:102c94000000eb00100798000a0037001e0fe9003f
:102ca4001e009000fe009000008040009e0078000e
:102cb40091407800014878001e0090000000e80070
:102cc400100798000e089000104078008080fb00e8
:102cd4001e009000808f5000f0ff3c000080fa003e
:102ce400000006000200fa00004f78000ac8bf0086
:102cf4009e4f5000100032000ac8bf000080fb0045
:102d0400e10f500002003a00b2ff0700000000008b
:102d14001e80fb00e10f500003003a00e0b12000e8
:102d2400a6ff0700000000001e417800a1802000db
:102d34008248780001003700000000000080fa009b
:102d4400000006000a00fa002007980031079800e6
:102d5400024f9800134f98001e4890000080fb001b
:102d6400110020000008dd00004078000040e90068
:102d7400204798001e4890000080fb006800100067
:102d8400110020000008dd00004078000040e90048
:102d9400304798000000eb00000f78004d0037002a
:102da4001e007800ae009000008040009e00780075
:102db4002e0190008100410091407800014178008b
:102dc400ae40900081c0ea00814061000148780073
:102dd4001e007800ae009000008040009e00780045
:102de4002e0190008100410091407800014178005b
:102df4009e007800be0190008180410091407800df
:102e04008181fb009e4890008180fb00e8801000d7
:102e14008198de0081417800ae40900081c061005d
:102e240081407100014878001e0078000000e8002d
:102e3400ae009000008040009e0078008100e80011
:102e44002e019000810041009140780001417800fa
:102e5400be4090008180fb008181ea009e48900082
:102e64008180fb008118dd00814078008140610091
:102e7400014878001e0078000000e800ae009000d1
:102e8400008040009e0078008100e8002e01900040
:102e94008100410091407800014178009e00780053
:102ea400be0190008180410091417800be409000b5
:102eb40081c061008181fb009e4890008180fb00fd
:102ec4008118dd008140780081407100014878005c
:102ed4001e0fe8000e4890000080fb009e0f50007b
:102ee400afff3c000080fa00000006000000fa007a
:102ef40010c0b3000080fa00000006000200fa00cf
:102f04000000eb00000f7800080037009e007800f6
:102f1400a00220000088b90080007800a08420006e
:102f240000804000bdf707001e0fe800a0408000ad
:102f34009e007800808f5000f4ff35000080fa0076
:102f4400000006000200fa004908070010c0b300a0
:102f54007704070000e8230001002000600a07004e
:102f64000040eb00004f78001e4078000004e000b1
:102f740036003a0010c0b3005aff070008c8bf006b
:102f84008040780090c2b300ec01070008c8bf007d
:102f9400e84f500002003a00a0cab30080010700c5
:102fa4001668ef00d5ff070006c8bf000004e00064
:102fb40011003a0007c8bf000080fb000000e900d0
:102fc4004f00de00004178008177210020c8bf0057
:102fd40015c0b300024278008101780000417800f6
:102fe400c1c0b300e08920003ffc07000040780026
:102ff40016e8b7001000370007c8bf000080fb00c8
:103004000000e9004f00de000041780081772100d4
:1030140020c8bf0015c0b3000242780081017800c7
:1030240000417800c1c0b300e08920000efd070014
:103034000040780016e8b70008c8bf00e84f500009
:1030440002003a00b0cab300550107001e417800df
:1030540091802000824878000040eb00340407008f
:10306400e907070016c8bf000080fa000000060048
:103074000600fa00000f7800110798002207980054
:103084001e007800604088001e0090007040880098
:103094002e009000804088000080fa0000000600a6
:1030a4000200fa00000f7800714080001e007800d2
:1030b400010001000080fa00000006000200fa008e
:1030c400000f7800814080001e007800010001009c
:1030d4000080fa00000006000600fa00000f7800e5
:1030e4001107980022079800634080002e01900089
:1030f4009e0090001e007800030001000080fa008a
:10310400000006000a00fa00000f7800214798002a
:10311400220798006347980074479800054f980069
:103124000e4890000004e00001003200ed02a90006
:103134002e4090000080fb000001eb00800078002e
:103144001e007800e4ff07006e4090000004e000d9
:10315400060032006e4090000080fb002e019000bb
:10316400800078000000eb00dbff07007e40900049
:103174000004e00001003200ed02a8000080fa0023
:10318400000006000800fa00000f780021479800ac
:103194002207980063479800ed02a9002e40900092
:1031a4000080fb000001eb00800078001e00780026
:1031b400c9ff07006e4090000080fb002e019000c4
:1031c400800078000000eb00c3ff0700ed02a800b8
:1031d4000080fa00000006000800fa0020079800aa
:1031e4003107980010c0b30003e8b7000a68ef0085
:1031f4000568ef000768ef0010c0b30006e8b700e9
:1032040060c0b30008e8b70080cdb30004e8b7009d
:103214006003070050c5b300004f7800a0cab30094
:103224001047980000c0eb002047980020c2b3006c
:103234003047980042c0b3008e00780030c1b3001c
:103244002701070042002000310320000e0078000f
:10325400c8f607000e01780041c0b30030c1b300c6
:10326400ec0007009e40780050c5b30080cf5000aa
:103274000b003a009e409000a0cab30080cf5000db
:1032840007003a002e409000e14f400004003a004d
:10329400be40900020c2b30080cf50000200320034
:1032a40010002000980037003a0307000e01780050
:1032b40041c0b30030c1b300d60007009e4078007f
:1032c40050c5b30080cf50000b0032009e409000e8
:1032d400a0cab30080cf5000070032002e409000f7
:1032e400e14f400004003200be40900020c2b30011
:1032f40080cf500002003a002000200082003700f6
:1033040071408000100020000100010001c2b300e0
:1033140050c3b3000901070031c0b300d0c3b300e8
:103324000601070000c9b3009d00070042c0b300b6
:103334008e007800f0c3b300e900070042c0b30078
:103344008e007800f0c3b300e500070042c0b3006c
:103354008e007800f0c3b300e100070042c0b30060
:103364008e007800f0c3b300dd00070042c0b30054
:103374008e007800f0c3b300d900070042c0b30048
:103384008e007800f0c3b300d500070000022000cf
:10339400340107000140800000022000008060002a
:1033a4000000e00002003a00300020005600370020
:1033b4000028ef00f702070040c8b30078000700b8
:1033c40021c0b3000040eb00dc0007008040eb00ac
:1033d40010c0b300d900070001c3b30020c0b3007c
:1033e400d6000700f1c3b300b0c0b300d300070098
:1033f40021c2b300c0c0b300d000070001c8b300ad
:10340400d0c0b300cd0007008040eb00e0c0b300a3
:10341400ca0007008040eb0000c1b300c7000700ea
:1034240051c3b30020c1b300c400070000c2b300fd
:10343400004f7800d0cdb300104798000040eb0057
:103444002047980032c0b3008e00780030c1b3002a
:10345400a300070011c4b30070c1b300b700070094
:1034640001cab30080c1b300b400070061c7b30050
:1034740090c1b300b100070080c0eb0050c3b3009b
:10348400ae00070071c0b30060c3b300ab00070017
:1034940001c1b300a0c3b300a80007002e0190002f
:1034a400be01900070c1b3005a01070090cab30076
:1034b400cf0307007140800040012000010001009b
:1034c400a0c2b30075000700004f78001e407800ca
:1034d4000080fb00630060000000e00002003a008e
:1034e40040002000080037001e4078000080fb00e8
:1034f400620060000000e00002003a00500020007a
:10350400010037000000eb000080fa000000060014
:103514000200fa001ac8bf000004e00002003200f2
:10352400e0012000e5fe070023c0b3000e0178008f
:1035340011c0b300c081200012ff07001e407800b4
:103544008080fb001e4090000080fb004800dd00ee
:1035540001007000800078000040800001007000cd
:10356400004088008680a9000080fa000000060060
:103574000200fa0030c3b30048000700004f78008f
:1035840000c6b3009e40780080cf50000100360092
:103594001a68ef001e4078000080fa000000060060
:1035a4000200fa00004f78009680a90015c0b3000d
:1035b40014c0b3008041eb000001eb0011c0b30064
:1035c4000e007800cffe07009680a8000080fa0065
:1035d400000006000400fa002047980031479800d4
:1035e400ae409000014f7800be4090001147980013
:1035f40015c0b3000042eb008041eb000001eb007a
:1036040021c0b3000e007800befe07000080fa005f
:10361400000006000400fa00004f780011479800eb
:10362400120798009680a9001e4078000064a0004c
:10363400004f78001e40900015c0b30024c0b300b2
:10364400804178001e01900011c0b3000e00780084
:10365400acfe07009680a8000080fa000000060077
:103664000400fa00004f7800110798009680a90022
:103674001e40780015c0b30024c0b3008041780018
:103684001e01900011c0b300b08120009dfe070010
:103694009680a8000080fa00000006000400fa00ea
:1036a400204798009680a9002e4090000064a00056
:1036b400204798000e80e80015c0b30014c0b30082
:1036c40013c0b3000e01780011c0b3008dfe0700d3
:1036d4009680a8001e4078000080fa0000000600d2
:1036e4000600fa00004f780011079800424798003e
:1036f4009680a90015c0b3000042eb008041eb00a6
:103704000001eb0011c0b3000e0078007dfe07003d
:103714004e4090008042eb0024c0b3008041eb0097
:103724000001eb00804078001e00900075fe070049
:103734009680a8000080fa00000006000400fa0049
:103744002047980031479800ae409000014f780020
:10375400be409000114798009680a90015c0b300a0
:1037640014c0b3008041eb000001eb0021c0b300a2
:103774000e00780063fe07009680a8000080fa001f
:10378400000006000800fa00000f780021479800a6
:103794003247980023079800644798009680a90050
:1037a40015c0b3000042eb008041eb000001eb00c8
:1037b400ae4090001e00780052fe070063004700f0
:1037c4008042eb000042eb008041eb000001eb0083
:1037d40011c0b3004bfe07008042eb0024c0b300cd
:1037e4008041eb000001eb00ee4090002e009000c1
:1037f40044fe07009680a8000080fa00000006003e
:103804000400fa00000f7800110798000600370042
:103814007140800010002000010001001e00900093
:103824000000e90010079800004080001e006000be
:103834000000e00003003a001e0090000000e000d9
:10384400f3ff3a001e0090000000e00003003a007d
:10385400c801070010002000004088000080fa0022
:10386400000006000400fa00100798000000eb00b6
:10387400000f7800030037001e0fe800200320002b
:103884000efe0700014080001e00900000806000d2
:103894000000e00004003a00703e20009e00780022
:1038a400808f5000f4ff3600703e20009e007800a8
:1038b400808f500003003600ae0107001000200086
:1038c400004088000080fa00000006000400fa00ae
:1038d4002047980030c0b30070ff0700004f780005
:1038e4009e4078006fcf60002e4090000080fb0067
:1038f4004400dd00804078001e40780000c0700065
:10390400004f78009e40780030c0b3008bff070062
:103914000080fa00000006000600fa0090c2b3001e
:103924005eff070020479800ae409000f0ccb30043
:1039340000c06000204798002e4090000044a00082
:1039440020479800ae40900090c2b3007bff070070
:1039540010c1b30051ff0700204798002e4090008b
:103964000074a00020479800ae40900010c1b3003e
:1039740072ff070071408000100020000100010068
:10398400c0c2b30045ff070067406000304798009d
:103994002e4090000074a10020479800ae40900093
:1039a40010c1b30065ff07003e409000e14f500096
:1039b400030036003e409000e54f500013003600ef
:1039c4000000eb00000f78001e0fe80040cab300af
:1039d400f3fe070071408000a000200001000100f8
:1039e400a0c2b3002dff0700404798004e4090004e
:1039f4000080fb00620060000000e00003003a0069
:103a04001e007800e20f5000efff36000080fa003d
:103a1400000006001c00fa0060579800420f98004e
:103a2400530f98000000eb00000f78000040eb00fb
:103a34001aff0700004f98000e4890000004a100f0
:103a4400804078000040eb003cff07006e5090007f
:103a5400f74f500028003a00720047000001780038
:103a640031c0b30070c1b300eafe07002e509000cd
:103a74008080fb000007200000806000010520001a
:103a8400810f50001100320001052000810f500009
:103a940004003c0001042000810f500008003200a3
:103aa4001300370001062000810f50000a00320085
:103ab40001072000810f50000a0032000c0037007b
:103ac400d0072000000f78000b00370040062000cc
:103ad400000f78000800370020032000000f780052
:103ae4000500370090012000000f78000200370025
:103af4000000eb00000f78001e0078008000eb004f
:103b04000001be004e089000de08900035f3070067
:103b140050079800610798005e009000ee00900046
:103b24004a09dd004600de0000007100c608de0020
:103b340080007800f0ff23000080600010079800e8
:103b44001e009000c600dd001e00900000804000b2
:103b5400300798003e0090006101b8005e009000bc
:103b6400ee009000800f5100818f59000600310053
:103b74003e0090001004b000300798001e00900032
:103b84000000e800100798005e009000be0090005e
:103b940000805000300798009e0090002107980094
:103ba400be00900000022000808f50000600360006
:103bb4001e0090000000e900100798003e009000ed
:103bc4001002b100300798003e009000ff0f500033
:103bd400060036002e0090000000e900200798003f
:103be4003e0090000002b100300798003e009000b3
:103bf400ff0f5000eaff3e003e009000f00f50001f
:103c0400060036003e0090000002b1003007980024
:103c14002e0090000000e900200798009e0090000c
:103c24003e0090000080500070079800ae009000a5
:103c34003e00900000804000000f98006e509000fd
:103c4400f74f50001d003a002e509000804078003d
:103c540000cfb30080c060000e0890004600de0074
:103c6400004078006f40600000c07000205798004a
:103c74000e08900080407800200020000008dd003d
:103c8400804078007e0090004800de00004078000c
:103c94006340600000c07000305798007e009000c0
:103ca40000407800405798007200470032c0b300cb
:103cb4008000780070c1b30089fe070016ff07007a
:103cc4008e4890000040eb009cfe07000080fa0044
:103cd400000006000400fa00881f780060168000c7
:103ce400640060000000e0004d0032009680a900ee
:103cf4008680a9000040eb0068fe0700a1ad20000b
:103d040080487800a0ad200090407800c0cfb30078
:103d140000c06000804078000040eb0087fe070090
:103d240010c0b300004f7800090037001e4078002f
:103d3400ef4f5000050032001e84fb001e40780047
:103d440056fe0700a1ad200080707c001e4fe800e5
:103d54001e407800fc4f5000f4ff360020c2b30030
:103d64004efe070071af20008048780090c2b30077
:103d74004afe070081af20008048780050c3b3009a
:103d840046fe070091af20008048780060c3b3006e
:103d940042fe0700a1af200080487800c0c3b300f2
:103da4003efe0700b1af200080487800a0c3b300f6
:103db4003afe0700c1af200080487800401f200071
:103dc40010079800030037007140800010002000a5
:103dd400010001001e00900000f0a7000000ea00ae
:103de4000000ea004f00de00004078009e009000d2
:103df4008100e900110798000004e0000600320089
:103e0400a0c2b30025fe07000080fb006400600030
:103e14000000e000ecff3a00cc42a90001003700aa
:103e2400000000004f0478000080fa000000060043
:103e34000400fa0060168000640060000000e000e6
:103e440049003a00cc42a800a00020009bfc0700d7
:103e540093000700a0ad200090407800c0cfb300cd
:103e640000c06000804078000040eb0033fe070093
:103e740010c0b300004f78000a0037001e407800dd
:103e8400ef4f5000060032001e80fb00a1ad200061
:103e940061407800804078001e40780027fe0700cb
:103ea4001e4fe8001e407800fc4f5000f3ff360020
:103eb40070af2000104078008040780020c2b3002a
:103ec4001efe070080af200010407800804078007c
:103ed40090c2b30019fe070090af20001040780094
:103ee4008040780050c3b30014fe0700a0af200048
:103ef400104078008040780060c3b3000ffe0700d4
:103f0400b0af20001040780080407800c0c3b300f8
:103f14000afe0700c0af20009040780000cfb30035
:103f240000c0600080407800a0c3b30003fe070017
:103f3400c012200061fc070077fe0700a0ad20003e
:103f440010407800804078000040eb00fbfd070043
:103f5400a0c2b300d1fd0700104798008680a900d5
:103f64009680a80001003700000000000080fa00dd
:103f7400000006000000fa0056ff070071408000b0
:103f84001000200001000100a9ff07000080fa00d2
:103f9400000006000000fa00cc42a9007140800035
:103fa4001000200001000100cc42a800a000200065
:103fb40042fc07003a0007000080fa0000000600f7
:103fc4000200fa009aff07000040eb00b3fd07006f
:103fd400004f78001e74a1009e4078000040eb0062
:103fe400d6fd07000040eb00510007000080fa00f6
:103ff400000006000000fa000080fa00000006003d
:104004000200fa008aff07000040eb00a3fd07004e
:10401400004f78001e74a1009e4078000040eb0021
:10402400c6fd070010c0b300410007000080fa007d
:10403400000006000000fa000080fa0000000600fc
:104044000200fa007aff07000040eb003800070086
:104054000040eb0091fd0700004f78001e74a000a3
:104064009e4078000040eb00b4fd07000080fa0099
:10407400000006000200fa006dff07000040eb009c
:1040840086fd0700004f78001e74a1009e40780052
:104094000040eb00a9fd07000080fa0000000600c4
:1040a4000600fa000000eb00000f780030fd070066
:1040b4000046b20020479800a0c2b30077fd070075
:1040c400304798001e0fe800ae40900000c6b300d1
:1040d40080cf500005003a003e4090000080fb0075
:1040e400610060000000e00004003a00a00f20001e
:1040f4009e007800808f5000ecff3600401f2000a7
:10410400eefb0700640047000001780021c0b30003
:1041140070c3b3003ffd07000028ef00714080002a
:1041240020002000010001000080fa0000000600c9
:104134000600fa00404798000040eb0057fd0700d6
:10414400204798004e4090000004e0000e0032002a
:104154002e4090000080fb0063006000e30f5000dd
:10416400300032002e4090003040b30020479800c9
:10417400c0122000d1fb0700ae4090000040eb00cd
:104184006efd0700200037002e4090000080fb00e9
:1041940063006000e30f500024003a00ae4090003a
:1041a400c0cfb30000c0600020479800ae4090002c
:1041b4000040eb0061fd0700401f2000000f780065
:1041c4000200370040062000bcfb07001e007800f8
:1041d40000f0a7000000ea000000ea004f00de0043
:1041e400004078001e0fe9000004e00006003200e1
:1041f400a0c2b30029fd07000080fb00640060003a
:104204000000e000efff3a004e4090000004e000a0
:1042140007003200714080006000200001000100ae
:104224000300370000000000010037000000000018
:104234000080fa00000006000200fa0060c9b30022
:10424400d7fc070070c9b300d5fc0700401f20004d
:104254009afb0700b0c2b30010fd0700004f7800be
:1042640060c9b300cefc07001e4078000080fa004d
:10427400000006000000fa00a0c0b30007fd07001c
:1042840002e8b7000080fa00000006000000fa000f
:1042940002c8bf0080407800a0c0b30027fd07001b
:1042a4000080fa00000006000400fa000040eb0061
:1042b400004f7800d0c0b300f8fc07001047980006
:1042c400a0c0b300f5fc0700204798001e409000f2
:1042d4000080fb00640060000000e0001600320073
:1042e4009e40780090cab30000c04000004f7800a0
:1042f4002e4090000080fb0063006000e30f50003c
:1043040004003a001e40780066405000004f7800d8
:104314001e0037002e4090000080fb006300600008
:104324000000e00019003a001e407800664040009a
:10433400004f7800150037009e40780090cab30003
:1043440000c04000004f78002e4090000080fb0029
:1043540061006000004078000004e00003003200c7
:104364001e40780068404000004f78002e409000c6
:104374000080fb00620060000000e00003003200e7
:104384001e4078006a405000004f78002e40900094
:104394000080fb004600de00004078006300b900a6
:1043a40000007800304798002e4090008080fb0089
:1043b40000022000008060000000e00005003200e0
:1043c4009e4078003e40900000c05000004f7800ae
:1043d400040037009e4078003e40900000c040003a
:1043e400004f78001e4078000080fa0000000600ac
:1043f4000600fa0040479800a0c0b300a7fc0700dd
:10440400004f7800d0c0b300a4fc070020479800f8
:104414009e4078007ccf60002e4090000080fb001e
:10442400640060000000e000150032004e4090007f
:104434007045b000404798004e409000e54f500052
:10444400040034004e4090006640500040479800fd
:104454001c0037004e409000e54f400006003d0030
:104464004e40900066404000404798009e407800cf
:1044740063cf7000130037001e04a0001100370042
:104484004e4090007045b000404798004e40900068
:10449400e74f5000040034004e4090006840500044
:1044a400404798001e04a0004e409000e94f400091
:1044b40004003d004e4090006a4040004047980090
:1044c4001e14a0004e4090000004e00017003400c9
:1044d4001e54a1004e4090000001fb0060552500d1
:1044e4000090b9004f91de00028050000040780037
:1044f400104798001e409000e34f50000200360021
:1045040030c0b300104798009e409000d00f2000a8
:104514000088b90000007800804078004e40900088
:1045240000c0400040479800150037001e54a0000a
:104534004e4090000000fb00620110006055250011
:104544000090b9004f91de0002805000104798009f
:104554001e409000e34f50000200360030c0b3000c
:10456400104798001e4090006300b90000007800d6
:10457400804078004e40900000c0400040479800c2
:104584001e4090000080fb004600dd008040780063
:104594001e40780000c07000004f78009e407800f4
:1045a400a0c0b30065fc07004e4090000080fa00f4
:1045b400000006001000fa005007980061079800f8
:1045c400720798005e0090000000d100000f780090
:1045d4001e0078000000e00002003a0010002000f5
:1045e400000f78000040eb002cfc070030479800d7
:1045f40021c0b3000040eb0050fc070090c2b300a0
:1046040026fc070040479800ce40900000cfb3003e
:1046140000c0600040479800ce40900090c2b300b4
:1046240046fc070090c0b3001cfc070050479800ec
:1046340080c0eb0090c0b30040fc07003e409000f7
:104644000080fb00620060000000e00003003a000c
:1046540071408000a0002000010001000040eb0038
:104664002047980015003700f3fe070060479800c4
:104674006e409000ef4060006e4090000080fb00b0
:104684004400de000040780000c0400070479800fd
:104694007e4090008080fb002e4090000000fb00d4
:1046a400808f500005003400fe40900021479800a0
:1046b4006e009000ee409000014878001e007800e3
:1046c40000f0a7000000ea000000ea004f00de004e
:1046d400004078001e0fe9000004e000e2ff3a0009
:1046e4002e4090000004e00007003a007e00900095
:1046f40001c8b300014878006e0090008040eb00d0
:1047040001487800540037002e4090000000fb0060
:104714004380de0000407800804078002e40900006
:1047240000c0400020479800d0c0b300dbfb070066
:1047340064406000004f9800a0c0b300d7fb07009e
:10474400104f98000e4890000004e0000e00320064
:10475400ae40900050cbb30000c04000204798000a
:104764001e4890000080fb0061006000004078005b
:104774000004e000190032002e4090006540400023
:104784002047980015003700ae40900090cbb3004e
:1047940000c04000204798001e4890000080fb00a5
:1047a400620060000000e000030032002e40900030
:1047b4006a405000204798001e4890000080fb008b
:1047c40061006000004078000004e0000300320053
:1047d4002e40900068404000204798001e489000fa
:1047e4008080fb0000022000008060000000e000e8
:1047f4000c0032001e4890000080fb004600de00e2
:1048040080407800d00f20000088b90000007800b4
:10481400804078002e40900000c04000204798005f
:104824000a0037001e4890000080fb004600de00ae
:10483400004078006300b9000000780080407800f0
:104844002e40900000c04000204798007e00900059
:10485400ae40900001487800de40900090c0b30064
:10486400b6fb0700be4090000040eb00b3fb07001e
:104874003e4090000080fb00610060000040780032
:104884000004e0000300320071408000200020009a
:10489400010001000080fa00000006000200fa0096
:1048a40070c8b3003efb07004001200003fa070074
:1048b400d0c2b30079fb0700004f78001e40780097
:1048c4000004e00003003d001e4078000074a100d5
:1048d400030037001e4078000074a1000040ea0085
:1048e400004f78001e4078000080fa0000000600a7
:1048f4000600fa000040eb0068fb0700004f780058
:1049040000c1b30065fb0700104798001e409000eb
:10491400f043b2008040780000c1b30087fb070079
:104924009e40780063c07000804078000040eb0037
:1049340082fb070060c9b30019fb070070c9b3000c
:1049440017fb070011c0b30000c1b3007bfb0700d5
:10495400c0122000d9f90700d0ff07000000fb00b7
:104964001007980021c0b30000c1b30073fb070017
:10497400c0122000d1f90700c8ff07004047980083
:1049840060c9b30006fb07009e009000f00f2000f2
:10499400808060004e4090000000fb004800dd0075
:1049a40001007000100798009e40900000c1b30001
:1049b40062fb07009e4078000040eb005ffb0700ad
:1049c4001e0090000080fa00000006000600fa00b5
:1049d4000040eb0031fb0700004f780000c1b3003a
:1049e4002efb0700104798001e409000f043b200d1
:1049f4008040780000c1b30050fb07009e4078005f
:104a0400c0cfb30000c060000014a0008040780054
:104a14000040eb0049fb070060c9b300e0fa07005f
:104a240070c9b300defa070011c0b30000c1b300bf
:104a340042fb0700c0122000a0f9070097ff0700ff
:104a44002047980021c0b30000c1b3003bfb07001e
:104a5400c012200099f9070090ff07003047980022
:104a64002e4090008000fb00f00f2000808060004a
:104a74003e4090000000fb004800dd000100700093
:104a8400200798009e40900000c1b3002bfb070054
:104a94009e4078000040eb0028fb07002e009000a9
:104aa4000080fa00000006001a00fa00404f980047
:104ab40071079800020f9800130f9800240f9800b4
:104ac4006557980076579800075f98002e08900065
:104ad40010007800670040004300de00004f7800bb
:104ae4000040eb00104798000000eb00100798000e
:104af4000040eb00404798002e0890000000e000c2
:104b0400080032002e0890009000780011079800e9
:104b14002e0890008000eb000108780010c0b3005c
:104b2400104798001e0890000000e00003003a00bf
:104b34001e0090000000e00003003200ee509000e0
:104b440070c0b300fdfa07001e0090000000e000f2
:104b54000e0032001e00900000407800304f980094
:104b64001e0090004800de00004078006f406000a6
:104b74000044a000204f98006a00470022c0b30000
:104b840080007800a0c3b300d5fa07000e08900097
:104b94000000e000510032000e0890006700400061
:104ba4004300de00504798005e4190006247980041
:104bb4006e409000f84f50000200360080c1b300f0
:104bc400604798000e08900000407800674060003d
:104bd40000404000304f9800be4890000e089000fe
:104be4004300de0000417800400020000010dd009a
:104bf40000c07000304f98000e0890004700de009f
:104c040000407800204f98006a00470022c0b3009b
:104c140080007800d0c3b300b1fa07006c004700ed
:104c24006e429000fe019000f2c3b30011c0b300c5
:104c3400d4fa0700de4090006e40900000c050009f
:104c4400504798006e4090000080fb00fe009000ea
:104c540000804000700798001a003700de40900082
:104c6400614798006e409000f04f500002003600fb
:104c740020c1b3006047980000022000f9fa070041
:104c8400004080000050a100004088006e40900069
:104c940000417800fe009000f0c3b30090fa0700d2
:104ca400de4090006e40900000c0500050479800d5
:104cb4006e4090000080fb00fe00900000804000e9
:104cc400700798005e4090000004e000e3ff3a00a3
:104cd4004e48900012e8b700070037004e48900095
:104ce4000004e000040032004e4890002cfa070053
:104cf4004e48900012e8b70012c8bf000004e0005c
:104d0400090032000e5890000004e0000600320052
:104d140000082000d3fa070001408000f0f52f00be
:104d240000806000004088002e0890000000e00031
:104d3400110032001e0090000000e0000e003a0056
:104d44001e0890000000e0000b003a0060c9b300a8
:104d540013fa07000040eb00304f98000040eb00ce
:104d6400204f98006a00470022c0b30080007800fa
:104d7400a0c3b3005afa07001e0890000000e00028
:104d84009e0032006e509000e14f400004003a0053
:104d9400e10120003007200099fa070029003700bc
:104da40030072000affa07002600370020c1b30007
:104db400704798001e4090000004e0000500320097
:104dc4007e4090009e4f5000020036001e41780045
:104dd400724798007e4090009e08900020fa0700d9
:104de4007e4090000080fb009e0890000080400000
:104df400100f98009e4078007e40900000cf500035
:104e0400ce4090007e40900000c040004047980093
:104e1400004080000050a100004088001e40900027
:104e24000004e000050032001e4078000004e000a9
:104e340002003a00c0cdb3007100370030072000f3
:104e440088fa070001408000000220000080600012
:104e54000000e00005003200014080000004200052
:104e6400008060000000e000d0ff32003005200028
:104e74007cfa070001408000410798000028ef00f9
:104e84007e5090000004e000090032004e009000c3
:104e9400710060000000e00005003a007e509000c0
:104ea400bff90700fe5090002281200001497800dc
:104eb40090c3b300f9f907007f4060007047980081
:104ec4001e4090000004e000080032007e40900084
:104ed4009e4f5000050036001e417800724798002e
:104ee4004e0090000090a000400798007e40900083
:104ef4000004e000030032007e4090009e08900011
:104f0400d7f907009e4078007e40900000cf500003
:104f1400ce4090007e40900000c040004047980082
:104f24002e0890000000e000060032004e40900081
:104f34000080fb004300dd00800078002e08900014
:104f440001087800ce0090009021200000806000cd
:104f54000000e000290032004e0090006100600073
:104f6400004078000004e00002003200f0cdb300fd
:104f7400230037004e009000680060000000e0004d
:104f840007003200218120009140780010c9b3004d
:104f940080cf500002003a00e0cdb3001800370083
:104fa400ce00900000202000008060000000e0009f
:104fb40002003200c0cdb30011003700ce009000d3
:104fc40000102000008060000000e00002003200b9
:104fd400d0cdb3000a003700ce009000004020007e
:104fe400008060000000e00002003200b0cdb30099
:104ff4000300370000c0eb00010037000040eb0065
:105004000080fa00000006000000fa0003c8bf0098
:105014000080fb00e10f50000c003200e10f500053
:1050240003003c000000e000060032000d003700e1
:10503400e20f500007003200e30f50000700320077
:105044000800370023fb070007003700dcfb0700dc
:1050540005003700eafb070003003700f8fb0700f0
:10506400010037001bfb07000080fa000000060067
:105074000000fa0003c8bf000080fb00e10f5000ed
:105084000c003200e10f500003003c000000e0007f
:10509400060032000d003700e20f50000700320016
:1050a400e30f5000070032000800370060fb0700e0
:1050b40007003700cffb070005003700ddfb0700c2
:1050c40003003700ebfb07000100370058fb070023
:1050d4000080fa00000006000000fa0030032000ff
:1050e4001012880010002000201288000000280000
:1050f400001288000080fa00000006000400fa0094
:10510400000f7800110798000000000000128000d2
:10511400620060000000e000fcff3a001e0078001e
:10512400104078000080fb0040128800000000005e
:105134000112800000022000008060000000e000f6
:10514400fbff3a0040128000804078001e0090006f
:10515400014878000080fa00000006001800fa00f8
:10516400100f9800210f9800320f98000000eb00f8
:10517400000f78000000eb00100798000000eb001f
:10518400700798000000eb00000f9800100020004a
:10519400600798001e0890000000e00005003a0037
:1051a4000000eb00500798007000470020079800ab
:1051b40004003700ee009000510798009e0890000c
:1051c400210798003e0890000000e00005003a0026
:1051d4000000eb00400798006e004700300798007d
:1051e40005003700ee00900041079800be089000cb
:1051f4003107980000000000001280006200600087
:105204000000e000fcff3a001d003700001280009f
:10521400620060000000e00009003a002e009000e7
:10522400104078000080fb0040128800ae0090001f
:105234005e00900000804000200798001e0fe800e8
:105244000112800000022000008060000000e000e5
:105254000b003a0040128000804078003e0090002d
:1052640001487800be0090004e009000008040008d
:10527400300798001e0090000000e8001007980016
:105284002e0890009e007800808f5000dfff3900c8
:10529400100037000112800000022000008060002e
:1052a4000000e0000b003a004012800080407800cb
:1052b4003e00900001487800be0090004e0090002f
:1052c40000804000300798001e0090000000e800b5
:1052d400100798009e0090002e089000808f5000c8
:1052e400ecff39001e0078000080fa000000060080
:1052f4000400fa00204798000e80e8008e00780031
:105304007eff07001e4078000080fa0000000600bf
:105314000600fa00000f7800110798002207980091
:105324002e0190009e0090001e0078008bff070065
:105334000080fa00000006000000fa00111280004c
:1053440000402000008060000000e00002003a00fd
:105354000000eb0001003700100020000080fa007c
:10536400000006000000fa00001280000080fa002d
:10537400000006000000fa00c422ef0000802b00a9
:1053840060168800d422ef00dc22ef00e422ef0054
:105394000000230060178800f422ef00f06f2c0057
